:020000040800F2
:10000000680B00209D010008771C0008751C000883
:1000100000000000000000000000000000000000E0
:100020000000000000000000000000007B1C000831
:100030000000000000000000791C00087D1C000882
:10004000AF010008AF010008AF010008AF010008D0
:10005000AF010008AF010008AF010008AF010008C0
:10006000AF010008AF010008AF010008AF010008B0
:10007000AF010008AF010008AF010008AF010008A0
:10008000AF010008AF010008AF010008AF01000890
:10009000AF010008891C0008AF010008AF0100088B
:1000A000AF010008AF010008AF010008AF01000870
:1000B000AF010008AF010008AF010008AF01000860
:1000C00000F002F800F03EF80CA030C80838241800
:1000D0002D18671EA246AB4654465D46AC4201D180
:1000E00000F030F87E460F3EB6460FCC0126334274
:1000F00000D0FB1A3343A246AB461847E047000046
:1001000000480000103A02D378C878C1FAD85207E4
:1001100001D330C830C101D504680C6070470000BD
:100120000023002400250026103A01D378C1FBD813
:10013000520700D330C100D50B6070471FB51FBDFB
:1001400010B510BD00F0EEF91146FFF7F7FF03F010
:10015000BDFD00F006FA03B4FFF7F2FF03BC00F0A8
:100160000DFA000070B505460C46164602E00FCCAD
:100170000FC5103E102EFAD2082E02D303CC03C5B1
:10018000083E042E07D301CC01C5361F03E02178B9
:100190002970641C6D1C761EF9D270BD074880471B
:1001A00007480047FEE7FEE7FEE7FEE7FEE7FEE75B
:1001B00004480549054A064B70470000851C0008A5
:1001C000C100000868050020680B002068070020B7
:1001D000680700204343514330B55C18010C130CF1
:1001E0000D4692B25D4380B251432C1905465543EA
:1001F0000A0C09044D1962415843010C00044019CE
:10020000514130BDF8B5042A2CD3830712D00B78A6
:10021000491C0370401C521E83070BD00B78491CED
:100220000370401C521E830704D00B78491C0370D6
:10023000401C521E8B079B0F05D0C91ADF002023DC
:10024000DE1B08C90AE0FFF78DFFF8BD1D4608C98F
:10025000FD401C46B4402C4310C0121F042AF5D2A6
:10026000F308C91A521EF0D40B78491C0370401CC5
:10027000521EEAD40B78491C0370401C012AE4D4B6
:1002800009780170F8BD01E004C0091F0429FBD200
:100290008B0701D50280801CC90700D0027070470F
:1002A00000290BD0C30702D00270401C491E02294E
:1002B00004D3830702D50280801C891EE3E7002255
:1002C000EEE70022DFE70000002203098B4273D330
:1002D000030A8B4258D3030B8B423CD3030C8B4253
:1002E00021D312E003460B437FD4002243088B4204
:1002F00074D303098B425FD3030A8B4244D3030BAD
:100300008B4228D3030C8B420DD30902FF2212BA71
:10031000030C8B4202D31212090265D0030B8B42ED
:1003200019D300E0090AC30B8B4201D3CB03C01AD7
:100330005241830B8B4201D38B03C01A5241430BB2
:100340008B4201D34B03C01A5241030B8B4201D3A2
:100350000B03C01A5241C30A8B4201D3CB02C01A0D
:100360005241830A8B4201D38B02C01A5241430A85
:100370008B4201D34B02C01A5241030A8B4201D374
:100380000B02C01A5241CDD2C3098B4201D3CB011B
:10039000C01A524183098B4201D38B01C01A5241CA
:1003A00043098B4201D34B01C01A524103098B42CE
:1003B00001D30B01C01A5241C3088B4201D3CB00B9
:1003C000C01A524183088B4201D38B00C01A52419C
:1003D00043088B4201D34B00C01A5241411A00D24C
:1003E00001465241104670475DE0CA0F00D04942B5
:1003F000031000D3404253409C46002203098B4225
:100400002DD3030A8B4212D38901FC2212BA030AAC
:100410008B420CD3890192118B4208D3890192112E
:100420008B4204D389013AD0921100E08909C309B3
:100430008B4201D3CB01C01A524183098B4201D3B5
:100440008B01C01A524143098B4201D34B01C01AA0
:10045000524103098B4201D30B01C01A5241C30818
:100460008B4201D3CB00C01A524183088B4201D387
:100470008B00C01A5241D9D243088B4201D34B00A2
:10048000C01A5241411A00D20146524110466346F9
:100490005B1001D34042002B00D5494270476346B0
:1004A0005B1000D3404201B50449002802DC491C1E
:1004B000084000E00846C046C04602BDFFFFFF7F7F
:1004C0007047704770471F22030C02D10F220004AF
:1004D0001CD0030E01D10002083A030F01D1000124
:1004E000121F830F01D18000921E002801DB400003
:1004F000521ED2055118021251181922904004D3ED
:10050000491C002801D14908490008467047C10F1D
:10051000C90700D04042012292071143D3E70121CD
:100520008907D0E7754600F025F8AE460500694614
:100530005346C008C000854618B020B5FFF738FE06
:1005400060BCB64600260027C0C5C0C5C0C5C0C532
:10055000C0C5C0C5C0C5C0C5403D490849008D469D
:10056000704710B50446C046C0462046FFF7F3FD6D
:1005700010BD0000004870471000002001491820FD
:10058000ABBEFEE7260002007047EFF3108072B6A4
:10059000FEE70000B0B5044600F0B8FD0546601C5B
:1005A00002D004480078041900F0B0FD401BA042BE
:1005B000FAD3B0BD00000020F0B582B05C23C35C6C
:1005C0005B1E012B00D992E0019207230E461E40CC
:1005D0000068856D01222F46009217409B01002E76
:1005E00001D0002F22D08C06640F02D002242C40B0
:1005F0001CD0194202D004242C4017D0CC04240F64
:1006000002D008242C4011D00C04640F02D0102416
:100610002C400BD08C03A40F02D020242C4005D0FA
:100620000C02A40E06D040242C4003D1C46D01223C
:100630002243C2657A427A41744274411443012CC8
:1006400040D102222A40564256418A06520F009F4C
:1006500000D03746012F35D104222A405642564158
:100660001942009F00D03746012F2BD108222A4083
:1006700056425641CA04120F009F00D03746012F40
:1006800020D110222A40564256410A04520F009FA0
:1006900000D03746012F15D120222A40564256411C
:1006A0008A03920F009F00D03746012F0AD14022C3
:1006B00015406E426E410A02920E00D00096009ADA
:1006C000002A03D1C26D02241443C4650446DC34FD
:1006D0000A06019D02D522682A432260C03B1942C6
:1006E00002D062682A4362605430002202E0603027
:1006F0000122022103680B430360104602B0F0BDE3
:10070000F0B586B05C23C35C022B17D10368C42408
:100710001C59A4021BD4C4330F684C688D6805951E
:100720000D691E68B603B60F002C049317D03D4325
:10073000059B1D430124A407254314E00246006ED7
:100740000821014311660121084606B0F0BD0121D0
:100750004A02036E13430366084606B0F0BDBC04AC
:100760002543059B1D43482403967443CB6802939D
:100770004B6901938B690093CF690E6A0590436DB5
:100780001D511D1933063B43009803430198034351
:10079000029804041C436C60CB68002B13D008350E
:1007A00000267A489319DC7824069F783F043C1988
:1007B0005B781B02E318945D1B19AB51CB68C35CDB
:1007C000361D9E42EED30120039988400599886525
:1007D000049988600021084606B0F0BDB0B55C22DF
:1007E000825C521E012A10D80A68002A13D00D1DFF
:1007F0003CCD496964072C43406CD200145010185A
:100800009A070A4342600020B0BD016E02220A43EB
:1008100002660120B0BD0D1D3CCD49699B07E40671
:100820001C432B0423430B43006C91000B5000200E
:10083000B0BD704770470000F0B584B003930B461D
:100840005C21415C02290BD104688034402B0FD11C
:100850002169090714D02169C90119D400211AE0BE
:10086000026E0821114301660121084604B0F0BD63
:10087000A169090704D0A169C90114D4002115E0B8
:1008800001210A02036E13430366084604B0F0BD5B
:1008900021688905C90F2469A405A40F6418019073
:1008A0000146483109E02168C905C90FA469A405BA
:1008B000A40F6418019001464C314825009465430B
:1008C0000F68E9590126B4070C405460EC592E49D1
:1008D000029301D00C4001E0E400640D1460EC5977
:1008E000491C21409160E959F4070C401461EB194F
:1008F0009C88D461DD880F242C40D4605D68370566
:100900002F4057615D6876052E409661DD797F2620
:100910002E4016625D68ED0F5562002C21D0002636
:100920001A4F9C19257A03988555D5687D5D711CF1
:10093000A94216D203988519617A6970D168795CE9
:10094000B01C88420DD2A07AA870D068385CF11C27
:10095000814206D2E07AE870D068385C361D864263
:10096000DFD30198006894300299402905D100999D
:1009700001600021084604B0F0BD009981600021AB
:10098000084604B0F0BDC046FFFFFF1F98480008AE
:100990007047F0B58DB004460068056D416D0B9150
:1009A000076D416D0191016D0891416D0291016DDD
:1009B0000691416D0491016D0591416D0391426D68
:1009C000402107920A4053425341026D0C920A4063
:1009D000564256411E4307220992002E03D101655B
:1009E0002046FFF7D5FF0B9805400998800200903C
:1009F000012101200A900002079E32460240534224
:100A000053410C9AD2050B910A4600D51A4601991A
:100A10000F4000990D40002A0AD12268D82153586E
:100A20001146D831896810651940204600F09CFABB
:100A30000898029908400890382109980740002D2D
:100A400008D02068056520460E46294600F08EFA3B
:100A50003146079E089D0D40002F05D02068076590
:100A60002046394600F02CFA002D05D02068056597
:100A70002046294600F05EFA0A98400232460240BB
:100A8000514251410C9A92050B9A059F00D50A4696
:100A9000002A04D121680865204600F068FA802504
:100AA00031462940484248410C9909060B9900D526
:100AB000014600290AD12068D42142580146D43188
:100AC000896805651140204600F04FFA0A984003F6
:100AD00032460240514251410C9A92040B9A00D581
:100AE0000A46002A04D121680865204600F03BFA36
:100AF0000A98C00332460240514251410C9A1204F6
:100B00000B9A00D50A46002A04D1216808652046C0
:100B100000F028FAF12103980740099842040A9846
:100B200080030640734273410C9E760400D50B93FC
:100B3000069E049B1E40090417400B9A002A04D10C
:100B400022681065206E284320660E40002F05D0D5
:100B50002068076520463946FFF76CFE002E04D05A
:100B600020680665206E30432066206E002802D083
:100B70002046FFF75EFE0DB0F0BD0000F0B585B079
:100B800000281CD0044606465C363078002804D184
:100B900000207070204600F04BF920688169102712
:100BA000B943816100F0B2FA0546206881690907FE
:100BB00008D500F0ABFA401B0B28F6D313E0012058
:100BC00005B0F0BD8169012204921143816100F0FA
:100BD0009DFA054620688169C9070CD100F096FA94
:100BE000401B0B28F6D3216E01200143216603210F
:100BF000317005B0F0BD816902220A438261AD49BE
:100C0000884202D16168854A1160217C491E4A1ED2
:100C100091418901826940239A4351188161617C25
:100C2000491E4A424A419103049DAA0383699343A2
:100C300059188161A17C491E4A1E914109032A036A
:100C400083699343591881610321090283690391E0
:100C50008B43A16801910B4383618369A425AB4356
:100C600083610369BB430361E368002B12D0012B4E
:100C70000CD0022B08D0816980250D438561056960
:100C80003D430561032B05D1202300E00423856942
:100C90001D4385610296034680337F256D06676993
:100CA0002646183646CE49064919FF25ED4312025D
:100CB00052190A43711E11433A04594FD2190A437B
:100CC000C2610399019A8A4212D1616AA26A0092B2
:100CD000E66A226B01920904C91936027519009A55
:100CE000521E2A43019D2D01103D15430D43C56041
:100CF000E16B1A6C0A431A641F2109041A688A43BB
:100D0000616B0904114319604649884201D0474A82
:100D100000E0454A104670303121C900511815468F
:100D2000B0350E46F03622646064A564E164D831C3
:100D3000216566650F20000619688143A06B0006D7
:100D400008431860039881185031002010665066DF
:100D50009066D066106750679067D06710645064E3
:100D60009064D064106550659065D06510625062E3
:100D70009062D062106350639063D06310605060E3
:100D80009060D060106150619061D061134654331F
:100D9000D86713465033D86713464C33D867134689
:100DA0004833D86713464433D86713464033D8676F
:100DB00013463C33D86713463833D8671346343369
:100DC000D86713463033D86713462C33D867134699
:100DD0002833D86713462433D86713462033D8679F
:100DE00013461C33D86713461833D8671346143399
:100DF000D86713461033D86713460C33D8671346A9
:100E00000833D867131DD867D4328A429DD3206631
:100E1000A065029E0499317005B0F0BD00650040E8
:100E20000000FFFF0068004050B7004000B40040E1
:100E3000B0B59AB0044601A8001D4821FFF741FA59
:100E400020681C49884201D01AB0B0BD0024149417
:100E500001256806019001A800F022FA002801D0BF
:100E6000FFF793FB280314498A6802438A608A6863
:100E7000024015921598086804221043086008681B
:100E80001040009003201990189417940220169097
:100E9000302015900098094815A900F069F815252B
:100EA00028462146224600F09FF9284600F090F996
:100EB0001AB0B0BD00640040341002400008005079
:100EC000B0B586B0194C22463832402104ABFFF74A
:100ED000B3FC002801D006B0B0BDA06BE26B00905F
:100EE00001218B079A4202D1C90708430090606C28
:100EF000C1B2082900D908206C462073C2B2201D57
:100F000004A9FFF72FF90025657300F0FFF87D2194
:100F1000CA0029462B46FFF75DF902460B460448F6
:100F2000214601F01DFC06B0B0BDC0467000002097
:100F3000D000002070475C21415C01290CD10146A2
:100F40005C3102220A7001688A6901239A438A612E
:100F50000021016608467047016E04220A430266BA
:100F6000012070477047704770477047704770475F
:100F7000F0B589B006900B68002B00D1B6E05C4854
:100F8000069A824202D00846052501E0084604255B
:100F90000B210907069A54180A21CC410094042C0D
:100FA00000D3009500273E463D463C46014607904B
:100FB0000EE02943059D504801600799641C0B68A9
:100FC0001846E040BF1C361D0835002800D18DE0D2
:100FD0000120A04003400293F0D0059504960B46F3
:100FE00003263146B940C9433A465F683D4635401D
:100FF0006B1E012B08910397019211D806998B68FB
:10100000089E3340079EF66896401E438E60FB069E
:10101000DB0FA3404E6886431E434E60089906E0EE
:10102000032D04D135460799049E019F1FE0069ABF
:10103000D068084007998B68019FBB400343D36089
:10104000022D049E13D11C2030400F218140E30863
:101050009B00069AD3181D6A8D4307990969814040
:101060002943196207994868032503900540BD404C
:10107000069A1068089B1840284310600398800364
:10108000800F059D9AD0182028400A460F218140E4
:10109000032325469D43174E73191D6E8D430099FA
:1010A00081402943196631685068C30202D5029D08
:1010B000294301E0029DA943049E0E4B1960596823
:1010C000830201D5294300E0A9430A4B59600A492C
:1010D0004968830301D5294300E0A943064B5960C1
:1010E0001968C00300D564E7A94363E709B0F0BD00
:1010F000001000500018024080180240002A02D060
:101100001822815070472822815070470548006896
:101110007047C0461F48007802490A6810180860E6
:101120007047C0466405002010B50124200208491C
:101130000A6802430A60032000F00CF8002801D07E
:10114000204610BD00F028F80024204610BDC046FF
:101150000020024070B50F4E31780124002916D0CE
:1011600005467D20C00003F024FA01464A48006885
:1011700003F01FFA00F064FD032D08D8002806D103
:101180000024E0432946224600F02EF875602046F0
:1011900070BDC0460000002080B582B00B48416899
:1011A00001221143416041681140019101991107E9
:1011B00002680A430260006808400090009803201B
:1011C000400200F033FD02B080BDC0463C1002403A
:1011D000002805D41F2108400121814001480160F9
:1011E0007047C04600E100E0002805D40322034612
:1011F00093430A4A9A1803E00C220240064BD21885
:101200008007C00E8901C9B28140FF238340106866
:10121000984308431060704714ED00E000E400E0DC
:10122000F0B581B0032569021A4E3246143A1368AC
:101230008B4303431360012461020022884226D1BC
:10124000154801683068400521D50092A7020620A4
:101250004843124903F0ADF9201A022816D031682C
:1012600039420FD0012811D0316839420AD0002804
:101270000CD03168394205D0001D032806D03168F2
:101280003942EAD1009A104601B0F0BD2A46104614
:1012900001B0F0BD147000400800002040420F0073
:1012A000F0B587B00446012630020590A07880078B
:1012B000A94F049605D4002003902068C10751D19E
:1012C00056E030073946183901910968029001400B
:1012D000009108D1019A10680299084310601068C3
:1012E0000840069006989E4E306805990843306085
:1012F000FFF70CFF054630680599084206D1FFF755
:1013000005FF401B0228F6D903201EE003200390AE
:101310000102B868084011D0616C88420BD0B868EF
:1013200004990904BA680A43BA60BA688A43BA6081
:101330008A490840B860C00700D0FFE0B868874914
:101340000840616C0143B9600020039000980028B8
:1013500004D1019A1068029988431060049E2068A5
:10136000C10705D039680322914362680A433A6095
:10137000810712D4410718D4C1061ED4C10425D454
:1013800081052BD4410532D48106764A39D44106F1
:101390003ED43106430345D453E039680C229143CF
:1013A000A2680A433A604107E6D539683022914382
:1013B000E2680A433A60C106E0D5032189023A682F
:1013C0008A43216911433960C104D9D53968634A18
:1013D000114062690A433A608105D3D5032189042B
:1013E0003A688A43A16A114339604105CCD503218B
:1013F00009053A688A43E16A114339608106594A0E
:10140000C5D539681140A3690B433B604106C0D57F
:10141000032189033B688B43E16919433960310635
:1014200043030ED503239B063D689D43266B35433E
:101430003D609E42049E04D13B46483B1D680D43DF
:101440001D60430410D53B68474D2B40666B33430A
:101450003B606B1C9E42049E06D133043D46483DD2
:101460002E681E432E60049E030305D53B6840256D
:10147000AB43A56B1D433D60B30585020DD53D68AB
:101480009D43E66B35433D609E42049E05D13D463B
:10149000483D2E680E432E60049E18420BD03B68D8
:1014A0008B43256C2B433B608D4204D13B46483B2C
:1014B0001D680D431D6003050ED57B680325AB43F6
:1014C000256A2B437B60012D06D133043D46483D00
:1014D0002E681E432E60049E83040ED57B680C2567
:1014E000AB43656A2B437B60042D06D133043D4634
:1014F000483D2E681E432E60049E08420CD07303A4
:101500007D681540A26C15437D609A4204D13A462D
:10151000483A13680B43136080010CD578680F4A72
:101520001040E26C104378600598824203D1483F36
:10153000386808433860039807B0F0BDFFF7E6FD50
:101540000646854DB868800700D5F7E6FFF7DEFD53
:10155000801BA842F6D9F9E654100240FFFCFFFFB9
:1015600000700040FFCFFFFFFFFFFF3FF0B583B0EB
:101570000D46012100281BD001910290754800689A
:1015800007242040A84216D272490868A043284385
:101590000860714EFFF7BAFD07466E4800682040AC
:1015A000A84208D0FFF7B2FDC01BB042F5D9032115
:1015B000084603B0F0BD029E30688107674B0CD52A
:1015C000410703D521031A680A431A600F21090253
:1015D0001A688A43B16811431960C0071BD15D487E
:1015E00000682040A8422CD95A490868A0432843E3
:1015F0000860594FFFF78AFD0646564800682040AC
:10160000A8421ED0FFF782FD801BB842F5D9032106
:10161000084603B0F0BD0298406803285DD88100F9
:1016200001A251588F46C04639160008DF1600083F
:10163000E9160008F3160008194608390968490533
:1016400059E0029A10784007444B05D520031968E9
:101650008143D0680843186018688006400F22D084
:101660001A6838210A403E48082A23D01A680A40DE
:10167000102A5ED1596803220A40032A00D0394853
:1016800059684906490F491C02F093FF33494968DC
:101690004904490E484331494968490F491C02F041
:1016A00088FF2E4B06E01846083800688004410F7A
:1016B0002C48C840196889093C220A402A4989589F
:1016C0001F220A40D0402949086029480068FFF7D6
:1016D00041FD0146084603B0F0BD596D0AE01946C8
:1016E00008390968890306E019460839096889013B
:1016F00001E0996D8907019900D459E71968A14360
:1017000001431960144FFFF701FD064613480068B6
:101710003821014002984068C000814200D15EE754
:10172000FFF7F4FC801BB842F0D90321084603B050
:10173000F0BD18680840202802D10120C003B9E795
:1017400018680840182801D00020B3E77D20000267
:10175000B0E7C04600200240881300000810024095
:1017600000366E010024F4005848000808000020EC
:1017700004000020F0B587B00125002800D13AE22E
:10178000049505900078C007FD4F2DD1059800788D
:1017900080074DD40598007800070DD5B86838212A
:1017A0000140182900D0CEE0386E800704D5059896
:1017B0008069002800D1A7E0059A1078400771D40D
:1017C0001078800600D5A3E00598046A002C00D1AB
:1017D00001E2B86838210140102900D002E1012C53
:1017E00000D071E1049D06E2B868F968032422463E
:1017F0008A4338210140102048408218504250410D
:1018000001256E04082943D0002841D1059841687C
:101810002804814208D005221204914200D0FCE045
:10182000A9043A680A433A60396801433960FEE026
:10183000B9683820084010214140FA6803252A4041
:1018400002235340CA1851425141002836D0002982
:1018500034D13868059AD168002900D1F7E0072112
:10186000C9028843116901433960012001023A68C5
:101870000A433A608402FFF749FC06463868204272
:1018800000D006E1FFF742FC801B0228F6D9B2E146
:101890003868304200D179E705984068002800D0C8
:1018A00074E7A8E1B86838210140202962D1F86DB9
:1018B000800785D59068002882D125E039684905E0
:1018C000059B02D5D96800291ED07F2109027A68BC
:1018D0008A43596909021143796000280DD1072014
:1018E000C002396881431869084338603868800449
:1018F000400FC749C140C7480160C7480068FFF7AB
:1019000029FC002800D145E7049D284607B0F0BD1A
:1019100038680121CC05059AD2698905002A00D1D1
:10192000A7E008433860FFF7F1FB0546386820421E
:1019300000D049E7FFF7EAFB401B0228F6D9032550
:10194000284607B0F0BD386E05998969002900D195
:10195000A9E0012108433866FFF7D8FB0646386E38
:10196000800700D528E7FFF7D1FB801B032502285D
:10197000F5D940E1012003900107F86B084002907F
:1019800006D1F86B0843F863F86B08400690069898
:101990000191A2480068C00513D4039804029F492E
:1019A000086820430860FFF7B1FB06469B480068C3
:1019B000204206D1FFF7AAFB801B03250228F5D998
:1019C00019E105988068964C012806D0052800D0BA
:1019D000BFE0F86D04210143F965F86D03990843F0
:1019E000F865C0E00125290638680391884338600E
:1019F000FFF78CFB0646022C00D08FE002956806AC
:101A0000049038680499084200D1BBE0FFF77EFBE0
:101A1000801B03250228F4D9EDE03A6882433A603E
:101A2000A8043A6882433A60002900D181E0FFF7B8
:101A30006DFB05463868304200D0A7E6FFF766FB2D
:101A4000401B6428F6D92546284607B0F0BD012181
:101A50000A02904338608C02FFF758FB064638684C
:101A6000204200D196E6FFF751FB801B0228F6D9F1
:101A7000C1E088433860FFF749FB064638682042DA
:101A800000D1A1E6FFF742FB801B03250228F5D910
:101A9000B1E07F2000027968814305984069000227
:101AA0000843786076E6012188433866FFF72EFB0D
:101AB0000646386E800700D47EE6FFF727FB801BC2
:101AC00003250228F5D996E0F86803210140059C1A
:101AD000626A914200D017E770210140A26A9142E8
:101AE00000D011E77F2109020140E26A120291420F
:101AF00000D009E71F2149040140226B914200D028
:101B000002E707214A060240636B9A42049D72D1A4
:101B100049070840A16B88426DD15CE06C063868CB
:101B2000204254D0FFF7F2FA801B03250228F6D991
:101B300061E0FFF7EBFA05463868304200D125E650
:101B4000FFF7E4FA401B6428F6D92546284607B07B
:101B5000F0BDF96D039A9143F965F96D0422914343
:101B6000F96500283BD0FFF7D1FA0646F86D8007EB
:101B700044D4FFF7CBFA801B0325A042F6D93AE004
:101B800000100240F86828490140059E24367DCEA9
:101B90000843104319020143214329433143F960AB
:101BA000386803990843386002980007F9680143D0
:101BB000F960FFF7ABFA04463868049908420AD185
:101BC000FFF7A4FA001B03250228F5D913E0F868F3
:101BD00014490140F9600025284607B0F0BDFFF721
:101BE00095FA0646F86D800708D5FFF78FFA801B37
:101BF0000325A042F6D9284607B0F0BD0298002878
:101C0000059A00D0DCE5F86B01998843F863D7E5C5
:101C10000024F400080000200400002000700040B0
:101C200088130000FCFFFEEE8C80C11103214902E5
:101C3000024A13688B43034313607047000001405E
:101C4000401E010E01D0012070470749074A50602D
:101C5000074803680B4003218907591801600020D9
:101C60009060072111607047FFFFFF0010E000E067
:101C700020ED00E0FEE7FEE77047704780B5FFF714
:101C800049FA80BD7047000080B50248FEF781FE2A
:101C900080BDC04600050020F0B589B01C46029208
:101CA00005460091C88A964A014611400027052939
:101CB0001ED0042919D8002C17D0009A5218029B64
:101CC0001B78D3760123012C1F4600D8002303295B
:101CD00000D905E1022C00D202E1029B5B78137768
:101CE000022C00D9D3E00023D2E0002C00D1FAE08E
:101CF0004E1F1C213046FEF7E7FA00984068002886
:101D0000079401950CD03346012214460668002E34
:101D10001BD0A21C30680028F7D10D46641C16E0C9
:101D20006E68002E00D1ABE0306868606889401CA6
:101D30006881A98982B2914200D2A88100223260D2
:101D400000984660A74230D244E00D460646079808
:101D500018181C2102F02DFC401C80B2A1B2884250
:101D60001AD9002D1DD1019948680028079C00D17F
:101D700080E00346006848604889401C48818989A2
:101D800082B2914201D20199888100221A603360A7
:101D90001E46A74209D21DE0079C2A46A74204D24C
:101DA00018E02A46079CA74214D3009AD08A5549C6
:101DB00001400019524B18404018D082012000B257
:101DC00009B0F0BD0022026030600646089FB8B23C
:101DD000A042EAD2B9B2A142F9D20396B018069055
:101DE0000298431800260496059106E00120192A5E
:101DF000079C3A4625D8A54223D20F461946985D3E
:101E0000069B9D192871B819401C0890A04201D367
:101E1000049800E00120174692191A2A079C16D848
:101E2000089BA34213D20B46881940786871B61CF0
:101E300005997518A542D9D30020192A079C3A465E
:101E4000D9D908950028019D039EBFD004E03A46E9
:101E50000028019D039EB9D0686800280AD0016857
:101E600069606989491C6981AA898BB29A42A9D2A1
:101E7000A981A7E700203060234800B209B0F0BD77
:101E8000002000994860204800B209B0F0BD01234D
:101E90000227022924D8032C22D3029B9B78537754
:101EA000032C01D8002300E001230327012917D8C0
:101EB000042C15D3029BDB789377042C01D80023E4
:101EC00000E00123042700290AD1052C08D3029B36
:101ED0001B79D377052C01D8002300E001230527C7
:101EE000002B00D004E7074901400019044A1040C4
:101EF00040180099C882012000B209B0F0BDC04668
:101F0000FF03000000FCFFFFFDFF000010B58AB0DA
:101F10006946109C0C840E9C0C760C9C0C82002450
:101F20000C70039302920F9A07920D9A059200F09B
:101F300003F80AB010BD0000F0B583B00C460346AC
:101F4000CF69D848002F00D1DCE0217E1F2900D9BD
:101F5000DCE01A78002A00D1DBE002930906891838
:101F6000228A12028E18258C082D00D2D8E0A06893
:101F7000E16801F077FAE907F34931D03A781202C3
:101F80004240500012B2002A00D50FE1420000B2D8
:101F9000002800D510E1500012B2002A00D511E14E
:101FA000420000B2002800D512E1500012B2002A0F
:101FB00000D513E1420000B2002800D514E153001F
:101FC00010B2002800D515E158001AB2002A00D539
:101FD00048407F1C6D1E03E0BF1CAD1E00D1A0E079
:101FE0003A7812024240500012B2002A40D4420015
:101FF00000B2002841D4500012B2002A42D442005C
:1020000000B2002843D4500012B2002A44D4420047
:1020100000B2002845D4530010B2002846D458001E
:102020001AB2002A00D548407A7812024240500085
:1020300012B2002A40D4420000B2002841D450001D
:1020400012B2002A42D4420000B2002843D4500009
:1020500012B2002A44D4420000B2002845D45300F2
:1020600010B2002846D458001AB2002AB4D547E06E
:102070004840420000B20028BDD54A40500012B28C
:10208000002ABCD54840420000B20028BBD54A40D7
:10209000500012B2002ABAD54840420000B20028CF
:1020A000B9D54A40530010B20028B8D54B4058006B
:1020B0001AB2002AB7D4B7E74840420000B200285D
:1020C000BDD54A40500012B2002ABCD5484042005B
:1020D00000B20028BBD54A40500012B2002ABAD53F
:1020E0004840420000B20028B9D54A40530010B21F
:1020F0000028B8D54B4058001AB2002A00D46BE72C
:10210000484069E7218C002900D11EE700B203B0E6
:10211000F0BD268C072E18D9801E00B203B0F0BD8A
:10212000401C029B82B218463146234601F056FC01
:102130000128EBDB61690A78521CD3B21F2B00D94E
:1021400000220A7000B203B0F0BD258A032DDDD84D
:10215000002E56D0019502933A781202D3435D00C7
:10216000794B12B2002A4ED56B002AB2002A4FD406
:102170005D001AB2002A51D46B002AB2002A53D44F
:102180005D001AB2002A01D56F4A55406B002AB291
:102190006D4D002A4FD45A001BB2002B50D455006D
:1021A00012B2002A51D4012E54D10AE24840420012
:1021B00000B2002800D4EEE64A40500012B2002AD5
:1021C00000D4EDE64840420000B2002800D4ECE61E
:1021D0004A40500012B2002A00D4EBE648404200C8
:1021E00000B2002800D4EAE64A40530010B20028AA
:1021F00000D4E9E64B4058001AB2002A00D5E7E6C1
:10220000E7E6524AE2E15D406B002AB2002AAFD510
:102210004D4A53405D001AB2002AADD54A4A554096
:102220006B002AB2002AABD5FE4A53405D001AB2B9
:10223000002AA9D4AAE76B405A001BB2002BAED5E6
:102240006A40550012B2002AADD5F64A5540012E1B
:1022500000D1B6E17A7813026B405A001BB2F14DFF
:10226000002B21D4530012B2002A22D45A001BB2F0
:10227000002B23D4530012B2002A24D45A001BB2DC
:10228000002B25D4530012B2002A26D45A001BB2C8
:10229000002B27D4550012B2002A28D4022E2BD1AD
:1022A0008FE1C046FEFF00006A40530012B2002AD0
:1022B000DCD56B405A001BB2002BDBD56A405300C3
:1022C00012B2002ADAD56B405A001BB2002BD9D5C6
:1022D0006A40530012B2002AD8D56B405A001BB294
:1022E000002BD7D56A40550012B2002AD6D5CD4A68
:1022F0005540022E00D164E1BA7813026B405A00B7
:102300001BB2C84D002B23D4530012B2002A24D490
:102310005A001BB2002B25D4530012B2002A26D437
:102320005A001BB2002B27D4530012B2002A28D423
:102330005A001BB2002B29D4550012B2002A2AD40D
:10234000032E2DD13DE1C0462110000000FCFF000E
:102350006A40530012B2002ADAD56B405A001BB211
:10236000002BD9D56A40530012B2002AD8D56B4051
:102370005A001BB2002BD7D56A40530012B2002A74
:10238000D6D56B405A001BB2002BD5D56A405500FC
:1023900012B2002AD4D5A34A5540032E00D110E131
:1023A000FA7813026B405A001BB29E4D002B1ED4CC
:1023B000530012B2002A1FD45A001BB2002B20D4A3
:1023C000530012B2002A21D45A001BB2002B22D48F
:1023D000530012B2002A23D45A001BB2002B24D47B
:1023E000550012B2002A25D4042E28D1E9E06A4013
:1023F000530012B2002ADFD56B405A001BB2002BEB
:10240000DED56A40530012B2002ADDD56B405A0077
:102410001BB2002BDCD56A40530012B2002ADBD578
:102420006B405A001BB2002BDAD56A40550012B23D
:10243000002AD9D57B4A5540042E00D1C1E03A7913
:1024400013026B405A001BB2764D002B1ED4530072
:1024500012B2002A1FD45A001BB2002B20D4530002
:1024600012B2002A21D45A001BB2002B22D45300EE
:1024700012B2002A23D45A001BB2002B24D45500D8
:1024800012B2002A25D4052E27D19AE06A405300C3
:1024900012B2002ADFD56B405A001BB2002BDED5EA
:1024A0006A40530012B2002ADDD56B405A001BB2BD
:1024B000002BDCD56A40530012B2002ADBD56B40FA
:1024C0005A001BB2002BDAD56A40550012B2002A1E
:1024D000D9D5544A5540052E73D07A7913026B40F2
:1024E0005A001BB24F4D002B1ED4530012B2002ACB
:1024F0001FD45A001BB2002B20D4530012B2002A62
:1025000021D45A001BB2002B22D4530012B2002A4D
:1025100023D45A001BB2002B24D4550012B2002A37
:1025200025D4062E27D14CE06A40530012B2002A6F
:10253000DFD56B405A001BB2002BDED56A4053003A
:1025400012B2002ADDD56B405A001BB2002BDCD53D
:102550006A40530012B2002ADBD56B405A001BB20E
:10256000002BDAD56A40550012B2002AD9D52D4A7F
:102570005540062E25D0BA7913026B405A001BB283
:10258000284D002B29D4530012B2002A2AD45A0015
:102590001BB2002B2BD4530012B2002A2CD45A00A9
:1025A0001BB2002B2DD4530012B2002A2ED45A0095
:1025B0001BB2002B2FD4550012B2002A01D5194AA4
:1025C0005540194A2A405202029B019D09065118A2
:1025D000AA07960D0E43401CA4E56A40530012B2B0
:1025E000002AD4D56B405A001BB2002BD3D56A40C9
:1025F000530012B2002AD2D56B405A001BB2002BF6
:10260000D1D56A40530012B2002AD0D56B405A008F
:102610001BB2002BCFD56A40550012B2002ACED48F
:10262000CFE7C04621100000FE7F000070B50446D1
:102630000126F1078843C10D0F4DFF2905D30F492E
:10264000491C884210D0284610E00D4820400F2138
:10265000C90502F0A9F8310340181F21C9058842B5
:1026600000D30846400B01E01F208002691C220CA9
:102670000A40024390B270BDFF7F0000FFFF7F7FE2
:1026800000F0FF7FF0B587B0002405940494402A41
:1026900007D2002A08D0012A09D11D7804AB1D7089
:1026A00022E04022002AF6D10122012AF5D0082A90
:1026B00005D81D7804AB1D70530715D11CE0102AF6
:1026C00005D81D8804AB1D8053070DD114E0202AC6
:1026D00004D81B680493530706D10DE01D685B689E
:1026E00005930495530707D0554207232B40D7087D
:1026F00004ADEE5D9E40EE550725CB0803952940BD
:10270000C0180290019212E0FF221202FA40D2B2E7
:102710001640EE40EA40CB08029CE55C9543354309
:10272000E55479183818019A9042044615D010469D
:102730002746039A1740E60804AB0D461540AF4202
:102740003A4600D82A469E5DBE4008239A1A071BC7
:1027500097422046D8D31746D6E707B0F0BD000011
:10276000F0B5A1B015900F6880253D400220002DE6
:10277000064601D03C04E60F7C0F042C16D11193C1
:1027800014961092FD4C0B7B002B14D03E0A380699
:10279000C01730407F2213921040002D12970ED1A7
:1027A0007A06159D13D10322164010E0C043C41FC2
:1027B00020B221B0F0BDE41F20B221B0F0BD159DC4
:1027C0002A78904200D080E0129A120CD6B20D9175
:1027D000091D0A915918491E0F7800211F910C916B
:1027E0001E910996B2B2149909048918139E129B7E
:1027F0001E40B304C918400608180F900B977BB20F
:10280000002B139621D420460A382C6A002C18D0AD
:102810000F9A216991427BD02468002C11D0216944
:10282000914275D02468002C0BD0216991426FD061
:102830002468002C05D02169914269D02468002CBD
:10284000E7D1044620B221B0F0BD0E936C6800962B
:102850001EA92846149BA04700283AD02C6A002CB9
:102860003CD00E9B0F9E2069B04251D02468002CB2
:1028700011D02069B0424BD02468002C0BD02069C5
:10288000B04245D02468002C05D02069B0423FD02A
:102890002468002CE7D12C69002C00D148E1206885
:1028A0002861E88A401CE882298B82B2914200D2DA
:1028B00028830C9820606060A060E0602661606101
:1028C000A061E061286A206021E0083C20B221B0CC
:1028D000F0BDAA4C093C20B221B0F0BD2C69002CFF
:1028E0000E9B0F9E00D123E120682861E88A401CDE
:1028F000E882298B82B2914200D228830C98206012
:102900006060A060E06026616061A061E0612C62AF
:102910001F210E930B40E68A7004C00E0F931F1AFE
:10292000119A109B00D52037069708960F9E801BA2
:10293000079100D520300590E068A1685F1A8241B8
:102940000143636846D08E48C01B0C98904141D328
:102950000497A77E0D98407B0290C01B411E8841C2
:1029600001260E990029039600DA0C9E30430ED002
:1029700000208449049E711A824106D30E980028D3
:1029800003D5069880B2102824D3029873E0591E0C
:1029900018468841059989B20129039900D8014652
:1029A00000267848049F381AB241039F384608D35E
:1029B00030460029069A07D0002F08D0002909D1F7
:1029C0005BE00029069AF7D10746002FF6D190B2B6
:1029D000102852D201208202501E089E06400F98F5
:1029E00080023618E682002B28D018682969196001
:1029F0002B616060E98A491EE98200281DD00168C8
:102A00002B69036028616160E88A401EE882002922
:102A100013D008682B690B6029616060E98A491E40
:102A2000E982002809D00368296901602861636090
:102A3000E88A401EE882002BD7D1E68A524830400F
:102A4000E0820D9933464F7BA7760E9800280CD470
:102A50004E4818409918079A92020A401018E082CE
:102A6000464C0A3C20B221B0F0BD3F20800203401A
:102A70000893487B0023B8420BD11298C100402034
:102A80000B9D2840464246410E9D002D05DA002749
:102A900004E0002420B221B0F0BD0127CA0E374364
:102AA0001DD01292089FF90B0B9DAE06F60F8E42B9
:102AB0000A9D41D17904C90E0F9A8A4241D13E46FE
:102AC0000E99002942D5002840D10D9E307B042864
:102AD000159D5DD2FA4C0D3C20B221B0F0BD109D89
:102AE000A560119BE36016A91398C8768A760F98A3
:102AF0004876149808760998C8820D98007B401E85
:102B0000C0B288821793169500261A9619960A98CD
:102B1000189015988268904701208002E18A081871
:102B2000079989020140E182344620B221B0F0BD0C
:102B3000E34C20B221B0F0BDE14C0B3C20B221B0FF
:102B4000F0BDDF4C0C3C20B221B0F0BD2F460E99F9
:102B50000029159D47D4002845D10D9E317B28467C
:102B60000C30491ECBB221463A46FFF795F80028B3
:102B700000D586E0A08A317B491E27E0FDFF0000DA
:102B800080841E0041420F0000FCFFFF0080FFFF19
:102B9000CC4808990140E1821098A0601198E0604B
:102BA000317B28460C30B71DC91ECBB221463A46B0
:102BB000FFF772F8002800D58FE0B08820831F99B6
:102BC0001E9800F04FFCA082317BC91ECAB2394664
:102BD00000F04AFBA082E08ABB494140E182002428
:102BE00020B221B0F0BD012081020B91491E059158
:102BF0000E400D99097B4A1E042E08960C9232D87D
:102C0000110600D1A0E0A1190D9B1B79CB76032EF4
:102C100000D9D7E0D3B2022B00D2D3E00D9840798F
:102C200008770220022E00D9CCE0032B00D2C9E0A5
:102C30000D98807948770320012E00D9C4E0042B39
:102C400000D2C1E00D98C07988770420089D002D3E
:102C500000D0B9E0052B00D2B6E00D9B187AC877FA
:102C60000520159DB9E00020002B00D1AAE0052623
:102C7000196800296BD038360B68002BF8D11C3E40
:102C800066E06068002853D001682A690260286104
:102C90006160E88A401EE882002949D008682A69F4
:102CA0000A6029616060E98A491EE98200283FD0F4
:102CB00001682A69026028616160E88A401EE88232
:102CC000002935D008682A690A6029616060E98AAC
:102CD000491EE9820028D7D12AE06068002827D061
:102CE00001682A69026028616160E88A401EE88202
:102CF00000291DD008682A690A6029616060E98A94
:102D0000491EE982002813D001682A6902602861FF
:102D10006160E88A401EE882002909D008682A69B3
:102D20000A6029616060E98A491EE9820028D7D1DA
:102D300001208002E18A0818079989020140E18296
:102D40005F4C20B221B0F0BD00200D9B46E019463B
:102D5000089B9B1B06931B2B34D80C9B1B060D9BBF
:102D60003CD00698081808900C98C0B20E90032723
:102D70000898C619DB19587870700698C019C11EDA
:102D8000B81E1A2924D80E9A904221D29878B07091
:102D9000781E19291CD80E9A904219D2D878F07052
:102DA000182914D80E98874211D218793071381D1D
:102DB00017290D9B04D8791C0E9A91420746D7D348
:102DC000C01E05E00D9B09E00D9B159D05E03846F2
:102DD000059BE18A194008910D9B0A9F16AE139935
:102DE000F1761299B1760F99717614993176099925
:102DF000F1820C99CAB208998918B18221461B3117
:102E0000189161681991C1B20020914201D3014625
:102E100001E05918091D1A916060109816901198D8
:102E20001790A08A197B4A1E394600F01DFAA0822D
:102E3000218B884203D1AA6816A9284690470836F4
:102E40001998002824D02969026801602861E98A5C
:102E5000491EE9821992002A1AD0136810602A616B
:102E6000E88A401EE8821993002B11D019681A6075
:102E70002B61E88A401EE8821991002908D0086871
:102E80000B602961EA8A521EEA8219900028DBD180
:102E90000020B08130607060B060E18A0B9A8918C0
:102EA000079A92020A40E282218BA28A8A4200D1CA
:102EB000C7E403480E38044620B221B0F0BDC04636
:102EC000FDFF000000FCFFFF0080FFFFF0B581B0B8
:102ED000154602460024846144610461C4600460B4
:102EE0008360079B046244628362069B4360C16106
:102EF0006B092448834200D3034610461030002B50
:102F00000AD003251D4000955D1E032D06D20646FE
:102F1000009D002D1DD12DE006462BE01A4F1F40CD
:102F20000E46203600243546203D056030464030B0
:102F300030623046203030602E60600160250543ED
:102F400048198036241DA742EDD1403E009D002D3A
:102F500010D064010F193760012D01D13E4609E000
:102F6000384620303860022D01D1064602E00E19A5
:102F700040360660002030601083D0829382D0609B
:102F800001B0F0BDFFFF0000FCFF0000406A002818
:102F900000D0001D7047416A0A68426202690A60F7
:102FA0000161C18A491EC182704770B58AB014465A
:102FB0006A46139D1584109D15760E9D1582119DF0
:102FC0006D1E6E426E41167003930294129B07931E
:102FD0000F9B059300F002F80AB070BDF0B581B008
:102FE00014460546D7699A48002F00D1E3E0237EB6
:102FF0001F2B00D9E3E02A78002A00D1E2E01B066B
:103000000902C918238A1B049A182378DB03134387
:103010000B4380211943268C082E009100D2D5E065
:10302000A068E16800F01EFAF1078A4931D03A78C9
:1030300012024240500012B2002A00D5DDE04200E8
:1030400000B2002800D5DEE0500012B2002A00D500
:10305000DFE0420000B2002800D5E0E0500012B2EC
:10306000002A00D5E1E0420000B2002800D5E2E0ED
:10307000530010B2002800D5E3E058001AB2002A2D
:1030800000D548407F1C761E03E0BF1CB61E00D151
:103090009DE03A7812024240500012B2002A40D419
:1030A000420000B2002841D4500012B2002A42D49B
:1030B000420000B2002843D4500012B2002A44D487
:1030C000420000B2002845D4530010B2002846D474
:1030D00058001AB2002A00D548407A7812024240BD
:1030E000500012B2002A40D4420000B2002841D45D
:1030F000500012B2002A42D4420000B2002843D449
:10310000500012B2002A44D4420000B2002845D434
:10311000530010B2002846D458001AB2002AB4D581
:1031200047E04840420000B20028BDD54A40500068
:1031300012B2002ABCD54840420000B20028BBD5DC
:103140004A40500012B2002ABAD54840420000B2AC
:103150000028B9D54A40530010B20028B8D54B40DA
:1031600058001AB2002AB7D4B7E74840420000B26C
:103170000028BDD54A40500012B2002ABCD54840B4
:10318000420000B20028BBD54A40500012B2002ACB
:10319000BAD54840420000B20028B9D54A40530091
:1031A00010B20028B8D54B4058001AB2002A00D4FB
:1031B0006BE7484069E7228C002A00D117E700B28C
:1031C00001B0F0BD801E00B201B0F0BD401C82B263
:1031D00028460099234600F001FC0128EFDB217806
:1031E0000129ECD161690A78521CD3B21F2B00D996
:1031F00000220A7000B201B0F0BD4840420000B2A7
:10320000002800D420E74A40500012B2002A00D41F
:103210001FE74840420000B2002800D41EE74A40A1
:10322000500012B2002A00D41DE74840420000B20C
:10323000002800D41CE74A40530010B2002800D4F4
:103240001BE74B4058001AB2002A00D519E719E7CE
:10325000FEFF0000211000004AB2012A03DB0278C1
:10326000002A00D101707047B0B5002A35D0D307CD
:103270007B4B03D11446012A2FD033E00C78240273
:103280004440600024B2002C00D5BDE0440000B2F0
:10329000002800D5BEE0600024B2002C00D5BFE0BD
:1032A000440000B2002800D5C0E0600024B2002C29
:1032B00000D5C1E0440000B2002800D5C2E065009E
:1032C00020B2002800D5C3E068002CB2002C00D545
:1032D0005840491C541E012A04D180B2B0BD891C3B
:1032E000A41EFAD00A7812024240500012B2002AFC
:1032F00040D4420000B2002841D4500012B2002A4B
:1033000042D4420000B2002843D4500012B2002A36
:1033100044D4420000B2002845D4550010B2002821
:1033200046D468002AB2002A00D558404A781202D2
:103330004240500012B2002A40D4420000B200289D
:1033400041D4500012B2002A42D4420000B20028F8
:1033500043D4500012B2002A44D4420000B20028E4
:1033600045D4550010B2002846D468002AB2002A7D
:10337000B5D547E05840420000B20028BDD55A40BC
:10338000500012B2002ABCD55840420000B20028BA
:10339000BBD55A40500012B2002ABAD5584042005C
:1033A00000B20028B9D55A40550010B20028B8D54F
:1033B0005D4068002AB2002AB7D4B7E758404200FF
:1033C00000B20028BDD55A40500012B2002ABCD528
:1033D0005840420000B20028BBD55A40500012B2FB
:1033E000002ABAD55840420000B20028B9D55A4048
:1033F000550010B20028B8D55D4068002AB2002AF6
:1034000000D46CE758406AE75840440000B20028F6
:1034100000D440E75C40600024B2002C00D43FE7B9
:103420005840440000B2002800D43EE75C406000F1
:1034300024B2002C00D43DE75840440000B20028DC
:1034400000D43CE75C40650020B2002800D43BE794
:103450005D4068002CB2002C00D539E739E7C04642
:103460002110000070B50402E2435300ED4A24B27B
:10347000002C00D455E15C001BB2002B00D556E1B6
:10348000630024B2002C00D557E15C001BB2002B76
:1034900000D558E1630024B2002C00D559E15C004E
:1034A0001BB2002B00D55AE1630024B2002C00D5DA
:1034B0005BE15C001BB2002B00D55440FF23DB43D3
:1034C00005461D4065406C002DB2002D00D553E12E
:1034D000650024B2002C00D554E16C002DB2002D03
:1034E00000D555E1650024B2002C00D556E16C00F2
:1034F0002DB2002D00D557E1650024B2002C00D577
:1035000058E16E002CB2002C00D559E1740035B2A0
:10351000002D00D554400D06060A75191D40654062
:103520006C002DB2002D00D551E1650024B2002CB5
:1035300000D552E16C002DB2002D00D553E165009D
:1035400024B2002C00D554E16C002DB2002D00D522
:1035500055E1650024B2002C00D556E16E002CB276
:10356000002C00D557E1740035B2002D00D5544031
:103570000D04000C45191D40654068002CB2002C5C
:1035800000D551E1440000B2002800D552E16000AE
:1035900024B2002C00D553E1440000B2002800D52D
:1035A00054E1600024B2002C00D555E1440000B283
:1035B000002800D556E1650020B2002800D557E16B
:1035C00068002CB2002C00D550400C024440600032
:1035D00024B2002C00D552E1440000B2002800D5EE
:1035E00053E1600024B2002C00D554E1440000B245
:1035F000002800D555E1600024B2002C00D556E12A
:10360000440000B2002800D557E1650020B2002830
:1036100000D558E168002CB2002C00D550400B407A
:10362000434058001BB2002B00D553E1430000B2C9
:10363000002800D554E158001BB2002B00D555E1FD
:10364000430000B2002800D556E158001BB2002B01
:1036500000D557E1430000B2002800D558E15C00D6
:1036600018B2002800D559E1600023B2002B00D524
:1036700050400B0C1B02434058001BB2002B00D5DE
:1036800053E1430000B2002800D554E158001BB2BA
:10369000002B00D555E1430000B2002800D556E1CB
:1036A00058001BB2002B00D557E1430000B20028A0
:1036B00000D558E15C0018B2002800D559E160003F
:1036C00023B2002B00D55040090E090241404800AA
:1036D00009B2002900D553E1410000B2002800D50D
:1036E00054E1480009B2002900D555E1410000B27B
:1036F000002800D556E1480009B2002900D557E15D
:10370000410000B2002800D558E1480009B2002964
:1037100000D559E1410000B2002800D55AE188B235
:1037200070BD53405C001BB2002B00D4A8E654408F
:10373000630024B2002C00D4A7E653405C001BB207
:10374000002B00D4A6E65440630024B2002C00D421
:10375000A5E653405C001BB2002B00D4A4E6544005
:10376000630024B2002C00D4A3E653405C001BB2DB
:10377000002B00D5A1E6A1E65440650024B2002C40
:1037800000D4AAE655406C002DB2002D00D4A9E665
:103790005440650024B2002C00D4A8E655406C00CB
:1037A0002DB2002D00D4A7E65440650024B2002CB1
:1037B00000D4A6E655406E002CB2002C00D4A5E63D
:1037C0005640740035B2002D00D5A3E6A3E6544060
:1037D000650024B2002C00D4ACE655406C002DB23C
:1037E000002D00D4ABE65440650024B2002C00D478
:1037F000AAE655406C002DB2002D00D4A9E6544035
:10380000650024B2002C00D4A8E655406E002CB20E
:10381000002C00D4A7E65640740035B2002D00D528
:10382000A5E6A5E6211000005040440000B20028A3
:1038300000D4ACE65440600024B2002C00D4ABE6C7
:103840005040440000B2002800D4AAE65440600072
:1038500024B2002C00D4A9E65040440000B2002855
:1038600000D4A8E65440650020B2002800D4A7E6A2
:10387000554068002CB2002C00D5A5E6A5E65040C6
:10388000440000B2002800D4ABE65440600024B2EB
:10389000002C00D4AAE65040440000B2002800D416
:1038A000A9E65440600024B2002C00D4A8E65040A1
:1038B000440000B2002800D4A7E65440650020B2BE
:1038C000002800D4A6E6554068002CB2002C00D594
:1038D000A4E6A4E65040430000B2002800D4AAE6C3
:1038E000534058001BB2002B00D4A9E650404300BF
:1038F00000B2002800D4A8E6534058001BB2002BA9
:1039000000D4A7E65040430000B2002800D4A6E649
:1039100053405C0018B2002800D4A5E65440600073
:1039200023B2002B00D5A3E6A3E65040430000B22B
:10393000002800D4AAE6534058001BB2002B00D444
:10394000A9E65040430000B2002800D4A8E6534046
:1039500058001BB2002B00D4A7E65040430000B231
:10396000002800D4A6E653405C0018B2002800D41A
:10397000A5E65440600023B2002B00D5A3E6A3E6E1
:103980005040410000B2002800D4AAE6514048004F
:1039900009B2002900D4A9E65040410000B2002835
:1039A00000D4A8E65140480009B2002900D4A7E697
:1039B0005040410000B2002800D4A6E65140480023
:1039C00009B2002900D4A5E65040410000B2002809
:1039D00000D4A4E6514088B270BD0000F0B58FB0AD
:1039E000074602245869002830D01E460D46B54BC4
:1039F000308C00280A9704D0F16900292BD00728C1
:103A00002DD83C69002C23D020683861F88A401CEE
:103A1000F882398B82B2914201D20A990883002040
:103A200020606060A060E0602061328CF169204617
:103A30000830FCF7E7FB308C401C81B2092900D22A
:103A4000E2E00D2900D3CAE00C20DDE0E043431C96
:103A500018B20FB0F0BD5B1C18B20FB0F0BD0194EE
:103A600002922C46801C80B2801D07213D4600F04A
:103A7000A0FDF98ABA8A511A89B2884203D9914BBA
:103A800018B20FB0F0BD0123D807214620430390A0
:103A90008D4C480021408A0C0B92029A120A009227
:103AA000224604939B070793C00F069080270023AC
:103AB000184609930D460C910CE00E992160089B65
:103AC000099CE4B204994C4009945B1C318C00279A
:103AD0008142BDD008930A9B1C69002CCFD005976A
:103AE00021681961D98A491CD9821D8B8FB2BD42C8
:103AF00000D21983002525606560A560E5600E94FD
:103B00002561002805D100990E9C617202992172ED
:103B1000019D378CB84210D2F169095C0E9C67197F
:103B20003972401C6D1C072DF3D1378C08210D9183
:103B300080B2874206D1402405E0691C0D9180B215
:103B40008742F8D0059C099949012143746924787A
:103B50001F2727400F430E9D291D0D9B5C1EA4B2FD
:103B600009190F71039969602B740A9B5C6A002C18
:103B70002146059408D10E995962A0E70B9D8D420C
:103B800022D32168002998D027460C464D68294643
:103B90001140002DF2D50D97374616460C9A8A42F1
:103BA00006D1079A1540AA0F069B93420A9B06D19D
:103BB0000C9A8A4232463E460D9FE2D204E0002D26
:103BC00032463E460D9FDCD0059DAC4203D00E9997
:103BD00039600C6073E70E9959620D606FE7112927
:103BE00001D2102010E0152901D214200CE019296F
:103BF00001D2182008E0212901D2202004E0312937
:103C000001D3402000E030202074401E3084211D6C
:103C100080B20818716909781F220A40C032027107
:103C20000123D807284360600A994E6A002E37D0D6
:103C30000B9425496A000D401846AB0C089080078C
:103C40000E90D00F0D903446099632460C9304E046
:103C5000BB421BD31468002C26D01646224664684B
:103C600027460F40002CF3D5BD420AD10E980440E0
:103C70002846A50F0B460D99A94219460C9B0546EF
:103C800002D1BD42E6D201E0002CE3D0099B9A426A
:103C900010D00B9830600260089B18B20FB0F0BDD6
:103CA0004C6218B20FB0F0BD0B981060089B18B2B0
:103CB0000FB0F0BD0A990B9848620360089B18B2D8
:103CC0000FB0F0BDFDFF0000FFFFFF1FB6B0FDF716
:103CD0002BFA00242B942A94299428942794269430
:103CE000259401256802FDF79BFAD248401C3290CA
:103CF000680631906804309008202F902E94022698
:103D00002D962C96402029902894280227902496BE
:103D100024AF24A8FDF72EFD002803D0EFF3108078
:103D200072B6FEE71794169407201490159614A8FF
:103D30003146FDF71BFC002803D0EFF3108072B66C
:103D4000FEE70B972894BC480168202211430160CC
:103D50000368134011460F921493149A02682A4381
:103D6000026002682A401492149A03680422109296
:103D7000134303600068104014901498052007074F
:103D800038462A46FDF7BAF92794269525950F98C7
:103D9000249024A93846FDF7EBF8A848A84912C09A
:103DA0000460446004818472C562056344630D212C
:103DB000109AC260056141618661C5610562456214
:103DC00085620838FCF7DAFE002803D0EFF3108094
:103DD00072B6FEE7994F3846FDF7ADF8299428945E
:103DE000279526962594249424A93846FCF7F6FCBA
:103DF000002803D0EFF3108072B6FEE729942894D0
:103E0000279526962595AD0724958C4E24A93046F6
:103E1000FCF7E4FC002803D0EFF3108072B6FEE755
:103E20000B98014621310A9128300B900121304630
:103E300009912246FCF7C0FB019482480090824A17
:103E40001932824E8249834B3046FFF73FF8824851
:103E500001783046FFF700FA24A80146293107917E
:103E60000C30089024A8401D069024A8401D059001
:103E70007D4F0F9502E00120FCF78CFBFDF746F922
:103E8000F968401A7049884274D9B888401CB880D3
:103E9000FDF73CF9F860FDF739F911A98C718C80B8
:103EA0000E460E91397ABA883A81BB7AFD887D81B7
:103EB000EB1ADBB20D93551A2902C91831817D2105
:103EC000C90000F076FB119024A810900E26067110
:103ED000E8B2FCF724FB2490059864493246FCF7CD
:103EE00091F914AE1098314600F039FB80B21822D7
:103EF0001092BB1C0C935B490091019302920396B4
:103F000004905248564A554BFEF700F824AD10264F
:103F10002E710D98FCF703FB249006985449324605
:103F2000FCF770F914AE2846314600F018FB80B259
:103F30004C4900910C9901911099029103960490BB
:103F4000424E3046464A454BFDF7E0FF24AD0E9801
:103F5000294600F0D7FA80B2FF215631009101972F
:103F60001099029103950F9D04903046414A424BAF
:103F7000FDF7CCFFFDF7CAF83969401A64282DD344
:103F8000F888401CF880FDF7C1F838613C2108989A
:103F9000FCF797F90A98099901700E220B980270A4
:103FA000364826903648259036482490079836495A
:103FB000FCF728F924A814AD294600F0E9F880B2EE
:103FC00018217A1C314B00930192029103950F9DA9
:103FD00004901E482E4A2F4BFDF798FF1B48FEF712
:103FE000D5FF002800D146E714490968C422895842
:103FF000890200D53FE7FC61BD610168027BBC62BC
:10400000FC623C637C633A620A4A1140796139463A
:104010001431021D0948FCF773FB002800D02AE781
:104020000A4E3046FEF7B7FF3046FEF7AFFF0028D6
:10403000DAD120E7FFFFFF1F341002400005002007
:10404000006400406D410008E7030000D00000203C
:10405000FC000020994000080C000020D6252FE02D
:10406000E08AC9E0F23F000070000020CC48000860
:10407000B8480008F1C6A7C1D068080F5839B43C49
:104080008FC2753C00809743A84800084404000094
:104090006619718A54269C24F0B5FFB0CEB00D4647
:1040A0006AACC98A012950D1297E01294DD19921B3
:1040B0004900611807912034254A09901168491C6C
:1040C00011603120C1006AAE3046FCF7FAF8FDF706
:1040D0001DF801210891318200273781B771B7801F
:1040E000B7742170719770976F977D21C90000F0A8
:1040F00060FA6A90304621301221FCF7E0F817226E
:1041000007980270FF2420463430301811A1FCF7C4
:1041100079F87A340BA807902146FCF7D2F830469C
:10412000079E314600F0D0F8697E0AAA117080B26D
:10413000E97E1823089C009401AC8CC40496059079
:10414000124A114B0998FEF730FF7FB04EB0F0BD18
:10415000FC0400206F72672E6879706D6F74696F50
:104160006E2E6879706D6F74696F6E000120434028
:1041700042401A4350425041002A03D1024A034BA5
:104180000B604A607047C046818A46EE9E6AC42131
:10419000F0B589B00C46054637212046FCF78FF86C
:1041A0002868FEF743FA08AB18800026102720463F
:1041B00031463A46FEF766FA6868FEF737FA07AB0B
:1041C0001880204639463A46FEF75CFAA868FEF7A2
:1041D0002DFA06AB18802021019120463A46FEF7C1
:1041E00051FAE868FEF722FA05AB18803021204624
:1041F0003A46FEF747FA2869FEF718FA04AB18802A
:10420000402120463A46FEF73DFA6869FEF70EFA6D
:1042100003AB1880502120463A46FEF733FAA869CE
:10422000FEF704FA02AB1880602120463A46FEF7FA
:1042300029FA2B461C3370210B222046FEF722FA66
:104240002B461E337B21072720463A46FEF71AFAF3
:104250002B461F33822120463A46FEF713FA2B469F
:104260002033892120463A46FEF70CFA2B462133AB
:10427000902108222046FEF705FA2B462433982188
:104280002046019AFEF7FEF92820285C1F2800D35B
:104290001F20002814D0293501952546B8270199FB
:1042A0008B190822044628463946FEF7EBF92046CA
:1042B000761C0837B442F2D11736304609B0F0BD4B
:1042C0001726304609B0F0BDF0B587B00C4607465A
:1042D0000590FF2101917A312046FBF7F0FF00267F
:1042E00020250395204631462A463B46FEF7CAF96B
:1042F0003B1D022220462946FEF7C4F97B1D2221E0
:10430000032520462A46FEF7BDF9BB1D2521204680
:104310002A46FEF7B7F93B460833282110222046EB
:10432000FEF7B0F93B4610333821082520462A46CF
:10433000FEF7A8F93B4611334021029120462A4658
:10434000FEF7A0F93B461233482120462A46049541
:10435000FEF798F93B461433502120460091039A0A
:10436000FEF790F93B46183370212046029AFEF77B
:1043700089F93B462033B02120462A46FEF782F9D0
:104380003B462133B82120462A46FEF77BF93B46BF
:104390002233C02120462A46FEF774F93B462333D8
:1043A000C82120462A46FEF76DF93B462433D0212A
:1043B00020462A46FEF766F93B462533D82120469B
:1043C0002A46FEF75FF93B462633E02120462A467F
:1043D000FEF758F93B462733E82120462A46FEF7E8
:1043E00051F93B462833F02120462A46FEF74AF988
:1043F0003B462933F82120462A46FEF743F93B463F
:104400002A332920C500294648392046049F3A46C8
:10441000FEF738F9059B2B332946403920463A46AA
:10442000FEF730F9059F3B462C33294638392046A4
:10443000049AFEF727F93B462D33294630392046AA
:10444000049F3A46FEF71EF9059B2E33294628396C
:1044500020463A46FEF716F9059F3B462F3329467C
:1044600020392046049AFEF70DF93B4630332946A1
:1044700018392046049F3A46FEF704F9059B31336C
:104480002946103920463A46FEF7FCF832200599B5
:10449000085C06AF3870294608392046049A3B4626
:1044A000FEF7F0F805999920400008180490387834
:1044B00000280DD00F463337BB1908222046294665
:1044C000FEF7E0F8761C083506A800788642F3D39C
:1044D00004980778502F00D3009F002F05980DD027
:1044E0000199343146180822204629463346FEF702
:1044F000C9F8761C7F1E0835002FF4D1E81DC008CE
:1045000007B0F0BD70B50D4604460021A971697170
:104510002971E970A97069702970202628463246F1
:104520002346FEF7AFF8231D022228463146FEF748
:10453000A9F8631D2221032628463246FEF7A2F879
:10454000A31D252128463246FEF79CF80834282171
:10455000102228462346FEF795F8072070BDF0B5D7
:1045600081B00C4607463F212046FBF7A8FE0025F8
:1045700020262046294632463B46FEF783F8387906
:104580003A2800D33A20002810D000947C1D6319EB
:104590000822074600983146FEF774F838466D1C2D
:1045A0000836AF42F3D1281D01B0F0BD042001B0A0
:1045B000F0BD43088B421AD3002203098B4279D302
:1045C000030A8B425ED3030B8B4242D3030C8B4214
:1045D00027D30902FF2212BA030C8B4202D3121214
:1045E000090203D0030B8B4233D31AE0D3E0411A04
:1045F0008041401C704703460B4371D443088B42F3
:10460000F5D3002203098B4254D3030A8B4239D3DA
:10461000030B8B421DD3030C8B4202D394466EE0F6
:10462000090AC30B8B4201D3CB03C01A5241830B3F
:104630008B4201D38B03C01A5241430B8B4201D3EF
:104640004B03C01A5241030B8B4201D30B03C01A18
:104650005241C30A8B4201D3CB02C01A5241830A92
:104660008B4201D38B02C01A5241430A8B4201D3C1
:104670004B02C01A5241030A8B4201D30B02C01AEB
:104680005241CDD2C3098B4201D3CB01C01A524152
:1046900083098B4201D38B01C01A524143098B42DB
:1046A00001D34B01C01A524103098B4201D30B01C4
:1046B000C01A5241C3088B4201D3CB00C01A5241E9
:1046C00083088B4201D38B00C01A524143088B42AE
:1046D00001D34B00C01A5241411A52411000704799
:1046E000CA0F00D04942031000D340425340002279
:1046F0009C4603098B422DD3030A8B4212D38901B6
:10470000FC2212BA030A8B420CD3890192118B420C
:1047100008D3890192118B4204D3890137D09211B9
:1047200000E08909C3098B4201D3CB01C01A524171
:1047300083098B4201D38B01C01A524143098B423A
:1047400001D34B01C01A524103098B4201D30B0123
:10475000C01A5241C3088B4201D3CB00C01A524148
:1047600083088B4201D38B00C01A5241D9D243082F
:104770008B4201D34B00C01A5241411A00D201466C
:104780005241104663465B1000D340427047634677
:104790005B1000D3404201B50021004201D0C94363
:1047A0000846C046C04602BD70B5420064414B0099
:1047B0005C41120E39D01B0E38D0FF2A3CD0FF2BA3
:1047C0003AD0D2187F3A40024902400A490A4518B5
:1047D000ED0106004E43000A090A48430104731A1A
:1047E0004019190C4318990F04D05B08012149079F
:1047F0005B1A521CD80904D3401CF50301D19D0655
:1048000007D0FF2A08D2D50506D0E4072043401977
:1048100070BD0125A843F4E7002A01DCE00770BD64
:104820002402FF202043C00570BD1B0EFF2A03D0C9
:10483000FF2B01D0E00770BDFF2636064500B542CC
:1048400006D84D00B54203D8D218FF2A00D0E7E7BA
:10485000004870BD0000C07F0000000000000000A4
:104860000000000000000000000000000000000048
:104870000000000000000000010000000200000035
:104880000300000004000000060000000700000014
:1048900008000000090000000001020304050607EB
:1048A000080C1014182030404859504D4F54494FAF
:1048B0004E5F4241545400006261747465727969BC
:1048C0006E666F2072617465000000006865617239
:1048D00074626561742072617465000000490008AB
:1048E000000000201000000004010008104900082A
:1048F00010000020580B00002001000800000000FC
:1049000001000000040000000024F4002A00000060
:04000005080000C12E
:00000001FF
