:020000040800F2
:10000000D80A002089010008651500085D15000860
:1000100061150008C50300089115000800000000E4
:100020000000000000000000000000006D15000846
:10003000E1030008000000006915000871150008C0
:10004000A3010008A3010008A3010008A301000800
:10005000A3010008A3010008A3010008A3010008F0
:10006000A3010008A3010008A3010008A3010008E0
:10007000A3010008A3010008A3010008A3010008D0
:10008000A3010008A3010008A301000879150008D6
:1000900085150008C9030008D5030008A30100085E
:1000A000A3010008A3010008A3010008A3010008A0
:1000B000A3010008A3010008A3010008A301000890
:1000C000A3010008A3010008A3010008A301000880
:1000D000A3010008A3010008A3010008A301000870
:1000E000A3010008A3010008A301000800F002F822
:1000F00000F03AF80AA090E8000C82448344AAF188
:100100000107DA4501D100F02FF8AFF2090EBAE885
:100110000F0013F0010F18BFFB1A43F0010318473B
:10012000C03A0000E03A0000103A24BF78C878C115
:10013000FAD8520724BF30C830C144BF04680C60ED
:10014000704700000023002400250026103A28BF35
:1001500078C1FBD8520728BF30C148BF0B60704739
:100160001FB51FBD10B510BD00F0F1F81146FFF727
:10017000F7FF03F0AFF800F00FF903B4FFF7F2FF59
:1001800003BC00F017F90000094880470948004700
:10019000FEE7FEE7FEE7FEE7FEE7FEE7FEE7FEE737
:1001A000FEE7FEE704480549054A064B7047000094
:1001B00075150008ED000008D8040020D80A0020BA
:1001C000D8060020D8060020032A40F2308010F024
:1001D000030C00F0158011F8013BBCF1020F6244E2
:1001E00098BF11F801CB00F8013B38BF11F8013B73
:1001F000A2F1040298BF00F801CB38BF00F8013B20
:1002000011F0030300F02580083AC0F0088051F88F
:10021000043B083A51F804CBA0E80810F5E7121D9A
:100220005CBF51F8043B40F8043BAFF30080D207B9
:1002300024BF11F8013B11F801CB48BF11F8012B85
:1002400024BF00F8013B00F801CB48BF00F8012BA8
:10025000704710B5203AC0F00B80B1E81850A0E804
:100260001850B1E81850A0E81850203ABFF4F5AF84
:100270005FEA027C24BFB1E81850A0E8185044BFE0
:1002800018C918C0BDE810405FEA827C24BF51F84D
:10029000043B40F8043B08BF7047D20728BF31F841
:1002A000023B48BF11F8012B28BF20F8023B48BF92
:1002B00000F8012B70474FF000020429C0F01280B3
:1002C00010F0030C00F01B80CCF1040CBCF1020F09
:1002D00018BF00F8012BA8BF20F8022BA1EB0C01DE
:1002E00000F00DB85FEAC17C24BF00F8012B00F8D4
:1002F000012B48BF00F8012B70474FF0000200B5FA
:10030000134694469646203922BFA0E80C50A0E838
:100310000C50B1F12001BFF4F7AF090728BFA0E8E6
:100320000C5048BF0CC05DF804EB890028BF40F8B2
:10033000042B08BF704748BF20F8022B11F0804FF4
:1003400018BF00F8012B704770477047704775461B
:1003500000F02CF8AE4605006946534620F0070031
:10036000854618B020B5FFF71DFFBDE820404FF0CF
:1003700000064FF000074FF000084FF0000BAC46AE
:10038000ACE8C009ACE8C009ACE8C009ACE8C009F9
:1003900021F007018D46704710B50446AFF3008089
:1003A0002046BDE81040FFF7E8BE00000048704757
:1003B0001000002001491820ABBEFEE72600020015
:1003C00070470000FEE7000040F27C00C2F200002F
:1003D00000F09AB940F27C00C2F2000000F094B93B
:1003E0007047000090F82020013A012A08D80068E0
:1003F00000F114020020136819431160704700BF18
:1004000000F1240201204FF4802113681943116088
:100410007047000010B590F820E0D0F800C0AEF1B1
:10042000010EBEF1010FDCF808E011D81EF0E05F0C
:1004300018D0CEF3016E012000FA0EF018608B6820
:10044000D3B14868CC6844EAC000034318E000BF59
:1004500000F1240101204FF480220B681A430A6046
:1004600010BD00BF00F1240101204FF400120B6801
:100470001A430A6010BD00BF0868CB6843EA4053C6
:100480000CEB0E10C0F880310B69C0F88431097D87
:10049000012905D100F5C2710B6843F480730B602C
:1004A0005168C0F88C11126800F5C071C0F888213D
:1004B000002001220B681A430A6010BDB0B5026823
:1004C00090F82030013B012B28D8D2F800020123FC
:1004D00040F00100C2F80002D1F814E0CC690EF03F
:1004E0001F0003FA00F0D2F81C326FEA000C8343BD
:1004F000012CC2F81C3217D06CBBD2F80C3203EAC4
:100500000C03C2F80C32CB688C8844EA034302EB3C
:10051000CE04C4F840320B4615E000BF416A41F4F6
:10052000802141620120B0BDD2F80C320343C2F8F1
:100530000C320B688C8844EA034302EBCE04C4F807
:10054000403201F10C038C681B8843EA044302EB40
:10055000CE04C4F84432D2F804328D6943EA000470
:10056000D1F810E0096A002D08BF03EA0C04C2F8B4
:100570000442D2F81432BEF1000F43EA000408BF6F
:1005800003EA0C040129C2F8144204D1D2F81C1267
:100590000843C2F81C02D2F8000220F00100C2F8A1
:1005A00000020020B0BD00007047000010B590F8B8
:1005B0002040013C012C7BD8D0F800C0002900F07D
:1005C0008180DCF81040A40700F081800CEB011C56
:1005D000DCF8B0410CF5D87E14F004049460DCF82B
:1005E000B04119BFE4085460640D1460DEF80040A7
:1005F0000CF5DA7E04F00204D460DCF8B441240780
:100600005ABFDEF8004004F00F0408241461DEF83D
:1006100000400029C4F307249461DEF800404FEA4B
:1006200014445461DCF8B8211A70026802EB01121C
:10063000D2F8B8214FEA12225A70026802EB011276
:10064000D2F8B8214FEA12429A70026802EB011206
:10065000D2F8B8214FEA1262DA70026802EB011296
:10066000D2F8BC211A71026802EB0112D2F8BC2147
:100670004FEA12225A71026802EB0112D2F8BC2131
:100680004FEA12429A71026802EB0112D2F8BC21C1
:100690004FEA1262DA71006814BF00F1100100F134
:1006A0000C01002020220B681A430A6010BD00BF15
:1006B00000F1240101204FF480220B681A430A60E4
:1006C00010BD00BFDCF80C40A4077FF47FAF00F141
:1006D000240101204FF400120B681A430A6010BD78
:1006E00090F820100139012984BF0020704700686C
:1006F000816882688068C1F38061C2F3C06211447E
:10070000C0F30070084470472DE9F04F81B00446F3
:1007100000684669D0F804908768D0F80CB0D0F82B
:1007200010A0D0F81880F10704D1002530071DD49F
:1007300024E000BFF90710D00121BA07816009D475
:10074000780700F1AF80380700F1B680204600F04E
:1007500047FA02E0204600F045FA0025F80500F1CE
:100760008780F80300F1B180300707D51BF0100037
:1007700004D0206845F400751021C160700708D5C9
:100780001BF0080005D020680821C160204600F059
:10079000C3F9B00706D52068C068800702D020469C
:1007A00000F0BCF9700607D51AF0100004D02068DC
:1007B00045F4806510210161B00608D51AF00800E3
:1007C00005D0206808210161204600F0D5F9F00627
:1007D00006D520680069800702D0204600F0CEF9D7
:1007E000B00308D519F0100005D020681021416031
:1007F000204600F0C5F9F00308D519F0080005D02F
:10080000206808214160204600F0F6F9300440F1EC
:100810009B805FEA497040F1948006F4807008EA9A
:10082000102028435FEA8871014648BF41F0020169
:10083000B20558BF01465FEA48700D4648BF45F013
:100840000405700558BF0D46300540F17A8018F058
:10085000700000F076801038000905286CD8DFE8B9
:1008600000F003595D61656945F0080564E000BF6B
:1008700020684FF48071BA0581600BD4780515D4D7
:1008800038051DD4204600F0AFF9F8037FF56CAFB2
:100890001BE000BF204600F0A9F9F8037FF564AF24
:1008A00013E000BF4FF4006558E700BF05F50055A1
:1008B000F8037FF559AF08E04FF480554EE700BFCD
:1008C00005F58045F8037FF54FAF20684FF4803180
:1008D000BA0381600AD4780310D4380314D42046B4
:1008E00000F086F930073FF541AF47E7204600F0BA
:1008F00081F930073FF53AAF40E700BF05F5004505
:1009000030073FF533AF39E705F5803530073FF560
:100910002DAF33E745F010050EE000BF45F0200590
:100920000AE000BF45F0400506E000BF45F0800545
:1009300002E000BF45F480752068816921F07001F4
:10094000816120680421416055B1606A40EA050177
:100950002046616201B0BDE8F04FFFF725BE00BF41
:1009600001B0BDE8F08F0000B0B5C8B1044690F802
:10097000200010B9204600F071F82068016841F0AD
:100980000101016000F05CFA054600BF2068416883
:10099000C90707D100F054FA401B0B28F6D312E028
:1009A0000120B0BD016821F00201016000F048FAA9
:1009B000054600BF2068416889070DD500F040FA60
:1009C000401B0B28F6D3606A052140F400306062BA
:1009D000012084F82010B0BD217E0268012922F098
:1009E000800208BF80320260617E0268012922F025
:1009F000400208BF40320260A17E0268012922F055
:100A0000200208BF20320260E17E0268012922F044
:100A1000100218BF10320260217F0268012922F003
:100A2000080208BF08320260617F0268012922F0D3
:100A3000040208BF04320260D4E901C2D4E90335DC
:100A400061691A432A431143ACF101021143C161A8
:100A500000200121606284F82010B0BDB0B586B0DE
:100A600040F60004C4F201040068A4F52442002109
:100A70009042059102D006B0B0BD00BF41F218000F
:100A8000C4F20200426802AD42F000724260426865
:100A900002F000720192019A026842F004020260C0
:100AA000006800F00400019001984FF40060CDE967
:100AB0000201012004902046294600F0B3F84FF4CB
:100AC0008050029002200390032005902046294682
:100AD00000F0A8F813200021002200F033FA1320C0
:100AE00000F01CFA14200021002200F02BFA142040
:100AF00000F014FA15200021002200F023FA15203E
:100B000000F00CFA16200021002200F01BFA16203B
:100B100000F004FA06B0B0BD7047000010B58EB00A
:100B200007AA05AB0021FFF741FD08B10EB010BDCB
:100B3000DDE9080101AC0429019004BF40F0004048
:100B400001900B9A201D05A98DF81020FFF781FB5D
:100B500000208DF8110000F073F94FF47A71A0FBBA
:100B6000012340F27000C2F200003430214601F04F
:100B7000B1F90EB010BD00007047000070470000D2
:100B800070470000B0B5044690F8200001281DD140
:100B9000022084F820002068016821F00101016032
:100BA00000F04EF9054600BF20684068C00713D02A
:100BB00000F046F9401B0B28F6D3606A40F4003081
:100BC0006062052084F820000120B0BD606A40F416
:100BD000002060620120B0BD00206062B0BD000056
:100BE0007047000070470000704700007047000029
:100BF000704700007047000070470000B0B5044621
:100C000000F01EF9054640F20000C2F20000007834
:100C1000611C18BF044400BF00F012F9401BA04241
:100C2000FAD3B0BD2DE9F04F82B00E68002E00F06F
:100C3000038141F20042C4F20102042340F2004E5B
:100C4000904208BF03234FF6FF7CC4F2010E0093CD
:100C500000240123C1F2100C4FF0000A4FF00009EC
:100C600049E000BF012704F00C030F229A402BEA51
:100C7000020207FA03F34FEA9A051A4346F82520C1
:100C8000D1F804B040F20C455FEACB22DEF8082030
:100C900054BF22EA080242EA0802C4F20105CEF873
:100CA00008202A685FEA8B2354BF22EA080242EA3E
:100CB00008022A605FEA8B33DEF8042054BF22EA80
:100CC000080242EA08025FEACB33CEF80420DEF8DD
:100CD00000204FF0010354BF22EA080242EA080252
:100CE000CEF800200E680AF1010A36FA0AF204F181
:100CF000040400F0A18003FA0AF816EA080FF1D004
:100D00004E68664512DC122E56D8DFE806F0350B29
:100D10004549555555555555555555555555554DA7
:100D2000510000BFD1F80C9046E000BF4FF6FF72B3
:100D3000C1F2210296420FDC0022C1F2110296425A
:100D40001AD00022C1F21202964215D00022C1F23E
:100D50002102964210D02FE00022C1F222029642D8
:100D60000AD00022C1F23102964205D00022C1F21F
:100D70003202964220D100BF8A684AB1012A14BFCC
:100D8000C0F81480C0F810804FF0080914E000BFCC
:100D90004FF0040910E000BFCA6802F108090BE037
:100DA0004FF0000908E000BFCA6802F1040903E03F
:100DB000CA6802F10C0900BF22460646BAF1080FC4
:100DC00024BF203A043637680F25954027EA0505E9
:100DD00009FA02F22A433260CA79D2067FF582AF5D
:100DE00041F21803C4F202031A68AEF57E7642F0AF
:100DF00001021A601A6802F001020192019A2AF0B7
:100E0000030256F802B040F60002C4F2010290421A
:100E100010D040F60042C4F2010290423FF422AFEB
:100E200041F20002C4F20102009F904208BF022773
:100E300019E700BF002716E702B0BDE8F08F0000F9
:100E400040F2D040C2F200000068704740F200005B
:100E500040F2D041C2F20000C2F2000100780A68FC
:100E6000104408607047000080B542F20000C4F2F0
:100E70000200016841F010010160032000F08EF8CB
:100E80000F2000F005F800F027F8002080BD0000DA
:100E900070B540F20006C2F2000640F20801327856
:100EA000C2F200014FF47A730968B3FBF2F2044610
:100EB000B1FBF2F1084600F03BFB0F2C4FF00105AF
:100EC00008D838B94FF0FF3021460022002500F045
:100ED00039F87460284670BD82B041F21800C4F23F
:100EE00002000168022241F001010160016801F085
:100EF000010101910199416841F0805141604068D0
:100F000000F08050009000980420C4F201000168B5
:100F100062F31A61016002B070470000002848BF08
:100F20007047C1B200F01F00012202FA00F04EF239
:100F30000012CEF2000242EAD10121F00301086062
:100F40007047000010B54EF60C5CCEF2000CDCF8D9
:100F50000030C3F3022E8EF00704042C28BF0424B3
:100F6000BEF103034FF0FF3E0EFA04F438BF002336
:100F7000A14399400EFA03F39A43114300F00F0284
:100F800000F160430901043A03F564436244002818
:100F900048BF02F10C03197010BD00004EF60C5151
:100FA000CEF200010A684FF6FF031A4060F30A22EE
:100FB00042F0806040F0FD70086070472DE9F0431A
:100FC00081B0002800F0858042F20008C4F20208D7
:100FD0000446D8F800000D4600F0070088420CD205
:100FE000D8F8000020F007002843C8F80000D8F81F
:100FF000000000F00700A8426BD1206841F204090C
:101000008107C4F2020917D5410705D5D9F80010A8
:1010100041F4E061C9F80010010705D5D9F80010C6
:1010200041F46051C9F80010D9F80010A26821F00D
:10103000F0011143C9F80010C00741D1D8F80000F1
:1010400000F00700A8420CD9D8F8000020F00700F3
:101050002843C8F80000D8F8000000F00700A842B4
:1010600037D12068410707D5D9F80010E26821F48C
:10107000E0611143C9F80010000708D5D9F8000055
:10108000216920F4605040EAC100C9F80000D9F895
:10109000002002F00C00082841F20020C0F27A0083
:1010A00050D143F6B633C2F38341C0F60003595C16
:1010B000D2033BD440F60010C0F23D00484341E06B
:1010C000606802280AD001282AD159F8041C890333
:1010D00008D4012001B0BDE8F08300BF59F8041C1A
:1010E0008901F6D5D9F8001021F003010843C9F8A9
:1010F0000000FFF7A5FE064641F28837D9F8000048
:10110000616800F00C00B0EB810F97D0FFF798FEFC
:10111000801BB842F2D9032001B0BDE8F08300BFC4
:1011200059F8041C8907D4D5DCE700BFD9F80020A2
:1011300043F6B433C2F34042C0F600039A5C48431E
:10114000B0FBF2F0D9F8001043F6A432C1F303115A
:10115000C0F60002515C40F2080220FA01F140F2B0
:101160000400C2F200000068C2F200021160FFF742
:101170008FFE002001B0BDE8F08300002DE9F041B2
:1011800082B0002868D00446007841F20006C0070B
:10119000C4F2020625D0706800F00C0004281BD0B1
:1011A000706800F00C00082802D17068C00313D4E6
:1011B0006068002800F06881B0F5A02F00F07C8105
:1011C000B0F5803F00F07C81306820F480303060E2
:1011D000306820F4802076E13068800301D56068B3
:1011E000D0B32078800718D5706810F00C0F07D0A6
:1011F000706800F00C0008286ED17068C0036BD4D2
:101200003068800702D52069012825D130686169DE
:1012100020F0F80040EAC1003060207800071FD4B9
:101220002078400732D4E56995B1706800F00C0071
:10123000082840F08F80012D0ED07068216A00F4DC
:1012400080328A4208D1616A00F47010884203D16A
:10125000002002B0BDE8F081012002B0BDE8F081BD
:10126000A069002862D00020C4F242200121C0F809
:101270008014FFF7E5FD0546706A800700F18C8059
:10128000FFF7DEFD401B0228F6D92AE1F06910F0D5
:10129000805808D1F06940F08050F061F06900F0AA
:1012A00080500090009847F20007C4F200073868A9
:1012B000C00529D4386840F480703860FFF7C0FD5D
:1012C000054600BF3868C0051ED4FFF7B9FD401BB6
:1012D0006428F7D905E100BF2069002840F200002A
:1012E000C4F2422000F0828001210160FFF7A8FDD6
:1012F000054600BF306880073FF588AFFFF7A0FDC7
:10130000401B0228F6D9ECE0E068002800F080805D
:10131000052800F09780012800F09880306A20F0BE
:1013200001003062306A20F0040092E00020C4F234
:1013300042200021C0F88014FFF782FD054600BF5F
:10134000706A80077FF56CAFFFF77AFD401B0228BB
:10135000F6D9C6E00027C4F2422700203866FFF71E
:101360006FFD022D05460BD13068800140F1BE8033
:10137000FFF766FD401B02284FF00300F4D968E731
:10138000306880017FF564AFFFF75AFD401B0228EB
:101390004FF00300F4D95CE740F20800C2F200000D
:1013A000006844F6D351C1F26201A0FB0101480A72
:1013B000019000BF00BF0198411E002801913FF439
:1013C0002FAF00BF0198411E002801913FF428AFC4
:1013D00000BF0198411E002801913FF421AF00BFDA
:1013E0000198411E00280191E4D119E70021016014
:1013F000FFF726FD054600BF306880077FF50DAF7B
:10140000FFF71EFD401B02284FF00300F4D920E730
:10141000306A20F001003062306A20F0040030624F
:10142000FFF70EFD054641F2883700BF306A80079E
:1014300020D5FFF705FD401BB8424FF00300F5D95A
:1014400007E700BF306A40F004003062306A40F0C5
:1014500001003062FFF7F4FC054641F2883700BF17
:10146000306A800706D4FFF7EBFC401BB842F7D97F
:1014700037E000BFB8F1000F7FF4D5AEF06920F07F
:101480008050F061CFE600BF306820F480303060DB
:10149000306820F480203060FFF7D2FC054600BFA2
:1014A000306880037FF59DAEFFF7CAFC401B6428BF
:1014B0004FF00300F4D9CCE6306840F4802030606F
:1014C000306840F480303060FFF7BAFC054600BF5A
:1014D000306880033FF585AEFFF7B2FC401B6428FF
:1014E000F6D9032002B0BDE8F08100BF206AB0F554
:1014F000803F05D17168A26821F400311143716009
:101500007168626A21F4741111430843706001200C
:101510003866FFF795FC0446306880013FF598AEC9
:10152000FFF78EFC001B02284FF00300F4D990E671
:10153000411E0020B0EB116F1CBF012070474EF21E
:101540001002CEF2000251604EF62351CEF200019D
:10155000F0230B700721906011607047FEE70000D8
:10156000FEE70000FEE70000704700007047000043
:10157000FFF76CBC7047000040F27C00C2F2000034
:10158000FFF7C2B840F27C00C2F20000FFF7BCB81F
:10159000FEE700002DE9F04F83B0B1F816E00F46EA
:1015A00074466FF39F24052C00910190029246D05F
:1015B000042C43D8002B41D00298002501780098D4
:1015C000012B00EB0406F17688BF0125032C4FF0B8
:1015D000010C30D8022B2ED3029800254178022B23
:1015E000317788BF0125022C4FF0020C23D8032B42
:1015F00021D3029800258178032B717788BF0125BC
:10160000012C4FF0030C16D8042B14D3029800259C
:10161000C178042BB17788BF01254FF0040C54B971
:10162000052B08D30298002501794FF0050CF177BE
:10163000052B88BF012525B93CE000BFD3B34FF08F
:10164000000C0098053C416844F62516A208C2F239
:101650009246A2FB067299B1C2EBC202A4EB820EC3
:10166000012200BF0D681746ADB3296881B30D682C
:1016700085B329683A1D0029F4D103372CE000BF57
:10168000019A5068002800F0C980016857895160AC
:10169000791C97898EB2B742518138BF91810099E8
:1016A0004FF0000EC0F800E048609C4580F0A78035
:1016B00044E000BF0EEB03006FF39F200EF47C416B
:1016C000084400990122C88210B203B0BDE8F08F2F
:1016D000013701E002370D46E1188908A1FB061227
:1016E000511C89B2BAB291421AD9BEF1000F1BD176
:1016F000019A5068002800F09B800168578951606A
:10170000791C97898EB24FF0000EB742518138BFD5
:101710009181C0F800E028609C4570D20EE000BFC7
:1017200028469C456BD209E028469C4506D366E0D6
:1017300004461FFA8CF09842204660D21FFA8CFBB8
:101740009B45F5D2029900EB0E0901EB0B0A002430
:101750000BEB040808F1010C0EEB04061AF8041058
:101760009C454FF0000709EB040538BF01271A2EEE
:10177000297198BF9C4529D20AEB040108F1020C9B
:101780004A789C454FF0000738BF0127192E6A712F
:1017900098BF9C451AD208F1030C8A789C454FF0FB
:1017A000000738BF0127182EAA7198BF9C450DD29B
:1017B000043404EB0B0CC9789C454FF0000738BF8C
:1017C0000127172EE97101D89C45C1D3002FAFD056
:1017D000019E7468A4B3216872897160511CB2893A
:1017E0008FB24FF0000EBA42718138BFB181C4F898
:1017F00000E004601FFA8CF0984220469ED3009AC5
:10180000D08AC1186FF39F2100F47C400844D08235
:10181000012210B203B0BDE8F08F00BF0098002194
:101820004FF6FD72416010B203B0BDE8F08F00BF0B
:1018300000214FF6FD72296010B203B0BDE8F08FB1
:1018400000214FF6FD72016010B203B0BDE8F08FC9
:1018500070B58AB0DDE9101EDDF848C0DDE90E5430
:1018600000268DF8181069468DF80060CDE9022336
:10187000ADF810500594CDF81CE0ADF820C000F094
:1018800003F80AB070BD00002DE9F041CF690C46A5
:101890000546002F4FF6FE7000F0BE80217E1F2906
:1018A00000F27C822A78002A00F0BC80238A268CF1
:1018B00042EA0161082E41EA0328C0F05B82D4E9C4
:1018C000020101F061F9F10736D017F8011B013E62
:1018D00080EA012002B2430041F22101002A48BF00
:1018E00081EA400318B25A00002848BF81EA430247
:1018F00010B25300002848BF81EA420318B25A00D0
:10190000002848BF81EA430210B25300002848BFB4
:1019100081EA420318B25A00002848BF81EA430214
:1019200010B25300002848BF81EA42031AB258009F
:10193000002A48BF81EA4300B91E41F2210200BFDC
:1019400011F8023F023E80EA032003B24700002B59
:1019500048BF82EA400738B27B00002848BF82EACD
:10196000470318B25F00002848BF82EA430738B235
:101970007B00002848BF82EA470318B25F000028B6
:1019800048BF82EA430738B27B00002848BF82EA9A
:10199000470318B25F00002848BF82EA430738B205
:1019A0007B00002848BF82EA4703487883EA00208A
:1019B00003B24700002B48BF82EA400738B27B00E1
:1019C000002848BF82EA470318B25F00002848BFDA
:1019D00082EA430738B27B00002848BF82EA470307
:1019E00018B25F00002848BF82EA430738B27B0084
:1019F000002848BF82EA470318B25F00002848BFAA
:101A000082EA43073BB27800002B48BF82EA4700D6
:101A1000002E95D1AFE100BF218C002940F0BE819E
:101A20003CE700BFB4F820E0BEF1070F04D902384C
:101A300000B2BDE8F08100BFB4F810C0BCF1030FE4
:101A400000F2AC81BEF1000F00F08A813A7841F2D9
:101A5000210816026FEA022233B288EA4206002BFE
:101A600048BF560032B27300002A48BF88EA4603D6
:101A70001AB25E00002A48BF88EA430632B27300F9
:101A8000002A48BF88EA46031AB25E00002A48BF0F
:101A900088EA430632B27300002A48BF88EA460348
:101AA0001AB25E00002A48BF88EA430633B27200C9
:101AB000002B48BF88EA4602BEF1010F00F04A81C0
:101AC0007B7882EA032213B25600002B48BF88EAD3
:101AD000420632B27300002A48BF88EA46031AB2AF
:101AE0005E00002A48BF88EA430632B27300002A2B
:101AF00048BF88EA46031AB25E00002A48BF88EA57
:101B0000430632B27300002A48BF88EA46031AB27D
:101B10005E00002A48BF88EA430633B27200002BF9
:101B200048BF88EA4602BEF1020F00F01381BB787D
:101B300041F2210882EA032213B25600002B48BF6B
:101B400088EA420632B27300002A48BF88EA460398
:101B50001AB25E00002A48BF88EA430632B2730018
:101B6000002A48BF88EA46031AB25E00002A48BF2E
:101B700088EA430632B27300002A48BF88EA460367
:101B80001AB25E00002A48BF88EA430633B27200E8
:101B9000002B48BF88EA4602BEF1030F00F0DA804E
:101BA000FB7882EA032213B25600002B48BF88EA72
:101BB000420632B27300002A48BF88EA46031AB2CE
:101BC0005E00002A48BF88EA430632B27300002A4A
:101BD00048BF88EA46031AB25E00002A48BF88EA76
:101BE000430632B27300002A48BF88EA46031AB29D
:101BF0005E00002A48BF88EA430633B27200002B19
:101C000048BF88EA4602BEF1040F00F0A3803B798A
:101C100041F2210882EA032213B25600002B48BF8A
:101C200088EA420632B27300002A48BF88EA4603B7
:101C30001AB25E00002A48BF88EA430632B2730037
:101C4000002A48BF88EA46031AB25E00002A48BF4D
:101C500088EA430632B27300002A48BF88EA460386
:101C60001AB25E00002A48BF88EA430633B2720007
:101C7000002B48BF88EA4602BEF1050F6AD07B7987
:101C800082EA032213B25600002B48BF88EA4206BC
:101C900032B27300002A48BF88EA46031AB25E00D7
:101CA000002A48BF88EA430632B27300002A48BFC0
:101CB00088EA46031AB25E00002A48BF88EA430653
:101CC00032B27300002A48BF88EA46031AB25E00A7
:101CD000002A48BF88EA430633B27200002B48BF8F
:101CE00088EA4602BEF1060F34D0BB7982EA0322AD
:101CF00017B2560041F22103002F48BF83EA420683
:101D000032B27700002A48BF83EA46073AB27E0023
:101D1000002A48BF83EA470632B27700002A48BF4C
:101D200083EA46073AB27E00002A48BF83EA4706A4
:101D300032B27700002A48BF83EA46073AB27E00F3
:101D4000002A48BF83EA470637B27200002F48BF17
:101D500083EA460247F6FE731A40520204E000BFCF
:101D60004FF60042C0F2FF0242EA01610CF00302AA
:101D700041EA0228013082B228464146234601F05A
:101D8000D7F801280ADB61690A780132D3B21F2B28
:101D900088BF00220A7000B2BDE8F08100B2BDE841
:101DA000F081000010B5044620F00040B0F1FF4F74
:101DB00006D347F6FF7008BF4FF4F84011E000BFAC
:101DC0004FF20000C7F6FF7020404FF0F06101F0C5
:101DD0001DFE00F58050B0F1786F28BF4FF078609D
:101DE000400B4FF4004101EA1441084380B210BD9A
:101DF0002DE9F04782B0402A28BF4022002A08BFC0
:101E000001224FF0000C012ACDF804C0CDF800C02B
:101E100004D11B788DF800301EE000BF082A05D8D9
:101E20001B788DF80030530716D120E0102A05D812
:101E30001B88ADF8003053070ED118E0202A05D8D2
:101E40001B680093530707D111E000BFD3E900C31B
:101E5000CDE900C353070AD0D308EC461CF803E0D1
:101E6000544204F007040EFA04F40CF8034000EBAB
:101E7000D10801F0070100234FF47F4CEE4600BF6C
:101E800001F0070603F007053746B54288BF2F4625
:101E9000D41AC7F10807D808BC4238BF27461EF835
:101EA00000002CFA07F400FA05F9CD08E4B218F89E
:101EB00005A024FA06F004EA09042AEA0000F44026
:101EC0003B4420439342394408F80500D8D102B07E
:101ED000BDE8F0872DE9F04F97B0D1F800801E469D
:101EE000964618F08007C8F3C03308F0604208BF78
:101EF0000223B2F1004F13D10C7B4FF6FD7BCCB126
:101F00004FEA08624FEA182505EAE27202F07F0AFA
:101F1000C7B90B905FEA486208BF05F0030518E0F7
:101F20006FF00200A0F1070B0FFA8BF017B0BDE8BD
:101F3000F08F00BFABF1070B0FFA8BF017B0BDE8C5
:101F4000F08F00BF0278924540F08080C8F30745CB
:101F50000B9001F1040CAAB204EB0C0008F07F090D
:101F600042EA034710F8010C47EA894747EA4A6A00
:101F700047B20A900020B7F1FF3F1590149021DD81
:101F80000B98ABF10A0B046ACDF81090002CCBD063
:101F90002269524562D02468002CC5D0226952457E
:101FA0005CD02468002CBFD02269524556D02468EA
:101FB000002CB9D02269524550D02468002CE7D1BA
:101FC000B2E700BF02950B9D09916C6814A92846E1
:101FD000CDE906CECDE90093A047002846D02C6A73
:101FE0004FF6FD7B002C4BD02069504564D024680F
:101FF0007CB1206950455FD0246854B120695045B8
:102000005AD024682CB12069504555D02468002C42
:10201000EAD12C69002C3FF487AF2068E98A286157
:10202000481C298B82B208969142E88238BF2883E7
:102030000020C4E90000C4E90200C4E904A0C4E926
:102040000600286ACDF81090206033E0ABF1080B51
:102050000FFA8BF017B0BDE8F08F00BFCDE9013566
:10206000CDE906CECDE9086129E000BF4FF6FD7B42
:10207000ABF1090B0FFA8BF017B0BDE8F08F00BF82
:102080002C69002C3FF450AF2068E98A2861481C75
:10209000298B82B208969142E88238BF28830020BB
:1020A000CDF81090C4E90000C4E90200C4E904A01E
:1020B000C4E906002C6202E0CDF810900896E68A8A
:1020C00007F01F05B146C6F38426B6EB050EE1689E
:1020D000D4E90130059748BF0EF1200E079F40EA72
:1020E0000102B7EB000C089803958841A91B48BF73
:1020F0002031002A48D048F28042C0F21E02B2EBE2
:102100000C024FF0000282413ED3099A059F92F8DB
:102110000DA0A27E92451DD1B7F1FF3F1ADC002B26
:102120001A461FFA8EFE18BF01220026BEF1010FCB
:1021300088BF0126324325D144F24126C0F20F0662
:10214000BCEB060670F100001CD388B210281BD32C
:1021500078E000BF44F24126C0F20F06BCEB060651
:1021600070F1000005D3B7F1FF3F02DC88B2102800
:102170000AD3DDF818C0DDE908E74E46DDF80C901B
:1021800057E000BF002A5DD003996FF39F2949EA09
:1021900081208946E0825BB3DDE908E70B9E00BF42
:1021A000316918681960F18AA1F101013361F18286
:1021B0006060D8B1326901680260F28A3061501EF5
:1021C000F082616091B1326908680A60F28A316117
:1021D000511EF182606048B1316903680160F18A83
:1021E0003061481E002BF0826360D9D1E08A01E0A3
:1021F000DDE908E700F47C46E68205997A7BDDF8A4
:1022000018C0B1F1FF3FA27610DD00F5806101F446
:10221000F84100F4004008444FF6FD7BE082ABF14A
:102220000A0B0FFA8BF017B0BDE8F08F97F80DA0EE
:10223000002392450DD04FF0000B0FFA8BF017B032
:10224000BDE8F08FDDF818C0DDE908E74E46DDF89F
:102250000C9005980A99C8F3046AB0F1FF3F01F0A9
:1022600040002FDC70B307980B9BC4E9020ECDE948
:102270000C0E387B00210138C0B2ADF84400029842
:102280009A68ADF8460001980F918DF848000498BF
:1022900010918DF84B000CA91846CDF838C08DF878
:1022A00049908DF84AA090474FF0000BE08A00F566
:1022B000806000F4F840E0820FFA8BF017B0BDE8C0
:1022C000F08F00BFC1F34011B1EBD63F14D1C6F37C
:1022D000842149451AD10599B1F1FF3F20DCF8B9B5
:1022E000387B042834D24FF6FD7BABF10D0B0FFA8F
:1022F0008BF017B0BDE8F08F4FF6FD7BABF10B0B09
:102300000FFA8BF017B0BDE8F08F00BF4FF6FD7BE2
:10231000ABF10C0B0FFA8BF017B0BDE8F08F00BFDC
:102320000599002942D4002840D1397B0B9D013901
:1023300005F10C00CBB2214662466646FFF72AF94A
:10234000B0F1FF3F40F38280397BA08A01391DE064
:1023500007980B9DC4E9020E06F47C40E082397BAD
:10236000BE1D033905F10C00CBB221463246FFF702
:1023700011F9B0F1FF3F40F39B80BA88DDE9140109
:10238000228300F001FCA082397B0339CAB23146B6
:1023900000F036FBA082E08A4FF0000B80F4004092
:1023A000E0820FFA8BF017B0BDE8F08F387B6FF347
:1023B0009F26042EA0F10102CDE9097632D810063D
:1023C00000F0A8803879A119032E4FF00107C876D4
:1023D00000F2A880D0B20228C0F0A48009990A9B1C
:1023E00016464A791919022B4FF002070A7716D8B8
:1023F000032814D3099A032792794A770A9A012A63
:102400000DD804280BD3099A0427D2798A770A9A1F
:102410002AB9052803D309980527007AC877049DAF
:102420003246D9E0002B75D008926FF0160218687A
:10243000002879D0016800297AD00868002879D06E
:1024400003687032002BF2D176E000BF606800288C
:1024500064D04FF6FD7B2B461A6901680260DA8A68
:102460001861501E0029D88261603FF41FAF1A69BD
:1024700008680A60DA8A1961511E0028D9826060F2
:102480003FF414AF1A6901680260DA8A1861501EBD
:102490000029D88261603FF409AF1A6908680A60B0
:1024A000DA8A1961511E0028D9826060D4D1FDE614
:1024B000606898B34FF6FD7B2B461A69016802608D
:1024C000DA8A1861501E0029D88261603FF4EEAEAE
:1024D0001A6908680A60DA8A1961511E0028D982CF
:1024E00060603FF4E3AE1A6901680260DA8A18613D
:1024F000501E0029D88261603FF4D8AE1A6908687E
:102500000A60DA8A1961511E0028D9826060D4D12C
:10251000CCE600BF049D00275EE000BFE08A4FF6D6
:10252000FD7BC4E6049D57E01C32184604E000BF62
:10253000383201E054320846B61A1B2E4FF000071D
:10254000CDF818C03ED8089B190641D00A995FFA09
:1025500083F8891A0844C51D03270999F019CA1977
:1025600053780338E91901F8063C1A28A7F1020349
:1025700098BF43451CD29378192801F8053CA7F170
:10258000010398BF434513D2D378182801F8043CBF
:1025900098BF47450DD21279172807F1040001F8BA
:1025A000032C03D8791C41450746D6D3C71E00E04B
:1025B0001F46E08ADDF818C0049D6FF39F200A9043
:1025C00003E000BFDDF818C0049D089A04E000BFD6
:1025D000DDF818C0049D1A46079804F11B01CDE9E7
:1025E0000C0E0E9161680CA8DDF8249000F108082B
:1025F0000F91F8B2D1B209EB000288424FF000000F
:1026000038BF101D10900A9800230844ADF844000C
:1026100002988DF84AA0ADF8460001988DF84B500D
:102620008DF8480003988DF84900636099F80C1004
:10263000A08A4A1E614600F0E3F9218BA0828842FD
:1026400003D10B980CA9826890470F980B9F28B371
:10265000396902680160F98AA1F101013861F982E2
:102660000F92DAB113681060F88AA0F101003A61A4
:10267000F8820F9393B119681A60F88AA0F10100EB
:102680003B61F8820F9149B108680B60FA8A002813
:10269000A2F101023961FA820F90DAD10020E18AB9
:1026A000A8F80C00C8E90000C8F8080001F580602F
:1026B000A18A228B00F4F840B1EB020BE0824FF6C6
:1026C000FD7118BFA1F10E0B0FFA8BF017B0BDE82A
:1026D000F08F00002DE9F041DDE906544FF0000CC9
:1026E0008646C0E905CCC0F80CC04EF810CFC0E952
:1026F0000153846254094FF6FF739C42C0F800C036
:10270000C0E908CC38BF5309C1614BB15A1E032A36
:1027100003F0030806D20024B8F1000F26D135E0FB
:10272000754633E04FF6FC7403EA040601F16002DB
:10273000002400BFA2F16007CEF80070A2F12007CC
:10274000154645F8407D44F00307043442F8605CC8
:1027500001EB471E42F8202CA64202F18002E9D18B
:10276000A2F18005AE46B8F1000F0FD001EB441581
:10277000B8F1010FCEF8005008D005F12001B8F1F2
:10278000020F29601ABF40350D600D46C5F800C024
:102790008382C0F816C0C0F80CC0BDE8F08100000C
:1027A000406A002818BF043070470000416A03697E
:1027B0000A6842620B60C28A0161511EC182704781
:1027C000F0B58BB00DF1480E9EE85040013EDDF8AB
:1027D00054C0DDE91075B6FA86F67609CDE9022314
:1027E0006A468DF80060ADF8107005958DF81840B8
:1027F000CDF81CE0ADF820C000F002F80BB0F0BD41
:102800002DE9F04381B0D66914468146002E4FF67B
:10281000FE7000F0C580227E1F2A00F2C58099F864
:102820000030002B00F0C480278A2578090241EA95
:10283000026143EA074242EAC532278C1143082F5E
:1028400041F08008C0F0BA80D4E9020100F09CF9A0
:10285000F90736D016F8011B013F80EA012002B2C9
:10286000430041F22101002A48BF81EA400318B227
:102870005A00002848BF81EA430210B253000028E2
:1028800048BF81EA420318B25A00002848BF81EAD3
:10289000430210B25300002848BF81EA420318B235
:1028A0005A00002848BF81EA430210B253000028B2
:1028B00048BF81EA42031AB25800002A48BF81EAA1
:1028C0004300B11E41F2210211F8023F023F80EAAB
:1028D000032003B24600002B48BF82EA400630B214
:1028E0007300002848BF82EA460318B25E00002841
:1028F00048BF82EA430630B27300002848BF82EA2C
:10290000460318B25E00002848BF82EA430630B290
:102910007300002848BF82EA460318B25E00002810
:1029200048BF82EA430630B27300002848BF82EAFB
:102930004603487883EA002003B24600002B48BFD4
:1029400082EA400630B27300002848BF82EA46039C
:1029500018B25E00002848BF82EA430630B2730016
:10296000002848BF82EA460318B25E00002848BF2C
:1029700082EA430630B27300002848BF82EA460369
:1029800018B25E00002848BF82EA430633B27000E6
:10299000002B48BF82EA4600002F95D10FE000BF10
:1029A000228C002A3FF437AF00B201B0BDE8F083BB
:1029B000023800B201B0BDE8F08300BF013082B23E
:1029C00048464146234600F0B3FA0128ECDB217863
:1029D0000129E9D161690A780132D3B21F2B88BF7E
:1029E00000220A7000B201B0BDE8F0834AB2012AA9
:1029F000B8BF70470278002A08BF01707047000016
:102A0000B0B5002A00F0BE80D30705D11546012AD3
:102A100000F0B88049E000BF11F801CB551E80EAF4
:102A20000C200FFA80FE440041F2210CBEF1000F91
:102A300048BF8CEA40040FFA84FE6000BEF1000F2C
:102A400048BF8CEA44000FFA80FE4400BEF1000F3C
:102A500048BF8CEA40040FFA84FE6000BEF1000F0C
:102A600048BF8CEA44000FFA80FE4400BEF1000F1C
:102A700048BF8CEA40040FFA84FE6000BEF1000FEC
:102A800048BF8CEA44000FFA80FE4400BEF1000FFC
:102A900048BF8CEA40040FFA84FE6000BEF1000FCC
:102AA00048BF8CEA4400012A6CD0023941F221026D
:102AB00011F8024F023D80EA042004B24300002CCA
:102AC00048BF82EA400318B25C00002848BF82EA8F
:102AD000430420B26300002848BF82EA440318B2CE
:102AE0005C00002848BF82EA430420B2630000284B
:102AF00048BF82EA440318B25C00002848BF82EA5B
:102B0000430420B26300002848BF82EA440318B29D
:102B10005C00002848BF82EA4304487884EA002029
:102B200003B24400002B48BF82EA400420B2630095
:102B3000002848BF82EA440318B25C00002848BF5E
:102B400082EA430420B26300002848BF82EA4403BB
:102B500018B25C00002848BF82EA430420B2630038
:102B6000002848BF82EA440318B25C00002848BF2E
:102B700082EA430423B26000002B48BF82EA44008B
:102B8000002D95D180B2B0BD80B502026FEA00235E
:102B900041F2210E0FFA82FC8EEA4302BCF1000FD3
:102BA00048BF5A000FFA82FC5300BCF1000F48BF27
:102BB0008EEA42030FFA83FC5A00BCF1000F48BFB3
:102BC0008EEA43020FFA82FC5300BCF1000F48BFAB
:102BD0008EEA42030FFA83FC5A00BCF1000F48BF93
:102BE0008EEA43020FFA82FC5300BCF1000F48BF8B
:102BF0008EEA42030FFA83FC5A00BCF1000F48BF73
:102C00008EEA43020FFA82FC5300BCF1000F48BF6A
:102C10008EEA420320F0FF025A400FFA82FC530072
:102C2000BCF1000F48BF8EEA42030FFA83FC5A0042
:102C3000BCF1000F48BF8EEA43020FFA82FC53003A
:102C4000BCF1000F48BF8EEA42030FFA83FC5A0022
:102C5000BCF1000F48BF8EEA43020FFA82FC53001A
:102C6000BCF1000F48BF8EEA42030FFA83FC5A0002
:102C7000BCF1000F48BF8EEA43020FFA82FC5300FA
:102C8000BCF1000F48BF8EEA42030FFA83FC5A00E2
:102C9000BCF1000F48BF8EEA4302030A43EA016316
:102CA00023F0FF035A400FFA82FC5300BCF1000FDF
:102CB00048BF8EEA42030FFA83FC5A00BCF1000FB2
:102CC00048BF8EEA43020FFA82FC5300BCF1000FAA
:102CD00048BF8EEA42030FFA83FC5A00BCF1000F92
:102CE00048BF8EEA43020FFA82FC5300BCF1000F8A
:102CF00048BF8EEA42030FFA83FC5A00000CBCF175
:102D0000000F48BF8EEA43020FFA82FC530040EAEC
:102D10000140BCF1000F48BF8EEA42030FFA83FC6A
:102D20005A0020F0FF00BCF1000F48BF8EEA4302BA
:102D3000504002B24300002A48BF8EEA400318B256
:102D40005A00002848BF8EEA430210B25300002800
:102D500048BF8EEA420318B25A00002848BF8EEAE4
:102D6000430210B25300002848BF8EEA420318B253
:102D70005A00002848BF8EEA430210B253000028D0
:102D800048BF8EEA420318B25A00002848BF8EEAB4
:102D9000430282EA012002B24300002A48BF8EEAC1
:102DA000400318B25A00002848BF8EEA430210B20E
:102DB0005300002848BF8EEA420318B25A00002888
:102DC00048BF8EEA430210B25300002848BF8EEA83
:102DD000420318B25A00002848BF8EEA430210B2DC
:102DE0005300002848BF8EEA420318B25A00002858
:102DF00021F0FF0048BF8EEA4302504002B2430078
:102E0000002A48BF8EEA400318B25A00002848BF83
:102E10008EEA430210B25300002848BF8EEA4203F4
:102E200018B25A00002848BF8EEA430210B253007D
:102E3000002848BF8EEA420318B25A00002848BF53
:102E40008EEA430210B25300002848BF8EEA4203C4
:102E500018B25A006FF0FF0C002848BF8EEA4302F8
:102E60000CEA11235A4013B25000002B48BF8EEADF
:102E7000420002B24300002A48BF8EEA400318B263
:102E80005A00002848BF8EEA430210B253000028BF
:102E900048BF8EEA420318B25A00002848BF8EEAA3
:102EA000430210B25300002848BF8EEA420318B212
:102EB0005A00002848BF8EEA430210B2530000288F
:102EC0000CEA114048BF8EEA4203584001B242006A
:102ED000002948BF8EEA400210B25100002848BFC6
:102EE0008EEA420108B24A00002848BF8EEA410239
:102EF00010B25100002848BF8EEA420108B24A00D1
:102F0000002848BF8EEA410210B25100002848BF95
:102F10008EEA420108B24A00002848BF8EEA410208
:102F200010B25100002848BF8EEA420188B280BD2D
:102F30002DE9F04F8BB01D465B69ABB38146288C01
:102F40000E464FF6FD7E18B1E969B9B307283DD8A2
:102F5000D9F81080B8F1000F2AD0D8F80000B9F8DD
:102F60001610C9F81000481CB9F8181082B2914226
:102F7000A9F8160038BFA9F8180000214046C8E992
:102F80000311C8E9001140F8081FE9692A8CFDF710
:102F90001BF9288C013081B20929C0F03F810D292D
:102FA00080F028810C2039E16FF0020000F1010E61
:102FB0000FFA8EF00BB0BDE8F08F00BF0EF1010EDE
:102FC0000FFA8EF00BB0BDE8F08F00BF023080B278
:102FD00044F625110630C2F29241A0FB0117B9F860
:102FE0001410B9F81630C01BC91A07EB500089B28B
:102FF000B1EB900F06D24FF6FD7E0FFA8EF00BB0BC
:10300000BDE8F08F100A019046F00040059026F0D0
:10301000604CC6F380704FEA9C4B0A9080204FF0C2
:10302000000E002400270292CDE903CB0DE000BF83
:1030300009990160298C5FFA8AF00EF1010E80F087
:103040000107A1424FF00000B2D0D9F81060002E65
:10305000D1D006903068B9F81610C9F81000481C95
:10306000B9F8181082B29142A9F8160038BFA9F831
:103070001800CDE9077E4F460023C6E90033C6E9B4
:103080000233336124B902980223307201987072BE
:10309000F2184FF000099C460996B5F8208004EB21
:1030A000090EC64539D200BFE86902EB090A1EF8CD
:1030B00000000EF1010B8AF8080003EB0900062856
:1030C0002ED0B5F82080C34536D2E9690EF1020B47
:1030D000714449788AF80910B5F82080C3452FD289
:1030E000E9690428714489780EF1030B8AF80A1003
:1030F00016D0B5F82080C34526D2E8690CF1040C3F
:1031000020444844C07809F104098AF80B00B5F856
:10311000208004EB090EC645C6D3F34616E000BF77
:103120000DF1180EDDF80CC09EE80844B5F82080BB
:10313000B946082013E000BF4CF0010C06E000BFC8
:103140000CF1020C02E000BF00F1030C0DF1180EAF
:103150009EE808440CF10100DDF80CC0B9461FFAE6
:103160008BF4A04508BF40236A6943EA4A131278EA
:10317000059E02F01F021A43099B411E89B243F8C3
:10318000046F19440A71D9F82480DDF810B018735F
:10319000B8F1000F4346424618D10998C9F82400F7
:1031A00048E700BF00269C4538BF01260A9FC1F3AF
:1031B00080718F4208BF31469C4518BF31460129B6
:1031C0000CD003680246002B3FF432AF5968184612
:1031D000002921F06043E5D49B45F2D2404503D05D
:1031E00009991160086025E70998C0F80080C9F8BE
:1031F00024001FE7112901D210200FE0152901D268
:1032000014200BE0192901D2182007E0212901D24E
:10321000202003E04020312938BF3020411E6A6958
:10322000298488F810001078062262F35F1046F0B7
:103230000042434689B243F8042F19440871D9F873
:1032400024C0BCF1000F3BD026F060418A0CC6F3CD
:1032500080776346654611E0C3F38073B1424FF057
:10326000000438BF01249F4208BF2346B14218BF63
:103270002346012B0AD003680546ABB118465B68AC
:10328000002B23F06046E7D4B242F4D2604515D05B
:10329000C5F80080C8F800004FF0010E0FFA8EF05C
:1032A0000BB0BDE8F08F00BFC0F800804FF0010EFA
:1032B0000FFA8EF00BB0BDE8F08F00BFC8F800C069
:1032C000C9F824804FF0010E0FFA8EF00BB0BDE864
:1032D000F08F0000A8B0FDF7C7FD00240120CDE964
:1032E0001B44CDE9194416901A904FF4E0104FF4A6
:1032F000803102251F9016A8CDE91714CDE91D5184
:10330000FDF73CFF20B1EFF3108072B6FEE700BF7F
:103310000F20CDE908054FF480600A94CDE90B0435
:1033200008AC20460221FDF749FE28B1EFF31080DA
:1033300072B600BFFEE700BF41F21800C4F20200FF
:10334000016840F2700A41F0200101600168C2F298
:10335000000A01F020011691169901684FF0040847
:1033600041F004010160006846F2004100F00400F1
:1033700016901698C4F20001504640F80C1F4FF00A
:1033800000094FF4C021C0E90189C0E90391C0E9F7
:103390000599A0F81C90FDF7E7FA28B1EFF310802B
:1033A00072B600BFFEE700BF0AF10C052846FDF724
:1033B000E9FB28460221FDF715F843F22960C0F623
:1033C00000000AF1340640F2D00143F27953009034
:1033D000C2F20001C0F6000330464FF48062CDF81F
:1033E0000490FFF777F930460C21FFF7FFFA012030
:1033F00016AFCDE91D0028463946CDE91B99CDE928
:103400001699CDE91899CDF86890FDF757F807F1AE
:103410000C00079007F12900069000BF3046FFF727
:10342000BFF930B3834600BF2846FDF759F900B312
:10343000CDF86090CDE91A99CDE91699CDE91889B2
:10344000DBF800009BF80C1020F0604017901A91F8
:103450000BF10402284639462346FCF7DBFF40B94E
:103460003046FFF7A3F93046FFF79AF98346002864
:10347000DAD10120FDF7C2FBFDF7E2FCDAF8041017
:10348000401AB0F57A7F2FD3FDF7DAFC44F6D3511A
:10349000C1F26201A0FB010188091690384621465D
:1034A000ADF85C908DF85E90ADF86090CDF823900B
:1034B000CDF8209000F082FA80B240F255114CF223
:1034C000F16246F6D003CDE9001A18210490304687
:1034D000CCF2A712C0F6087302910394FEF7B8F974
:1034E000FDF7AEFCCAF80400FDF7AAFCDAF80810F4
:1034F000401A642892D307983C21FCF7FEFE002076
:10350000C4F2C81016904BF22100C4F2D1101790EB
:103510004EF69E70C4F20700189043F26460ADF856
:10352000760014208DF88000069843F6C831C0F666
:1035300000011422FCF748FE3846214600F08AF8C4
:103540000AF1010140F2444280B2CDE9002141F686
:10355000661242F25463182104903046C8F6712274
:10356000C2F29C4302910394FEF772F9FDF768FCE6
:10357000CAF8080052E700002DE9F043ADF5497D97
:103580000D46C98A01294AD10446287E012846D120
:103590000DF5CC7840464FF4C471FCF7AEFEFDF754
:1035A0004FFC44F6D351C1F26201A0FB010188092E
:1035B000669002208DF8CA0243F2375007AF00260A
:1035C0004FF00109ADF8CB02384640F27911ADF861
:1035D0009C618DF89E61ADF8A061ADF8A891ADF841
:1035E000B891FCF78AFE4046394600F0D5F86A7E6D
:1035F000E97E8DF81B200DF11B0285B21820CDE964
:10360000009202AAC1C246F69E2248F68123C2F267
:10361000C412CEF6466320460595FFF7D1F80DF5A6
:10362000497DBDE8F083000082F0010083F00102D3
:103630001043B0FA80F04FEA501018BF704748F6B8
:10364000812246F69E23CEF64662C2F2C413C1E939
:10365000003270472DE9F04184B08846054608469F
:103660003721FCF728FE2868FEF79CFBADF80E001A
:103670000DF10E03404600211022FEF7B9FB6868E9
:10368000FEF790FBADF80C0003AB40461021102272
:10369000FEF7AEFBA868FEF785FBADF80A000DF15A
:1036A0000A03404620211022FEF7A2FBE868FEF73D
:1036B00079FBADF8080002AB404630211022FEF73E
:1036C00097FB2869FEF76EFBADF806000DF10603C7
:1036D000404640211022FEF78BFB6869FEF762FB33
:1036E000ADF8040001AB404650211022FEF780FBEC
:1036F000A869FEF757FBADF802000DF10203404642
:1037000060211022FEF774FB05F11C034046702176
:103710000B22FEF76DFB05F11E0340467B210722BD
:10372000FEF766FB05F11F03404682210722FEF7E4
:103730005FFB05F12003404689210722FEF758FB75
:1037400005F12103404690210822FEF751FB05F1C7
:103750002403404698212022FEF74AFB95F8286072
:103760001F2E28BF1F269EB105F129040027B8256A
:10377000E319404629460822FEF73AFB0137BE42CC
:1037800005F10805F4D107F1170004B0BDE8F08198
:10379000172004B0BDE8F0812DE9F04381B08946DF
:1037A0008046084640F27911FCF785FD4846002125
:1037B00020224346FEF71CFB08F104034846202163
:1037C0000222FEF715FB08F10503484622210322D9
:1037D000FEF70EFB08F10603484625210322FEF7FB
:1037E00007FB08F10803484628211022FEF700FBDA
:1037F00008F11003484638210822FEF7F9FA08F1CB
:103800001103484640210822FEF7F2FA08F112039C
:10381000484648210822FEF7EBFA08F1140348460F
:10382000502120225027FEF7E3FA08F118034846FA
:1038300070214022FEF7DCFA08F120034846B0214F
:103840000822FEF7D5FA08F121034846B8210822DC
:10385000FEF7CEFA08F122034846C0210822FEF7FF
:10386000C7FA08F123034846C8210822FEF7C0FA28
:1038700008F124034846D0210822FEF7B9FA08F1DE
:1038800025034846D8210822FEF7B2FA08F126039C
:103890004846E0210822FEF7ABFA08F12703484624
:1038A000E8210822FEF7A4FA08F128034846F0218F
:1038B0000822FEF79DFA08F129034846F82108225C
:1038C000FEF796FA08F12A0348464FF48071082261
:1038D000FEF78EFA08F12B0348464FF48471082254
:1038E000FEF786FA08F12C0348464FF48871082247
:1038F000FEF77EFA08F12D0348464FF48C7108223A
:10390000FEF776FA08F12E0348464FF4907108222C
:10391000FEF76EFA08F12F0348464FF4947108221F
:10392000FEF766FA08F1300348464FF49871082212
:10393000FEF75EFA08F1310348464FF49C71082205
:10394000FEF756FA98F832000DF103038DF80300E4
:1039500048464FF4A0710822FEF74AFA9DF803008A
:1039600090B108F1330500244FF4A4762B19484692
:1039700031460822FEF73CFA9DF8030001348442E8
:1039800006F10806F2D301E04FF4A47698F832016C
:10399000502838BF074667B108F23315484631460C
:1039A00008222B46FEF724FA0836013F05F10105EF
:1039B000F4D1F01DC00801B0BDE8F083B0B50546F4
:1039C00000200C46C1F803000860084600212022B0
:1039D0002B46FEF70DFA2B1D204620210222FEF772
:1039E00007FA6B1D204622210322FEF701FAAB1DC8
:1039F000204625210322FEF7FBF905F108032046A6
:103A000028211022FEF7F4F90720B0BD4FF47F0CF7
:103A10001CEAD0121EBF1CEAD11392EA0C0F93EAE3
:103A20000C0F00F0478090EA010F48BF42F480720B
:103A30004FF0004C4CEA00204CEA012102EB03025B
:103A4000A0FB0113A2F50002002918BF43F00103F7
:103A50005B0028BF4FEA330342EB22425FEA132C9C
:103A60004CEBC2502EBFBCEB436FB2F57C0F7047DE
:103A70004FEA036CBCF1004F08BF20F00100B2F523
:103A80007C0F38BF70470BD582F0FF0212F5803FE4
:103A9000C8BF704700F1C040D8BF00F00040704779
:103AA00000F5000C5FEA4C0C48BF7047B0F1C04015
:103AB00000F073B80CEAD11390EA010F48BF42F44A
:103AC0008072624538BF634504D280EA010000F08D
:103AD0000040704710B500F01AF800BF8900013EA1
:103AE00000F007B800F009B85FEA410C5FEA1C6C0F
:103AF00008D080EA010000F050B85FEA400C5FEAAD
:103B00001C6CF6D14FF00040A0F5800070470EF11C
:103B1000020E2EF0030E5EF8044B244204D44FEA4A
:103B20004102B2F17F4F11D84FEA4003B3F17F4F0A
:103B30000CD80ED14FEAD07C0CEB4C0C0CF1020CE3
:103B4000B2F17F4F08BF4CEBD17C04E04FF0080C82
:103B500001E04FEAD17C0CEB4C0324FA03F404F0AF
:103B60000704B4F1040C06D20EEB840CBDE810403F
:103B70004CF0010C6047DFE80CF0070802024FF040
:103B80000040A0F5800010BD0846420018BFD2F1E9
:103B9000807288BF00F0004010BDFF2141EAD05084
:103BA000C00570470000000000000000010203048F
:103BB00006070809010202030405060708090A0BA3
:103BC0000C0D0E0F101000006879706D6F74696F26
:103BD0006E5F7061636B5F70696E5F320000000042
:103BE000003C000800000020100000002801000830
:103BF000103C000810000020C80A00004401000822
:103C0000010000001000000000127A000000000017
:04000005080000ED02
:00000001FF
