:020000040800F2
:10000000400B00208901000821240008D91D0008A8
:100010001D240008410500084D24000800000000D0
:10002000000000000000000000000000292400087B
:100030005D05000800000000252400082D240008AC
:10004000A3010008A3010008A3010008A301000800
:10005000A3010008A3010008A3010008A3010008F0
:10006000A3010008A3010008A3010008A3010008E0
:10007000A3010008A3010008A3010008A3010008D0
:10008000A3010008A3010008A3010008352400080B
:10009000412400084505000851050008A301000897
:1000A000A3010008A3010008A3010008A3010008A0
:1000B000A3010008A3010008A3010008A301000890
:1000C000A3010008A3010008A3010008A301000880
:1000D000A3010008A3010008A3010008A301000870
:1000E000A3010008A3010008A301000800F002F822
:1000F00000F03AF80AA090E8000C82448344AAF188
:100100000107DA4501D100F02FF8AFF2090EBAE885
:100110000F0013F0010F18BFFB1A43F0010318473B
:10012000084C0000284C0000103A24BF78C878C161
:10013000FAD8520724BF30C830C144BF04680C60ED
:10014000704700000023002400250026103A28BF35
:1001500078C1FBD8520728BF30C148BF0B60704739
:100160001FB51FBD10B510BD00F0F1F81146FFF727
:10017000F7FF04F00DF800F00FF903B4FFF7F2FFFA
:1001800003BC00F017F90000094880470948004700
:10019000FEE7FEE7FEE7FEE7FEE7FEE7FEE7FEE737
:1001A000FEE7FEE704480549054A064B7047000094
:1001B00031240008ED00000840050020400B00201D
:1001C0004007002040070020032A40F2308010F052
:1001D000030C00F0158011F8013BBCF1020F6244E2
:1001E00098BF11F801CB00F8013B38BF11F8013B73
:1001F000A2F1040298BF00F801CB38BF00F8013B20
:1002000011F0030300F02580083AC0F0088051F88F
:10021000043B083A51F804CBA0E80810F5E7121D9A
:100220005CBF51F8043B40F8043BAFF30080D207B9
:1002300024BF11F8013B11F801CB48BF11F8012B85
:1002400024BF00F8013B00F801CB48BF00F8012BA8
:10025000704710B5203AC0F00B80B1E81850A0E804
:100260001850B1E81850A0E81850203ABFF4F5AF84
:100270005FEA027C24BFB1E81850A0E8185044BFE0
:1002800018C918C0BDE810405FEA827C24BF51F84D
:10029000043B40F8043B08BF7047D20728BF31F841
:1002A000023B48BF11F8012B28BF20F8023B48BF92
:1002B00000F8012B70474FF000020429C0F01280B3
:1002C00010F0030C00F01B80CCF1040CBCF1020F09
:1002D00018BF00F8012BA8BF20F8022BA1EB0C01DE
:1002E00000F00DB85FEAC17C24BF00F8012B00F8D4
:1002F000012B48BF00F8012B70474FF0000200B5FA
:10030000134694469646203922BFA0E80C50A0E838
:100310000C50B1F12001BFF4F7AF090728BFA0E8E6
:100320000C5048BF0CC05DF804EB890028BF40F8B2
:10033000042B08BF704748BF20F8022B11F0804FF4
:1003400018BF00F8012B704770477047704775461B
:1003500000F02CF8AE4605006946534620F0070031
:10036000854618B020B5FFF71DFFBDE820404FF0CF
:1003700000064FF000074FF000084FF0000BAC46AE
:10038000ACE8C009ACE8C009ACE8C009ACE8C009F9
:1003900021F007018D46704710B50446AFF3008089
:1003A0002046BDE81040FFF7E8BE00000048704757
:1003B0001000002001491820ABBEFEE72600020015
:1003C0007047000040F2E001C2F20001086070478F
:1003D0002DE9F04F87B040F2E005C2F20005296830
:1003E000044601204FF47A76CDE9004008461621F4
:1003F0000D220123029600F053FF28B1286801F076
:10040000EDFC4FF0010801E04FF0000828680221E0
:100410000DF11202CDE900211621092201230296D5
:1004200000F03EFF30B1286801F0D8FC4FF0010920
:1004300005E000BFBDF812004FF000096080286899
:10044000022105AA4FF47A77CDE9002116210A226C
:100450000123029700F024FF30B1286801F0BEFCB0
:100460004FF0010A05E000BFBDF814004FF0000A8C
:10047000A080286802210DF116024FF47A77CDE9A9
:100480000021162108220123029700F009FF38B14C
:10049000286801F0A3FC4FF0010B002006E000BF2C
:1004A000BDF8160004F0CAFA4FF0000B4CF6CD412F
:1004B000C3F6CC5104F0D6FA49F23331CCF288318C
:1004C00004F042FA2968A060022006AA4FF47A7666
:1004D000CDE90020084616210F220123029600F0E4
:1004E000DFFE28B1286801F079FC012604E000BF96
:1004F000BDF818000026A081286802210DF11A021B
:100500004FF47A77CDE900211621102201230297BA
:1005100000F0C6FE20B1286801F060FC012003E075
:10052000BDF81A00E081002049EA080141EA0A0109
:1005300041EA0B013143084307B0BDE8F08F0000EA
:10054000FEE7000040F28C00C2F2000000F09AB911
:1005500040F28C00C2F2000000F094B97047000035
:1005600090F82020013A012A08D8006800F114020E
:100570000020136819431160704700BF00F1240286
:1005800001204FF480211368194311607047000067
:1005900010B590F820E0D0F800C0AEF1010EBEF129
:1005A000010FDCF808E011D81EF0E05F18D0CEF3A0
:1005B000016E012000FA0EF018608B68D3B1486814
:1005C000CC6844EAC000034318E000BF00F12401F6
:1005D00001204FF480220B681A430A6010BD00BF4F
:1005E00000F1240101204FF400120B681A430A6045
:1005F00010BD00BF0868CB6843EA40530CEB0E10F7
:10060000C0F880310B69C0F88431097D012905D11A
:1006100000F5C2710B6843F480730B605168C0F839
:100620008C11126800F5C071C0F8882100200122E9
:100630000B681A430A6010BDB0B5026890F820300C
:10064000013B012B28D8D2F80002012340F0010021
:10065000C2F80002D1F814E0CC690EF01F0003FAD2
:1006600000F0D2F81C326FEA000C8343012CC2F870
:100670001C3217D06CBBD2F80C3203EA0C03C2F860
:100680000C32CB688C8844EA034302EBCE04C4F8F6
:1006900040320B4615E000BF416A41F480214162BF
:1006A0000120B0BDD2F80C320343C2F80C320B6803
:1006B0008C8844EA034302EBCE04C4F8403201F1D3
:1006C0000C038C681B8843EA044302EBCE04C4F895
:1006D0004432D2F804328D6943EA0004D1F810E0C4
:1006E000096A002D08BF03EA0C04C2F80442D2F8DC
:1006F0001432BEF1000F43EA000408BF03EA0C0401
:100700000129C2F8144204D1D2F81C120843C2F8DD
:100710001C02D2F8000220F00100C2F80002002002
:10072000B0BD00007047000010B590F82040013CBB
:10073000012C7BD8D0F800C0002900F08180DCF8C3
:100740001040A40700F081800CEB011CDCF8B041E4
:100750000CF5D87E14F004049460DCF8B04119BFA5
:10076000E4085460640D1460DEF800400CF5DA7E95
:1007700004F00204D460DCF8B44124075ABFDEF868
:10078000004004F00F0408241461DEF80040002942
:10079000C4F307249461DEF800404FEA1444546126
:1007A000DCF8B8211A70026802EB0112D2F8B82105
:1007B0004FEA12225A70026802EB0112D2F8B821F5
:1007C0004FEA12429A70026802EB0112D2F8B82185
:1007D0004FEA1262DA70026802EB0112D2F8BC2111
:1007E0001A71026802EB0112D2F8BC214FEA122200
:1007F0005A71026802EB0112D2F8BC214FEA124290
:100800009A71026802EB0112D2F8BC214FEA12621F
:10081000DA71006814BF00F1100100F10C01002032
:1008200020220B681A430A6010BD00BF00F12401AA
:1008300001204FF480220B681A430A6010BD00BFEC
:10084000DCF80C40A4077FF47FAF00F12401012005
:100850004FF400120B681A430A6010BD90F8201084
:100860000139012984BF00207047006881688268CF
:100870008068C1F38061C2F3C0621144C0F30070AC
:10088000084470472DE9F04F81B00446006846697E
:10089000D0F804908768D0F80CB0D0F810A0D0F849
:1008A0001880F10704D1002530071DD424E000BFD3
:1008B000F90710D00121BA07816009D4780700F147
:1008C000AF80380700F1B680204600F047FA02E01A
:1008D000204600F045FA0025F80500F18780F8036E
:1008E00000F1B180300707D51BF0100004D020685C
:1008F00045F400751021C160700708D51BF0080091
:1009000005D020680821C160204600F0C3F9B00777
:1009100006D52068C068800702D0204600F0BCF9E8
:10092000700607D51AF0100004D0206845F48065E1
:1009300010210161B00608D51AF0080005D0206822
:1009400008210161204600F0D5F9F00606D520689F
:100950000069800702D0204600F0CEF9B00308D528
:1009600019F0100005D0206810214160204600F0E9
:10097000C5F9F00308D519F0080005D02068082152
:100980004160204600F0F6F9300440F19B805FEAB8
:10099000497040F1948006F4807008EA10202843E2
:1009A0005FEA8871014648BF41F00201B20558BFB5
:1009B00001465FEA48700D4648BF45F004057005E2
:1009C00058BF0D46300540F17A8018F0700000F0F5
:1009D00076801038000905286CD8DFE800F003594C
:1009E0005D61656945F0080564E000BF20684FF46B
:1009F0008071BA0581600BD4780515D438051DD4F3
:100A0000204600F0AFF9F8037FF56CAF1BE000BFA4
:100A1000204600F0A9F9F8037FF564AF13E000BFAA
:100A20004FF4006558E700BF05F50055F8037FF562
:100A300059AF08E04FF480554EE700BF05F58045FB
:100A4000F8037FF54FAF20684FF48031BA0381601F
:100A50000AD4780310D4380314D4204600F086F961
:100A600030073FF541AF47E7204600F081F93007F6
:100A70003FF53AAF40E700BF05F5004530073FF5C9
:100A800033AF39E705F5803530073FF52DAF33E754
:100A900045F010050EE000BF45F020050AE000BF5C
:100AA00045F0400506E000BF45F0800502E000BFCC
:100AB00045F480752068816921F0700181612068AA
:100AC0000421416055B1606A40EA05012046616237
:100AD00001B0BDE8F04FFFF725BE00BF01B0BDE893
:100AE000F08F0000B0B5C8B1044690F8200010B9EE
:100AF000204600F071F82068016841F001010160B2
:100B000000F0ECFA054600BF20684168C90707D12C
:100B100000F0E4FA401B0B28F6D312E00120B0BD30
:100B2000016821F00201016000F0D8FA054600BF1B
:100B30002068416889070DD500F0D0FA401B0B28CA
:100B4000F6D3606A052140F400306062012084F829
:100B50002010B0BD217E0268012922F0800208BF6A
:100B600080320260617E0268012922F0400208BFE3
:100B700040320260A17E0268012922F0200208BFF3
:100B800020320260E17E0268012922F0100218BFC3
:100B900010320260217F0268012922F0080208BF9A
:100BA00008320260617F0268012922F0040208BF56
:100BB00004320260D4E901C2D4E9033561691A4301
:100BC0002A431143ACF101021143C161002001210C
:100BD000606284F82010B0BDB0B586B040F6000465
:100BE000C4F201040068A4F524420021904205915A
:100BF00002D006B0B0BD00BF41F21800C4F202003E
:100C0000426802AD42F000724260426802F0007237
:100C10000192019A026842F004020260006800F04A
:100C20000400019001984FF40060CDE90201012019
:100C300004902046294600F03DF94FF48050029080
:100C400002200390032005902046294600F032F947
:100C500013200021002200F09FFD132000F088FDEA
:100C600014200021002200F097FD142000F080FDE8
:100C700015200021002200F08FFD152000F078FDE6
:100C800016200021002200F087FD162000F070FDE4
:100C900006B0B0BD7047000010B58EB007AA05AB16
:100CA0000021FFF741FD08B10EB010BDDDE90801DC
:100CB00001AC0429019004BF40F0004001900B9A60
:100CC000201D05A98DF81020FFF7C3FA00208DF82C
:100CD000110000F003FA4FF47A71A0FB012340F2F7
:100CE0007000C2F200004430214602F051F80EB00C
:100CF00010BD000070470000704700007047000002
:100D0000B0B5044690F8200001281DD1022084F8D7
:100D100020002068016821F00101016000F0DEF987
:100D2000054600BF20684068C00713D000F0D6F920
:100D3000401B0B28F6D3606A40F400306062052047
:100D400084F820000120B0BD606A40F40020606299
:100D50000120B0BD00206062B0BD000070470000FF
:100D600070470000704700007047000070470000A7
:100D70007047000070470000B0B5044600F0AEF9BF
:100D8000054640F20000C2F200000078611C18BF66
:100D9000044400BF00F0A2F9401BA042FAD3B0BD4A
:100DA0002DE9F04F81B0002900F0808040F2004E24
:100DB00041F20042C4F2010EC4F2010290424FF02F
:100DC00004024FF000046FF01F05AEF57E774FF080
:100DD0000F0808BF0322009219E000BF0246BBF5CE
:100DE000807F24BFAA460432136808FA0AF6B34388
:100DF000042606FA0AF633431360C26802EA0C02BC
:100E0000C260013431FA04F205F104054ED001222A
:100E1000A24012EA010BF4D024F00302BE5840F6BF
:100E20000002C4F20102904210D040F60042C4F227
:100E30000102904208D041F20002C4F20102904245
:100E4000009A08BF022202E0012200E0002205F120
:100E5000200A0AF00C0308FA03F906EA09069A4088
:100E600096426FEA0B0CB9D1DEF8002040F20C4339
:100E700002EA0C02CEF80020DEF80420C4F20103DE
:100E800002EA0C02CEF804201A6802EA0C021A6088
:100E9000DEF80820A30802EA0C02CEF8082057F872
:100EA000232022EA090247F8232097E701B0BDE892
:100EB000F08F00002DE9F04F82B00E68002E00F098
:100EC000038141F20042C4F20102042340F2004EC9
:100ED000904208BF03234FF6FF7CC4F2010E00933B
:100EE00000240123C1F2100C4FF0000A4FF000095A
:100EF00049E000BF012704F00C030F229A402BEABF
:100F0000020207FA03F34FEA9A051A4346F825202E
:100F1000D1F804B040F20C455FEACB22DEF808209D
:100F200054BF22EA080242EA0802C4F20105CEF8E0
:100F300008202A685FEA8B2354BF22EA080242EAAB
:100F400008022A605FEA8B33DEF8042054BF22EAED
:100F5000080242EA08025FEACB33CEF80420DEF84A
:100F600000204FF0010354BF22EA080242EA0802BF
:100F7000CEF800200E680AF1010A36FA0AF204F1EE
:100F8000040400F0A18003FA0AF816EA080FF1D071
:100F90004E68664512DC122E56D8DFE806F0350B97
:100FA0004549555555555555555555555555554D15
:100FB000510000BFD1F80C9046E000BF4FF6FF7221
:100FC000C1F2210296420FDC0022C1F211029642C8
:100FD0001AD00022C1F21202964215D00022C1F2AC
:100FE0002102964210D02FE00022C1F22202964246
:100FF0000AD00022C1F23102964205D00022C1F28D
:101000003202964220D100BF8A684AB1012A14BF39
:10101000C0F81480C0F810804FF0080914E000BF39
:101020004FF0040910E000BFCA6802F108090BE0A4
:101030004FF0000908E000BFCA6802F1040903E0AC
:10104000CA6802F10C0900BF22460646BAF1080F31
:1010500024BF203A043637680F25954027EA050556
:1010600009FA02F22A433260CA79D2067FF582AFCA
:1010700041F21803C4F202031A68AEF57E7642F01C
:1010800001021A601A6802F001020192019A2AF024
:10109000030256F802B040F60002C4F20102904288
:1010A00010D040F60042C4F2010290423FF422AF59
:1010B00041F20002C4F20102009F904208BF0227E1
:1010C00019E700BF002716E702B0BDE8F08F000067
:1010D000002A08BF090401617047000040F238503F
:1010E000C2F2000000687047002804BF012070476A
:1010F00010B50446242084F83D002068016821F0E2
:1011000001010160204600F07BFA0020206484F891
:101110003D00206384F83E0084F83C0010BD0000D0
:1011200090F83D007047000070B5B8B3044690F8E1
:101130003D0028B9002084F83C00204600F07EFAEB
:10114000242084F83D002068016821F0010101603D
:10115000016841F400410160016821F4004101602F
:1011600000F036FC48F28041C0F21E0140F6001348
:10117000D4F804E088424FF00001C0F23D0348F289
:10118000A16C4FF0000238BF01219842C0F2010C5F
:1011900038BF0122E64538BF0A460AB1012070BDBA
:1011A0004DF68361C4F21B31A0FB01122168950C3E
:1011B0004B684FF4967623F03F0343EA924375431E
:1011C00044F6D3564B60C1F262060B6AA5FB065685
:1011D000B50923F03F03E64538BF950C6A1C1A4356
:1011E0000A62CA6948F2A0664CF6FF73C0F20106B3
:1011F000B64522EA03020BD801384FEA4E03B0FB92
:10120000F3F001306FF31F30042898BF04201EE074
:10121000A368013863B119230EFB03F3B0FBF3F0AD
:1012200001306FF31F3078B100F5804008E000BF57
:101230000EEB4E03B0FBF3F001306FF31F3028B11B
:1012400000F5004003E000BF012000E00120104352
:10125000C8610868D4E9072320F0C0001043184390
:101260000860886848F2FF3204F10C0690434CCEC7
:1012700018431043A5698860C86820F0FF00304318
:101280002843C860086840F0010008600020202161
:10129000206484F83D10206384F83E0070BD000097
:1012A0002DE9F04F85B004460020994616460F46BA
:1012B0000490FFF713FF94F83D10202927D105462D
:1012C000206800BF816989071CD5FFF707FF411B14
:1012D00020681A29F6D381698907F3D500202021D7
:1012E000206384F83D1084F83E00206C04F13C0A31
:1012F00040F020002064022000218AF8001005B090
:10130000BDE8F08FA2461AF83C1F012904D1022043
:1013100005B0BDE8F08F00BF01228AF80020036805
:10132000DDE90F180E9ADB0703D1036843F00103D0
:101330000360036823F400630360222084F83D0007
:10134000402084F83E000020206462626185608D48
:10135000394620850020CFF6FF70E06220463246F5
:101360004B46CDF80080019500F0CAFD20B1012068
:1013700005B0BDE8F08F00BF208D022810D00128F5
:1013800024D0002838D100200390206841690391BF
:10139000816903910399016841F40071016037E0AC
:1013A0002068016841F400610160EFF3108072B6BB
:1013B000002003902068416903918169039103999A
:1013C000016821F48061016062B621E02068016853
:1013D00021F480610160EFF3108072B60020039069
:1013E000206841690391816903910399016841F47F
:1013F0000071016062B60BE02068016841F4806111
:101400000160002103914169039180690390039871
:10141000208D002800F0D480042740F208094BF208
:10142000895BC0F20107C2F20009C1F2F84B232622
:1014300017E000BF204641462A4600F047FF00283B
:1014400095D12068616A00690870606A218D013059
:101450006062481E2085618D01396185010400F0BC
:10146000AF8080B2032867D8022800F08980012865
:10147000E0D02046394600224346009500F0CCFDDE
:1014800000287FF474AF2068016821F48061016056
:10149000EFF3108072B62068616A00690870606AB4
:1014A000218D0130013960622185618D01396185AD
:1014B000D9F80010C908A1FB0B12110A714304915D
:1014C0000499013904910499002900F0858021686C
:1014D0004A6952071ED404990139049104990029DC
:1014E00000F07A8021684A69520713D404990139BF
:1014F0000491049900296FD021684A69520709D4E0
:101500000499013904910499002965D021684A6938
:101510005207D5D50A6842F400720A600969017061
:10152000606A218D01306062481E2085608D01381F
:10153000608562B685E700BF204641462A4600F036
:10154000C5FE00287FF413AF2068616A0069087047
:10155000606A2268411C208D616201382085638D9C
:10156000013B638553695B077FF578AF80B2032841
:1015700003D1106820F480601060106964E700BF38
:101580002046394600224346009500F045FD0028DC
:101590007FF4EDAEEFF3108072B62068616A0268E6
:1015A00042F40072026000690870606A218D0130A7
:1015B0006062481E2085608D0138608562B640E714
:1015C000202084F83D00002084F83E0000218AF8A5
:1015D000001005B0BDE8F08F00202021206384F8C2
:1015E0003D1084F83E00206C40F02000206462B67C
:1015F000012000218AF8001005B0BDE8F08F00003E
:1016000010B540F60044C4F201040068A4F5384166
:10161000884218BF10BD41F21C00C4F202000168EC
:1016200021F40011016020464021FFF7B9FB20465C
:101630008021BDE81040FFF7B3BB000010B586B0B5
:1016400045F200410068C4F2000100228842049281
:1016500002D006B010BD00BF41F21804C4F202046B
:10166000206840F008002060206800F00800019029
:101670000198C0200290122003900320059001F5EC
:10168000384002A9FFF716FC606840F40010606063
:10169000606800F400100190019806B010BD0000D1
:1016A00040F2000040F23851C2F20000C2F20001E4
:1016B00000780A68104408607047000080B542F264
:1016C0000000C4F20200016841F010010160032033
:1016D00000F08EF80F2000F005F800F027F8002049
:1016E00080BD000070B540F20006C2F2000640F274
:1016F00008013278C2F200014FF47A730968B3FB33
:10170000F2F20446B1FBF2F1084600F04FFB0F2C59
:101710004FF0010508D838B94FF0FF3021460022BC
:10172000002500F039F87460284670BD82B041F29F
:101730001800C4F202000168022241F001010160B8
:10174000016801F0010101910199416841F0805166
:101750004160406800F08050009000980420C4F27E
:101760000100016862F31A61016002B07047000075
:10177000002848BF7047C1B200F01F00012202FAE2
:1017800000F04EF20012CEF2000242EAD10121F046
:10179000030108607047000010B54EF60C5CCEF2F5
:1017A000000CDCF80030C3F3022E8EF00704042C8A
:1017B00028BF0424BEF103034FF0FF3E0EFA04F4E9
:1017C00038BF0023A14399400EFA03F39A43114313
:1017D00000F00F0200F160430901043A03F564438D
:1017E0006244002848BF02F10C03197010BD0000CC
:1017F0004EF60C51CEF200010A684FF6FF031A4074
:1018000060F30A2242F0806040F0FD70086070478B
:101810002DE9F04381B0002800F0858042F20008F5
:10182000C4F202080446D8F800000D4600F0070094
:1018300088420CD2D8F8000020F007002843C8F8EE
:101840000000D8F8000000F00700A8426BD1206823
:1018500041F204098107C4F2020917D5410705D5F1
:10186000D9F8001041F4E061C9F80010010705D56E
:10187000D9F8001041F46051C9F80010D9F80010EF
:10188000A26821F0F0011143C9F80010C00741D14E
:10189000D8F8000000F00700A8420CD9D8F80000E2
:1018A00020F007002843C8F80000D8F8000000F036
:1018B0000700A84237D12068410707D5D9F80010A2
:1018C000E26821F4E0611143C9F80010000708D56F
:1018D000D9F80000216920F4605040EAC100C9F83D
:1018E0000000D9F8002002F00C00082841F2002086
:1018F000C0F27A0050D144F60053C2F38341C0F6DF
:101900000003595CD2033BD440F60010C0F23D0006
:10191000484341E0606802280AD001282AD159F8DA
:10192000041C890308D4012001B0BDE8F08300BF86
:1019300059F8041C8901F6D5D9F8001021F00301EB
:101940000843C9F80000FFF7C9FB064641F2883793
:10195000D9F80000616800F00C00B0EB810F97D05F
:10196000FFF7BCFB801BB842F2D9032001B0BDE8F1
:10197000F08300BF59F8041C8907D4D5DCE700BF09
:10198000D9F8002044F6FE43C2F34042C0F60003FB
:101990009A5C4843B0FBF2F0D9F8001044F6E642F6
:1019A000C1F30311C0F60002515C40F2080220FAB4
:1019B00001F140F20400C2F200000068C2F200022D
:1019C0001160FFF78FFE002001B0BDE8F08300003A
:1019D00040F2080041F20401C2F20000C4F2020128
:1019E0000068096844F6F642C1F30221C0F600021D
:1019F000515CC840704700002DE9F04182B00028DA
:101A000068D00446007841F20006C007C4F202061E
:101A100025D0706800F00C0004281BD0706800F01E
:101A20000C00082802D17068C00313D46068002835
:101A300000F06881B0F5A02F00F07C81B0F5803F08
:101A400000F07C81306820F480303060306820F411
:101A5000802076E13068800301D56068D0B32078BB
:101A6000800718D5706810F00C0F07D0706800F070
:101A70000C0008286ED17068C0036BD430688007F2
:101A800002D52069012825D13068616920F0F8006D
:101A900040EAC1003060207800071FD4207840075A
:101AA00032D4E56995B1706800F00C00082840F068
:101AB0008F80012D0ED07068216A00F480328A4236
:101AC00008D1616A00F47010884203D1002002B08E
:101AD000BDE8F081012002B0BDE8F081A0690028D6
:101AE00062D00020C4F242200121C0F88014FFF728
:101AF000F5FA0546706A800700F18C80FFF7EEFA70
:101B0000401B0228F6D92AE1F06910F0805808D16C
:101B1000F06940F08050F061F06900F08050009072
:101B2000009847F20007C4F200073868C00529D4BE
:101B3000386840F480703860FFF7D0FA054600BF7F
:101B40003868C0051ED4FFF7C9FA401B6428F7D9CE
:101B500005E100BF2069002840F20000C4F24220E5
:101B600000F0828001210160FFF7B8FA054600BF4E
:101B7000306880073FF588AFFFF7B0FA401B0228B6
:101B8000F6D9ECE0E068002800F08080052800F03D
:101B90009780012800F09880306A20F001003062C0
:101BA000306A20F0040092E00020C4F242200021BC
:101BB000C0F88014FFF792FA054600BF706A8007EC
:101BC0007FF56CAFFFF78AFA401B0228F6D9C6E012
:101BD0000027C4F2422700203866FFF77FFA022D63
:101BE00005460BD13068800140F1BE80FFF776FAE0
:101BF000401B02284FF00300F4D968E730688001E9
:101C00007FF564AFFFF76AFA401B02284FF003002C
:101C1000F4D95CE740F20800C2F20000006844F624
:101C2000D351C1F26201A0FB0101480A019000BF3B
:101C300000BF0198411E002801913FF42FAF00BF63
:101C40000198411E002801913FF428AF00BF019880
:101C5000411E002801913FF421AF00BF0198411EB1
:101C600000280191E4D119E700210160FFF736FA5D
:101C7000054600BF306880077FF50DAFFFF72EFAED
:101C8000401B02284FF00300F4D920E7306A20F00F
:101C900001003062306A20F004003062FFF71EFA63
:101CA000054641F2883700BF306A800720D5FFF72C
:101CB00015FA401BB8424FF00300F5D907E700BF03
:101CC000306A40F004003062306A40F00100306257
:101CD000FFF704FA054641F2883700BF306A8007F3
:101CE00006D4FFF7FBF9401BB842F7D937E000BF35
:101CF000B8F1000F7FF4D5AEF06920F08050F061AC
:101D0000CFE600BF306820F480303060306820F4C7
:101D100080203060FFF7E2F9054600BF306880039D
:101D20007FF59DAEFFF7DAF9401B64284FF0030002
:101D3000F4D9CCE6306840F480203060306840F45C
:101D400080303060FFF7CAF9054600BF3068800375
:101D50003FF585AEFFF7C2F9401B6428F6D9032092
:101D600002B0BDE8F08100BF206AB0F5803F05D128
:101D70007168A26821F40031114371607168626A70
:101D800021F4741111430843706001203866FFF795
:101D9000A5F90446306880013FF598AEFFF79EF93B
:101DA000001B02284FF00300F4D990E6411E0020EA
:101DB000B0EB116F1CBF012070474EF21002CEF243
:101DC000000251604EF62351CEF20001F0230B7059
:101DD0000721906011607047FEE70000B0B584B045
:101DE00041F21801C4F202010A68044642F00802F6
:101DF0000A60096840F6004501F00800009000986C
:101E0000C020009011200190002002900220C4F216
:101E10000105039069462846FFF74CF82846402103
:101E20000122FFF755F9284640210022FFF750F91B
:101E3000284640210122FFF74BF928464021002285
:101E4000FFF746F9284640210122FFF741F92846CD
:101E500040210022FFF73CF9284640210122FFF7EC
:101E600037F9284640210022FFF732F92846402161
:101E70000122FFF72DF9284640210022FFF728F91B
:101E8000284640210122FFF723F92846402100225D
:101E9000FFF71EF9284640210122FFF719F92846CD
:101EA00040210022FFF714F9284640210122FFF7C4
:101EB0000FF9284640210022FFF70AF92846402161
:101EC0000122FFF705F9284640210022FFF700F91B
:101ED000284640210122FFF7FBF828464021002236
:101EE000FFF7F6F8284680210122FFF7F1F8204697
:101EF000FFF7FAF82046FFF717F904B0B0BD00006D
:101F00002DE9F04782B0044600680E460168DDF80E
:101F100028A041F4806101600168DDF82C9041F453
:101F200080711D461746016020464FF001110022C6
:101F30005346CDF8009000F06FF858B12068006863
:101F4000C00544BF4FF400702064032002B0BDE818
:101F5000F08700BF40F202082068C0F2010806F0D6
:101F6000FE0606612046414652464B4600F03EF9C9
:101F700020B1012002B0BDE8F08700BF0020019031
:101F800020684A4641690191806951460190019853
:101F9000204600F0E3F998B92068012D08D0390AED
:101FA0000161204651464A4600F0D8F940B9206800
:101FB000F9B20161204651464A4600F0CFF958B1C6
:101FC000206C0428D5D12068016841F400710160BB
:101FD000012002B0BDE8F087206800220168534666
:101FE00041F48071016020464FF00111CDF800905E
:101FF00000F012F80028A1D1206846F0010101612B
:102000002046414652464B4600F0F0F8002818BFE3
:10201000012002B0BDE8F0872DE9F04105460068D7
:102020001E46144601F47F0201338FB242D0DDF820
:102030001880B2F5803F40F0878040693840C01B6F
:10204000B0FA80F04009A04240F0C8804EB924E0C8
:1020500040693840C01BB0FA80F04009A04240F00F
:10206000BD80FFF73BF8A0EB08012868B142EFD92B
:1020700041693940C91BB1FA81F14909A142E7D14F
:102080009BE000BF40693840C01BB0FA80F04009B7
:10209000A0424FF0000040F0A680FFF71FF828682C
:1020A00041693940C91BB1FA81F14909A142E9D11D
:1020B00083E000BFB2F5803F24D100BF41693940C1
:1020C000C91BB1FA81F14909A14240F087804169F9
:1020D0003940C91BB1FA81F14909A14240F07E8023
:1020E00041693940C91BB1FA81F14909A14275D151
:1020F00041693940C91BB1FA81F14909A142DDD0DA
:102100006CE000BF81693940C91BB1FA81F149090E
:10211000A14263D181693940C91BB1FA81F14909F2
:10212000A1425BD181693940C91BB1FA81F14909EA
:10213000A14253D181693940C91BB1FA81F14909E2
:10214000A142DFD04AE000BF80693840C01BB0FA2E
:1021500080F04009A04241D146B923E0806938406F
:10216000C01BB0FA80F04009A0423BD1FEF7B6FF99
:10217000A0EB08012868B142F0D981693940C91B38
:10218000B1FA81F14909A142E8D116E080693840ED
:10219000C01BB0FA80F04009A0424FF0000018BF09
:1021A000BDE8F081FEF79AFF286881693940C91BB4
:1021B000B1FA81F14909A142E8D100202021286328
:1021C00085F83D1085F83E00296C41F02001296416
:1021D00085F83C000120BDE8F08100BF0020BDE88B
:1021E000F08100BF0020BDE8F0810000F0B581B0B3
:1021F000044600681D4643698FB203EA0701B942ED
:1022000002D1002001B0F0BD41691646013201F44F
:10221000806125D0002940D1CEB100BFFEF75EFF1E
:10222000411B2068B14203D941693940B9424BD1C1
:1022300041693940B942E4D041694905EED52CE005
:1022400041693940B942DCD04169490525D4FEF7DE
:1022500045FF206841693940B942F1D0202024E08F
:10226000D9B941693940B942CBD04169490514D443
:1022700041693940B942C4D0416949050DD4416929
:102280003940B942BDD04169490506D44169394058
:10229000B942B6D041694905E3D5016841F40071FE
:1022A00001606FF4806141610420002120222163DC
:1022B00084F83D2084F83E10226C1043206484F89A
:1022C0003C10012001B0F0BD2020EEE770B50446BF
:1022D0000068154650F8143F5A063DD40E4629B9F9
:1022E00026E000BF50F8141F490635D40168C9061E
:1022F00021D4FEF7F3FE411B2068B142F2D94169B7
:102300004906EFD400202021206384F83D1084F892
:102310003E00206C40F0200018E000BFFEF7DEFE1B
:10232000206850F8141F4906ECD50168490613D4FB
:102330000168C906F2D56FF010010160002020216C
:10234000206384F83D1084F83E00206C2064002057
:1023500084F83C00012070BD002070BD70B503689A
:10236000044653F8140F000611D40E46481C29D019
:1023700086BB00BF1868400527D4FEF7AFFE236870
:1023800053F8140F000639D518680006F2D500205E
:1023900070BD00BF18680006F9D41868400514D451
:1023A00018680006F3D4186840050ED418680006B3
:1023B000EDD41868400508D4186800064FF00000F6
:1023C00048BF70BD18684005E4D56FF480601860A0
:1023D000042014E0154603E053F8140F0006D6D489
:1023E00018684005F1D4FEF779FE401B2368B0421F
:1023F000F2D958690006EFD4202000E02020002107
:102400002022216384F83D2084F83E10226C104382
:102410002064012084F83C1070BD0000FEE700003D
:10242000FEE700007047000070470000FFF738B972
:102430007047000040F28C00C2F20000FEF722BAA2
:1024400040F28C00C2F20000FEF71CBAFEE700006A
:102450002DE9F04F83B0B1F816E00F4674466FF3E4
:102460009F24052C00910190029246D0042C43D861
:10247000002B41D00298002501780098012B00EB39
:102480000406F17688BF0125032C4FF0010C30D8EB
:10249000022B2ED3029800254178022B317788BF7A
:1024A0000125022C4FF0020C23D8032B21D30298D4
:1024B00000258178032B717788BF0125012C4FF00F
:1024C000030C16D8042B14D302980025C178042BD2
:1024D000B17788BF01254FF0040C54B9052B08D300
:1024E0000298002501794FF0050CF177052B88BF84
:1024F000012525B93CE000BFD3B34FF0000C009894
:10250000053C416844F62516A208C2F29246A2FB99
:10251000067299B1C2EBC202A4EB820E012200BF87
:102520000D681746ADB3296881B30D6885B3296876
:102530003A1D0029F4D103372CE000BF019A5068FE
:10254000002800F0C980016857895160791C97897B
:102550008EB2B742518138BF918100994FF0000E81
:10256000C0F800E048609C4580F0A78044E000BFD0
:102570000EEB03006FF39F200EF47C41084400999A
:102580000122C88210B203B0BDE8F08F013701E02C
:1025900002370D46E1188908A1FB0612511C89B2C9
:1025A000BAB291421AD9BEF1000F1BD1019A5068FC
:1025B000002800F09B80016857895160791C978939
:1025C0008EB24FF0000EB742518138BF9181C0F8F2
:1025D00000E028609C4570D20EE000BF28469C4574
:1025E0006BD209E028469C4506D366E004461FFAF4
:1025F0008CF09842204660D21FFA8CFB9B45F5D2A6
:10260000029900EB0E0901EB0B0A00240BEB040806
:1026100008F1010C0EEB04061AF804109C454FF06B
:10262000000709EB040538BF01271A2E297198BF4E
:102630009C4529D20AEB040108F1020C4A789C451A
:102640004FF0000738BF0127192E6A7198BF9C45CB
:102650001AD208F1030C8A789C454FF0000738BF66
:102660000127182EAA7198BF9C450DD2043404EBA3
:102670000B0CC9789C454FF0000738BF0127172E77
:10268000E97101D89C45C1D3002FAFD0019E746879
:10269000A4B3216872897160511CB2898FB24FF066
:1026A000000EBA42718138BFB181C4F800E0046005
:1026B0001FFA8CF0984220469ED3009AD08AC11807
:1026C0006FF39F2100F47C400844D082012210B2B5
:1026D00003B0BDE8F08F00BF009800214FF6FD72F7
:1026E000416010B203B0BDE8F08F00BF00214FF68B
:1026F000FD72296010B203B0BDE8F08F00214FF6E3
:10270000FD72016010B203B0BDE8F08F70B58AB001
:10271000DDE9101EDDF848C0DDE90E5400268DF815
:10272000181069468DF80060CDE90223ADF810500D
:102730000594CDF81CE0ADF820C000F003F80AB015
:1027400070BD00002DE9F041CF690C460546002F11
:102750004FF6FE7000F0BE80217E1F2900F27C82C1
:102760002A78002A00F0BC80238A268C42EA016184
:10277000082E41EA0328C0F05B82D4E9020101F08F
:1027800061F9F10736D017F8011B013E80EA0120FC
:1027900002B2430041F22101002A48BF81EA40030E
:1027A00018B25A00002848BF81EA430210B2530011
:1027B000002848BF81EA420318B25A00002848BFE7
:1027C00081EA430210B25300002848BF81EA420365
:1027D00018B25A00002848BF81EA430210B25300E1
:1027E000002848BF81EA42031AB25800002A48BFB5
:1027F00081EA4300B91E41F2210200BF11F8023FF5
:10280000023E80EA032003B24700002B48BF82EA61
:10281000400738B27B00002848BF82EA470318B25D
:102820005F00002848BF82EA430738B27B000028D7
:1028300048BF82EA470318B25F00002848BF82EA17
:10284000430738B27B00002848BF82EA470318B22A
:102850005F00002848BF82EA430738B27B000028A7
:1028600048BF82EA4703487883EA002003B2470062
:10287000002B48BF82EA400738B27B00002848BFDF
:1028800082EA470318B25F00002848BF82EA430784
:1028900038B27B00002848BF82EA470318B25F00C5
:1028A000002848BF82EA430738B27B00002848BFAF
:1028B00082EA470318B25F00002848BF82EA430754
:1028C0003BB27800002B48BF82EA4700002E95D12A
:1028D000AFE100BF218C002940F0BE813CE700BF82
:1028E000B4F820E0BEF1070F04D9023800B2BDE809
:1028F000F08100BFB4F810C0BCF1030F00F2AC814E
:10290000BEF1000F00F08A813A7841F221081602E8
:102910006FEA022233B288EA4206002B48BF560013
:1029200032B27300002A48BF88EA46031AB25E003A
:10293000002A48BF88EA430632B27300002A48BF23
:1029400088EA46031AB25E00002A48BF88EA4306B6
:1029500032B27300002A48BF88EA46031AB25E000A
:10296000002A48BF88EA430633B27200002B48BFF2
:1029700088EA4602BEF1010F00F04A817B7882EAC4
:10298000032213B25600002B48BF88EA420632B237
:102990007300002A48BF88EA46031AB25E00002A84
:1029A00048BF88EA430632B27300002A48BF88EA6B
:1029B00046031AB25E00002A48BF88EA430632B2D4
:1029C0007300002A48BF88EA46031AB25E00002A54
:1029D00048BF88EA430633B27200002B48BF88EA3A
:1029E0004602BEF1020F00F01381BB7841F22108CC
:1029F00082EA032213B25600002B48BF88EA42063F
:102A000032B27300002A48BF88EA46031AB25E0059
:102A1000002A48BF88EA430632B27300002A48BF42
:102A200088EA46031AB25E00002A48BF88EA4306D5
:102A300032B27300002A48BF88EA46031AB25E0029
:102A4000002A48BF88EA430633B27200002B48BF11
:102A500088EA4602BEF1030F00F0DA80FB7882EAD2
:102A6000032213B25600002B48BF88EA420632B256
:102A70007300002A48BF88EA46031AB25E00002AA3
:102A800048BF88EA430632B27300002A48BF88EA8A
:102A900046031AB25E00002A48BF88EA430632B2F3
:102AA0007300002A48BF88EA46031AB25E00002A73
:102AB00048BF88EA430633B27200002B48BF88EA59
:102AC0004602BEF1040F00F0A3803B7941F22108D9
:102AD00082EA032213B25600002B48BF88EA42065E
:102AE00032B27300002A48BF88EA46031AB25E0079
:102AF000002A48BF88EA430632B27300002A48BF62
:102B000088EA46031AB25E00002A48BF88EA4306F4
:102B100032B27300002A48BF88EA46031AB25E0048
:102B2000002A48BF88EA430633B27200002B48BF30
:102B300088EA4602BEF1050F6AD07B7982EA032259
:102B400013B25600002B48BF88EA420632B2730027
:102B5000002A48BF88EA46031AB25E00002A48BF2E
:102B600088EA430632B27300002A48BF88EA460367
:102B70001AB25E00002A48BF88EA430632B27300E8
:102B8000002A48BF88EA46031AB25E00002A48BFFE
:102B900088EA430633B27200002B48BF88EA460237
:102BA000BEF1060F34D0BB7982EA032217B2560079
:102BB00041F22103002F48BF83EA420632B2770078
:102BC000002A48BF83EA46073AB27E00002A48BF7F
:102BD00083EA470632B27700002A48BF83EA4607F5
:102BE0003AB27E00002A48BF83EA470632B2770035
:102BF000002A48BF83EA46073AB27E00002A48BF4F
:102C000083EA470637B27200002F48BF83EA4602C4
:102C100047F6FE731A40520204E000BF4FF600422E
:102C2000C0F2FF0242EA01610CF0030241EA02280D
:102C3000013082B228464146234601F0D7F80128E8
:102C40000ADB61690A780132D3B21F2B88BF0022E8
:102C50000A7000B2BDE8F08100B2BDE8F08100006A
:102C600010B5044620F00040B0F1FF4F06D347F600
:102C7000FF7008BF4FF4F84011E000BF4FF20000B2
:102C8000C7F6FF7020404FF0F06101F0EBFE00F559
:102C90008050B0F1786F28BF4FF07860400B4FF450
:102CA000004101EA1441084380B210BD2DE9F0470C
:102CB00082B0402A28BF4022002A08BF01224FF0DC
:102CC000000C012ACDF804C0CDF800C004D11B7857
:102CD0008DF800301EE000BF082A05D81B788DF85B
:102CE0000030530716D120E0102A05D81B88ADF814
:102CF000003053070ED118E0202A05D81B68009336
:102D0000530707D111E000BFD3E900C3CDE900C3E9
:102D100053070AD0D308EC461CF803E0544204F0F1
:102D200007040EFA04F40CF8034000EBD10801F09C
:102D3000070100234FF47F4CEE4600BF01F0070669
:102D400003F007053746B54288BF2F46D41AC7F1AE
:102D50000807D808BC4238BF27461EF800002CFAE6
:102D600007F400FA05F9CD08E4B218F805A024FA32
:102D700006F004EA09042AEA0000F4403B44204338
:102D80009342394408F80500D8D102B0BDE8F08775
:102D90002DE9F04F97B0D1F800801E46964618F006
:102DA0008007C8F3C03308F0604208BF0223B2F1C5
:102DB000004F13D10C7B4FF6FD7BCCB14FEA08627C
:102DC0004FEA182505EAE27202F07F0AC7B90B90B4
:102DD0005FEA486208BF05F0030518E06FF00200E3
:102DE000A0F1070B0FFA8BF017B0BDE8F08F00BF12
:102DF000ABF1070B0FFA8BF017B0BDE8F08F00BFF7
:102E00000278924540F08080C8F307450B9001F1AD
:102E1000040CAAB204EB0C0008F07F0942EA034755
:102E200010F8010C47EA894747EA4A6A47B20A9014
:102E30000020B7F1FF3F1590149021DD0B98ABF106
:102E40000A0B046ACDF81090002CCBD022695245B1
:102E500062D02468002CC5D0226952455CD0246819
:102E6000002CBFD02269524556D02468002CB9D01E
:102E70002269524550D02468002CE7D1B2E700BF48
:102E800002950B9D09916C6814A92846CDE906CEE0
:102E9000CDE90093A047002846D02C6A4FF6FD7B71
:102EA000002C4BD02069504564D024687CB1206947
:102EB00050455FD0246854B1206950455AD02468E9
:102EC0002CB12069504555D02468002CEAD12C69DA
:102ED000002C3FF487AF2068E98A2861481C298BC1
:102EE00082B208969142E88238BF28830020C4E964
:102EF0000000C4E90200C4E904A0C4E90600286A8D
:102F0000CDF81090206033E0ABF1080B0FFA8BF096
:102F100017B0BDE8F08F00BFCDE90135CDE906CE91
:102F2000CDE9086129E000BF4FF6FD7BABF1090B4D
:102F30000FFA8BF017B0BDE8F08F00BF2C69002CA2
:102F40003FF450AF2068E98A2861481C298B82B27F
:102F500008969142E88238BF28830020CDF810906F
:102F6000C4E90000C4E90200C4E904A0C4E9060001
:102F70002C6202E0CDF810900896E68A07F01F0553
:102F8000B146C6F38426B6EB050EE168D4E90130FC
:102F9000059748BF0EF1200E079F40EA0102B7EBEC
:102FA000000C089803958841A91B48BF2031002ACE
:102FB00048D048F28042C0F21E02B2EB0C024FF041
:102FC000000282413ED3099A059F92F80DA0A27E8D
:102FD00092451DD1B7F1FF3F1ADC002B1A461FFAAC
:102FE0008EFE18BF01220026BEF1010F88BF012608
:102FF000324325D144F24126C0F20F06BCEB06064F
:1030000070F100001CD388B210281BD378E000BFF9
:1030100044F24126C0F20F06BCEB060670F1000038
:1030200005D3B7F1FF3F02DC88B210280AD3DDF8E0
:1030300018C0DDE908E74E46DDF80C9057E000BF08
:10304000002A5DD003996FF39F2949EA81208946C0
:10305000E0825BB3DDE908E70B9E00BF31691868C9
:103060001960F18AA1F101013361F1826060D8B188
:10307000326901680260F28A3061501EF08261603C
:1030800091B1326908680A60F28A3161511EF18299
:10309000606048B1316903680160F18A3061481E9F
:1030A000002BF0826360D9D1E08A01E0DDE908E716
:1030B00000F47C46E68205997A7BDDF818C0B1F110
:1030C000FF3FA27610DD00F5806101F4F84100F4C5
:1030D000004008444FF6FD7BE082ABF10A0B0FFA8B
:1030E0008BF017B0BDE8F08F97F80DA00023924544
:1030F0000DD04FF0000B0FFA8BF017B0BDE8F08F3A
:10310000DDF818C0DDE908E74E46DDF80C900598BB
:103110000A99C8F3046AB0F1FF3F01F040002FDCC8
:1031200070B307980B9BC4E9020ECDE90C0E387BF7
:1031300000210138C0B2ADF8440002989A68ADF899
:10314000460001980F918DF84800049810918DF871
:103150004B000CA91846CDF838C08DF849908DF871
:103160004AA090474FF0000BE08A00F5806000F421
:10317000F840E0820FFA8BF017B0BDE8F08F00BF87
:10318000C1F34011B1EBD63F14D1C6F384214945B8
:103190001AD10599B1F1FF3F20DCF8B9387B04283A
:1031A00034D24FF6FD7BABF10D0B0FFA8BF017B05D
:1031B000BDE8F08F4FF6FD7BABF10B0B0FFA8BF0F8
:1031C00017B0BDE8F08F00BF4FF6FD7BABF10C0BE5
:1031D0000FFA8BF017B0BDE8F08F00BF05990029FA
:1031E00042D4002840D1397B0B9D013905F10C00F8
:1031F000CBB2214662466646FFF72AF9B0F1FF3F9F
:1032000040F38280397BA08A01391DE007980B9D2D
:10321000C4E9020E06F47C40E082397BBE1D03390E
:1032200005F10C00CBB221463246FFF711F9B0F19F
:10323000FF3F40F39B80BA88DDE91401228300F050
:1032400001FCA082397B0339CAB2314600F036FB5B
:10325000A082E08A4FF0000B80F40040E0820FFA79
:103260008BF017B0BDE8F08F387B6FF39F26042EEC
:10327000A0F10102CDE9097632D8100600F0A8804D
:103280003879A119032E4FF00107C87600F2A88003
:10329000D0B20228C0F0A48009990A9B16464A7948
:1032A0001919022B4FF002070A7716D8032814D3F6
:1032B000099A032792794A770A9A012A0DD8042895
:1032C0000BD3099A0427D2798A770A9A2AB9052852
:1032D00003D309980527007AC877049D3246D9E0C0
:1032E000002B75D008926FF016021868002879D06C
:1032F000016800297AD00868002879D00368703204
:10330000002BF2D176E000BF6068002864D04FF651
:10331000FD7B2B461A6901680260DA8A1861501E2B
:103320000029D88261603FF41FAF1A6908680A60FB
:10333000DA8A1961511E0028D98260603FF414AF07
:103340001A6901680260DA8A1861501E0029D88261
:1033500061603FF409AF1A6908680A60DA8A196186
:10336000511E0028D9826060D4D1FDE6606898B310
:103370004FF6FD7B2B461A6901680260DA8A1861F4
:10338000501E0029D88261603FF4EEAE1A690868C9
:103390000A60DA8A1961511E0028D98260603FF400
:1033A000E3AE1A6901680260DA8A1861501E0029CA
:1033B000D88261603FF4D8AE1A6908680A60DA8A78
:1033C0001961511E0028D9826060D4D1CCE600BFBB
:1033D000049D00275EE000BFE08A4FF6FD7BC4E657
:1033E000049D57E01C32184604E000BF383201E06B
:1033F00054320846B61A1B2E4FF00007CDF818C0FD
:103400003ED8089B190641D00A995FFA83F8891AB9
:103410000844C51D03270999F019CA1953780338C0
:10342000E91901F8063C1A28A7F1020398BF4345A1
:103430001CD29378192801F8053CA7F1010398BF25
:10344000434513D2D378182801F8043C98BF474568
:103450000DD21279172807F1040001F8032C03D8C4
:10346000791C41450746D6D3C71E00E01F46E08AB7
:10347000DDF818C0049D6FF39F200A9003E000BFA1
:10348000DDF818C0049D089A04E000BFDDF818C0FC
:10349000049D1A46079804F11B01CDE90C0E0E910C
:1034A00061680CA8DDF8249000F108080F91F8B2CB
:1034B000D1B209EB000288424FF0000038BF101D66
:1034C00010900A9800230844ADF8440002988DF843
:1034D0004AA0ADF8460001988DF84B508DF8480091
:1034E00003988DF84900636099F80C10A08A4A1E71
:1034F000614600F0E3F9218BA082884203D10B984A
:103500000CA9826890470F980B9F28B3396902680D
:103510000160F98AA1F101013861F9820F92DAB1F3
:1035200013681060F88AA0F101003A61F8820F93E5
:1035300093B119681A60F88AA0F101003B61F88222
:103540000F9149B108680B60FA8A0028A2F10102C4
:103550003961FA820F90DAD10020E18AA8F80C00D4
:10356000C8E90000C8F8080001F58060A18A228B34
:1035700000F4F840B1EB020BE0824FF6FD7118BF8A
:10358000A1F10E0B0FFA8BF017B0BDE8F08F000021
:103590002DE9F041DDE906544FF0000C8646C0E904
:1035A00005CCC0F80CC04EF810CFC0E901538462BE
:1035B00054094FF6FF739C42C0F800C0C0E908CC24
:1035C00038BF5309C1614BB15A1E032A03F00308E7
:1035D00006D20024B8F1000F26D135E0754633E05D
:1035E0004FF6FC7403EA040601F16002002400BFF8
:1035F000A2F16007CEF80070A2F12007154645F849
:10360000407D44F00307043442F8605C01EB471E40
:1036100042F8202CA64202F18002E9D1A2F18005F5
:10362000AE46B8F1000F0FD001EB4415B8F1010F11
:10363000CEF8005008D005F12001B8F1020F296042
:103640001ABF40350D600D46C5F800C08382C0F832
:1036500016C0C0F80CC0BDE8F0810000406A002828
:1036600018BF043070470000416A03690A6842626B
:103670000B60C28A0161511EC1827047F0B58BB0E8
:103680000DF1480E9EE85040013EDDF854C0DDE9E2
:103690001075B6FA86F67609CDE902236A468DF8EA
:1036A0000060ADF8107005958DF81840CDF81CE05D
:1036B000ADF820C000F002F80BB0F0BD2DE9F043EA
:1036C00081B0D66914468146002E4FF6FE7000F098
:1036D000C580227E1F2A00F2C58099F80030002B99
:1036E00000F0C480278A2578090241EA026143EA92
:1036F000074242EAC532278C1143082F41F0800867
:10370000C0F0BA80D4E9020100F09CF9F90736D084
:1037100016F8011B013F80EA012002B2430041F28A
:103720002101002A48BF81EA400318B25A0000284C
:1037300048BF81EA430210B25300002848BF81EA23
:10374000420318B25A00002848BF81EA430210B26F
:103750005300002848BF81EA420318B25A000028EB
:1037600048BF81EA430210B25300002848BF81EAF3
:1037700042031AB25800002A48BF81EA4300B11E32
:1037800041F2210211F8023F023F80EA032003B216
:103790004600002B48BF82EA400630B27300002882
:1037A00048BF82EA460318B25E00002848BF82EA9A
:1037B000430630B27300002848BF82EA460318B2BD
:1037C0005E00002848BF82EA430630B2730000283A
:1037D00048BF82EA460318B25E00002848BF82EA6A
:1037E000430630B27300002848BF82EA4603487897
:1037F00083EA002003B24600002B48BF82EA40065D
:1038000030B27300002848BF82EA460318B25E0057
:10381000002848BF82EA430630B27300002848BF40
:1038200082EA460318B25E00002848BF82EA4306D7
:1038300030B27300002848BF82EA460318B25E0027
:10384000002848BF82EA430633B27000002B48BF0D
:1038500082EA4600002F95D10FE000BF228C002A9B
:103860003FF437AF00B201B0BDE8F083023800B2D8
:1038700001B0BDE8F08300BF013082B24846414646
:10388000234600F0B3FA0128ECDB21780129E9D1C5
:1038900061690A780132D3B21F2B88BF00220A70F7
:1038A00000B201B0BDE8F0834AB2012AB8BF704748
:1038B0000278002A08BF017070470000B0B5002AE6
:1038C00000F0BE80D30705D11546012A00F0B8806C
:1038D00049E000BF11F801CB551E80EA0C200FFA19
:1038E00080FE440041F2210CBEF1000F48BF8CEA7B
:1038F00040040FFA84FE6000BEF1000F48BF8CEA5E
:1039000044000FFA80FE4400BEF1000F48BF8CEA6D
:1039100040040FFA84FE6000BEF1000F48BF8CEA3D
:1039200044000FFA80FE4400BEF1000F48BF8CEA4D
:1039300040040FFA84FE6000BEF1000F48BF8CEA1D
:1039400044000FFA80FE4400BEF1000F48BF8CEA2D
:1039500040040FFA84FE6000BEF1000F48BF8CEAFD
:103960004400012A6CD0023941F2210211F8024FC1
:10397000023D80EA042004B24300002C48BF82EAE2
:10398000400318B25C00002848BF82EA430420B21A
:103990006300002848BF82EA440318B25C00002894
:1039A00048BF82EA430420B26300002848BF82EA8D
:1039B000440318B25C00002848BF82EA430420B2E6
:1039C0006300002848BF82EA440318B25C00002864
:1039D00048BF82EA4304487884EA002003B24400E6
:1039E000002B48BF82EA400420B26300002848BF91
:1039F00082EA440318B25C00002848BF82EA43040C
:103A000020B26300002848BF82EA440318B25C0079
:103A1000002848BF82EA430420B26300002848BF60
:103A200082EA440318B25C00002848BF82EA4304DB
:103A300023B26000002B48BF82EA4400002D95D1DC
:103A400080B2B0BD80B502026FEA002341F2210EC0
:103A50000FFA82FC8EEA4302BCF1000F48BF5A0005
:103A60000FFA82FC5300BCF1000F48BF8EEA4203FC
:103A70000FFA83FC5A00BCF1000F48BF8EEA4302E4
:103A80000FFA82FC5300BCF1000F48BF8EEA4203DC
:103A90000FFA83FC5A00BCF1000F48BF8EEA4302C4
:103AA0000FFA82FC5300BCF1000F48BF8EEA4203BC
:103AB0000FFA83FC5A00BCF1000F48BF8EEA4302A4
:103AC0000FFA82FC5300BCF1000F48BF8EEA42039C
:103AD00020F0FF025A400FFA82FC5300BCF1000FA5
:103AE00048BF8EEA42030FFA83FC5A00BCF1000F74
:103AF00048BF8EEA43020FFA82FC5300BCF1000F6C
:103B000048BF8EEA42030FFA83FC5A00BCF1000F53
:103B100048BF8EEA43020FFA82FC5300BCF1000F4B
:103B200048BF8EEA42030FFA83FC5A00BCF1000F33
:103B300048BF8EEA43020FFA82FC5300BCF1000F2B
:103B400048BF8EEA42030FFA83FC5A00BCF1000F13
:103B500048BF8EEA4302030A43EA016323F0FF03EE
:103B60005A400FFA82FC5300BCF1000F48BF8EEAA6
:103B700042030FFA83FC5A00BCF1000F48BF8EEAE3
:103B800043020FFA82FC5300BCF1000F48BF8EEADB
:103B900042030FFA83FC5A00BCF1000F48BF8EEAC3
:103BA00043020FFA82FC5300BCF1000F48BF8EEABB
:103BB00042030FFA83FC5A00000CBCF1000F48BF0F
:103BC0008EEA43020FFA82FC530040EA0140BCF146
:103BD000000F48BF8EEA42030FFA83FC5A0020F020
:103BE000FF00BCF1000F48BF8EEA4302504002B212
:103BF0004300002A48BF8EEA400318B25A0000284A
:103C000048BF8EEA430210B25300002848BF8EEA34
:103C1000420318B25A00002848BF8EEA430210B28D
:103C20005300002848BF8EEA420318B25A00002809
:103C300048BF8EEA430210B25300002848BF8EEA04
:103C4000420318B25A00002848BF8EEA430282EAB3
:103C5000012002B24300002A48BF8EEA400318B296
:103C60005A00002848BF8EEA430210B253000028D1
:103C700048BF8EEA420318B25A00002848BF8EEAB5
:103C8000430210B25300002848BF8EEA420318B224
:103C90005A00002848BF8EEA430210B253000028A1
:103CA00048BF8EEA420318B25A00002821F0FF00F4
:103CB00048BF8EEA4302504002B24300002A48BF88
:103CC0008EEA400318B25A00002848BF8EEA430229
:103CD00010B25300002848BF8EEA420318B25A00BF
:103CE000002848BF8EEA430210B25300002848BFA4
:103CF0008EEA420318B25A00002848BF8EEA4302F7
:103D000010B25300002848BF8EEA420318B25A008E
:103D10006FF0FF0C002848BF8EEA43020CEA112323
:103D20005A4013B25000002B48BF8EEA420002B244
:103D30004300002A48BF8EEA400318B25A00002808
:103D400048BF8EEA430210B25300002848BF8EEAF3
:103D5000420318B25A00002848BF8EEA430210B24C
:103D60005300002848BF8EEA420318B25A000028C8
:103D700048BF8EEA430210B2530000280CEA1140FB
:103D800048BF8EEA4203584001B24200002948BFB2
:103D90008EEA400210B25100002848BF8EEA42016C
:103DA00008B24A00002848BF8EEA410210B2510012
:103DB000002848BF8EEA420108B24A00002848BFE6
:103DC0008EEA410210B25100002848BF8EEA42013B
:103DD00008B24A00002848BF8EEA410210B25100E2
:103DE000002848BF8EEA420188B280BD2DE9F04F1D
:103DF0008BB01D465B69ABB38146288C0E464FF6EF
:103E0000FD7E18B1E969B9B307283DD8D9F810800B
:103E1000B8F1000F2AD0D8F80000B9F81610C9F888
:103E20001000481CB9F8181082B29142A9F8160087
:103E300038BFA9F8180000214046C8E90311C8E9B5
:103E4000001140F8081FE9692A8CFCF7BDF9288C9D
:103E5000013081B20929C0F03F810D2980F028810D
:103E60000C2039E16FF0020000F1010E0FFA8EF024
:103E70000BB0BDE8F08F00BF0EF1010E0FFA8EF00F
:103E80000BB0BDE8F08F00BF023080B244F62511C0
:103E90000630C2F29241A0FB0117B9F81410B9F82C
:103EA0001630C01BC91A07EB500089B2B1EB900F56
:103EB00006D24FF6FD7E0FFA8EF00BB0BDE8F08F04
:103EC000100A019046F00040059026F0604CC6F3C1
:103ED00080704FEA9C4B0A9080204FF0000E002427
:103EE00000270292CDE903CB0DE000BF09990160E4
:103EF000298C5FFA8AF00EF1010E80F00107A142D1
:103F00004FF00000B2D0D9F81060002ED1D006904A
:103F10003068B9F81610C9F81000481CB9F8181024
:103F200082B29142A9F8160038BFA9F81800CDE96D
:103F3000077E4F460023C6E90033C6E902333361EA
:103F400024B902980223307201987072F2184FF06F
:103F500000099C460996B5F8208004EB090EC64579
:103F600039D200BFE86902EB090A1EF800000EF121
:103F7000010B8AF8080003EB090006282ED0B5F8DB
:103F80002080C34536D2E9690EF1020B71444978AD
:103F90008AF80910B5F82080C3452FD2E9690428B2
:103FA000714489780EF1030B8AF80A1016D0B5F81F
:103FB0002080C34526D2E8690CF1040C2044484413
:103FC000C07809F104098AF80B00B5F8208004EBE9
:103FD000090EC645C6D3F34616E000BF0DF1180E14
:103FE000DDF80CC09EE80844B5F82080B9460820EA
:103FF00013E000BF4CF0010C06E000BF0CF1020C16
:1040000002E000BF00F1030C0DF1180E9EE8084419
:104010000CF10100DDF80CC0B9461FFA8BF4A04585
:1040200008BF40236A6943EA4A131278059E02F0EA
:104030001F021A43099B411E89B243F8046F1944B9
:104040000A71D9F82480DDF810B01873B8F1000FA8
:104050004346424618D10998C9F8240048E700BFF2
:1040600000269C4538BF01260A9FC1F380718F420C
:1040700008BF31469C4518BF314601290CD0036862
:104080000246002B3FF432AF59681846002921F050
:104090006043E5D49B45F2D2404503D009991160B5
:1040A000086025E70998C0F80080C9F824001FE7D8
:1040B000112901D210200FE0152901D214200BE0A4
:1040C000192901D2182007E0212901D2202003E07C
:1040D0004020312938BF3020411E6A69298488F880
:1040E00010001078062262F35F1046F0004243464B
:1040F00089B243F8042F19440871D9F824C0BCF1DF
:10410000000F3BD026F060418A0CC6F380776346EF
:10411000654611E0C3F38073B1424FF0000438BF2D
:1041200001249F4208BF2346B14218BF2346012BFA
:104130000AD003680546ABB118465B68002B23F034
:104140006046E7D4B242F4D2604515D0C5F800808D
:10415000C8F800004FF0010E0FFA8EF00BB0BDE86A
:10416000F08F00BFC0F800804FF0010E0FFA8EF004
:104170000BB0BDE8F08F00BFC8F800C0C9F82480BC
:104180004FF0010E0FFA8EF00BB0BDE8F08F00007B
:10419000A8B0FDF793FA00240120CDE91B44CDE936
:1041A000194416901A904FF4E0104FF48031022514
:1041B0001F9016A8CDE91714CDE91D51FDF71CFC81
:1041C00020B1EFF3108072B6FEE700BF0F20CDE9FB
:1041D00008054FF480600A94CDE90B0408AC204632
:1041E0000221FDF715FB28B1EFF3108072B600BF76
:1041F000FEE700BF41F21800C4F20200016845F278
:10420000004541F020010160016840F2700901F0B1
:104210002001169116990168C4F2000541F00401CD
:1042200001600168C2F2000901F0040116911699BB
:104230000168002641F008010160006805F5805121
:1042400000F0080016901698484640F81C1F0421FC
:104250004FF4C022C0E90116C0E90362C0E9056657
:104260008683FCF73FFC28B1EFF3108072B600BFE5
:10427000FEE700BF40F2E44048F2A061C2F2000055
:10428000C0F201014FF48042C0E90051C0E902666A
:10429000C0E90426C0E906660662FCF745FF28B1BE
:1042A000EFF3108072B600BFFEE700BF09F11C05F6
:1042B0002846FCF725FD28460221FCF751F944F277
:1042C0006550C0F6000009F1440640F2E40144F2F2
:1042D000B5434FF0000A0090C2F20001C0F600039F
:1042E00030464FF48062CDF804A0FFF751F9304614
:1042F0000C21FFF7D9FA012016AFCDE91D002846A1
:104300003946CDE91BAACDE916AACDE918AACDF800
:1043100068A0FCF791F940F2E440C2F20000FCF71B
:1043200051F807F10C00069007F12900059009F1FA
:104330000C004FF0040B079040F2E440C2F2000082
:10434000FCF7EEFE89F802003046FFF787F930B33C
:10435000804600BF2846FCF781FA00B3CDF860A084
:10436000CDE91AAACDE916AACDE918BAD8F8000005
:1043700098F80C1020F0604017901A9108F1040290
:10438000284639462346FCF703F940B93046FFF783
:104390006BF93046FFF762F980460028DAD1012038
:1043A000FCF7EAFC0798FCF713F889F80300FCF720
:1043B00095FED9F80410401AB0F57A7F2FD3FCF798
:1043C0008DFE44F6D351C1F26201A0FB01018809C0
:1043D000169038462146ADF85CA08DF85EA0ADF889
:1043E00060A0CDF823A0CDF820A000F085FA80B21F
:1043F00040F255114CF2F16246F6D003CDE90019B6
:10440000182104903046CCF2A712C0F6087302912E
:104410000394FEF77BF9FCF761FEC9F80400FCF792
:104420005DFED9F80810401A6428FFF485AF06989D
:104430003C21FBF762FFD9F81410B9F80E00169171
:1044400000F0FCFAB9F910101790084600F0DEFAF7
:1044500099F80C10189064208DF8760014208DF8CF
:1044600077108DF88000059844F61051C0F60001D1
:104470001422FBF7A9FE3846214600F089F809F11D
:10448000010140F2444280B2CDE9002141F66612BA
:1044900042F25463182104903046C8F67122C2F2E9
:1044A0009C4302910394FEF731F9FCF717FEC9F81B
:1044B000080041E72DE9F043ADF5497D0D46C98A75
:1044C00001294AD10446287E012846D10DF5CC7831
:1044D00040464FF4C471FBF710FFFCF7FFFD44F6B4
:1044E000D351C1F26201A0FB01018809669002204C
:1044F0008DF8CA0243F2375007AF00264FF001098A
:10450000ADF8CB02384640F27911ADF89C618DF8D8
:104510009E61ADF8A061ADF8A891ADF8B891FBF738
:10452000ECFE4046394600F0D5F86A7EE97E8DF80B
:104530001B200DF11B0285B21820CDE9009202AAC2
:10454000C1C246F69E2248F68123C2F2C412CEF6BC
:10455000466320460595FFF791F80DF5497DBDE8C6
:10456000F083000082F0010083F001021043B0FAF2
:1045700080F04FEA501018BF704748F6812246F687
:104580009E23CEF64662C2F2C413C1E900327047E0
:104590002DE9F04184B08846054608463721FBF7EF
:1045A0008AFE2868FEF75CFBADF80E000DF10E03E5
:1045B000404600211022FEF779FB6868FEF750FBA9
:1045C000ADF80C0003AB404610211022FEF76EFB45
:1045D000A868FEF745FBADF80A000DF10A03404656
:1045E00020211022FEF762FBE868FEF739FBADF8E8
:1045F000080002AB404630211022FEF757FB286925
:10460000FEF72EFBADF806000DF1060340464021F3
:104610001022FEF74BFB6869FEF722FBADF80400A1
:1046200001AB404650211022FEF740FBA869FEF77F
:1046300017FBADF802000DF1020340466021102285
:10464000FEF734FB05F11C03404670210B22FEF7F8
:104650002DFB05F11E0340467B210722FEF726FBBA
:1046600005F11F03404682210722FEF71FFB05F1DB
:104670002003404689210722FEF718FB05F121039C
:10468000404690210822FEF711FB05F12403404625
:1046900098212022FEF70AFB95F828601F2E28BFDC
:1046A0001F269EB105F129040027B825E3194046CD
:1046B00029460822FEF7FAFA0137BE4205F108053D
:1046C000F4D107F1170004B0BDE8F081172004B061
:1046D000BDE8F0812DE9F04381B089468046084667
:1046E00040F27911FBF7E7FD4846002120224346BE
:1046F000FEF7DCFA08F10403484620210222FEF707
:10470000D5FA08F10503484622210322FEF7CEFA26
:1047100008F10603484625210322FEF7C7FA08F1EF
:104720000803484628211022FEF7C0FA08F11003BA
:10473000484638210822FEF7B9FA08F11103484625
:1047400040210822FEF7B2FA08F112034846482138
:104750000822FEF7ABFA08F1140348465021202244
:104760005027FEF7A3FA08F11803484670214022AB
:10477000FEF79CFA08F120034846B0210822FEF714
:1047800095FA08F121034846B8210822FEF78EFA6F
:1047900008F122034846C0210822FEF787FA08F1F3
:1047A00023034846C8210822FEF780FA08F12403B3
:1047B0004846D0210822FEF779FA08F12503484639
:1047C000D8210822FEF772FA08F126034846E021B4
:1047D0000822FEF76BFA08F127034846E821082271
:1047E000FEF764FA08F128034846F0210822FEF794
:1047F0005DFA08F129034846F8210822FEF756FA27
:1048000008F12A0348464FF480710822FEF74EFA59
:1048100008F12B0348464FF484710822FEF746FA4C
:1048200008F12C0348464FF488710822FEF73EFA3F
:1048300008F12D0348464FF48C710822FEF736FA32
:1048400008F12E0348464FF490710822FEF72EFA25
:1048500008F12F0348464FF494710822FEF726FA18
:1048600008F1300348464FF498710822FEF71EFA0B
:1048700008F1310348464FF49C710822FEF716FAFE
:1048800098F832000DF103038DF8030048464FF409
:10489000A0710822FEF70AFA9DF8030090B108F112
:1048A000330500244FF4A4762B19484631460822DC
:1048B000FEF7FCF99DF803000134844206F1080676
:1048C000F2D301E04FF4A47698F83201502838BFB3
:1048D000074667B108F233154846314608222B4691
:1048E000FEF7E4F90836013F05F10105F4D1F01DAA
:1048F000C00801B0BDE8F083B0B5054600200C4605
:10490000C1F8030008600846002120222B46FEF76C
:10491000CDF92B1D204620210222FEF7C7F96B1D81
:10492000204622210322FEF7C1F9AB1D2046252196
:104930000322FEF7BBF905F10803204628211022C7
:10494000FEF7B4F90720B0BD90EA010F48BF81F02F
:10495000004100F15A81421A3CBF801A89184FEA7F
:10496000D052A2EBD1534FF07F4C1CEA410F18BF3D
:104970009CEA026F00F03B804FF0004C4CEA0020B4
:104980004CEA012121FA03FC10EB0C0C1ED202F1BF
:10499000FF325FEA1C2040EBC25038BF70471CF06A
:1049A0007F0F4FEA400C18BFBCF17F4F38BF7047F4
:1049B000C3F12003994008BF20F00100BCF17F4FF4
:1049C00038BF7047A0F1C04000F013B94FEA3C0077
:1049D000000A40EBC25028BF1CF0FF0F4FEA400C0A
:1049E000E6D018BFBCF17F4F38BF7047EAE79CEABA
:1049F000026F05D010EA5C0F08BF00F0004070475E
:104A000010B500F0B0F800BF64FBBE3E10F00041EE
:104A100048BF4042B0FA80F310FA03F2C3F19D039D
:104A20000BD051EAC35101EB1220530638BF704737
:104A300000F1010008BF20F001007047B0FA80F3D8
:104A400010FA03F2C3F19D030AD0D90501EB12203D
:104A5000530638BF704700F1010008BF20F0010085
:104A6000704700004FF47F0C1CEAD0121EBF1CEAF6
:104A7000D11392EA0C0F93EA0C0F00F0478090EAF2
:104A8000010F48BF42F480724FF0004C4CEA002006
:104A90004CEA012102EB0302A0FB0113A2F5000284
:104AA000002918BF43F001035B0028BF4FEA33031E
:104AB00042EB22425FEA132C4CEBC2502EBFBCEB00
:104AC000436FB2F57C0F70474FEA036CBCF1004FA7
:104AD00008BF20F00100B2F57C0F38BF70470BD53E
:104AE00082F0FF0212F5803FC8BF704700F1C0405E
:104AF000D8BF00F00040704700F5000C5FEA4C0C96
:104B000048BF7047B0F1C04000F073B80CEAD11351
:104B100090EA010F48BF42F48072624538BF634596
:104B200004D280EA010000F00040704710B500F0A8
:104B30001AF800BF8900013E00F007B800F009B87C
:104B40005FEA410C5FEA1C6C08D080EA010000F0CB
:104B500050B85FEA400C5FEA1C6CF6D14FF00040A1
:104B6000A0F5800070470EF1020E2EF0030E5EF8E5
:104B7000044B244204D44FEA4102B2F17F4F11D8D2
:104B80004FEA4003B3F17F4F0CD80ED14FEAD07CEF
:104B90000CEB4C0C0CF1020CB2F17F4F08BF4CEB4C
:104BA000D17C04E04FF0080C01E04FEAD17C0CEB23
:104BB0004C0324FA03F404F00704B4F1040C06D205
:104BC0000EEB840CBDE810404CF0010C6047DFE8B0
:104BD0000CF0070802024FF00040A0F5800010BD65
:104BE0000846420018BFD2F1807288BF00F0004032
:104BF00010BDFF2141EAD050C005704790EA010F77
:104C000048BF81F000413FF5A6AE421A04D882F0B9
:104C10000042A0EB020011444FEAD052A2EBD15364
:104C20004FF07F4C1CEA410F18BF9CEA026F4AD03C
:104C30004FF0004C4CEA00204CEA012121FA03FC21
:104C4000B0EB0C0C0FD412F0FE0F36D05FEA4C0024
:104C50001DD5001240EBC25038BF70471CF03F0F0B
:104C600018BF70470BE05FEA1C20A2F1010240EB85
:104C7000C25038BF70471CF07F0F18BF7047C3F198
:104C80002003994014BF401E20F0010070474FEAF6
:104C90001223800808BF7047B0FA80FCA2EB0C0218
:104CA000CCF1280C60FA0CF093EA122F04BF00EB51
:104CB000C25070474FEAC3707047130A5FEADC10B6
:104CC00008BF7047F6E79CEA026F04D010EA5C0F59
:104CD00008BF0020704710B5FFF745FF40DFF63EE4
:104CE00081F0004070470000000000000000010259
:104CF0000304060708090000000001020304010282
:104D000002030405060708090A0B0C0D0E0F10100C
:104D10006879706D6F74696F6E5F7061636B5F70DF
:104D2000696E5F3200000000484D0008000000205E
:104D30001000000028010008584D00081000002055
:104D4000300B0000440100080100000010000000CA
:084D500000127A0000000000CF
:04000005080000ED02
:00000001FF
