:020000040800F2
:100000003008002061020008E1470008DF470008CF
:1000100000000000000000000000000000000000E0
:10002000000000000000000000000000E54700089C
:100030000000000000000000E3470008E747000858
:1000400073020008730200087302000873020008BC
:1000500073020008730200087302000873020008AC
:10006000730200084D2100087302000873020008A3
:10007000730200087302000873020008730200088C
:10008000F1470008730200087302000873020008B9
:10009000730200087302000873020008730200086C
:1000A000730200087302000873020008730200085C
:1000B00073020008054F000873020008730200086D
:1000C00000F002F800F0BDF80CA030C80838241881
:1000D0002D18671EA246AB4654465D46AC4201D180
:1000E00000F0AFF87E460F3EB6460FCC01263342F5
:1000F00000D0FB1A3343A246AB461847C85700004E
:10010000E8570000103A02D378C878C1FAD85207ED
:1001100001D330C830C101D504680C6070470000BD
:100120000023002400250026103A01D378C1FBD813
:10013000520700D330C100D50B60704710B56E294F
:1001400002D100F00BFC10BD702902D100F045FD7A
:1001500010BD662902D105F0CBFA10BD652902D188
:1001600005F0C6FA10BD672902D105F0C1FA10BD2D
:10017000612902D105F0C4FA10BD03681B0A01D33E
:1001800080231943692902D100F0B2FB10BD642914
:1001900002D100F0ADFB10BD752902D100F0A8FB23
:1001A00010BD6F2902D100F0C3FC10BD782902D127
:1001B00000F000FD10BDE92902D100F05FFC10BD88
:1001C000E42902D100F05AFC10BDF52902D100F05B
:1001D00055FC10BDEF2902D100F0B6FC10BDF82986
:1001E00002D100F0F5FC10BD0368DB0901D38023C8
:1001F0001943632902D101F0D8F910BD732902D146
:1002000001F0DBF910BDE32902D101F0E5F910BDE1
:10021000F32902D101F0E8F910BD002010BD1FB58F
:1002200001F076FA04000020002105F01BF9401CC3
:1002300060600020002105F0FFF8E0601FBD10B5F0
:1002400010BD01F03DFA1146FFF7E9FF04F060FE32
:1002500001F0D2FD03B4FFF7F2FF03BC01F080FE12
:100260000748804707480047FEE7FEE7FEE7FEE74E
:10027000FEE7FEE704480549054A064B70470000C3
:10028000EF470008C10000083002002030080020BD
:100290003004002030040020FEB5044610460D4610
:1002A000184373D0A6468C460020A41A01469D41EF
:1002B00067D36646002701243D46B61A9D4102D306
:1002C00013463A462124654676462F04360C3E43B3
:1002D0002D0CB61A9D4104D3150C1B042B4312049C
:1002E0001034654676462F06360A3E432D0AB61A66
:1002F0009D4104D3150E1B022B43120208346546A0
:1003000076462F0736093E432D09B61A9D4104D380
:10031000150F1B012B431201241D65467646AF07BE
:10032000B6083E43AD08B61A9D4104D3950F9B0015
:100330002B439200A41C65467646EF0776083E43A1
:100340006D08B61A9D411AD392185B41641C16E0E1
:100350000018764665464941B71A9D4101910090C3
:1003600009D36046B11A98418E4684460098019997
:100370000025401C6941DD0752082A435B08641EC2
:10038000E6D57246634603B0F0BDFFE7204628433A
:1003900007D00020C0430146C046C04622462B4637
:1003A000F1E700200146F7E71CB50C46064B7B44FD
:1003B00069460090204600F0EAFA044600206946AB
:1003C00000F0F8FA20461CBD0306000000220309D5
:1003D0008B4273D3030A8B4258D3030B8B423CD31B
:1003E000030C8B4221D312E003460B437FD400223F
:1003F00043088B4274D303098B425FD3030A8B42B9
:1004000044D3030B8B4228D3030C8B420DD3090238
:10041000FF2212BA030C8B4202D31212090265D0DA
:10042000030B8B4219D300E0090AC30B8B4201D3A3
:10043000CB03C01A5241830B8B4201D38B03C01AEA
:100440005241430B8B4201D34B03C01A5241030B61
:100450008B4201D30B03C01A5241C30A8B4201D312
:10046000CB02C01A5241830A8B4201D38B02C01ABD
:100470005241430A8B4201D34B02C01A5241030A34
:100480008B4201D30B02C01A5241CDD2C3098B4219
:1004900001D3CB01C01A524183098B4201D38B0196
:1004A000C01A524143098B4201D34B01C01A524139
:1004B00003098B4201D30B01C01A5241C3088B427E
:1004C00001D3CB00C01A524183088B4201D38B0069
:1004D000C01A524143088B4201D34B00C01A52410B
:1004E000411A00D201465241104670475DE0CA0FE2
:1004F00000D04942031000D3404253409C460022A2
:1005000003098B422DD3030A8B4212D38901FC22AB
:1005100012BA030A8B420CD3890192118B4208D381
:10052000890192118B4204D389013AD0921100E0E3
:100530008909C3098B4201D3CB01C01A52418309F7
:100540008B4201D38B01C01A524143098B4201D324
:100550004B01C01A524103098B4201D30B01C01A4F
:100560005241C3088B4201D3CB00C01A52418308C9
:100570008B4201D38B00C01A5241D9D243088B421F
:1005800001D34B00C01A5241411A00D201465241D8
:10059000104663465B1001D34042002B00D5494210
:1005A000704763465B1000D3404201B50449002800
:1005B00002DC491C084000E00846C046C04602BDB7
:1005C000FFFFFF7F70477047704700000121C9059A
:1005D0000123411842001B06D3185B0E0AD0C1103C
:1005E0000722D206891840075242D14201D5520053
:1005F00089187047090208D50146002A03D0C10FA7
:10060000C9070020704710467047420202D0002000
:1006100002497047072109050143F4E70000F87F0C
:10062000F0B5FF252D04C609C209FF2704462E4058
:100630000137CB093E4348402A402B400746002A59
:100640006BD0002B69D0AA4267D0AB4265D000289E
:1006500000DA32460125ED0529432C430902200228
:10066000090AD21A4B0C7F24E31A434C000A7C443B
:10067000E35C7D242404121914145B00A218884240
:1006800001D3521C00E0400049420C465C43241157
:100690005C43DB016415E318040A5C43C502200DCA
:1006A0000C4644436419250A5D432303EC0C0D46B4
:1006B000654300030019EB184C42A34201D35B18B9
:1006C000401CD4052018002B07D05B00C91804D3A8
:1006D000401C002901D1400840003F2189048A4282
:1006E00009D3002A08DC1106090F04D003214907A9
:1006F0004018C00FC007F0BD012241001206891842
:100700007F2252069142F6D205214907C84201D5FF
:100710009010F0BDFF20C005F0BD002F00DA32467A
:100720001648AA4207D2AB4205D21902090E17D0C9
:10073000F80FC007F0BDFF2563002D06AB42F9D8C6
:100740004900A942F6D8AB4201D1A942F2D0A94250
:1007500001D1002101E061004908D0050843F0BD46
:100760001102090EFBD0FF200243D005F0BD0A465E
:100770000146104654E700009E5000000000C07F74
:1007800010B501469E240002CA15A307002A02D014
:100790001843002A04DBA21A002A0CDDD04010BD49
:1007A0001206120E01D140004008A21A03D4D04014
:1007B00040420028F3DDFF2248001206904201D992
:1007C000002010BDC817C043584010BD1F22030CA5
:1007D00002D10F2200041CD0030E01D10002083AFE
:1007E000030F01D10001121F830F01D18000921E5F
:1007F000002801DB4000521ED20551180212511888
:100800001922904004D3491C002801D1490849000D
:1008100008467047C10FC90700D040420122920725
:100820001143D3E701218907D0E770B504468569F4
:100830000068C10601D5302600E02026C00707D099
:1008400070BD62683046A1689047206A401C2062F3
:100850006D1EF6D570BD70B5044685690078C00779
:1008600007D170BD6268A16820209047206A401CB3
:1008700020626D1EF6D570BD09684A0501D540B2EB
:100880007047C905FCD500B2704709684A0501D513
:10089000C0B27047C905FCD580B2704770B50C4630
:1008A0000546012A05D02878800600D5EA6900238C
:1008B00002E0012305E05B1C934202D2E05C0028C9
:1008C000F9D1A869E618C01AA861286AC018286278
:1008D0002846FFF7AAFF04E06A682078A968641C2C
:1008E0009047B442F8D32846FFF7B5FF70BD00002B
:1008F000F7B5002575291068009914A611D0FFF7E7
:10090000BBFF002802DA404211A608E000990968FE
:100910008A0701D50FA602E0490704D50EA60125D6
:1009200001E0FFF7B2FF009F0024243704E000F04D
:1009300080FE30313955641C0028F8D12B463246F0
:100940002146009800F057FAFEBD000000000000AC
:100950002D0000002B00000020000000116802683C
:10096000006A530501D5087009E0D30501D5088058
:1009700005E0130602D5C21705C100E0086001209A
:100980007047000001694A1C02610878704700B591
:100990008FB002910021059105490193794403919B
:1009A00011460490684600F025F90FB000BD000024
:1009B000E5FFFFFF0A681070521C0A6070470000D4
:1009C000F7B50446154686B02B487844002703C87F
:1009D0003E460090019111E007986A467100415A25
:1009E00002A800F005FE411C07D02178890603D536
:1009F000E269391891420ED83F18761C207880069B
:100A000002D5E069B84206DDAE42E5DB0798710029
:100A1000405A0028E0D1A069C01BA0612046FFF722
:100A200004FF154878445A3803C80090002001910B
:100A300016E041006A460798415A02A800F0D8FD26
:100A40000590401C0AD0002505E0626802A8A16854
:100A5000405D90476D1C05988542F6D30498401C74
:100A6000B0420490E5DB206AC01920622046FFF7FF
:100A7000F2FE09B0F0BD0000824D0000F7B5D21DB6
:100A80000025D20815A6D200F52905CA11D0002AE2
:100A900005DA00214042914111A60A4608E000997A
:100AA00009688B0701D50FA602E0490701D50EA6FC
:100AB00001251146009F0024243704E000F05EF970
:100AC00030323A55641C02460A43F7D12B4632466F
:100AD0002146009800F08FF9FEBD000000000000E4
:100AE0002D0000002B0000002000000070B504461F
:100AF0000021243408E05507D2086D0F30356554C5
:100B00005D072A43DB08491C15461D43F3D10468E1
:100B1000002310A2250708D520252C400C4304D023
:100B2000C46901230CA2641EC46100F064F970BDA5
:100B300010B5044621461068FFF7A7FE00230246C1
:100B40002046FFF7D3FF10BDD21DD108C9000CC944
:100B5000CCE700000000000030000000F8B50F46B0
:100B60000188090502D5224C7C4402E0204C7C44DB
:100B70000E3405460021243508E016071209360F09
:100B8000A65D6E541E0732431B09491C16461E43C0
:100B9000F3D1224604780023240705D5702F06D010
:100BA000002901D00223113200F025F9F8BD0123FC
:100BB0001032F9E770B504460D4621461068FFF77C
:100BC00064FE0023024629462046FFF7C7FF70BD9A
:100BD000D21DD308DB000CCBC0E730B4036820245F
:100BE0001268234303600823C36130BC0023B5E7C8
:100BF000EC4B0000F3B50446002081B02062204693
:100C0000E1688847002872D0252802D06268A16870
:100C1000ABE0594F00267F442046E16888472028F2
:100C2000054608DB312D06D27819203800780028D7
:100C300001D00643F0E7B00701D504208643002029
:100C4000E0610746A0612A2D0AD0284604F0EDFB9A
:100C5000002827D0B8000019303D0090856119E0C8
:100C60000298BA00121902C8916102902046E16808
:100C70008847012F054617D1E06900281FDA202098
:100C800086431CE000980A21806948430099401976
:100C9000303888612046E1688847054604F0C5FB86
:100CA0000028EFD1012F0AD02E2D08D12046E1686F
:100CB00088470546202006437F1C022FC3DBA0691E
:100CC000002803DA4042A06101200643F00701D06A
:100CD000102086436C2D0BD0682D09D04C2D3CD0B4
:100CE0006A2D38D0742D38D07A2D36D016E040E0F9
:100CF000E1682F4620468847B842054609D16C2F47
:100D000029D001208002E168064320468847054635
:100D100004E06C2F1DD0FF2001300643002D28D0A9
:100D200028464138192803D80120C002064320353F
:100D3000204626602946029A1646FFF7FFF900284A
:100D400010D001280BD0F61DF008C000083002902A
:100D500055E74020E1E78020D5E70020D3E7361DA6
:100D600002964CE762682846A1689047206A401CBA
:100D700044E7206AFEBD0000664B00000B4670B5DC
:100D8000024689078008084319469D08141AA9419C
:100D900025090807054308092C194841250A0106B9
:100DA0000D43010A2C194141200C0D0428430D0C60
:100DB00000194D41002140194D41C0086907084301
:100DC000E908840F8D002543840024184D4124191F
:100DD0006D41121BAB4107E00925ED432C1152195F
:100DE00063410024401C61411C460A250026551B16
:100DF000B441F1D270BDFFB504460D4681B0243038
:100E000000902168880604D51022E0699143216092
:100E100000E00120A84201DD471B00E00027049804
:100E2000A1697A191018081AA0612078C00602D4A6
:100E30002046FFF7FAFC002608E003986268A168E4
:100E4000805D9047206A401C761C20620498864290
:100E5000F3DB2078C0060AD52046FFF7E6FC06E063
:100E60006268A16830209047206A401C20623846A2
:100E70007F1E0028F4DC07E000986268A168405DEE
:100E80009047206A401C206228466D1E0028F3DC33
:100E90002046FFF7E0FC2078000602D5022005B0CE
:100EA000F0BD0120FBE70000FFB50C461E468FB0E9
:100EB00003CA089009914F007D0D00D16D1E0021DD
:100EC00008460020C0460321099A89050840002AE7
:100ED00003DA8200801840080840800D01280A903B
:100EE00002DD0020C0430A90089807430DD0F04867
:100EF000F049281848430714189800281DD0754257
:100F0000291E1DDD0A9842421BE01898012802D0D4
:100F10000020302104E00020F24305E02154401C71
:100F2000B042FBDB30460022189B002121540F9970
:100F30008B600A60486013B0F0BDBD1B6D1CDFE71D
:100F40000A9A002900DA69420BA800F029FC0BABD1
:100F500007CB03AB07C30899099800F08DFC6B46DB
:100F600007C30146D4480918002D00910BDDD24972
:100F700003980A9A49424018002303A9039068463F
:100F800000F0EAFE08E003990A9A0023081803A972
:100F90000390684600F08AFE6B4607C30004000C0D
:100FA00003D00020C043410800E01046189A002AF0
:100FB00003D00022009215461EE0751E05D4FFF7EF
:100FC000DDFE303262556D1EF9D5012208430796C9
:100FD00002D000227F1C04E02078302801D10022BA
:100FE0007F1E002A069787D01EE0112D07DAFFF733
:100FF000C5FE303262556D1C02460A43F5D10843E6
:1010000003D00098002819D00EE00021681E05E0EA
:10101000235C625C63542254401E491C8142F7DB0E
:10102000A81B401E07950690079A18990020A05407
:101030000F98079B069A81600CC07CE71126002060
:10104000189059E7D21DF0B50D460446D10893B06B
:10105000C90003C90C900D9104F0C6F902460D9821
:10106000C00F01D02D2007E02068810701D52B207B
:1010700002E04007C00F4001032A0F9001D0072A69
:1010800005DB03462946204600F046FB0EE12078AA
:10109000800601D5E76900E006272846652D04D0C3
:1010A000662814D0672D69D12DE00020112F009003
:1010B00001DB112300E07B1C0CAA03A910A8FFF799
:1010C000F3FE1199002610987D1C0E9142E001203C
:1010D0003B460CAAC0070B900120009003A910A862
:1010E000FFF7E2FE119D12981099002600280E9538
:1010F00001D1781C0D18781B02D446427D1C761E47
:10110000E81B00903AE0012F00DA01270020112FA0
:10111000009001DD112300E03B460CAA03A910A8B2
:10112000FFF7C2FE11993D46109800260E912178D6
:1011300009070BD40E99A94200DA0D4603A9012D27
:1011400004DD4A19203AD27F302A06D0B84201DAAB
:10115000011D04DA012100910FE06D1EEFE7002868
:1011600002DC86192D1A03E0411CA94200DD0D4660
:10117000801B401C00900120C0070B9020780007C6
:1011800005D40098A84202DB0020C04300906946C5
:101190000020C8720B98012102AF0337C9078842AB
:1011A00025D0022010902B2011900B9800280BDAEC
:1011B00040420B902D20119006E00B9800F039FA78
:1011C00030317F1E0B9039701099481E0029109005
:1011D000F3DC0B980028F0D111987F1E387020881E
:1011E000000501D5452000E065207F1E387001A86C
:1011F000C01BC01D0B900F98002800D00120411982
:101200000098C01709180B980818A169081A401E01
:10121000A0612078C00602D42046FFF706FB0F9895
:10122000002805D06268A1689047206A401C2062AF
:101230002078C00625D52046FFF7F7FA21E0002EDA
:1012400007DB0E98B04204DD03A86268805DA168E8
:1012500002E06268A16830209047206A761C401C3A
:1012600020620098401E002800900AD100F050FA39
:10127000C06862680168405CA1689047206A401CB1
:10128000206228466D1E0028D9DC07E062683878A5
:10129000A1687F1C9047206A401C20620B99481E61
:1012A00000290B90F2DC2046FFF7D5FA032042E636
:1012B00001FCFFFF104D0000E1DFFFFFD21DF0B584
:1012C00004460D46D0088DB0C00046680768314618
:1012D000384604F089F80246F00F01D02D2307E0CC
:1012E0002068810701D52B2302E04007C00F43018E
:1012F0006846002B037001D0012000E00020032A83
:101300000A9001D0072A04DB2946204600F004FA9F
:101310002DE12078800601D40D2500E0E5697000FC
:10132000400D0D2D01904BDA300D00210B90084639
:101330000020C046032189050840002E05DA8200FE
:101340008018C20F1018401008408015012801DDD8
:101350000020C043A9000023182906D39C460A4652
:101360000123183A1B07D34003E001221205CA40AB
:1013700094460C31202902D33A46203900E0324607
:101380008A40002802DD002A06D119E0002817D182
:101390000121C9078A4213D3194663467F185E416B
:1013A000002806D10120C007824202D108468743A7
:1013B0009E430B98310D814202D00198401C019050
:1013C0002088000502D57149794402E06F497944CB
:1013D00019396B460A9830221A540A980A7C401C24
:1013E0001A54401C0A900198002801DC302000E0CB
:1013F00031201872019A0120002A02D0644BD218C1
:1014000004E072003A4302D0614A521C0192002D5E
:1014100002DC2278120703D56A462E205072022081
:101420000022864694460CE032033601120F6D1EF0
:101430008B5C02AA13546246521C401C9446052A37
:1014400001DA002DF0DC002202AE08E03B0F3F0184
:10145000CB5C521C6D1E3354401C082A01DA002D4F
:10146000F4DC23689A0601D511E0401E704504DDC6
:101470003218203AD27F302AF7D0002807DD321800
:10148000203AD27F2E2A02D11A0700D4401E002D06
:1014900003DD3E223254401C6D1E497C31540199BB
:1014A000401C002906DA2D21471C31540198404286
:1014B000019003E02B21471C315401987D21C90084
:1014C000884206DBFEF790FF3030F0557F1C01911B
:1014D00001E0642808DB01986421FEF785FF3030C5
:1014E000F0557F1C019101E00A2806DB01980A21D2
:1014F000FEF77AFF3030F0557F1C01980A21FEF785
:1015000073FF3031F1550A98A1697F1C7A191018C0
:10151000081AA0612078C00602D42046FFF785F99A
:10152000216A6E460A980818206204E062683078E2
:10153000A168761C90470A98401E0A90401CF5D17D
:101540002078C00602D52046FFF76FF902AE09E009
:101550003078761C3E280DD06268A1689047206ADA
:10156000401C20627F1EF3D22046FFF774F90DB0B5
:101570000320F0BD206A4019206203E06268A16880
:10158000302090476D1EEDD3F8E70000D8430000EF
:1015900001FCFFFF10B54369002B02D0C046C046D6
:1015A00001E0FFF77BF9012010BD127801462431DC
:1015B0000A7000224A700122ECE711680022D2432F
:1015C000E8E710B54369002B02D0C046C04601E0F1
:1015D000FFF7F6F9012010BD1288014624318284FC
:1015E0000022C2840122ECE711680022D243E8E71E
:1015F000F8B516460C46054600F082F80368FF2051
:101600000230C05C012807D0FF2C0FD8185D0028DD
:101610000CD001202C70F8BDFF3332462146083330
:101620001868C71828460023B847F8BD0020C043F3
:10163000F8BD01468008081A02091018020A10189D
:10164000020C1018C008820012185200891A01E01A
:10165000401C0A390A29FBD27047000010B5FF234D
:101660001B0644009C421DD84C009C421AD80346DD
:10167000124A0B4307D4401A02D3EFF3008010BD87
:10168000EFF3008010BD081A03D3EFF300809043FE
:1016900005E0EFF3008001219043C907084380F380
:1016A000008810BD0D231B041A4204D011460020EF
:1016B00000F0AAFB10BD00F0BFFB10BD00000090C1
:1016C000754600F0C1FBAE46050069465346C008AA
:1016D000C000854618B020B5FEF7CCFD60BCB6460C
:1016E00000260027C0C5C0C5C0C5C0C5C0C5C0C58F
:1016F000C0C5C0C5403D490849008D46704700003F
:1017000010B500F005F8001D10BD00BF593D0000E8
:101710000048704730000020F8B51F4604460123FA
:101720000068DB02032601461840072A05DB002873
:1017300001D017A506E017A504E0002801D016A5E2
:1017400000E016A5102081432160A069C01E002F73
:10175000A06101D0401EA0612046FFF766F8002F6F
:1017600009D038466268A1689047206A401C206210
:10177000C01C206206E0206AFAE762682878A16847
:101780006D1C9047761EF8D22046FFF764F8F8BD2E
:101790004E414E006E616E00494E4600696E660015
:1017A000F7B516468AB0334878446C4603467C3316
:1017B000C06F5A689B680DC42E487844763003ACDD
:1017C0000DC80DC43720C001081837211B30FEF7A3
:1017D0000BFE05460C46803D1B3C02D564420120B1
:1017E00000E000200027099010E0E0070CD00C205A
:1017F00020497843794432464C39411868460123E0
:1018000000F054FA6B4607C364107F1C002CECD127
:10181000184F7F442E3F16E0E80712D02001C01970
:101820000EC80691089307920068F04201D19819FA
:1018300008903246012306A903A800F037FA03AB4B
:1018400007C36D10641C002DE6D10998002806D04E
:1018500032466946012303A800F07EFA05E0012321
:101860003246694603A800F021FA0A9B07C30DB06F
:10187000F0BD00000C400000034640000A4610B5D1
:10188000400D0BD00121C9070F24A40200191C032D
:1018900064082143540D2143D20207E000210120B6
:1018A000F2E7D40F490021435200401E0029F8DA24
:1018B000DB0FDB07184310BDFFB50D46144685B09E
:1018C0004868516803F077FD00910190A868A1680D
:1018D00003F071FD02910390A868616803F06BFD4D
:1018E000029A12188242029201D2012000E00020E6
:1018F000019A0B18D2180028019202D08A4202D90C
:1019000003E08A4201D2012000E00020009908187B
:1019100000906868A16803F04EFD029A1218824296
:10192000029201D2012000E00020019A0B18D21887
:101930000028019202D08A4202D903E08A4201D2F1
:10194000012000E000200099081800902868216814
:1019500040004900400849084018FA49471814E077
:1019600001994000C90F0843009001980299400076
:10197000C90F08430190029803994000C90F08431A
:101980000290039840007F1E039000980028E7DA39
:101990000898002801D0EC4E00E00026B74201DA9A
:1019A000012000E00020002804902AD0F71BF80650
:1019B000C00E15D0029B2021091A039A8B401A43AE
:1019C0000392029A019BC2408B401A430292019AF1
:1019D000009BC2408B4000991A430192C140009184
:1019E0007B110DD06F460320C11A03D50021820060
:1019F000B95003E08A008100BA587A50401EF3D5EE
:101A0000374603980299002800D001200143089826
:101A10000291002808460CD0002800D0012001992E
:101A2000019A490508430121D20AC902D202019252
:101A300000E001210E9B0122D207012B02D0002BD6
:101A400003D013E0002807D120E0904204D8904250
:101A50000CD1019B0B4209D0019B5918019105D172
:101A60000099491C009101D17F1C009200280DD0E3
:101A7000102108460020C0460498002806D00F9880
:101A8000002803D0082108460020C04628682168A5
:101A9000019B009A4840C10F0598C90739430EC001
:101AA00009B0F0BDFFB587B0099A08980899536846
:101AB00092684068896896460022039317469446C8
:101AC000089A12685300099A5B081268520052087B
:101AD0009A1A9E4BD4180A9A002A01D0352200E0A7
:101AE000402206920022012315460492DB0705934B
:101AF00024E0002D05D175460346039E4D1BB341DE
:101B000009D375466646039B491B049D9841059B76
:101B10007519AC465F4163463B4308D0059B049E64
:101B2000DD0776082E435B080496059301E0521EFC
:101B3000641EC50FED0749184041521C069B9A428E
:101B4000D7DB002D04D17546039A6B1A824101D26E
:101B500003200CE0039A0B466B404240134303D032
:101B6000014303D0012002E0022000E00020614692
:101B700001910021009702910A99002905D0614640
:101B800040020143704B019102E080070023029064
:101B90009C4201DA012000E0002007003AD01A1B25
:101BA000D006C00E15D0029D2021019C091AC54007
:101BB0008C402543029C8C4000D001242543019C8D
:101BC0000295009DC4408D4000992C430194C14072
:101BD000009154111DD06D460221002202290CD122
:101BE0000320001B07E0002804DB8600AE59002E0E
:101BF00000D00122401C0328F5DB081B02D5880019
:101C00002A5004E08000285810438A00A850491E3A
:101C1000E3D51C460A98002802980CD0002800D072
:101C200001200199019A490508430121D20AC902FC
:101C3000D202019200E00121109B0122D207012B68
:101C400002D0002B03D013E0002807D11FE0904200
:101C500004D890420CD1019B0B4209D0019B59182A
:101C6000019105D10099491C009101D1641C009299
:101C700000280CD0102108460020C046002F06D0B6
:101C80001198002803D0082108460020C046089873
:101C90000999019A009B006809684840C10F07989C
:101CA000C907214382600AC00BB0F0BD00B585B002
:101CB000019300920A460146002302A8FFF7FCFDAB
:101CC00002A807C805B000BDFFB50A461F4685B08B
:101CD0000799019301230091014602A8FFF7ECFD4B
:101CE00002990398049ECA0F4900D20700920F225E
:101CF000490892028C1A0021002800DB0C4645009E
:101D000013486D08844214D3079A002A04DA441E4B
:101D10000026104DF64302E004460D460E46102103
:101D200008460020C046002F03D0042108460020AA
:101D3000C0462005E90A0843009908436905F20AEC
:101D40001143ADE602C0FFFF013C0000FF3F000071
:101D5000FF070000FFFFFF7F00B585B001930092F1
:101D60000A460146002302A8FFF79CFE02A807C806
:101D7000A8E7FFB50A461F4685B0079901930123DE
:101D80000091014602A8FFF78DFE02990398049E78
:101D9000CA0F4900D20700920F22490892028C1AFA
:101DA0000021002800DB0C46450011486D088442E4
:101DB00014D3079A002A04DA441E00260D4DF64378
:101DC00002E004460D460E46102108460020C0469B
:101DD000002F03D0042108460020C0462005E90A50
:101DE0000843009908436905F20A114358E60000C8
:101DF000FF070000FFFFFF7F10B50446C046C04646
:101E00002046FEF727FA10BDC80212D54803400F3E
:101E1000002804D0C803C043012188407047EFF375
:101E200000800001000903210907084380F30088AE
:101E3000704700207047000010B5024800F060F8BD
:101E400010BD00000000C07F004870471000002057
:101E500082078B079A423FD170B5920F0AD00324B4
:101E600002780B78401C491C002A33D09A4231D1A9
:101E70002042F5D1214EF40104C808C9951B9543B1
:101E8000254018D19A420FD104C808C9951B954323
:101E9000254010D19A4207D104C808C9951B954323
:101EA000254008D19A42E7D012BA1BBA01209A42C3
:101EB00000D2404270BD12BA1BBA2DBA18241000CD
:101EC000E0401900E140401A05D12E00E64002D161
:101ED000083CF4D1D01A70BD02780B78401C491C24
:101EE000002A09D09A4207D102780B78401C491C7D
:101EF000002A01D09A42EFD0D01A704701010101A7
:101F000010B50C461107090F092904D00A290AD077
:101F100008290CD104E011460820FFF775FF06E000
:101F2000510606D501E0510601D50120C007214622
:101F300010BDD10607D501010909CC084907000EDB
:101F40000006044309E0410F20024907000A01434B
:101F5000200E00061D22D14101430846E7E700009C
:101F600001491820ABBEFEE7260002007047B0B55D
:101F70000146806A836D826D5024234206D0D206CA
:101F800010D4006D426B08469047B0BD01214B0252
:101F90001A4382650268D3681B059B0F05D000F0C9
:101FA0008BFCB0BD00F08AFCB0BD837E002BF6D167
:101FB00013681B07F3D593685B070AD403465833AD
:101FC00054680C25AC435460FF2402341A68A243C1
:101FD00006E0826D20231343836503465C33C26DA4
:101FE0000A431A6000F068FCB0BD80B5806A816D5C
:101FF00040220A438265C16D04220A43C26500F093
:102000005DFC80BD80B5806A00F057FC80BD00009B
:1020100070B505460068816882680024D20726D022
:102020000222114023D1816805220A40012A16D1DB
:102030008168424A0A40911C81600321016001F0DD
:10204000A3F8064628688068C00710D001F09CF805
:10205000811B28680329F6D38168C907F3D0A86DCE
:1020600010210143A965E86D01242043E86520465D
:1020700070BDC046F0B581B00546002400940068EC
:102080008168C9071AD181682C4A2F32114208D0C1
:10209000A86D10210143A965E86D01242043E8657E
:1020A0000CE08168254A11400127394381602448AA
:1020B0000068000205D4687E012825D1204601B0C1
:1020C000F0BD20480068204903F07AF8401C0090D9
:1020D00000980028EFD00098401E0090009800283B
:1020E000E9D00098401E009000980028E3D00098A6
:1020F000401E009000980028DDD00098401E0090FF
:1021000000980028E7D1D6E701F03EF80646286897
:102110000168C907D2D18168C90704D18168074A1B
:1021200011403943816001F02FF8811B2868032991
:10213000EED30168C907EBD1AAE7C046E8FFFF7FED
:102140000827014008000020400D030080B5024828
:1021500000F0EAFD80BDC04638010020EFF310809A
:1021600072B6FEE7F0B58BB0044600210A91542008
:10217000205C012803D1022528460BB0F0BD089150
:10218000204654300125079005702046FFF740FF98
:10219000064623689868A16DC00742D1059502964E
:1021A00018460830812252009143891CA165D968E4
:1021B000DA68D54F1740DF609A68D44D2A4052192B
:1021C00018329A60FD4A0A4001921946B4310691CC
:1021D000FB490268002A2ED50A9A521C0A920A9AD2
:1021E0008A4200D983E10268002A24D50A9A521C47
:1021F0000A920A9A8A4200D979E10268002A1AD51D
:102200000A9A521C0A920A9A8A4200D96FE102681D
:10221000002A10D50A9A521C0A920A9A8A42D8D9E0
:1022200065E1102001430898079A1070A1653546B2
:1022300028460BB0F0BD069A12680768ED4D2F4096
:10224000183503952F4307607F2504952A400768BA
:10225000002F24D50A9F7F1C0A970A9F8F4200D91E
:1022600045E10768002F1AD50A9F7F1C0A970A9F2D
:102270008F4200D93BE10768002F10D50A9F7F1CD1
:102280000A970A9F8F4200D931E10768002F06D5CF
:102290000A9F7F1C0A970A9F8F42D8D927E1069D83
:1022A0002F680668D34D2E40039D2E430660049D83
:1022B0002F40BA180668002E24D50A9E761C0A966E
:1022C0000A9E8E4200D912E10668002E1AD50A9E97
:1022D000761C0A960A9E8E4200D908E10668002EF6
:1022E00010D50A9E761C0A960A9E8E4200D9FEE000
:1022F0000668002E06D50A9E761C0A960A9E8E4215
:10230000D8D9F4E0069D2E680768BA4D2F40039D8A
:102310002F430760049D2E40B2180668002E24D576
:102320000A9E761C0A960A9E8E4200D9DFE0066855
:10233000002E1AD50A9E761C0A960A9E8E4200D955
:10234000D5E00668002E10D50A9E761C0A960A9ED5
:102350008E4200D9CBE00668002E06D50A9E761C78
:102360000A960A9E8E42D8D9C1E0069D2E6807685B
:10237000A04D2F40039D2F430760049D2E40B218AF
:102380000668002E24D50A9E761C0A960A9E8E4266
:1023900000D9ACE00668002E1AD50A9E761C0A9673
:1023A0000A9E8E4200D9A2E00668002E10D50A9E31
:1023B000761C0A960A9E8E4200D998E00668002E86
:1023C00006D50A9E761C0A960A9E8E42D8D98EE0C1
:1023D000069D2E680768874D2F40039D2F43076099
:1023E000049D2E40B2180668002E21D50A9E761C48
:1023F0000A960A9E8E427AD80668002E18D50A9E42
:10240000761C0A960A9E8E4271D80668002E0FD559
:102410000A9E761C0A960A9E8E4268D80668002E8E
:1024200006D50A9E761C0A960A9E8E42DBD95EE08D
:10243000069D2E6807686F4D2F40039D2F43076050
:10244000049D2E40B2180668002E21D50A9E761CE7
:102450000A960A9E8E424AD80668002E18D50A9E11
:10246000761C0A960A9E8E4241D80668002E0FD529
:102470000A9E761C0A960A9E8E4238D80668002E5E
:1024800006D50A9E761C0A960A9E8E42DBD92EE05D
:10249000069D2E680768574D2F40039D2F43076008
:1024A000049D2E40B2180668002E31D50A9E761C77
:1024B0000A960A9E8E421AD80668002E28D50A9ED1
:1024C000761C0A960A9E8E4211D80668002E1FD5E9
:1024D0000A9E761C0A960A9E8E4208D80668002E2E
:1024E00016D50A9E761C0A960A9E8E42DBD908985B
:1024F00007990870A06D1021014302208143A16556
:10250000059D28460BB0F0BDFC7FFFFFE8FFFF7F75
:10251000069909689E68374D2E4001252E439E601E
:10252000049E31408918C9081A69920F29D10F22D7
:102530009204DB4B1B6813409A0C072A21D3D21E4E
:10254000012393400993099A52080992099A002A93
:1025500017D0099A521E0992099A002A11D0099A95
:10256000521E0992099A002A0BD0099A521E09920A
:10257000099A002A05D0099A521E0992099A002A3E
:10258000E7D1069B1A68049EB2430A431A600168A9
:10259000184A114002273943016000F0F5FD06900A
:1025A00020688168C907029E0FD1C168019A114352
:1025B000C160A06D01210143B94334E603800000EE
:1025C000FFF102008168C907EFD000F0DDFD069938
:1025D000411A20680329F5D38168C907F2D0A06D9C
:1025E00010210143A165E06D2843E06528460BB04A
:1025F000F0BDC046E8FFFF7FF0B589B00025089523
:102600005422825C012A03D10224204609B0F0BD85
:102610000646543601243470026893685B0714D46C
:1026200004694B68022B18D1042004439A48844261
:102630006FD19848C0430B68D9430143906A084062
:1026400090620024002B75D567E0816D20220A433B
:1026500082653570204609B0F0BD079606930426C2
:1026600034438C4B8C4FBC4268D10F683B40906A1E
:102670001843906238025369834389680140874850
:102680000840184350610024002F04D4079E357081
:10269000204609B0F0BD012681483B460768072067
:1026A0008205394611407F480293834200D08CE076
:1026B000F0053B46034000D087E0794F3B689343E9
:1026C0001943014339607A4800687A4902F078FD7D
:1026D0000C2141430C31089108980028D6D0079E60
:1026E0000898401E08900898002823D00898401E9B
:1026F0000890089800281DD00898401E0890089857
:10270000002817D00898401E089008980028E7D1A4
:1027100010E00B680024002B0CD5FB480168624ACE
:1027200093426ED0614A93426ED05E4A934201D189
:10273000052267E03570204609B0F0BD0296059588
:102740001F27069C27400F2500950397BD40046E68
:102750000195AC4304940F681F424ED0FB07059DC2
:102760002C4663D1BB075CD47B075CD43B075CD4AD
:10277000FB06029C5AD4BB066BD47B066BD43B068B
:102780006BD4FB056BD40297BB056AD4029B5B0537
:102790006AD4029B1B056AD4029BDB046AD4029BA9
:1027A0009B046AD4029B5B046AD4029F3B04009C96
:1027B000059D3BD4FB0366D4029B9B0366D4029F1A
:1027C0007B03DB1712241C4019E03748029B83422D
:1027D00003D130063B46034008D03448029B834275
:1027E00000D053E7B005074000D04FE7C64F3B6825
:1027F000934319430143396048E77B00DC0E059D94
:1028000014E00322920501E00322D20511400722C1
:10281000920503689343591801603570204609B04A
:10282000F0BD012402E0022400E00324039EB44032
:10283000049B1C430466069B9B08C069984200D811
:1028400018E70198C043936A0340B800000FB040F6
:102850000EE70524EAE70624E8E70724E6E708246C
:10286000E4E70924029FCAE70A24029FC7E70B2472
:10287000029FC4E70C24029FC1E70D24029FBEE71C
:102880000E24029FBBE71024029FB8E71124029F89
:10289000B5E7C046FFFF07000400008000FFFF0708
:1028A00008270140001000B0004000B8002000B42C
:1028B00008000020400D030070477047704700007B
:1028C000F0B589B0044600200890002C77D007901E
:1028D000A06D002807D125465435204600F016F992
:1028E00000202870E06501273D072668B068C00019
:1028F00027D4B0687F4901402943B1607E48006811
:102900007E4902F05DFC4000801C08900898002879
:1029100017D00898401E08900898002811D00898F1
:10292000401E0890089800280BD00898401E089078
:102930000898002805D00898401E0890089800289C
:10294000E7D1B068284208D1A06D10210143A165EC
:10295000E06D012107910843E065B0680421014062
:10296000A26D102002405118A16D2BD106900F20AE
:10297000C7433A46F33A1140891CA165B168C907BB
:102980007DD10390049727462037216B4A1E914141
:102990000D03A168227E92030A43617EC90311439D
:1029A000A27E50030843E36803432B430120C5077D
:1029B000216900290590029509DAA94308E0012060
:1029C00009B0F0BD0143A165384609B0F0BD41052D
:1029D0000B43387B45001D433878012809D1002A74
:1029E00011D0A06D20210143A165E06D0599084338
:1029F000E065626A002A0CD0072080010240A16ACB
:102A00001143294306E0059800040543626A002A41
:102A1000F2D12946F0683A4A02400A43F2600320A4
:102A2000820763681D461540E16C387F01280ED18E
:102A3000206C0090676CA06C01900098074301988F
:102A400007432F430F43059807433D4600E00D43DE
:102A5000049F30692B490140294331610298834228
:102A600003990CD093420AD005988007834206D080
:102A70008804034024490A688243D01808607069BA
:102A800007229043656B2843706170697021884309
:102A9000A16B09010143716121690123580581423C
:102AA00003D000290BD1B06A07E0B06AE06980006A
:102AB0001C301C2101408F40206E3843B062706989
:102AC0001040A8420AD10020E065A06D0121014319
:102AD00002208143A165079809B0F0BDA06D069959
:102AE000084302218843A065E06D1843E06518465D
:102AF00009B0F0BDE8FFFF6F08000020400D0300A3
:102B00000102DEFF02FCFF1F08270140F0B587B07D
:102B1000044600260696059600681E49884201D0A4
:102B200007B0F0BD012738051B49CA680243CA60D7
:102B3000CA68024001920198086838430860086832
:102B400038400190049603200390182002900198C9
:102B500005200090000702A900F050FA0F4D2E62E8
:102B60002020B9023A0280230D4F2F60009F6F6032
:102B7000AE60EE602B616A61A961E861284600F0F1
:102B800047F9002801D0FFF7E9FAAC62256507B0E4
:102B9000F0BDC0460024014034100240380100203E
:102BA00008000240F0B581B00E46044601688B680B
:102BB00002205B071BD400925422A25C012A16D08B
:102BC0002746543701253D70C868C0070AD1886878
:102BD000C00704D08868194A0240901C8860C86801
:102BE0002843C8602046FFF745FA002801D001B00D
:102BF000F0BDA06D1249014028020818A065002010
:102C0000E06521681C220A603870206D0D4A0E4B69
:102C10000E4DC562036342634A68102313434B6041
:102C200040313246009B00F087F921688A68034BE7
:102C300013401A1D8A6001B0F0BDC046E8FFFF7F57
:102C4000FEF0FFFFEB1F0008052000086F1F0008C3
:102C5000B0B500282AD0014624314A78022A27D16B
:102C6000046822680E239A432260826C15682D4BFB
:102C70001D4015602568012295432560446C1C2584
:102C800025401446AC40056C6C60C46C056D6560F5
:102C9000446D002C05D025681D402560836DC06DF6
:102CA00058604A70002000220A70B0BD0120B0BDFB
:102CB0000422C263012000220A70B0BDB0B50146F3
:102CC00024314A78022A29D103681A680E24A243C3
:102CD0001A601C68012294431C60846C2568114BA7
:102CE0001D402560446C1C2525401446AC40056CF5
:102CF0006C60C46C056D6560446D002C05D0256862
:102D00001D402560836DC46D5C6000240C704A70AA
:102D1000816B002900D088472046B0BD0421C163E3
:102D20000120B0BDFFFEFFFFF0B585B0016C03913F
:102D30000B6806683268042502922A4051425141CC
:102D40000490426C18461C2313402F469F403A467D
:102D50000240544254410C432ED0019601220227D6
:102D6000029E314639404D424D419F4007420092FC
:102D700000D02A46049C25462435002A2CD0082160
:102D80000E4077427741D8400007009800D538467A
:102D900000281FD1019A10680E218843106001207D
:102DA00001469940039A5160E063002129706870E0
:102DB000616B00290CD10DE03068800602D43068C8
:102DC000A843306003984760049C216B002901D020
:102DD0002046884705B0F0BD019B1868800605D4E1
:102DE00018680A2188431860012068700020287044
:102DF000054A10467C30834200D9044A1760E16AD4
:102E00000029E5D1E6E7C046040002400404024080
:102E1000F0B587B0002812D00446014624310220C4
:102E2000069148703C480146083126688E4200D21F
:102E30003A4820648E42039104D33A4803E00120CB
:102E400007B0F0BD364880191421029102F0B8F99C
:102E50008000059060643068334901403160A768A4
:102E6000E168254610352DCD0195256A0495084366
:102E700010431843019908430499084331680143FA
:102E8000049739433160294D28468030E064FC20A6
:102E900030400838029902F093F9039FBE4200D3F4
:102EA000C01D1F22024001210B4693402365BE42F4
:102EB00000D31C3505982D18A5648A031C48049E70
:102EC000964206D100222A606260036015461346CE
:102ED00018E062687F2616402E600360531E0022B1
:102EE000032B154613460DD8731E9A008218002531
:102EF000D56703251D400B46AB400E4D2B607C3241
:102F0000BC3005460020E0636265A565E365069A6E
:102F10001070517007B0F0BD000402400000024084
:102F2000F8FFFDBFF8FBFDBF0F80FFFF0008024068
:102F30008408024044090240F0B583B004462420CE
:102F4000205C012802D1022003B0F0BD25462435C3
:102F5000012028706E78012E2DD100920220687019
:102F60000020E06325682A6801260296B2432A60A1
:102F7000E26C266D5660626D0192002A02D0A26D4D
:102F8000E66D5660226C666C1C273740029EBE4080
:102F900056606B60A368102B009E324600D00A4634
:102FA000AA60102B00D03146E9602968226B002A04
:102FB00007D00E220AE0002129708021E16303B0CE
:102FC000F0BD0422914329602A680A211143296037
:102FD00002990902A26C1368DB0302D513680B4344
:102FE0001360019B002B02D01A680A431A602968FB
:102FF000029A1143296003B0F0BD0000F0B589B01A
:1030000006900B68002B00D1B6E05C48069A82421D
:1030100002D00846052501E0084604250B210907D2
:10302000069A54180A21CC410094042C00D3009530
:1030300000273E463D463C46014607900EE02943A8
:10304000059D504801600799641C0B681846E040D4
:10305000BF1C361D0835002800D18DE00120A0409E
:1030600003400293F0D0059504960B4603263146A3
:10307000B940C9433A465F683D4635406B1E012B57
:1030800008910397019211D806998B68089E3340E6
:10309000079EF66896401E438E60FB06DB0FA3403A
:1030A0004E6886431E434E60089906E0032D04D106
:1030B00035460799049E019F1FE0069AD068084094
:1030C00007998B68019FBB400343D360022D049E88
:1030D00013D11C2030400F218140E3089B00069A49
:1030E000D3181D6A8D4307990969814029431962E4
:1030F00007994868032503900540BD40069A10686B
:10310000089B18402843106003988003800F059D9A
:103110009AD0182028400A460F21814003232546D3
:103120009D43174E73191D6E8D43009981402943AD
:10313000196631685068C30202D5029D294301E037
:10314000029DA943049E0E4B19605968830201D564
:10315000294300E0A9430A4B59600A49496883039F
:1031600001D5294300E0A943064B59601968C00303
:1031700000D564E7A94363E709B0F0BD0010005033
:103180000018024080180240054800687047C04699
:103190001E48007802490A68101808607047C04647
:1031A0002C02002010B501242002D4490A680243F1
:1031B0000A60032000F00AF8002801D0204610BD64
:1031C00000F026F80024204610BDC04670B50F4E12
:1031D00031780124002916D005467D20C00001F079
:1031E000EFFF0146D048006801F0EAFF00F04AFC1A
:1031F000032D08D8002806D10024E04329462246A2
:1032000000F02EF87560204670BDC046000000201A
:1032100080B582B00B48416801221143416041688A
:10322000114001910199110702680A430260006888
:103230000840009000980320400200F019FC02B002
:1032400080BDC0463C100240002805D41F21084024
:1032500001218140014801607047C04600E100E063
:10326000002805D40322034693430A4A9A1803E030
:103270000C220240064BD2188007C00E8901C9B249
:103280008140FF23834010689843084310607047D3
:1032900014ED00E000E400E0F0B581B00325690220
:1032A0001A4E3246143A13688B43034313600124C9
:1032B00061020022884226D19B480168306840059F
:1032C00021D50092A70206204843114901F078FF5A
:1032D000201A022816D0316839420FD0012811D0A7
:1032E000316839420AD000280CD03168394205D003
:1032F000001D032806D031683942EAD1009A1046F1
:1033000001B0F0BD2A46104601B0F0BD1470004077
:1033100040420F00F0B583B00D46012100281BD0BC
:10332000019102907548006807242040A84216D2F7
:1033300072490868A04328430860714EFFF724FFD4
:1033400007466E4800682040A84208D0FFF71CFFDF
:10335000C01BB042F5D90321084603B0F0BD029E60
:1033600030688107914B0CD5410703D521031A68BA
:103370000A431A600F2109021A688A43B16811438F
:103380001960C0071BD15D4800682040A8422CD9B5
:103390005A490868A04328430860594FFFF7F4FED4
:1033A0000646564800682040A8421ED0FFF7ECFEB3
:1033B000801BB842F5D90321084603B0F0BD02983E
:1033C000406803285DD8810001A251588F46C0464D
:1033D000E133000887340008913400089B3400086A
:1033E000194608390968490559E0029A10784007DA
:1033F0006E4B05D5200319688143D06808431860D7
:1034000018688006400F22D01A6838210A406848A0
:10341000082A23D01A680A40102A5ED1596803226C
:103420000A40032A00D0634859684906490F491CDD
:1034300001F0C6FE5D4949684904490E48435B49AD
:103440004968490F491C01F0BBFE584B06E018467D
:10345000083800688004410F5648C8401968890937
:103460003C220A40274989581F220A40D0402E4951
:10347000086025480068FFF7A9FE0146084603B02A
:10348000F0BD596D0AE0194608390968890306E05C
:10349000194608390968890101E0996D8907019980
:1034A00000D459E71968A14301431960144FFFF78D
:1034B0006BFE06463D48006838210140029840688E
:1034C000C000814200D15EE7FFF75EFE801BB8427C
:1034D000F0D90321084603B0F0BD18680840202841
:1034E00002D10120C003B9E718680840182801D0AC
:1034F0000020B3E77D200002B0E7C0460020024074
:10350000881300004C58000804000020064800689A
:1035100026490968890A1C220A40044989581F2241
:103520000A40D0407047C046080000208C58000870
:1035300010B51E4C20688006400F06D02268382146
:103540000A401B48082A07D110BD083C20688004A7
:10355000410F1848C84010BD22680A40102A15D1F2
:10356000616803220A40032A00D0124861684906B4
:10357000490F491C01F024FE61684904490E484383
:103580006168490F491C01F01BFE10BD206808400E
:10359000202802D10120C00310BD2068084018284F
:1035A00001D0002010BD7D20000210BD0810024097
:1035B00000127A000024F400F0B587B0012500283D
:1035C00000D13AE2049505900078C007FD4F2DD157
:1035D0000598007880074DD40598007800070DD530
:1035E000B86838210140182900D0CEE0386E800735
:1035F00004D505988069002800D1A7E0059A1078C5
:10360000400771D41078800600D5A3E00598046ABD
:10361000002C00D101E2B86838210140102900D007
:1036200002E1012C00D071E1049D06E2B868F9685E
:10363000032422468A433821014010204840821842
:103640005042504101256E04082943D0002841D141
:10365000059841682804814208D00522120491424D
:1036600000D0FCE0A9043A680A433A603968014393
:103670003960FEE0B9683820084010214140FA68FE
:1036800003252A4002235340CA18514251410028C1
:1036900036D0002934D13868059AD168002900D184
:1036A000F7E00721C902884311690143396001200D
:1036B00001023A680A433A608402FFF765FD064654
:1036C0003868204200D006E1FFF75EFD801B02282B
:1036D000F6D9B2E13868304200D179E70598406800
:1036E000002800D074E7A8E1B868382101402029FB
:1036F00062D1F86D800785D59068002882D125E0D9
:1037000039684905059B02D5D96800291ED07F215B
:1037100009027A688A4359690902114379600028CD
:103720000DD10720C0023968814318690843386009
:1037300038688004400FC749C140C7480160C74886
:103740000068FFF743FD002800D145E7049D2846A7
:1037500007B0F0BD38680121CC05059AD26989050A
:10376000002A00D1A7E008433860FFF70DFD0546A9
:103770003868204200D049E7FFF706FD401B0228C9
:10378000F6D90325284607B0F0BD386E059989693A
:10379000002900D1A9E0012108433866FFF7F4FCB5
:1037A0000646386E800700D528E7FFF7EDFC801B42
:1037B00003250228F5D940E1012003900107F86BA9
:1037C0000840029006D1F86B0843F863F86B084094
:1037D000069006980191A2480068C00513D403988A
:1037E00004029F49086820430860FFF7CDFC0646A5
:1037F0009B480068204206D1FFF7C6FC801B0325CA
:103800000228F5D919E105988068964C012806D060
:10381000052800D0BFE0F86D04210143F965F86D7B
:1038200003990843F865C0E001252906386803912B
:1038300088433860FFF7A8FC0646022C00D08FE0D2
:1038400002956806049038680499084200D1BBE0EC
:10385000FFF79AFC801B03250228F4D9EDE03A68B3
:1038600082433A60A8043A6882433A60002900D152
:1038700081E0FFF789FC05463868304200D0A7E6B2
:10388000FFF782FC401B6428F6D92546284607B07E
:10389000F0BD01210A02904338608C02FFF774FCEE
:1038A00006463868204200D196E6FFF76DFC801B83
:1038B0000228F6D9C1E088433860FFF765FC064668
:1038C0003868204200D1A1E6FFF75EFC801B03258B
:1038D0000228F5D9B1E07F2000027968814305987C
:1038E000406900020843786076E601218843386623
:1038F000FFF74AFC0646386E800700D47EE6FFF7E5
:1039000043FC801B03250228F5D996E0F8680321C3
:103910000140059C626A914200D017E77021014086
:10392000A26A914200D011E77F2109020140E26AB8
:103930001202914200D009E71F2149040140226B85
:10394000914200D002E707214A060240636B9A4287
:10395000049D72D149070840A16B88426DD15CE09B
:103960006C063868204254D0FFF70EFC801B0325FC
:103970000228F6D961E0FFF707FC054638683042B7
:1039800000D125E6FFF700FC401B6428F6D9254648
:10399000284607B0F0BDF96D039A9143F965F96DBA
:1039A00004229143F96500283BD0FFF7EDFB064662
:1039B000F86D800744D4FFF7E7FB801B0325A04286
:1039C000F6D93AE000100240F86828490140059E07
:1039D00024367DCE08431043190201432143294375
:1039E0003143F9603868039908433860029800074A
:1039F000F9680143F960FFF7C7FB0446386804998A
:103A000008420AD1FFF7C0FB001B03250228F5D9A5
:103A100013E0F86814490140F9600025284607B012
:103A2000F0BDFFF7B1FB0646F86D800708D5FFF73C
:103A3000ABFB801B0325A042F6D9284607B0F0BD9A
:103A400002980028059A00D0DCE5F86B01998843BC
:103A5000F863D7E50024F4000800002004000020EB
:103A60000070004088130000FCFFFEEE8C80C11146
:103A700003214902024A13688B43034313607047D2
:103A800000000140401E010E01D00120704707498F
:103A9000074A5060074803680B40032189075918FB
:103AA000016000209060072111607047FFFFFF0058
:103AB00010E000E020ED00E0704770477047000024
:103AC00070B53C22825C012A01D1022070BD024601
:103AD0003C3202235370006845688368554CA0420D
:103AE00001D02E4604E00F263605B5434E682E431E
:103AF0007025AE430D68354345604B4DA84206DD49
:103B00004A4DA8420AD04A4DA84205D106E00124F8
:103B1000A407A04202D0484CA04204D18024A34371
:103B2000896819438160002010700121517070BDB7
:103B3000F0B581B0002824D0044605463C35074640
:103B40003E37064644366878002804D100202870A5
:103B5000204600F019F80220687001CC214600F0E0
:103B60004FFE0120307138707870B870F87038717D
:103B7000787130707070B070F0706870002001B0B3
:103B8000F0BD012001B0F0BD10B582B000682A4937
:103B9000884201D002B010BD0948016802221143D9
:103BA0000160006810400190019810240021204617
:103BB0000A46FFF755FB2046FFF746FB02B010BD53
:103BC0003C10024010B53D21415C012915D1014650
:103BD0003D3102220A700168C86801221043C860A2
:103BE000114881420BDD114881420ED010488142BC
:103BF0000BD01048814208D010E0012010BD900782
:103C0000814202D00C48814208D188680B4B0340A6
:103C10000020062B06D01404A34203D008681043EA
:103C20000860002010BDC046FF07004000080040AB
:103C300000400140002C014000040040070001004A
:103C4000F0B53C22825C012A01D10220F0BD02467F
:103C50003C32022353700468A0684E4B0340A360BB
:103C60000D6800234F2D1EDC1F2D37DD202D39D090
:103C7000302D37D0402D00D087E0206A256A0126FC
:103C8000B5432562A569F026B543CE6836012E43BB
:103C9000A6610A25A843496801432162A0683E49FC
:103CA000014047316BE06F2D28DD01204603B5420E
:103CB00040D00003854218461CD0702D65D1FF20EE
:103CC0000002A568854348688E68C96806430802F3
:103CD00030432843A060A068772139E0002D01D04F
:103CE000102D52D1A0682C4901400D4307202843D4
:103CF000A0601846137001215170F0BD502D29D0DD
:103D0000602D42D1206A256A1026B54325620F2511
:103D10002D03A669AE43CD682D033543A561A025CB
:103D2000A8434968090101432162A0681A4901407A
:103D3000673124E0FF252D02A668AE434D688F68E9
:103D4000C9682F43090239433143A1608003A16848
:103D5000014314E0206A256A0126B5432562A5695E
:103D6000F026B543CE6836012E43A6610A25A84346
:103D7000496801432162A068074901405731A160A9
:103D80001846137001215170F0BD012013700121FC
:103D90005170F0BD8800CEFF88FFCFFF7047000054
:103DA000F0B583B004460068C5680227294639404B
:103DB0004A424A410169029139404B424B41134307
:103DC00013D16C49FE31016101212177806980079F
:103DD00003D02046FFF7E2FF05E0204600F0CEF8D2
:103DE000204600F0CCF80020207701260422294646
:103DF00011404842484102994907314600D50146E1
:103E0000032000020190002916D100922068594930
:103E1000FC310161277780690199084203D020466F
:103E2000FFF7BCFF05E0204600F0A8F8204600F0B0
:103E3000A6F800202077009A0827294639404842F2
:103E4000484102990907314600D50146002913D19E
:103E500020684849F83101612277C069800703D0A2
:103E60002046FFF79BFF05E0204600F087F820463C
:103E700000F085F800202077102129404842484171
:103E80000299C906314600D50146002914D120689F
:103E90003849F03101612777C0690199084203D0A0
:103EA0002046FFF77BFF05E0204600F067F820463C
:103EB00000F065F800202077012129404842484160
:103EC0000299C907314600D00146002906D1206871
:103ED0002849FF310161204600F052F880272F4029
:103EE000784278414121C901029A0A42314600D004
:103EF0000146002905D120681F4901612046FFF7CE
:103F0000DCFD784278410299C905314600D5014669
:103F1000002905D12068174901612046FFF7CCFD33
:103F2000402129404842484102994906314600D57E
:103F30000146002906D120680E49C03101612046A2
:103F400000F0C0F8202005406842684102998906C7
:103F500003D4002E04D003B0F0BD0646002EFAD1E3
:103F600020680449E03101612046FFF7A7FD03B056
:103F7000F0BDC046FFFEFFFF7FDFFFFF70477047C9
:103F8000F0B581B000683F49884201D001B0F0BD72
:103F90003D498889098889000818052101F010F930
:103FA000044680B2FCF73EFC3849FCF739FB38493F
:103FB00001F0DEFA374901F0DBFA0546364901F037
:103FC000D7FA0146284601F0D3FA06463349284677
:103FD00001F0CEFA0146284601F0CAFA07463046FB
:103FE000294601F0C5FA3946274F01F051FA064635
:103FF0002B49284601F0BCFA314601F049FA29491B
:1040000001F046FA38613C803969274801F008FB25
:104010000446264901F0ACFAB96801F039FA24499E
:10402000096801F0A5FA796801F032FA054678606E
:104030002049204601F09CFA294601F029FA05465C
:104040001D4C214601F0E6F9002800D12C461B4EFC
:104050002046314601F0DEF9002800D134462046E2
:10406000294601F0DDFAB8601549204601F010FA42
:10407000FCF786FB04463221FCF7B6F9601A78801B
:1040800001B0F0BD000400407000002000F07F454A
:104090000C02534000007A44A0B6F8B0DA295FB6AB
:1040A0009FC339BEE3964D430000344200004842AE
:1040B0000C0000200000C8420000FA4300409C456C
:1040C0000000C8417047704770477047704770479D
:1040D000F0B58BB003460268D46920270125EE02B3
:1040E00031462F312140106809935C3308930692C2
:1040F0009268202905970A9407920FD1014639400A
:1041000001231B071340C918044616D00998416FB4
:10411000002900D109E288470BB0F0BD31460F31CC
:104120000C42044609D02B46CE4921402D076F1C76
:10413000079A1740791800D099E01022049421467C
:1041400011404B424B410A9E314611404C424C417A
:1041500009980746C16E491E4D1EA94121431943C6
:104160003FD001250124A105079801404B424B4156
:104170003046F1022946069A00D519460029059EC7
:1041800000D105E1010608D58021049A1140E2051D
:10419000079B1340C91800D0B0E140220499114098
:1041A0004B424B414106294600D51946002900D112
:1041B00045E1A107049A11404A424A4101022946B9
:1041C00000D51146002900D1A4E10499002900DBA3
:1041D000A5E10024C10100D5A4E1002D00D0A4E197
:1041E000A5E10698026280681646400600D5D6E032
:1041F00008994B8808884A88002A00D195E198429E
:1042000000D192E10A93EFF31083012282F3108828
:104210000924640139463D682F68A7432F6083F362
:104220001088EFF3108382F310880C68A568C24FE2
:104230002F40A76083F31088059B089C236300230D
:104240004B67CB66EFF3108382F310880A6814681B
:10425000B443146083F3108802220A670A9A801A12
:1042600082B208461146FFF72EFF0BB0F0BD029751
:10427000019503960A991E4619404B424B41310263
:1042800021404D424D411D43069A05D10121116245
:10429000089D6B6B0B436B630120079F3B460490AB
:1042A00003405D425D410A988107314600D52946A9
:1042B000002906D1022111620898416B04250D43A3
:1042C00045635D425D410A98410731460ED5294656
:1042D00000290DD1042111620898416B02230B4380
:1042E00043630A980107099D15D505E00029F1D01F
:1042F0000A980107099D0ED50298411E8841A10622
:10430000314600D40146012905D1082111620898DF
:10431000436B0B4343630498810621404B424B415E
:104320000A98039908420DD01E46002E089E0CD113
:1043300003981062716B059801437163716B0029DA
:1043400007D1F2E0002E089EF2D0716B002900D157
:10435000EBE005980A9901400AD001990F4004400A
:104360003C4305D0696F002902D0284688472A6857
:10437000706B28210140926840200240511800D003
:1043800072E02846FFF7A3FE002070630BB0F0BD7B
:10439000210511623846FFF799FE0BB0F0BD089C6D
:1043A000606A006841688AB2002A00D1BDE02388B3
:1043B0009A4200D3B9E03D4661800068800633D45C
:1043C000EFF31081012080F310885D4A20322B68C2
:1043D0001C6814401C6081F31088EFF3108180F397
:1043E00010882A6893688343936081F31088EFF301
:1043F000108180F310882A6893684024A343089CA6
:10440000936081F31088059921630021E966EFF339
:10441000108180F3108828680268B243026081F33B
:104420001088606AFEF714FC0220286720886188E3
:10443000401A81B22846FFF746FE0BB0F0BDEFF3FD
:10444000108084F3108839680B6893430B6080F305
:1044500010880021B9670899CE62384600F0BEF98D
:104460000BB0F0BD20010004EFF31081049E86F331
:104470001088092252012B681C6894431C6081F348
:104480001088EFF3108186F310882A6893682A4C0D
:104490001C40946081F31088E96E01290BD1EFF381
:1044A0001081049A82F310882A6813681024A343A9
:1044B000136081F31088089C059921630021E96647
:1044C00069672968896849061FD5EFF31081049A46
:1044D00082F310882A6893688343936081F310887D
:1044E000606A002811D015498163FEF7E7FB0028B8
:1044F0001BD0606A816B88470BB0F0BDB96F002993
:1045000013D0384688470BB0F0BD2846FFF7DFFDD3
:104510000BB0F0BD3846FFF7D8FD0BB0F0BDC101C0
:1045200000D45AE62546002D01D00BB0F0BD384628
:10453000FFF7CAFD0BB0F0BDFEFFFFEF914A000888
:10454000DFFEFFFFB0B5002830D0044605468435B5
:104550006868002804D100202870204600F028F860
:1045600024206860206801680125A9430160A06AD1
:10457000002802D0204600F0BFF9204600F094FA4F
:10458000012811D00920C00221684A6882434A608C
:1045900088682A22904388600868012202430A60E2
:1045A000204600F013FA05462846B0BD0120B0BDF4
:1045B00070B586B000682049884201D006B070BD51
:1045C000012002021D498B6813438B608B681340E6
:1045D0000193019A0A6804231A430A600A681A4080
:1045E0000192019A0A68022632430A600968314042
:1045F00001910199032105910024049403940296EA
:10460000000301900E4801AD2946FEF7F7FC082093
:10461000059004940394029601960A482946FEF7F1
:10462000EDFC1D25284621462246FEF719FE2846A8
:10463000FEF70AFE06B070BD005000403410024084
:104640000008005000040050F0B585B00F46054644
:104650005435696B202913D102930126002F0CD009
:104660001446002A09D001263203816891420BD1F9
:10467000F90709D00169002906D1304605B0F0BD1F
:104680000226304605B0F0BD00210191E9632121E9
:10469000696304901646FEF777FD049903906C80D9
:1046A0002C808868B04202D10869002820D03E469C
:1046B000029F019A6888002820D0781C464C48D078
:1046C000002F65D1086808E031788162761C69881E
:1046D000491E69806988002911D0C169090630D551
:1046E000002EF1D1118821408162921C0026EEE754
:1046F00000263A46029F68880028DED10868C16912
:104700000026490620D4002F1BD0791C12D1C16984
:10471000490619D4C169490616D4C169490613D49A
:10472000C1694906F3D50FE0049800680168C069C3
:10473000400609D4FEF728FD0399401AB842F3D980
:1047400001E0FEF721FD032620206863304605B016
:10475000F0BD08680AE0118821408162921C0026A1
:104760006988491E698069880029C8D0C16909061D
:1047700008D4C169090605D4C169090602D4C16912
:104780000906F3D5002EE6D031788162761CE7E782
:1047900001920868C169090609D4FEF7F5FC03997E
:1047A000401AB842CFD8049800680168F2E7002E9A
:1047B00003D031788162761C06E0019A118821408D
:1047C0008162921C019200266988491E698069886D
:1047D0000029DFD193E7C046FF0100007047FEE7E4
:1047E000FEE77047704780B5FEF7D2FC80BD70478A
:1047F00080B50248FFF7D4FA80BDC046880000208B
:1048000010B50468314B984207DC012292079042B0
:1048100009D0314A904206D01DE02D4A904202D084
:104820002C4A904217D1702294434A6822432B4C61
:10483000A04214DC984207DC01239B0798421ED05B
:10484000254B98421BD03EE0224B984217D0284B74
:10485000984214D037E02246204CA042EADD204B9B
:10486000984206DC1A4B984209D0204B984206D059
:1048700029E01C4B984202D01B4B984223D10323C2
:104880001B029A43CB681343802293434A691A431D
:1048900002608A68C2620A688262164A82180A2323
:1048A000DA41072A06D801239340E122134201D0BE
:1048B00009690163012141610269D20702D00269DD
:1048C0008A43026110BD1346DEE7C046FF07004081
:1048D000002C01400008004000040040FF2B014074
:1048E000FF430140004801400044014000400140B6
:1048F0000020004000D4FEBFB0B5816A0A070CD486
:10490000CA0714D18A071CD44A0724D4CA062CD457
:104910008A0634D44A063CD44CE00122D203036810
:104920005C689443826B22435A60CA07EAD0012232
:10493000520403685C689443C26A22435A608A073F
:10494000E2D50122120403685C689443026B22439F
:104950005A604A07DAD50122920403685C689443DE
:10496000426B22435A60CA06D2D501221203036861
:104970009C689443C26B22439A608A06CAD501227E
:10498000520303689C689443026C22439A604A066F
:1049900010D501221305026854689C43456C2C43D2
:1049A00054609D4206D103235B0554689C43836C8D
:1049B00023435360090607D50121C90402685368DF
:1049C0008B43C06C18435060B0BD0000F0B583B09D
:1049D0000446064684360027F760FEF7D5FB0346FB
:1049E0002068016809071FD528480090012002901F
:1049F0004105002220461D4600F0A2F9002811D0F2
:104A0000EFF31080029981F3108821680A688023EF
:104A10009A430A6080F3108820207060032037706A
:104A200003B0F0BD20682B460068400725D5174825
:104A300000900125A9050022204600F081F90028F8
:104A40001BD0EFF3108085F31088092149012268FB
:104A500013688B43136080F31088EFF3108085F3A5
:104A6000108821688A68AA438A6080F31088202011
:104A7000B0600320377003B0F0BD20207060B060DC
:104A8000E76627673846377003B0F0BDFFFFFF01C8
:104A900080B5806A0146563100220A815621425271
:104AA000FFF715FB80BD0000F0B583B00446026837
:104AB00010688B490140A0682369034365691D4361
:104AC0000D43E7693D4315600320010353688B43A1
:104AD000E168194351600126B3021343A569814976
:104AE0008B420190029701D1294601E0216A2943B6
:104AF0002046683095687C4F2F400F439760D56AF9
:104B00000F218D43616A0D43D5620025774FBA426C
:104B10000DDC7B4FBA421FDC7C4DAA422ED07C4D6F
:104B2000AA42074652D17B4A126812092AE0704F06
:104B3000BA4219DC714DAA42074628D06948824220
:104B400044D1744800688005820F73487A44127912
:104B50005200974433276C6A6A4FBA4228D06A4F92
:104B6000BA42074625D031E0624FBA42074620D00C
:104B7000614DAA422AD1674A126803E0654A126869
:104B8000920807469207120F64A39D5823E06148DC
:104B900000680005820F60487A44127952009744F9
:104BA0000D014644FEF7C4FC00280BD100268FE01F
:104BB00007464C4883420ED1002E05D0FEF7A6FCD6
:104BC0000028F3D0616A32E0012681E0102500263A
:104BD00044488342F0D00126F2030298904212D159
:104BE000082D00D974E04C487D442D796D00AF4408
:104BF000046F416F3A6F6F6F4000FEF787FC00282B
:104C000035D0616A36E0082D62D843487D442D795D
:104C10006D00AF44045D4B5D445D5D5D4A00FEF791
:104C200075FC00283FD0616A40E00120C0034900C4
:104C30003E4A515A00F0C4FA626801995143012674
:104C4000884245D31103884242D8010E550800021C
:104C5000002340195941FBF71FFB35494118354ADC
:104C6000914235D231E0FEF763FC0028C9D100261D
:104C70002EE0104649002D4A515A00F0A1FA40009A
:104C800061684A08101800F09BFA0246103A2A4957
:104C90008A421DD201400007400F084315E0FEF78D
:104CA00047FC0028BFD1002612E0104649001F4AE9
:104CB000515A00F085FA61684A08101800F080FA2D
:104CC000014610391C4A914202D22168C860002670
:104CD0001A48386000206067A067304603B0F0BD16
:104CE000F369FFCF00840040FFF4FF11FF7F004015
:104CF000FF370140003C0140003801400080004087
:104D0000FF4B0040004C0040005000400044004079
:104D100000480040541002400024F400000000004D
:104D2000040000000200000008000000AC58000869
:104D300000FDFFFF00FD0F00F0FF0000010001007B
:104D4000F0B585B01F4615460E460368D969314057
:104D5000891B4A424A410021AA4222D10A9C002CC6
:104D600022D00391611C24D1D9693140891B4A4268
:104D70004A41AA4231D1D9693140891B4A424A414C
:104D8000AA422AD1D9693140891B4A424A41AA42E2
:104D900023D1D9693140891B4A424A41AA42E3D012
:104DA0001BE0084605B0F0BDFEF7EEF9032005B0A4
:104DB000F0BD402E049001D0802E14D1FEF7E4F90E
:104DC000C01BA0420CD8049800680168C06930403C
:104DD000801B41424141A942F0D0039805B0F0BD8B
:104DE000032005B0F0BD8430019001200090C00286
:104DF000029006E0C8693040801B41424141A9420F
:104E0000EBD1FEF7C1F9C11B0320A1423FD80499A1
:104E100009680A685207EDD5CA69120739D4CA6908
:104E2000029B1A42E6D0029A0A62EFF31082012135
:104E300081F3108809235B01049C246825689D4345
:104E4000256082F31088EFF3108281F31088049BB1
:104E50001B689C682A4D25409D60049B82F3108846
:104E6000DA6E012A0BD1EFF3108281F310881968F2
:104E70000B681024A3430B60049B82F3108820214D
:104E8000019CA1600022DA665A672270E16005B0D9
:104E9000F0BD08250D62EFF31081009880F31088B3
:104EA00009225201049B1B681C6894431C6081F317
:104EB0001088EFF3108180F31088049A12689368C9
:104EC0000F4C1C40049B946081F31088D96E01291B
:104ED0000CD1EFF31081012282F310881A68136855
:104EE0001024A3431360049B81F310882021019AAE
:104EF00091600021D96659671170D56005B0F0BD89
:104F0000FEFFFFEF80B5AD48FFF7E2F880BDC04679
:104F100098B0FEF747F9002410940F940E940D9466
:104F20000C940B940A9401277802FEF7B5F97807E0
:104F30001790780616907804159008201490139412
:104F400002251295119540200E900D943E020C966C
:104F5000099509A8FEF730FB002803D0EFF3108075
:104F600072B6FEE704960894079407260596069500
:104F700005A82946FEF7CEF9002803D0EFF31080EC
:104F800072B6FEE76F480168042203921143016084
:104F900001681140099109990168202211430160BB
:104FA000016811400991099901683943016001685C
:104FB0003940099109990168294301600168294034
:104FC0000991099941683943416040683840099026
:104FD000099802960926304621462246FEF740F9F6
:104FE0003046FEF731F93C21574844542C214754B0
:104FF000C464046302994163816344628462C5614D
:10500000039D877604837905BA07504B036042609D
:105010008460C460016145610B940A940994FDF7B2
:105020004FFC002803D0EFF3108072B6FEE70B941C
:105030000A9447480990444809A9FDF7DDFA002879
:1050400003D0EFF3108072B6FEE742480B900A954A
:10505000414809903C4809A9FDF7CEFA002803D041
:10506000EFF3108072B6FEE73C4E34633C483D4996
:105070003D4AB261F16134627062B4620C940B9487
:105080000A940694354618352846FEF751FD002847
:1050900003D0EFF3108072B6FEE73803099009A938
:1050A0002846FEF7CDFD002803D0EFF3108072B63E
:1050B000FEE70794059405A92846FEF701FD0028A0
:1050C00003D0EFF3108072B6FEE728480C21284A7F
:1050D000046244628462E1235B021CC00460446099
:1050E0008160C46004610C38FFF72CFA002803D0FB
:1050F000EFF3108072B6FEE7134C2046FDF732F84E
:1051000031460C3102222046FDF74CFD2846FEF7C1
:1051100059FD18A4049DFEF737F87169401A294615
:10512000F3318842F7D93069FBF750FA02467088AC
:10513000009020460B4600F029F8FEF725F8706134
:10514000E9E7C04634100240D400002000240140AA
:105150000800000C04FFFF07100000107000002082
:105160003F1F00001F0300000004004098010020C2
:105170000050004054454D503D252E32663B43556E
:105180005252454E543D25640A00000083B0B0B52C
:105190009BB004461FA80EC01FAA019202AD28466C
:1051A0002146FBF701F9C2B2044864232946FFF700
:1051B0004BFA1BB0B0BC01BC03B000479801002003
:1051C00043088B421AD3002203098B4279D3030A86
:1051D0008B425ED3030B8B4242D3030C8B4227D30B
:1051E0000902FF2212BA030C8B4202D312120902E7
:1051F00003D0030B8B4233D31AE0D3E0411A804132
:10520000401C704703460B4371D443088B42F5D3CF
:10521000002203098B4254D3030A8B4239D3030B78
:105220008B421DD3030C8B4202D394466EE0090AD5
:10523000C30B8B4201D3CB03C01A5241830B8B4269
:1052400001D38B03C01A5241430B8B4201D34B0352
:10525000C01A5241030B8B4201D30B03C01A5241B7
:10526000C30A8B4201D3CB02C01A5241830A8B423C
:1052700001D38B02C01A5241430A8B4201D34B0225
:10528000C01A5241030A8B4201D30B02C01A524189
:10529000CDD2C3098B4201D3CB01C01A524183093D
:1052A0008B4201D38B01C01A524143098B4201D377
:1052B0004B01C01A524103098B4201D30B01C01AA2
:1052C0005241C3088B4201D3CB00C01A524183081C
:1052D0008B4201D38B00C01A524143088B4201D349
:1052E0004B00C01A5241411A524110007047CA0F78
:1052F00000D04942031000D34042534000229C4654
:1053000003098B422DD3030A8B4212D38901FC225D
:1053100012BA030A8B420CD3890192118B4208D333
:10532000890192118B4204D3890137D0921100E098
:105330008909C3098B4201D3CB01C01A52418309A9
:105340008B4201D38B01C01A524143098B4201D3D6
:105350004B01C01A524103098B4201D30B01C01A01
:105360005241C3088B4201D3CB00C01A524183087B
:105370008B4201D38B00C01A5241D9D243088B42D1
:1053800001D34B00C01A5241411A00D2014652418A
:10539000104663465B1000D34042704763465B1083
:1053A00000D3404201B50021004201D0C943084664
:1053B000C046C04602BDF8B5040C8BB2264682B288
:1053C0005E43104658430D0C370C360400218019FB
:1053D000164679416E43370C3604801926467941CA
:1053E0006E438919F8BD00004900CA02024310004B
:1053F00000D004204A0D01D001221043044A490D77
:10540000914201D102210843012800D105207047B3
:10541000FF07000010B500F081F8EFF30080800076
:1054200001D4012010BD002010BD30380A2801D25F
:10543000012070470020704710B500290AD0087875
:10544000002807D005487844FCF702FD002801D069
:10545000002010BD0248784410BD00009E040000EA
:105460009604000010B500290AD00878002807D05B
:1054700005487844FCF7ECFC002801D0002010BD62
:105480000248784410BD00008E040000860400002D
:1054900070B50125ED0704004C4020D4441A01D218
:1054A000001B0919C60D4B00F2B2FF2A29D01B0EB2
:1054B0002CD000020C0228432C43D31ADC400519DF
:1054C00010D2280A02D3401C6D0611D0761EF605B4
:1054D0008019FF2A00DA70BDC00DC00570BD69409B
:1054E00000F0A4F801200543C541521C761CE8E7F2
:1054F00064089C40C90161408900E7D10124A043B0
:10550000E4E71B0E440200D0034870BD002AFCD122
:10551000C00FC00770BD00BF0000C07F0123DB05C6
:1055200002000A430DD4DA4203D49A4207D48842D7
:105530007047D84214D4D94212D48842704780426E
:105540007047DA4203D59A42F9D5814270475B0031
:105550004200DA4204D24A00DA4201D28142704764
:1055600010B5024AFCF77AF810BD00BF0900160416
:1055700070B5420064414B005C41120E39D01B0EE5
:1055800038D0FF2A3CD0FF2B3AD0D2187F3A4002C5
:105590004902400A490A4518ED0106004E43000A37
:1055A000090A48430104731A4019190C4318990F4A
:1055B00004D05B08012149075B1A521CD80904D3A7
:1055C000401CF50301D19D0607D0FF2A08D2D5055E
:1055D00006D0E4072043401970BD0125A843F4E735
:1055E000002A01DCE00770BD2402FF202043C00533
:1055F00070BD1B0EFF2A03D0FF2B01D0E00770BD4A
:10560000FF2636064500B54206D84D00B54203D800
:10561000D218FF2A00D0E7E7004870BD0000C07F25
:1056200070B50125ED0704004C4022D4441A02D283
:105630006C40001B0919C60D4B00F2B2FF2A4BD07B
:105640001B0E50D000020C02A8432C43D31ADC409E
:10565000051B05D5AD0019D36D08761E521E37D037
:10566000F605280A01D2801970BD70416D0603D07D
:1056700070BD6940FFF712FF9C400902614049007C
:1056800001D0401E70BD0124A04370BD6D081DD027
:1056900001202B0C01D12D0410302B0E01D12D0235
:1056A00008302B0F01D12D01001DAB0F01D1AD0032
:1056B000801CEB0F01D16D00401C361A121A6D00D0
:1056C000680AF5054019012A02DB70BD002070BD93
:1056D000C036300AC00770BD1B0E440201D1FF2B3B
:1056E00000D1024870BD002AF0D070BD0000C07F1C
:1056F00003B402487844844603BC60474DB9FFFFB9
:1057000003B402487844844603BC6047B5BBFFFF3E
:105710008182838485868788898B8C8D8E8F9192F8
:1057200093959697999A9C9D9FA0A2A3A5A7A8AA96
:10573000ACAEB0B2B3B5B7B9BCBEC0C2C5C7C9CCB8
:10574000CED1D4D7D9DCDFE2E6E9ECF0F3F7FAFE0C
:1057500000000000000000003031323334353637AD
:1057600038394142434445464030580030313233A5
:1057700034353637383961626364656640307800A5
:10578000040000080000000000000002000100000A
:1057900010303132333435363738396162636465FD
:1057A000667870003031323334353637383941421B
:1057B000434445465850000002400000000000A04D
:1057C0000000000005400000000000C800000000CC
:1057D0000C4000000000409C000000001940000048
:1057E0000020BCBE0000000034400000BFC91B8E7A
:1057F00000000004B5400000504BCFD06607E2CF58
:10580000010000006C4100003E8251AADFEEA73487
:1058100001000000D9420000DCB5A0E23A301F9739
:10582000FFFFFFFFB4450000FD25A0C8E9A3C14F5D
:10583000FFFFFFFFFF3F00000000008000000000AE
:10584000FF3F00000000008000000000000000009A
:105850000000000000000000000000000000000048
:105860000000000000000000000000000100000037
:105870000200000003000000040000000600000019
:105880000700000008000000090000000000000000
:105890000000000000000000000000000100000007
:1058A00002000000030000000400000001000200EC
:1058B0000400060008000A000C0010002000400050
:1058C00080000001105A00080000002010000000B5
:1058D00004010008205A00081000002020080000E1
:1058E000200100081C00000043000000F8FFFFFF3B
:1058F0000C0000000E0000000F0000002E00000051
:105900001001000043000000F8FFFFFF004040408E
:105910004040404040404141414141404040404082
:10592000404040404040404040404040400502022E
:1059300002020202020202020202020202202020ED
:105940002020202020202002020202020202909049
:105950009090909010101010101010101010101047
:10596000101010101010101002020202020288889B
:1059700088888888080808080808080808080808A7
:10598000080808080808080802020202400000008F
:105990000000000000000000000000000000000007
:1059A00000000000000000000000000000000000F7
:1059B00000000000000000000000000000000000E7
:1059C00000000000000000000000000000000000D7
:1059D00000000000000000000000000000000000C7
:1059E00000000000000000000000000000000000B7
:1059F00000000000000000000000000000000000A7
:105A00000000000000000000000000000000000096
:105A100001000000040000000024F400CDCCCC3DC7
:04000005080000C12E
:00000001FF
