:020000040800F2
:10000000F8060020290200088D1D0008211B0008A9
:10001000891D0008D5030008611E000800000000CB
:10002000000000000000000000000000951D000816
:10003000D903000800000000911D0008991D000868
:10004000430200084302000843020008430200087C
:10005000430200084302000843020008430200086C
:10006000430200084302000843020008430200085C
:10007000430200084302000843020008430200084C
:10008000430200084302000843020008430200083C
:10009000430200084302000843020008430200082C
:1000A000430200084302000843020008430200081C
:1000B000430200084302000843020008430200080C
:1000C00043020008430200084302000843020008FC
:1000D00043020008430200084302000843020008EC
:1000E00043020008430200084302000843020008DC
:1000F00043020008430200084302000843020008CC
:1001000043020008430200084302000843020008BB
:1001100043020008430200084302000843020008AB
:10012000430200084302000843020008430200089B
:10013000430200084302000843020008430200088B
:10014000430200084302000843020008430200087B
:10015000430200084302000843020008430200086B
:10016000430200084302000843020008430200085B
:100170004302000843020008430200080000000098
:10018000430200084302000800F002F800F03CF8C7
:100190000AA090E8000C82448344AAF10107DA45E2
:1001A00001D100F031F8AFF2090EBAE80F0013F0F8
:1001B000010F18BFFB1A43F0010318475C1E000033
:1001C0007C1E0000103A24BF78C878C1FAD85207C4
:1001D00024BF30C830C144BF04680C6070470000C1
:1001E0000023002400250026103A28BF78C1FBD840
:1001F000520728BF30C148BF0B6070471FB501F0E0
:10020000F1FE1FBD10B510BD00F0A9F81146FFF7B3
:10021000F5FF01F027FE00F0C7F803B4FFF7F2FF87
:1002200003BC00F0CFF800000948804709480047A8
:10023000FEE7FEE7FEE7FEE7FEE7FEE7FEE7FEE796
:10024000FEE7FEE704480549054A064B70470000F3
:100250004D1E000889010008F8000020F806002063
:10026000F8020020F802002053EA020C00F0698036
:100270002DE9F04B4FF00006002B1FBFB3FA83F5BA
:1002800003FA05F424FA05F65E4012BF1643B2FAEB
:1002900082F502FA05F4C5F120051EBF22FA05FC1D
:1002A00044EA0C04203556EA044C4FEA144418BFC3
:1002B000641C4FF000084FF00009904271EB030CF2
:1002C00039D3002919BFB1FA81F701FA07F6B0FA5C
:1002D00080F700FA07F6C7F120071EBF20FA07FCD7
:1002E00046EA0C062037B6FBF4FCA7EB0507103FE7
:1002F00007F01F0BCBF120062CFA06F60CFA0BFBCD
:1003000044BFB3460026202FA4BF5E464FF0000B2B
:100310005BEA060C08BF4FF0010B19EB0B0948EB29
:100320000608ABFB027C06FB02CC0BFB03CCC01B1C
:1003300071EB0C01C1E70B46024641464846BDE859
:10034000F08B13B5084318BF4FF0FF300146AFF3F1
:100350000080BDE81C407047704770477047754685
:1003600000F02CF8AE4605006946534620F0070021
:10037000854618B020B5FFF765FFBDE820404FF077
:1003800000064FF000074FF000084FF0000BAC469E
:10039000ACE8C009ACE8C009ACE8C009ACE8C009E9
:1003A00021F007018D46704710B50446AFF3008079
:1003B0002046BDE81040FFF730BF000000487047FE
:1003C0001000002001491820ABBEFEE72600020005
:1003D00070470000FEE7000070470000B0B504461B
:1003E00000F0E4F8054640F20000C2F20000007898
:1003F000611C18BF044400BF00F0D8F8401BA042A5
:10040000FAD3B0BD2DE9F04F82B000F13E4241F683
:10041000004502F1FF77C4F20205082243F6004EC0
:100420004FEAB726A84208BF0722C4F2010E072EE2
:1004300038BF4FEAB7220125002600274FF00008F9
:10044000009208E008F101080437B8F1100F06F136
:10045000020600F0A7800C6805FA08F914EA090FF3
:10046000F0D0D1F804B003220BF0030CACF101047E
:10047000B240012C6FEA020A10D88268CC6802EA06
:100480000A02B440224382604268CBF3001422EA9D
:10049000090204FA08F42243426005E0BCF1030FAC
:1004A00002D14FF0030C20E0C2688C6802EA0A0215
:1004B000B4402243BCF1020FC26016D16FF00302B8
:1004C00002EA58020244D2F820C007F01C050F23AC
:1004D0000C69AB402CEA030304FA05F52B431362C5
:1004E000D1F804B001250BF0030C02680CFA06F3F6
:1004F00002EA0A021A431BF4403F0260A2D0002223
:1005000043F644030192C4F202031A684FF6084C02
:1005100042F480421A601A68CFF6FF7C02F48042EF
:100520000192019A28F00302724452F80C3007F04D
:100530000C050F24AC40A343009C04FA05F52B43A3
:1005400042F80C30DEF808204B6842EA090543F611
:100550000C4CDC0258BF22EA0905CEF80850C4F260
:10056000010CDCF800209C0242EA090558BF22EA8F
:100570000905CCF80050DEF804209C0342EA090586
:1005800058BF22EA0905CEF80450DEF80020DB034C
:1005900042EA090558BF22EA0905CEF800500125B4
:1005A00050E700BF02B0BDE8F08F000040F2F0005D
:1005B000C2F200000068704770B5B8B3044690F806
:1005C0003D0028B9002084F83C00204600F002FFDE
:1005D000242084F83D002068016821F001010160B9
:1005E000016841F400410160016821F400410160AB
:1005F00001F07CF848F28041C0F21E0140F6001381
:10060000D4F804E088424FF00001C0F23D0348F204
:10061000A16C4FF0000238BF01219842C0F2010CDA
:1006200038BF0122E64538BF0A460AB1012070BD35
:100630004DF68361C4F21B31A0FB01122168950CB9
:100640004B684FF4967623F03F0343EA9243754399
:1006500044F6D3564B60C1F262060B6AA5FB065600
:10066000B50923F03F03E64538BF950C6A1C1A43D1
:100670000A62CA6948F2A0664CF6FF73C0F201062E
:10068000B64522EA03020BD801384FEA4E03B0FB0D
:10069000F3F001306FF31F30042898BF04201EE0F0
:1006A000A368013863B119230EFB03F3B0FBF3F029
:1006B00001306FF31F3078B100F5804008E000BFD3
:1006C0000EEB4E03B0FBF3F001306FF31F3028B197
:1006D00000F5004003E000BF012000E001201043CE
:1006E000C8610868D4E9072320F0C000104318430C
:1006F0000860886848F2FF3204F10C0690434CCE43
:1007000018431043A5698860C86820F0FF00304393
:100710002843C860086840F00100086000202021DC
:10072000206484F83D10206384F83E0070BD000012
:100730002DE9F04F81B01D46174688460446FFF765
:1007400035FF94F83D10202918D1064621688869A4
:1007500080070FD5FFF72AFF801B1928F6D9002044
:100760002021206384F83D1084F83E00216C02258E
:10077000C1E000BF94F83C00012805D102252846BD
:1007800001B0BDE8F08F00BF4FF0010984F83C9044
:100790000868C00703D1086840F0010008600868D5
:1007A0004FF0000A20F400600860242084F83D0027
:1007B0000020CFF6FF70C4F840A0E06208F0FE0809
:1007C000012F88BFB94605F1010BA027086840F446
:1007D000807008604869C00710D1BBF1000F57D086
:1007E000002D00F09D8000BFFFF7E0FE801BA842B7
:1007F00000F2988021684869C007F5D0C1F81080E0
:10080000FFF7D4FE21684B694A6994F83D60A02E39
:1008100006461ED013F0020008BF12F4806018D103
:10082000FFF7C4FE35B1801BA84288BF84F83D7035
:1008300002E000BF84F83D7021684A69486994F875
:100840003D30A02B05D012F0020208BF10F48060EA
:10085000E6D0202084F83D0048690A68800742F409
:1008600000720A6022D46FF4806048618869800752
:1008700009D500BFFFF79AFE801B192832D82168DE
:1008800088698007F6D40AF1010ACA459ED13BE087
:100890004869C007B2D14869C00704BF48695FEA28
:1008A000C070ABD14869C007F2D0A7E7002500951A
:1008B000486900908869009000988869800708D589
:1008C000FFF774FE801B19280CD820688069800708
:1008D000F6D4202084F83D0084F83C50284601B02E
:1008E000BDE8F08F00202021206384F83D1084F8BB
:1008F0003E00216C012541F02001216484F83C0078
:10090000284601B0BDE8F08F202084F83D0000208B
:10091000012584F83C00284601B0BDE8F08F00BFF7
:10092000FFF744FE00202021206384F83D1084F866
:100930003E00216C032541F020012164216884F8E8
:100940003C000868C00544BF4FF40070206428468E
:1009500001B0BDE8F08F00002DE9F04182B01F46E4
:10096000164688460446FFF721FE94F83D102029DC
:100970001CD1054620688169890713D5FFF716FE4B
:10098000401B1928F6D900202021206384F83D104F
:1009900084F83E00216C41F02001216484F83C0081
:1009A00004E000BF94F83C10012903D1022002B0FA
:1009B000BDE8F081012184F83C100168C90703D12A
:1009C000016841F001010160016821F400610160EA
:1009D000222184F83D10102184F83E10002121646A
:1009E00066626785618D21850021CFF6FF71E16226
:1009F000E16A026811F5803F42F48062026018BF2C
:100A0000012919D1016841F4807101604169089E92
:100A1000C90724D1711C18D0002E00F0CB8000BF74
:100A2000FFF7C4FD401BB04200F2C6802068416958
:100A3000C907F5D013E000BF0829E3D0216B1129C5
:100A4000E0D0E3E74169C90709D14169C90706D187
:100A50004169C90704BF41695FEAC171F2D02169E8
:100A6000B1F5804F08D148F00101C9B20161416977
:100A7000890740F1CC8003E1062101EAD81707F18C
:100A8000F00101614169090738D44169721C01F420
:100A9000806113D0002940F0EA80002E00F010821F
:100AA000FFF784FD401BB04200F20C8220684169D0
:100AB000090723D441694905F2D5D8E0002940F05F
:100AC000D6804169090719D44169490500F1CF80F1
:100AD0004169090712D44169490500F1C88041699B
:100AE00009070BD44169490500F1C1804169090733
:100AF00004D441694905E4D5B9E000BF5FFA88F143
:100B000001614169890739D44169721C01F480612E
:100B100014D0002940F0AB80002E00F0D181FFF707
:100B200045FD401BB04200F2CD8120684169890734
:100B300024D441694905F2D599E000BF002940F06D
:100B400096804169890719D44169490500F18F8070
:100B50004169890712D44169490500F188804169DA
:100B600089070BD44169490500F1818041698907F2
:100B700004D441694905E4D579E000BF0021019121
:100B800041690191816901910199016841F4807184
:100B900001604169C90734D1711C28D056B1FFF7F3
:100BA00005FD401BB04207D820684169C907F6D04F
:100BB00027E000BFFFF7FAFC00202021206384F823
:100BC0003D1084F83E00216C41F020012164216831
:100BD00084F83C000868C00544BF4FF400702064EE
:100BE000012002B0BDE8F0814169C90709D141691E
:100BF000C90706D14169C90704BF41695FEAC171EC
:100C0000F2D047F0F10101614169890738D44169A7
:100C1000721C01F4806111D049BB002E00F050819C
:100C2000FFF7C4FC401BB04200F24C8120684169D0
:100C3000890725D441694905F2D518E0B9B9416958
:100C400089071DD44169490511D44169890717D421
:100C5000416949050BD44169890711D441694905A6
:100C600005D4416989070BD441694905E7D5016875
:100C700041F4007101606FF480614161042022E160
:100C8000218D99B1022927D001292DD1026822F4A2
:100C9000806202600022019242690192826901929F
:100CA000019A026842F40072026028E0002101917A
:100CB00041690191816901910199016841F40071D3
:100CC0000160202084F83D00002084F83E0084F874
:100CD0003C0002B0BDE8F081026822F4806202604C
:100CE000026842F4006202E0026842F4806202603C
:100CF000002201924269019280690190019888B2B4
:100D0000032817D802283FD0012851D1002E00F027
:100D100099802068014651F8142F520600F1968000
:100D20000868C00600F1F280FFF740FC401BB042AB
:100D3000EFD9E0E086B100BF2068014651F8142FDA
:100D400052060ED40868C00600F1E080FFF72EFCC2
:100D5000401BB042F0D9CEE020684169490640F11D
:100D6000C3800069616A0870606A218D01300139B1
:100D7000606221852268638D013B638553695B074F
:100D800070D51169017064E020684169490745D454
:100D9000711C6BD0002E00F0CD80FFF707FC401BCC
:100DA000B04200F2C980206841694907F5D535E0B5
:100DB0002068416949070ED4711C65D0002E00F0EF
:100DC000B980FFF7F3FB401BB04200F2B58020680A
:100DD00041694907F5D5016821F480610160006926
:100DE000616A0870606A218D013001396062218575
:100DF0002068618D01396185416949070ED4711CF4
:100E000050D0002E00F09680FFF7D0FB401BB04280
:100E100000F29280206841694907F5D5016841F4E4
:100E2000007101600069616A0870606A2268411C93
:100E30006162218D01392185618D013961851169D9
:100E4000417006E02068416949064DD50069616A34
:100E50000870606A218D0130013960622185608DE2
:100E60000138608508047FF44AAF2AE741694907E1
:100E7000D4D4416949075CBF41695FEA4171CDD46F
:100E800041694907F2D5C9E741694907A3D44169D6
:100E900049075CBF41695FEA41719CD441694907D8
:100EA000F2D598E741694907B8D4416949075CBF61
:100EB00041695FEA4171B1D441694907F2D5ADE7B3
:100EC000FFF774FB202000212022216384F83D20BD
:100ED00084F83E10226C1043206484F83C100120FA
:100EE00002B0BDE8F08100BF50F8141FC9060146EA
:100EF0000CD4FFF75BFB00202021206384F83D1019
:100F000084F83E00206C40F020000AE06FF01000F2
:100F1000086000202021206384F83D1084F83E0002
:100F2000206C2064002084F83C00012002B0BDE861
:100F3000F08100BFFFF73AFB00202021206384F8F6
:100F40003D1084F83E00216C41F02001216484F8BA
:100F50003C00012002B0BDE8F08100002DE9F04323
:100F600081B01F46164688460446FFF71FFB94F8DB
:100F70003D10202920D1054620688169890717D5B1
:100F8000FFF714FB401B1928F6D90020202120630D
:100F900084F83D1084F83E00216C022641F02001C7
:100FA000216484F83C00304601B0BDE8F08300BF06
:100FB00094F83C10012905D10226304601B0BDE865
:100FC000F08300BF012184F83C100168C90703D1F8
:100FD000016841F001010160016821F400610160D4
:100FE000212184F83D10102184F83E100021216455
:100FF00066626785618D21850021CFF6FF71E16210
:10100000E16A11F5803F18BF012919D1016841F447
:10101000807101604169DDF82090C90723D119F181
:10102000010116D0B9F1000F46D000BFFFF7BEFA9C
:10103000401B484542D820684169C907F6D012E0F4
:101040000829E3D0216B1229E0D0E3E74169C90701
:1010500009D14169C90706D14169C90704BF41697E
:101060005FEAC171F2D02169B1F5804F02D1FE2152
:1010700061E000BF062101EAD811F0310161416948
:10108000090757D4416919F1010201F480612FD099
:10109000002946D1B9F1000F00F04281FFF786FA2E
:1010A000401B484500F23E8120684169090741D450
:1010B00041694905F2D534E0FFF778FA0020202194
:1010C000206384F83D1084F83E00216C012641F035
:1010D00020012164216884F83C000868C00544BFF1
:1010E0004FF400702064304601B0BDE8F08300BFCB
:1010F000B9B9416909071DD44169490511D441694C
:10110000090717D4416949050BD44169090711D46E
:101110004169490505D4416909070BD4416949056D
:10112000E7D5016841F4007101606FF480614161AD
:101130000420F8E0FF2101EA080101614169890703
:101140003AD4416919F1010201F4806112D051BB16
:10115000B9F1000F00F0E080FFF728FA401B484586
:1011600000F2DC8020684169890725D4416949057E
:10117000F2D518E0B9B9416989071DD4416949051B
:1011800011D44169890717D4416949050BD44169D4
:10119000890711D44169490505D4416989070BD4F0
:1011A00041694905E7D5016841F4007101606FF4B8
:1011B000806141610420B6E00026009641690091FB
:1011C000816900910099218D002900F0958009F135
:1011D0000108014651F8142F120635D4B8F1000F5A
:1011E00016D0B9F1000F00F0AF8000BF08684005CD
:1011F00000F1B280FFF7DAF9401B484500F2A98000
:101200002068014651F8142F1206EFD51CE000BFEC
:101210000A68520500F1A0800A68120614D40A6810
:10122000520500F199800A6812060DD40A68520529
:1012300000F192800A68120606D40A68520500F18D
:101240008B800A681206E3D5636A194611F8012BF0
:1012500002616162618D01396185278D0146A7F1C7
:10126000010CA4F828C051F8142F52070DD55FEADD
:101270000C420AD05A78A7F1020C02619A1C6262F1
:10128000628D013A6285A4F828C00A6852072FD4FB
:10129000B8F1000F14D0B9F1000F7BD008684005F9
:1012A00000F18080FFF782F9401B484577D820681D
:1012B000014651F8142F5207F0D5B4F828C017E0B2
:1012C0000A6852056ED40A68520711D40A6852059A
:1012D00068D40A6852070BD40A68520562D40A68B7
:1012E000520705D40A6852055CD40A685207E7D54C
:1012F0005FEA0C417FF46DAF016841F40071016059
:10130000202084F83D0084F83E6084F83C6030463C
:1013100001B0BDE8F08300BFFFF748F9202002E0EC
:10132000FFF744F9202000212022216384F83D208A
:1013300084F83E10226C01261043206484F83C108F
:10134000304601B0BDE8F0830868400504D4FFF7DB
:101350002DF9202004E000BF6FF4806008600420B5
:1013600000212022216384F83D2084F83E10226C65
:101370001043206484F83C10206C042825D1206898
:101380000126016841F400710160304601B0BDE8FA
:10139000F08300BF0868400504D4FFF707F9202058
:1013A00004E000BF6FF48060086004200021202268
:1013B000216384F83D2084F83E10226C10432064A1
:1013C00084F83C10206C0428D9D00126304601B0A6
:1013D000BDE8F083B0B586B0016845F20040C4F2C4
:1013E0000000814202D006B0B0BD00BF002543F628
:1013F00030040195C4F20204216800F5D83041F0B0
:1014000002012160216801F0020101910199C021CE
:1014100001911221029101210391032104910421E0
:10142000059101A9FEF7EEFF0095206940F4001038
:101430002061206900F400100090009806B0B0BD53
:1014400040F2000040F2F001C2F20000C2F20001DE
:1014500000780A68104408607047000080B543F6C1
:101460000040C4F20200016841F4007101600168AB
:1014700041F480610160016841F4807101600320E2
:1014800000F074F80F2000F005F800F027F80020B5
:1014900080BD000070B540F20006C2F2000640F2C6
:1014A00008013278C2F200014FF47A730968B3FB85
:1014B000F2F20446B1FBF2F1084600F01BFB0F2CE0
:1014C0004FF0010508D838B94FF0FF30214600220F
:1014D000002500F01FF87460284670BD82B000201F
:1014E00043F640010190C4F202014A6842F480428E
:1014F0004A604A6802F480420192019A00900868AA
:1015000040F080500860086800F08050009000981B
:1015100002B0704710B54EF60C5CCEF2000CDCF851
:101520000030C3F3022E8EF00704042C28BF0424DD
:10153000BEF103034FF0FF3E0EFA04F438BF002360
:10154000A14399400EFA03F39A43114300F00F02AE
:1015500000F160430901043A03F564436244002842
:1015600048BF02F10C03197010BD00004EF60C517B
:10157000CEF200010A684FF6FF031A4060F30A2218
:1015800042F0806040F0FD70086070472DE9F04146
:10159000002800F08B8043F60808C4F202080446D5
:1015A000D8F8F8030D4600F00700884207D288F803
:1015B000F853D8F8F80300F00700A84276D1206865
:1015C000810717D5410705D5D8F8001041F4E0513F
:1015D000C8F80010010705D5D8F8001041F46041A3
:1015E000C8F80010D8F80010A26821F0F0011143EB
:1015F000C8F80010C0073FD1D8F8F80300F0070082
:10160000A84207D988F8F853D8F8F80300F0070083
:10161000A8424BD12068410707D5D8F80010E268EE
:1016200021F4E0511143C8F80010000708D5D8F89C
:101630000000216920F4604040EAC100C8F80000C1
:1016400000F068F8D8F8001041F6FE72C1F30311FB
:10165000C0F60002515C40F2080220FA01F140F2AB
:101660000400C2F200000068C2F200021160FFF73D
:1016700011FF0020BDE8F0816068811E022907D2B9
:1016800058F8081C89015CBF0120BDE8F08111E019
:10169000012807D158F8081C89035CBF0120BDE868
:1016A000F08107E058F8081C890703D40120BDE841
:1016B000F08100BFD8F8001021F003010843C8F8FA
:1016C0000000FEF773FF064641F28837D8F80000A5
:1016D000616800F00C00B0EB810F8DD0FEF766FF63
:1016E000801BB842F2D90320BDE8F08140F2080027
:1016F00043F60801C2F20000C4F202010068096862
:1017000042F20E02C1F38221C0F60002515CC840D1
:101710007047000010B543F60404C4F20204606888
:1017200000F00C0142F200400829C0F2F40007D09A
:10173000042918BF10BD41F20020C0F27A0010BD8C
:10174000216801F03F02216823684902C3F3881130
:1017500006D4A1FB00010023FEF786FD07E000BFD1
:1017600041F20020C0F27A004843B0FBF2F0216859
:101770000222C1F3014102EB4101B0FBF1F010BDC7
:101780002DE9F04182B0002868D00446007843F685
:101790000006C007C4F202060BD0B06800F00C00CF
:1017A000042840F09F803068800302D560680028DC
:1017B00054D0207880071AD5B06810F00C0F09D0EB
:1017C000B06800F00C00082840F0A6807068400265
:1017D00000F1A2803068800702D5E06801283DD181
:1017E0003068216920F0F80040EAC10030602078BC
:1017F000000737D4207840074CD4A56955B3B068AA
:1018000000F00C00082840F0BB80012D26D0706845
:10181000E16900F480028A4220D1216A00F03F028F
:101820008A421BD147F6C071626A0140B1EB821F48
:1018300014D1A16A4FF6FF73C903994300F44032F3
:10184000A1F580318A4209D1E16A00F07060B0EB05
:10185000016F03D1002002B0BDE8F081012002B089
:10186000BDE8F0816069002840F20000C4F2472022
:1018700076D00121C0F8801EFEF798FE054600BF15
:10188000706F8007B6D4FEF791FE401B0228F7D98F
:10189000DDE000BF306C10F080580AD100200190CC
:1018A000306C40F080503064306C00F0805001901B
:1018B000019847F20007C4F200073868C00541D418
:1018C000386840F480703860FEF770FE054600BF4F
:1018D0003868C00536D4FEF769FE401B0228F7D9E8
:1018E000B5E000BFB06800F00C00082803D17068B4
:1018F00040023FF558AF6068B0F5803F07D0B0F5C3
:10190000A02F40F08D80306840F480203060306837
:1019100040F4803030608DE0E068002852D0002034
:10192000C4F2472001210160FEF740FE054600BFDA
:10193000306880073FF554AFFEF738FE401B0228A1
:10194000F6D984E0A068012805D005284ED1306F73
:1019500040F004003067306F40F0010030674FE026
:101960000021C0F8801EFEF721FE0546706F80073B
:101970007FF540AFFEF71AFE401B0228F6D966E05D
:101980000027C4F2472700203866FEF70FFE022D1D
:1019900005460BD1306880015ED5FEF707FE401B7F
:1019A00002284FF00300F5D955E700BF30688001E9
:1019B0007FF550AFFEF7FAFD401B02284FF0030001
:1019C000F4D948E70020C4F2472000210160FEF767
:1019D000EDFD0546306880077FF509AFFEF7E6FDAF
:1019E000401B02284FF00300F4D934E7316F002880
:1019F00021F001013167316F21F0040131674DD0D1
:101A0000FEF7D4FD054641F2883700BF306F8007EE
:101A100056D4FEF7CBFD401BB842F7D917E000BF04
:101A20003168002821F480313160316821F480214F
:101A300031604FD0FEF7BAFD054600BF3068800325
:101A40003FF5B7AEFEF7B2FD401B6428F6D9032080
:101A500002B0BDE8F08100BF04F11C052FCD0843A2
:101A600040EA8210D9034FF6FF729143A1F580310D
:101A700040EA05600843706001203866FEF796FD75
:101A8000044600BF306880013FF5E4AEFEF78EFDEE
:101A9000001B02284FF00300F4D9DCE6FEF786FDB8
:101AA000054641F2883700BF306F800708D5FEF742
:101AB0007DFD401BB8424FF00300F5D9CBE600BFD7
:101AC000B8F1000F7FF499AE306C20F08050306494
:101AD00093E600BFFEF76AFD054600BF306880034D
:101AE0007FF567AEFEF762FD401B64284FF00300F0
:101AF000F4D9B0E6411E0020B0EB116F1CBF0120ED
:101B000070474EF21002CEF2000251604EF62351A1
:101B1000CEF20001F0230B70072190601160704736
:101B2000FEE7000040F2EC01C2F2000108607047DD
:101B30002DE9F04182B040F2EC06C2F20006044604
:101B4000002130688DF8071064250DF1070280210F
:101B5000012300950127FFF701FA30680DF1050216
:101B60008021022300954FF00208FEF7F5FEBDF834
:101B700005000DF1070200BA000C208030688021BA
:101B800001238DF807700095FFF7E8F930680DF133
:101B90000502802102230095FEF7DEFEBDF8050058
:101BA0000DF1070200BA000C60803068802101232B
:101BB0008DF807800095FFF7D1F930680DF1050227
:101BC000802102230095FEF7C7FEBDF80500032122
:101BD00000BA000CA08030688DF807100DF10702E4
:101BE000802101230095FFF7B9F930680DF1050256
:101BF000802102230095FEF7AFFEBDF80500042109
:101C000000BA000CE08030688DF807100DF1070273
:101C1000802101230095FFF7A1F930680DF105023D
:101C2000802102230095FEF797FEBDF805000521EF
:101C300000BA000C208130688DF807100DF1070202
:101C4000802101230095FFF789F930680DF1050225
:101C5000802102230095FEF77FFEBDF805000621D6
:101C600000BA000C608130688DF807100DF1070292
:101C7000802101230095FFF771F930680DF105020D
:101C8000802102230095FEF767FEBDF805000721BD
:101C900000BA000CA08130688DF807100DF1070222
:101CA000802101230095FFF759F930680DF10502F5
:101CB000802102230095FEF74FFEBDF8050000BA13
:101CC000000CE08102B0BDE8F0810000B0B582B048
:101CD00040F2EC04C2F2000421688DF8070064258C
:101CE0000DF107020846802101230095FFF736F920
:101CF00020680DF10502802102230095FEF72CFEDD
:101D0000BDF8050000BA000C02B0B0BD80B582B0CD
:101D100005218DF80510010A8DF8061040F2EC013E
:101D2000C2F2000109688DF807004FF0640C0DF154
:101D30000502084680210323CDF800C0FFF70EF905
:101D4000002818BF012002B080BD000080B582B01D
:101D50008DF80500080A8DF8060040F2EC00C2F28A
:101D6000000000688DF807104FF0640C0DF10502BB
:101D700080210323CDF800C0FFF7F0F8002818BF3A
:101D8000012002B080BD0000FEE70000FEE7000079
:101D90007047000070470000FFF752BBB0B592B02B
:101DA000002443F640000B94CDE90944CDE90744F3
:101DB0000594CDE90344CDE901440094C4F2020046
:101DC0000168022541F080510160006800F08050F8
:101DD0000090009847F200000094C4F200000168EF
:101DE00041F480410160006800F480400090009858
:101DF0000120099010200A9008200E90A820CDE91B
:101E00000F050420119006A80695CDE90C54FFF7A4
:101E1000B7FC28B1EFF3108072B600BFFEE700BF39
:101E20000F20CDE901054FF4A05004904FF48050ED
:101E3000059001A805210394FFF7A8FB20B1EFF35B
:101E4000108072B6FEE700BF12B0B0BD4EF68850EB
:101E5000CEF20000016841F470010160704700009B
:101E6000FEE7000084B0FFF7F9FAFFF797FF0026BE
:101E700043F630000396C4F20200016840F2700598
:101E800041F0800101600168C2F2000501F08001AB
:101E900003910399029601684FF4804241F00101D9
:101EA0000160016801F00101029102990196016847
:101EB00041F002010160006845F2004100F00200BB
:101EC00001900198C4F20001284640F8281F48F20A
:101ED000A061C0F20101C0E90116C0E90362C0E9D6
:101EE0000566C0E90766FEF767FB28B1EFF31080CF
:101EF00072B600BFFEE700BF05F128042046FEF7DA
:101F00005BFB2046FFF70EFE4FF00108012700BFE4
:101F1000780081B2204601220A23FEF709FC00283E
:101F200012BF2E7085F800806F70013778B2B0F163
:101F3000FF3FEDDC9FED299A9FED29BA05F11804CA
:101F4000B0EE048AB7EE04AAB2EE04CA002044F24E
:101F50002711FFF7FBFEA8704FF40060FFF7D6FED5
:101F6000E8700020FFF7B2FEA8800520FFF7AEFE64
:101F7000E8801420FEF732FA2046FFF7D9FDB5F9C4
:101F80001A0000EE100AB8EEC00A20EE080A80EE31
:101F9000090AA88B01EE100AB8EE411A21EE0A1ABE
:101FA00081EE091AB5F9200085ED020A00EE100A4B
:101FB000B8EEC00AE88B20EE0C0A85ED040A00EEAC
:101FC000100AB8EE400A20EE0B0A4FF4FA7085EDC5
:101FD000031A85ED050AFEF701FAB7E700007A4417
:101FE00000007A43F1EE100A4FF6FF71C0F2C031E3
:101FF00020EA010040F04070E1EE100A7047000056
:1020000000000000000001020304060708090000A8
:102010000000010203040000382000080000002036
:1020200010000000C4010008482000081000002033
:10203000E8060000E00100080100000010000000B8
:082040000024F4000000000080
:040000050800018965
:00000001FF
