:020000040800F2
:10000000780E002029020008391B0008311B000867
:10001000351B0008AD050008C11F000800000000E6
:10002000000000000000000000000000B11B0008FC
:10003000B1050008000000003D1B0008B51B0008CA
:10004000430200084302000843020008430200087C
:10005000430200084302000843020008430200086C
:10006000430200084302000843020008430200085C
:10007000430200084302000843020008430200084C
:10008000430200084302000843020008430200083C
:10009000430200084302000843020008430200082C
:1000A000430200084302000843020008430200081C
:1000B000430200084302000843020008430200080C
:1000C00043020008430200084302000843020008FC
:1000D00043020008B51F000843020008430200085D
:1000E00043020008430200084302000843020008DC
:1000F00043020008430200084302000843020008CC
:1001000043020008430200084302000843020008BB
:1001100043020008430200084302000843020008AB
:10012000430200084302000843020008430200089B
:10013000430200084302000843020008430200088B
:10014000430200084302000843020008430200087B
:10015000430200084302000843020008430200086B
:10016000430200084302000843020008430200085B
:100170004302000843020008430200080000000098
:10018000430200084302000800F002F800F03CF8C7
:100190000AA090E8000C82448344AAF10107DA45E2
:1001A00001D100F031F8AFF2090EBAE80F0013F0F8
:1001B000010F18BFFB1A43F0010318473C39000038
:1001C0005C390000103A24BF78C878C1FAD85207C9
:1001D00024BF30C830C144BF04680C6070470000C1
:1001E0000023002400250026103A28BF78C1FBD840
:1001F000520728BF30C148BF0B6070471FB502F0DF
:1002000084FE1FBD10B510BD00F095F91146FFF733
:10021000F5FF01F0D7FE00F0B3F903B4FFF7F2FFEA
:1002200003BC00F0BBF900000948804709480047BB
:10023000FEE7FEE7FEE7FEE7FEE7FEE7FEE7FEE796
:10024000FEE7FEE704480549054A064B70470000F3
:10025000691C00088901000878080020780E002039
:10026000780A0020780A002053EA020C00F0698026
:100270002DE9F04B4FF00006002B1FBFB3FA83F5BA
:1002800003FA05F424FA05F65E4012BF1643B2FAEB
:1002900082F502FA05F4C5F120051EBF22FA05FC1D
:1002A00044EA0C04203556EA044C4FEA144418BFC3
:1002B000641C4FF000084FF00009904271EB030CF2
:1002C00039D3002919BFB1FA81F701FA07F6B0FA5C
:1002D00080F700FA07F6C7F120071EBF20FA07FCD7
:1002E00046EA0C062037B6FBF4FCA7EB0507103FE7
:1002F00007F01F0BCBF120062CFA06F60CFA0BFBCD
:1003000044BFB3460026202FA4BF5E464FF0000B2B
:100310005BEA060C08BF4FF0010B19EB0B0948EB29
:100320000608ABFB027C06FB02CC0BFB03CCC01B1C
:1003300071EB0C01C1E70B46024641464846BDE859
:10034000F08B13B5084318BF4FF0FF300146AFF3F1
:100350000080BDE81C40704740EA010310B59B07D0
:100360000FD1042A0DD310C808C9121F9C42F8D01F
:1003700020BA19BA884201D9012010BD4FF0FF30D0
:1003800010BD1AB1D30703D0521C07E0002010BDE6
:1003900010F8013B11F8014B1B1B07D110F8013B72
:1003A00011F8014B1B1B01D1921EF1D1184610BD53
:1003B000032A40F2308010F0030C00F0158011F891
:1003C000013BBCF1020F624498BF11F801CB00F869
:1003D000013B38BF11F8013BA2F1040298BF00F8BD
:1003E00001CB38BF00F8013B11F0030300F025807A
:1003F000083AC0F0088051F8043B083A51F804CBA1
:10040000A0E80810F5E7121D5CBF51F8043B40F866
:10041000043BAFF30080D20724BF11F8013B11F871
:1004200001CB48BF11F8012B24BF00F8013B00F8B5
:1004300001CB48BF00F8012B704710B5203AC0F03F
:100440000B80B1E81850A0E81850B1E81850A0E8A7
:100450001850203ABFF4F5AF5FEA027C24BFB1E840
:100460001850A0E8185044BF18C918C0BDE8104083
:100470005FEA827C24BF51F8043B40F8043B08BF8C
:100480007047D20728BF31F8023B48BF11F8012B53
:1004900028BF20F8023B48BF00F8012B70474FF0FF
:1004A00000020429C0F0128010F0030C00F01E803E
:1004B000CCF1040CBCF1020F18BF00F8012BA8BF4F
:1004C00020F8022BA1EB0C0100F010B85FEAC17C10
:1004D00024BF00F8012B00F8012B48BF00F8012BC6
:1004E00070477047704770474FF0000200B51346E1
:1004F00094469646203922BFA0E80C50A0E80C5044
:10050000B1F12001BFF4F7AF090728BFA0E80C50F4
:1005100048BF0CC05DF804EB890028BF40F8042BED
:1005200008BF704748BF20F8022B11F0804F18BF5A
:1005300000F8012B7047754600F02CF8AE46050018
:100540006946534620F00700854618B020B5FFF7EE
:1005500079FEBDE820404FF000064FF000074FF055
:1005600000084FF0000BAC46ACE8C009ACE8C0098D
:10057000ACE8C009ACE8C00921F007018D4670471E
:1005800010B50446AFF300802046BDE81040FFF7E9
:1005900044BE0000004870471000002001491820A8
:1005A000ABBEFEE72600020070470000FEE7000039
:1005B0007047000070B5866D044600F029F994F884
:1005C0003510022928D105462068216C026822F0E6
:1005D00016020260426922F08002426109B9A16CF0
:1005E00019B1016821F008010160016821F00101E1
:1005F000016000BF20680068C00715D000F008F94E
:10060000401B0628F6D320206065032084F83500BF
:10061000002184F8341070BD802060650120002125
:1006200084F8341070BD00BFE06D3F2101FA00F086
:10063000B060012084F835000020002184F83410D7
:1006400070BD000090F83510022909D1052180F80D
:1006500035100068016821F0010101600020704739
:1006600080214165012070472DE9F04F82B000F1F3
:100670003E4241F6004502F1FF77C4F2020508222E
:1006800043F6004E4FEAB726A84208BF0722C4F23D
:10069000010E072E38BF4FEAB7220125002600279A
:1006A0004FF00008009208E008F101080437B8F1A3
:1006B000100F06F1020600F0A7800C6805FA08F991
:1006C00014EA090FF0D0D1F804B003220BF0030CA8
:1006D000ACF10104B240012C6FEA020A10D8826822
:1006E000CC6802EA0A02B440224382604268CBF33B
:1006F000001422EA090204FA08F42243426005E0E9
:10070000BCF1030F02D14FF0030C20E0C2688C68EB
:1007100002EA0A02B4402243BCF1020FC26016D1C1
:100720006FF0030202EA58020244D2F820C007F038
:100730001C050F230C69AB402CEA030304FA05F5F2
:100740002B431362D1F804B001250BF0030C0268AF
:100750000CFA06F302EA0A021A431BF4403F026055
:10076000A2D0002243F644030192C4F202031A68A5
:100770004FF6084C42F480421A601A68CFF6FF7CAC
:1007800002F480420192019A28F00302724452F866
:100790000C3007F00C050F24AC40A343009C04FA76
:1007A00005F52B4342F80C30DEF808204B6842EA8E
:1007B000090543F60C4CDC0258BF22EA0905CEF8C5
:1007C0000850C4F2010CDCF800209C0242EA090542
:1007D00058BF22EA0905CCF80050DEF804209C033B
:1007E00042EA090558BF22EA0905CEF80450DEF8AE
:1007F0000020DB0342EA090558BF22EA0905CEF8CA
:100800000050012550E700BF02B0BDE8F08F0000A6
:1008100040F66C00C2F200000068704740F2000031
:1008200040F66C01C2F20000C2F2000100780A68D2
:10083000104408607047000080B543F60040C4F2E1
:100840000200016841F400710160016841F48061B7
:100850000160016841F480710160032000F088F8B4
:100860000F2000F005F800F027F8002080BD000000
:1008700070B540F20006C2F2000640F2080132787C
:10088000C2F200014FF47A730968B3FBF2F2044636
:10089000B1FBF2F1084600F043FB0F2C4FF00105CD
:1008A00008D838B94FF0FF3021460022002500F06B
:1008B00033F87460284670BD82B0002043F64001D2
:1008C0000190C4F202014A6842F480424A604A68D8
:1008D00002F480420192019A0090086840F0805032
:1008E0000860086800F080500090009802B07047DF
:1008F000002848BF7047C1B200F01F00012202FA71
:1009000000F04EF20012CEF2000242EAD10121F0D4
:10091000030108607047000010B54EF60C5CCEF283
:10092000000CDCF80030C3F3022E8EF00704042C18
:1009300028BF0424BEF103034FF0FF3E0EFA04F477
:1009400038BF0023A14399400EFA03F39A431143A1
:1009500000F00F0200F160430901043A03F564431B
:100960006244002848BF02F10C03197010BD00005A
:100970004EF60C51CEF200010A684FF6FF031A4002
:1009800060F30A2242F0806040F0FD70086070471A
:100990002DE9F041002800F08B8043F60808C4F2EE
:1009A00002080446D8F8F8030D4600F00700884214
:1009B00007D288F8F853D8F8F80300F00700A842E7
:1009C00076D12068810717D5410705D5D8F80010E2
:1009D00041F4E051C8F80010010705D5D8F800101F
:1009E00041F46041C8F80010D8F80010A26821F066
:1009F000F0011143C8F80010C0073FD1D8F8F80340
:100A000000F00700A84207D988F8F853D8F8F8038F
:100A100000F00700A8424BD12068410707D5D8F85D
:100A20000010E26821F4E0511143C8F800100007FB
:100A300008D5D8F80000216920F4604040EAC100E0
:100A4000C8F8000000F07CF8D8F8001042F62472D4
:100A5000C1F30311C0F60002515C40F2080220FA13
:100A600001F140F20400C2F200000068C2F200028C
:100A70001160FFF7FDFE0020BDE8F0816068811E77
:100A8000022907D258F8081C89015CBF0120BDE883
:100A9000F08111E0012807D158F8081C89035CBFD8
:100AA0000120BDE8F08107E058F8081C890703D44D
:100AB0000120BDE8F08100BFD8F8001021F003014B
:100AC0000843C8F80000FFF7A3FE064641F2883746
:100AD000D8F80000616800F00C00B0EB810F8DD0F9
:100AE000FFF796FE801BB842F2D90320BDE8F081E3
:100AF00040F2080043F60801C2F20000C4F202010D
:100B00000068096842F63472C1F38221C0F600021F
:100B1000515CC8407047000040F2080043F60801ED
:100B2000C2F20000C4F202010068096842F63472A1
:100B3000C1F34231C0F60002515CC840704700006A
:100B400010B543F60404C4F20204606800F00C011E
:100B500042F200400829C0F2F40007D0042918BF6F
:100B600010BD41F20020C0F27A0010BD216801F0F2
:100B70003F02216823684902C3F3881106D4A1FB10
:100B800000010023FFF770FB07E000BF41F20020E7
:100B9000C0F27A004843B0FBF2F021680222C1F3B0
:100BA000014102EB4101B0FBF1F010BD2DE9F04134
:100BB00082B0002868D00446007843F60006C007DB
:100BC000C4F202060BD0B06800F00C00042840F01C
:100BD0009F803068800302D56068002854D0207858
:100BE00080071AD5B06810F00C0F09D0B06800F07B
:100BF0000C00082840F0A6807068400200F1A28036
:100C00003068800702D5E06801283DD1306821694D
:100C100020F0F80040EAC10030602078000737D4A7
:100C2000207840074CD4A56955B3B06800F00C009B
:100C3000082840F0BB80012D26D07068E16900F4DF
:100C400080028A4220D1216A00F03F028A421BD1F1
:100C500047F6C071626A0140B1EB821F14D1A16AEC
:100C60004FF6FF73C903994300F44032A1F5803178
:100C70008A4209D1E16A00F07060B0EB016F03D1E4
:100C8000002002B0BDE8F081012002B0BDE8F08193
:100C90006069002840F20000C4F2472076D00121AC
:100CA000C0F8801EFFF7B4FD054600BF706F8007D7
:100CB000B6D4FFF7ADFD401B0228F7D9DDE000BF39
:100CC000306C10F080580AD100200190306C40F058
:100CD00080503064306C00F080500190019847F2F1
:100CE0000007C4F200073868C00541D4386840F4F2
:100CF00080703860FFF78CFD054600BF3868C0057E
:100D000036D4FFF785FD401B0228F7D9B5E000BFB8
:100D1000B06800F00C00082803D1706840023FF56D
:100D200058AF6068B0F5803F07D0B0F5A02F40F015
:100D30008D80306840F480203060306840F480302E
:100D400030608DE0E068002852D00020C4F24720D7
:100D500001210160FFF75CFD054600BF3068800798
:100D60003FF554AFFFF754FD401B0228F6D984E04D
:100D7000A068012805D005284ED1306F40F004004E
:100D80003067306F40F0010030674FE00021C0F85D
:100D9000801EFFF73DFD0546706F80077FF540AF71
:100DA000FFF736FD401B0228F6D966E00027C4F2A3
:100DB000472700203866FFF72BFD022D05460BD193
:100DC000306880015ED5FFF723FD401B02284FF0FD
:100DD0000300F5D955E700BF306880017FF550AFBB
:100DE000FFF716FD401B02284FF00300F4D948E737
:100DF0000020C4F2472000210160FFF709FD0546ED
:100E0000306880077FF509AFFFF702FD401B02281D
:100E10004FF00300F4D934E7316F002821F00101CD
:100E20003167316F21F0040131674DD0FFF7F0FCDD
:100E3000054641F2883700BF306F800756D4FFF770
:100E4000E7FC401BB842F7D917E000BF3168002823
:100E500021F480313160316821F4802131604FD03C
:100E6000FFF7D6FC054600BF306880033FF5B7AEFC
:100E7000FFF7CEFC401B6428F6D9032002B0BDE882
:100E8000F08100BF04F11C052FCD084340EA821019
:100E9000D9034FF6FF729143A1F5803140EA056016
:100EA0000843706001203866FFF7B2FC044600BFBB
:100EB000306880013FF5E4AEFFF7AAFC001B022872
:100EC0004FF00300F4D9DCE6FFF7A2FC054641F23F
:100ED000883700BF306F800708D5FFF799FC401BAB
:100EE000B8424FF00300F5D9CBE600BFB8F1000FD0
:100EF0007FF499AE306C20F08050306493E600BFF0
:100F0000FFF786FC054600BF306880037FF567AEBB
:100F1000FFF77EFC401B64284FF00300F4D9B0E6D5
:100F2000411E0020B0EB116F1CBF012070474EF234
:100F30001002CEF2000251604EF62351CEF20001B3
:100F4000F0230B70072190601160704710B590F886
:100F50003C20012A4FF0020251D080F83D20026867
:100F6000D2F804E0D2F808C00C682EF070032343D6
:100F700041F2FF74C4F20004A24253600EDC40F25E
:100F8000FF73C4F200039A4216DCB2F1804F2BD0FB
:100F900040F20043C4F2000324E000BF40F2FF33FC
:100FA000C4F201039A4213DC41F60003C4F20003C9
:100FB0009A4219D0002313E040F60003C4F2000364
:100FC0009A4211D040F60043C4F200030AE000BF89
:100FD00044F20003C4F201039A4205D040F20043F8
:100FE000C4F201039A4204D149682CF080031943EA
:100FF00091600121002280F83D1080F83C201046CD
:1010000010BD0000F0B585B0006840F20045C4F2A4
:101010000005A84202D005B0F0BD00BF002643F68F
:1010200030000096C4F2020001686C4641F00101F4
:1010300001600168022701F001010091009900960A
:10104000016841F0020101600068214600F00200E1
:1010500000900098C020009005F5FE30CDE90176A3
:10106000CDE90367FFF700FB0320CDE9000705F595
:1010700000302146CDE902660497FFF7F5FA05B086
:10108000F0BD00002DE9F04390F83C30012B04BF87
:101090000220BDE8F0834FEAB202032A00F2FC808E
:1010A000DFE802F0023E7EBE036840F200471A6AA3
:1010B00043F4806522F001021A621C6A1A46D3F8D2
:1010C00004E052F818CF8E6824F00204C4F201073D
:1010D000BD4244EA060405D1CE6824F00C0426F093
:1010E000040634430E68BD4207D1D1E905572EF4FA
:1010F000407E45EA0E0545EA070E2CF0730737439C
:10110000C3F804E09F614F6809695F631C629F69CF
:1011100047F008079F619F6927F004079F61B1E0CE
:10112000036840F200481A6A43F4806522F0100216
:101130001A621C6A1A46D3F804C052F818EF8F6876
:1011400024F02004C4F20108454544EA071407D1FD
:10115000CF686FF0400624F0C00406EA0716344357
:10116000D1F80090454506D1D1E905562CF44067E9
:101170002E4347EA860C2EF4E64747EA0927C3F8D0
:1011800004C09F614F6809699F631C629F6947F4AF
:1011900000679F619F6927F480679F6171E000BFCE
:1011A000036840F200481A6A43F4806522F48072B2
:1011B0001A621C6A1A46D3F804C052F81CEF8F68F2
:1011C00024F40074C4F20108454544EA072408D118
:1011D000CF6840F2FF463F0224F4406427EA060647
:1011E0003443D1F80090454506D1D1E905562CF499
:1011F00040572E4347EA061C2EF0730747EA0907BB
:10120000C3F804C0DF614F680969DF631C62DF69EE
:1012100047F00807DF61DF6927F00407DF6131E08D
:10122000036840F200451A6A43F4806722F4805252
:101230001A621A46D3F820C05C6852F81CEFD1F845
:1012400000808E68C4F20105AF4204D14D6924F4D8
:10125000804444EA85142CF4005747EA06372EF4FC
:10126000E64646EA08265C60DE614E6809691E644F
:101270001F62DF6947F40067DF61DF6927F4806779
:10128000DF6109021368194311600021002280F810
:101290003C200846BDE8F0830121002280F83C2074
:1012A0000846BDE8F0830000002804BF0120704715
:1012B00010B5044690F83D0028B9002084F83C00A1
:1012C000204600F01FF8022084F83D002068211D10
:1012D00000F0D4FC012084F8460084F83E0084F835
:1012E0003F0084F8400084F8410084F8420084F80C
:1012F000430084F8440084F8450084F83D00002051
:1013000010BD000081B0006840F20041C4F200014D
:10131000884201D001B070470020009043F64000A1
:10132000C4F20200016841F002010160006800F0AF
:1013300002000090009801B07047000041B10829F8
:1013400010D0042914BF00F1410200F13F020BE06C
:1013500090F83E20012A1CBF01207047022280F82D
:101360003E2013E000F140021278012A1CBF012048
:1013700070470222082907D0042914BF80F84120B1
:1013800080F83F2002E000BF80F84020006801F0B4
:101390001F010122036A02FA01F123EA010202623B
:1013A000026A114341F2FF72C4F2000290420162EC
:1013B0000CDC40F2FF71C4F20001884214DCB0F191
:1013C000804F37D040F2004116E000BF40F2FF31BD
:1013D000C4F20101884215DC41F60001C4F20001AB
:1013E000884227D0002115E040F60001C4F2000138
:1013F00088421FD040F60041C4F20001884219D053
:101400001FE000BF44F20001C4F20101884211D084
:1014100040F20041C4F20101884212D1416C40F215
:10142000004340F48062C4F2010341F400419A4257
:10143000416406D1816801F00701062904BF00203C
:101440007047016841F00101016000207047000011
:101450007047000070470000B0B582B004460068D5
:101460000168C368426901F02F05202D03F02005B3
:1014700006D12DB1204602B0BDE8B04000F0A2BCBC
:101480005FEA017C1EBF02F0010E03F4907212EBC2
:101490000E0253D1226B012A05D111F0100218BFA0
:1014A00013F0100236D10A0622D513F080021FD0A5
:1014B00094F83D1021293FD1A168B1F5805F03D197
:1014C0002169002900F07282216A4A1C226209788F
:1014D0004160E18C01390A04E1842DD1C16821F019
:1014E0008001C160C16841F04001C16002B0B0BD7F
:1014F000490621D513F040011ED0C16821F04001FA
:10150000C1602021204684F83D1002B0BDE8B04003
:1015100000F00CBB0021019101680191416801912B
:1015200001994069400613D4A08DE18DE28D002A17
:1015300018BF884240F0BE8102B0B0BDCA0718BFD4
:1015400013F4807240F0BA804A0700F1BD80C2E017
:10155000A16B0868426893B2002BEDD0A08D834246
:10156000EAD2E285C969B1F5807F00F09D802068EC
:1015700050E8030F216820F4807041E80302DAB1DB
:10158000206850E8030F216820F4807041E80302CE
:1015900092B1206850E8030F216820F4807041E880
:1015A00003024AB1206850E8030F216820F48070DC
:1015B00041E80302002ADAD1206850E8050F2168CB
:1015C00020F0010041E80502DAB1206850E8050F7B
:1015D000216820F0010041E8050292B1206850E83E
:1015E000050F216820F0010041E805024AB120689A
:1015F00050E8050F216820F0010041E80502002AAB
:10160000DAD1206850E8050F216820F0400041E859
:101610000502DAB1206850E8050F216820F040008B
:1016200041E8050292B1206850E8050F216820F0DA
:10163000400041E805024AB1206850E8050F2168E2
:1016400020F0400041E80502002ADAD1202084F889
:101650003E0000202063206850E8030F216820F03E
:10166000100041E80302DAB1206850E8030F216856
:1016700020F0100041E8030292B1206850E8030F07
:10168000216820F0100041E803024AB1206850E8C8
:10169000030F216820F0100041E80302002ADAD18C
:1016A000A06BFEF787FFA08DE18D401A81B2204626
:1016B00002B0BDE8B040FFF7CBBE00BF226C42F0E5
:1016C000010222644A0706D5BEF1000F03D0226C46
:1016D00042F0020222648A0706D5BEF1000F03D051
:1016E000226C42F004022264BCF1000F09D545EAE5
:1016F0000E02B2FA82F2520903D1226C42F00802C1
:101700002264226C002A3FF417AF11F0200118BFA9
:10171000002D03D0204600F055FB20684069216C65
:1017200000F0400001F00801401800F0B58000BF53
:10173000206850E8030F216820F4907041E803020C
:10174000BAB3206850E8030F216820F4907041E894
:10175000030272B3206850E8030F216820F49070F0
:1017600041E803022AB3206850E8030F216820F4FF
:10177000907041E80302002ADAD11AE0206850E8AC
:10178000050F216820F0010041E80502DAB1206868
:1017900050E8050F216820F0010041E8050292B1F0
:1017A000206850E8050F216820F0010041E805029B
:1017B0004AB1206850E8050F216820F0010041E897
:1017C0000502002ADAD1206B012824D1206850E8D4
:1017D000030F216820F0100041E80302DAB120680D
:1017E00050E8030F216820F0100041E8030292B195
:1017F000206850E8030F216820F0100041E8030240
:101800004AB1206850E8030F216820F0100041E839
:101810000302002ADAD1202084F83E000020206351
:101820002068406940063FD5206850E8050F2168D0
:1018300020F0400041E80502DAB1206850E8050FC9
:10184000216820F0400041E8050292B1206850E88C
:10185000050F216820F0400041E805024AB12068E8
:1018600050E8050F216820F0400041E80502002AF9
:10187000DAD1A06BC0B141F6B951C0F600010165E3
:10188000FEF7E0FE00283FF457AEA06B016D02B0FA
:10189000BDE8B040084700BF2046FFF7DBFD002051
:1018A000206402B0B0BD00BF204602B0BDE8B04029
:1018B000FFF7D0BD401A216851E8031F226821F4C8
:1018C000907142E80313DBB1216851E8031F2268DD
:1018D00021F4907142E8031393B1216851E8031F8A
:1018E000226821F4907142E803134BB1216851E85A
:1018F000031F226821F4907142E80313002BDAD110
:10190000216851E8051F226821F0010142E8051312
:10191000DBB1216851E8051F226821F0010142E88E
:10192000051393B1216851E8051F226821F00101D8
:1019300042E805134BB1216851E8051F226821F0E8
:10194000010142E80513002BDAD1202184F83E1072
:1019500000212163216851E8031F226821F0100152
:1019600042E80313002B3FF4A1AE216851E8031FA6
:10197000226821F0100142E80313002B3FF496AED9
:10198000216851E8031F226821F0100142E8031387
:10199000002B3FF48BAE216851E8031F226821F031
:1019A000100142E80313002BD4D17FE6216A31F8FD
:1019B000022B6FF35F22426021628AE5002804BF98
:1019C0000120704710B5044690F83D0028B900206A
:1019D00084F83C00204600F021F8242084F83D00E3
:1019E0002068C16821F40051C160204600F06AFA05
:1019F0002068016921F490410161416921F02A01C7
:101A00004161C16841F40051C1600020202120647F
:101A100084F83D1084F83E1010BD000080B586B0FB
:101A2000016841F20000C4F20100814202D006B018
:101A300080BD00BF002143F630020191C4F20202D2
:101A4000536900F5704043F010035361536903F08C
:101A500010030193019B0191136843F0010313608C
:101A6000126802F001020192019A4FF4C0620192E1
:101A70000222CDE90221032104910721059101A948
:101A8000FEF7F2FD252000210022FEF745FF25206C
:101A9000FEF72EFF06B080BD90F83E30202B0BD114
:101AA00000294FF0010318BF002A01D118467047E2
:101AB00090F83C30012B01D10220704700230363D2
:101AC000816222218285C285036480F83E1002690A
:101AD000016880F83C301AB1C86840F48070C86072
:101AE0004869002340F001004861C86840F02000C8
:101AF000C86018467047000010B5006841F2000148
:101B0000C4F20101884218BF10BD40F27004C2F255
:101B10000004204610F8041B00F032F804F12C00F9
:101B200021460122BDE81040FFF7B6BF7047000014
:101B3000FEE70000FEE70000FEE70000704700003F
:101B4000D0E90032934202BFFF2148B27047C36818
:101B50009A5C0A70D0E901124B1C0021934228BF05
:101B60000B46436048B2704700294FF0FF031FBF88
:101B7000002A0023C0E90033C0E9022158B27047AF
:101B800080B5D0E900EC82680EF101039BB29A4265
:101B900098BF0023634503D1FF2040B280BD00BF42
:101BA000C26802F80E100360002040B280BD000041
:101BB00070470000FEF732BEB0B592B0002443F685
:101BC00040000B94CDE90944CDE907440594CDE9E3
:101BD0000344CDE901440094C4F2020001680225E7
:101BE00041F080510160006800F080500090009842
:101BF00047F200000094C4F20000016841F4804103
:101C00000160006800F48040009000980120099075
:101C100010200A9008200E90A820CDE90F0504207E
:101C2000119006A80695CDE90C54FEF7BFFF28B128
:101C3000EFF3108072B600BFFEE700BF0F20CDE9C2
:101C400001054FF4A05004904FF48050059001A876
:101C500005210394FEF79CFE20B1EFF3108072B6CD
:101C6000FEE700BF12B0B0BD4EF68850CEF20000C5
:101C7000016841F4700101607047000010B540F642
:101C8000FF3E0368C4F2000E40F2004C7045C4F2FF
:101C9000010C27DCB0F1804F31D040F20042C4F299
:101CA000000290422BD040F60002C4F200029042A3
:101CB00025D041F6FF72C4F20002904229DC704543
:101CC0003CDCB0F1804F5FD040F20042C4F2000231
:101CD000904259D040F60002C4F20002904253D024
:101CE00056E000BF40F60042C4F20002904206D027
:101CF000604504D00022C4F201029042D9D14A6862
:101D000023F07003134341F6FF72C4F200029042C5
:101D1000D5DD43F6FF72C4F20102904222DC42F2AA
:101D20000002C4F2000290422ED00022C4F201024E
:101D3000904229D0604527D02AE000BF40F60042FB
:101D4000C4F2000290421FD041F60002C4F2000229
:101D5000904219D041F60042C4F20002904213D0E2
:101D600016E000BF44F20002C4F2010290420BD020
:101D700044F60002C4F20102904205D044F200424F
:101D8000C4F20102904203D1CA6823F440731343A2
:101D900023F080024B69D1F800E08C681A4302609E
:101DA000C46240F48062C0F828E0624504BF09695B
:101DB00001630121416110BD806B0021C185C18497
:101DC000FFF748BB81B090F83E10222921D18368EB
:101DD0000246B3F5805F09D152F8281F52F8183C2B
:101DE000002B63D003685B680AE000BF52F8281F2D
:101DF00013B90369002BF5D003685B6803F07F0318
:101E00000B70116801311160C18D01390A04C1855F
:101E100002D001B0704700BF0168CA6822F02002FA
:101E2000CA60CA6822F48072CA604A6922F001025C
:101E30004A61202180F83E10016B01293ED100212A
:101E4000016300BF016851E8031F026821F010011F
:101E500042E80313DBB1016851E8031F026821F077
:101E6000100142E8031393B1016851E8031F0268AF
:101E700021F0100142E803134BB1016851E8031F40
:101E8000026821F0100142E80313002BDAD1016847
:101E90000A68D20606D5002200920A6800924968B4
:101EA00000910099818D01B0FFF7D2BA02685268A3
:101EB0006FF35F2221F8022B8162A5E701B0FFF7E3
:101EC0001BBE000010B504460068D4E902C22369B5
:101ED000016921F4405111430161626943EA0C0137
:101EE000E3691143C268194349F20C639A431143F1
:101EF000C1604169A26921F4407141F2004311437C
:101F000040F48062C4F201039A42416102D1FEF7BB
:101F100003FE01E0FEF7ECFDE16963681922B1F50B
:101F2000004FA0FB020123D15A00DB0FFEF79CF902
:101F300048F21F51C5F2EB11A0FB01235A094FF6DD
:101F40009C73C0F6FF7303F1805302FB030032233E
:101F500003EBC000A0FB01014FF4F87000EA111080
:101F600000EB0210C1F3421108442168886010BDE3
:101F70009A009B0FFEF778F948F21F51C5F2EB115A
:101F8000A0FB01235A094FF69C73C0F6FF7302FBB6
:101F90000300322303EB0010A0FB0101F02000EA54
:101FA000511000EB0210C1F343110844216888600E
:101FB00010BD000040F29C00C2F20000FFF74CBAD6
:101FC000FEE70000B6B040F20045C4F20005FEF79F
:101FD00033FCFFF7F1FD002643F630000A96C4F209
:101FE0000200016840F2700741F080010160016861
:101FF000C2F2000701F080010A910A990A9601686D
:102000000C2241F001010160016801F001010A9117
:102010000A990A96016841F002010160006805F51D
:10202000863100F002000A900A98384640F82C1FCA
:102030004FF4E131C0E90116C0E90366C0E90526A5
:10204000C661FFF7BBFC28B1EFF3108072B600BF8A
:10205000FEE700BF40F2F400C2F20000292144F67E
:102060001F62CDE92466CDE90F66CDE90D66C0E9B2
:102070000051C0E9026206618661FFF715F928B1D7
:10208000EFF3108072B600BFFEE700BF40F2F4002D
:1020900024AEC2F200003146FEF758FF20B1EFF344
:1020A000108072B6FEE700BF60200A900020CDE9E4
:1020B0000B000E9040F2F400C2F200000AA90022C8
:1020C000FEF7E0FF20B1EFF3108072B6FEE700BF2D
:1020D00040F2F400C2F200000AA90422FEF7D2FF87
:1020E00020B1EFF3108072B6FEE700BF40F2F400BB
:1020F000C2F200000AA90822FEF7C4FF20B1EFF3E4
:10210000108072B6FEE700BF40F2F400C2F2000099
:102110000AA90C22FEF7B6FF20B1EFF3108072B6C9
:10212000FEE700BF40F2F405C2F200052846FEF7C4
:1021300069FF28460021FFF701F928460421FFF72F
:10214000FDF828460821FFF7F9F828460C2100255C
:10215000FFF7F4F840F26871381DC2F200014FF445
:1021600080720790FFF700FD07F12C00394601222D
:10217000FFF792FC701C40F2007940F2742440F2A8
:102180005016C2F20009C2F20004C2F20006049026
:1021900007983946FFF7D4FC0028F9D199F8038055
:1021A00097F800B04FF0000AB8F10F0F89F800A0BF
:1021B00000F2EC81DFE818F01000100052006C0013
:1021C00084009800AC00C000D400EE00060122019B
:1021D0004201240024009C01BBF1FE0F00F0A88105
:1021E000BBF1FD0F40F0D08199F80C004FF00208D0
:1021F000FD2100F0FE0089F803806180A2E100BFAC
:102200006078217958454FF0020A08BF4FF0010A63
:10221000B8F10E0F08BF4FF0020AC80789F800A0F6
:1022200084F815B140F07481D9F81000002800F04E
:10223000C182026B002A00F0A982E07AB4F809108A
:1022400041EA00414846904799F800A0002840F034
:10225000B182BAF1020F40F0A982ABE2208884F883
:1022600003B08BEA000181EA0111CAB2090241EA16
:102270001020110981EAC20199F80C204840D107C9
:1022800089F80450208040F063814FF0030879E121
:10229000BBF1020F84F804B080F0648120884FF015
:1022A00004088BEA000181EA0111CAB2090241EA7D
:1022B0001020110981EAC2014840208062E100BF7C
:1022C000208884F805B08BEA000181EA0111CAB2C6
:1022D000090241EA1020110981EAC2014840208028
:1022E0004FF005084EE100BF208884F806B08BEA65
:1022F000000181EA0111CAB2090241EA1020110964
:1023000081EAC201484020804FF006083AE100BF50
:10231000208884F807B08BEA000181EA0111CAB273
:10232000090241EA1020110981EAC20148402080D7
:102330004FF0070826E100BF208884F808B08BEA38
:10234000000181EA0111CAB2090241EA1020110913
:1023500081EAC201484020804FF0080812E100BF26
:102360002088E5728BEA000181EA0111CAB20902F4
:1023700041EA1020110981EAC20199F80C20484075
:10238000D107A4F809B0208040F0F4804FF009088C
:10239000F8E000BF204630F8091F228841EA0B21EF
:1023A00001808BEA020080EA0010C1B2000240EA1C
:1023B00012200A0982EAC101484020804FF00A0831
:1023C000E0E000BF204630F8091F8278018042EA31
:1023D0000B02827022888BEA020080EA0010C1B2F0
:1023E000000240EA12200A0982EAC101E27848406C
:1023F000002A208040F0C080C2E000BF99F80400AD
:10240000411CCAB289F804102188204480F80CB01D
:102410008BEA010080EA0010C3B2000240EA1120FA
:10242000190981EAC301E37848409A42208000F00C
:10243000A7804FF0000A4FF00B08A7E0E07AB4F84D
:102440000910E42241EA004C00214FF0FF3E00BF9A
:10245000914216D28B1801335E083846274642F661
:102460003C7406EB4605C0F6000454F825503C4683
:10247000074665454FF0000594BF31460EEB530209
:10248000E6D142F63C7301EB4101C0F6000353F87C
:102490002120624540F0B68003EB81002288037959
:1024A000817983EA020080EA0010C0B2030243EAA5
:1024B0001222030983EAC00050402080C0B24FF0CE
:1024C0000E08834508BF4FF00D0899F8042040F22C
:1024D00050169142C2F2000689F8038084F814B1C4
:1024E00052D9A0180C30891AFDF7D9FF4CE000BF73
:1024F00099F80D00211A013881F823B1010689F8F5
:102500000D0000F095804FF0000A4FF00F083DE0FD
:102510004FF00F08BAF1020F4FF00D0089F8038059
:1025200089F80D0040F07C804FF0020A2EE000BFD9
:1025300099F80C004FF00208FE2189F803806180B1
:1025400040F0010089F80C004FF6FF7020801BE07E
:102550004FF0000A4FF00508A4F804A089F80380A2
:1025600014E000BF99F802004FF00108013089F82B
:10257000020007E0E07818B14FF00B0802E000BF5E
:102580004FF00C0889F803804FF0000AE07899F8C2
:10259000041099F80520F07099F8020099F80C30B1
:1025A0003976511CB9F80820BAF1020F87F8178064
:1025B0007976BA83F88387F8203089F8025003D1FE
:1025C000B4F81401308003E00AF0FE00022811D1B3
:1025D00040F20110BBF1FD0FA9F8020089F800508C
:1025E0007FF4D6AD022089F803004FF6FF70E57046
:1025F0002080CDE5BAF1000F3FF4CAAD304600F0BF
:1026000097F9C5E54FF00E0840F2501689F803809F
:1026100084F814B14FF0000AC2F20006B6E700BF1A
:102620004FF0000A89F800A04FF00F08AEE700BF96
:10263000D9F81080B8F1000F00F0A480D9F8140088
:10264000CDE90A5505904EF26760C6F609200C9058
:102650004AF68560CBF667300D904FF27230C3F6C4
:102660006E400E904FF23A50CAF24F500F9045F222
:102670007F20C5F20E10109046F68C00C9F605308A
:1026800011904DF6AB10C1F6837012904CF61950B4
:10269000C5F6E0300AAD139008F11001284620225B
:1026A00000F0FEF9A11C28460A2200F0F9F9E278B0
:1026B00004F10C01284600F0F3F904F58A7128466C
:1026C000022200F0EDF904F58B712846072200F094
:1026D000E7F90A9D3720A0EBD50000F03F068020E7
:1026E0008DF8900004980DF1900A4721CDF81880DC
:1026F00006EB0A08FDF7D3FE0B9928BAC8F80500C7
:1027000008BAC8F8010006F109020AA85146DDF826
:1027100018A000F0C5F99DF830009DF831109DF823
:1027200033208DF824108DF825009DF837009DF892
:1027300036109DF832308DF822208DF826008DF865
:10274000271004F21D110DF1220006228DF823300E
:10275000FDF702FE022100284CD0D9F810008AF8BB
:102760003410026B40F25016002AC2F2000679D0F3
:10277000E07AB4F8091041EA0041484690474FF02A
:10278000000598B14FF0010A12E000BFBAF1020F44
:102790000CD14FF001083046214640F2231289F84F
:1027A0000380FDF74AFE4FF0020AEFE64FF0030AFE
:1027B00089F800A04FF001083046214640F223126C
:1027C00089F80380FDF739FEBAF1010F7FF4DEAE20
:1027D000B9F80800A179002800F101004FF00108C4
:1027E0004FF0010A89F8051008BFA9F80A50A9F8A6
:1027F0000800CBE60599C9B3B1F800C094F816817A
:10280000B4F81B31D4F817E1BCF1000F039335D0B5
:10281000ACF101020126E079237A16FA82F20192E4
:102820000022CDF808E003E00132944551461FD064
:1028300002EBC20601EB060E9EF803508A46A84240
:10284000F2D19EF80450AB42EED19EF80260B04542
:10285000EAD140F250165146DDF818A0DDE902E356
:102860000FE000BF4FF0030A0025A1E7032174E742
:10287000DDF818A0DDE9012E039B08E040F25016B8
:1028800000220025C2F2000690B2604514D1BCF1CE
:102890000F0F01D9042160E798B248F68053C0F2C7
:1028A0005B03DAE9026513EB0E0340F100009B1BAA
:1028B000A84111D2052150E702EBC2000844B0F84C
:1028C00009C0D0F805001FFA83F8B0EB0E007CEBCE
:1028D000080013D3062140E7B4F8070002EBC20357
:1028E0000B44A3F8030083F8028040F25016039BC8
:1028F0000CF101000025C2F20006088002EBC200C4
:10290000B4F81B210844A0F80920D4F81711C0F826
:102910000510DAE9021298B2B1EB0E0172EB000178
:1029200038BFCAE902E001208AF834002AE7000033
:10293000F0B58BB00546FDF76BFFE97AB5F80920D5
:10294000044642EA014100294CD01E2966D04129A3
:1029500040F0A280EE786F462A2E28BF2A26C6F1C4
:102960002A01B8190C35292E88BF0021FDF797FDE3
:10297000384629463246FDF71BFD40F2E000C2F220
:10298000000001689FED451A611A00EE101AB8EEBA
:10299000400A81EE000A40F26472C2F20002116045
:1029A00040F2441140F2F407C2F20001C2F2000703
:1029B0000460BDF80400BDF80620BDF808303F688B
:1029C000BDF80A6081ED000A40F24811C2F2000130
:1029D00008804A808B80CE807863BA63FB633E6454
:1029E0000BB0F0BD40F2E000C2F2000041689FED84
:1029F0002B1A611A00EE101AB8EE400A81EE000A96
:102A000040F2F002C2F20002116040F24011C2F244
:102A10000001446081ED000A0BB0F0BD40F2E0001F
:102A2000C2F2000081689FED1D1A611A00EE101AB3
:102A3000B8EE400A81EE000A40F2EC02C2F2000257
:102A4000116040F23C11C2F2000184606E4681EDDB
:102A5000000AEC780C351C2C28BF1C24C4F11C0186
:102A600030191B2C88BF0021FDF719FD304629467F
:102A70002246FDF79DFC01AB40F668000ECBC2F28A
:102A80000000016040F26070C2F20000026040F697
:102A90007000C2F2000003600BB0F0BD00007A4489
:102AA0002DE9F04FD1B003680E4603EBC201154685
:102AB000994202460990016003D2099841680131A8
:102AC0004160002D00F01E820998C3F3C50400F197
:102AD000280943F6F810C0F600000DF14408043848
:102AE000CDE9010904E000BFED1B3E4400F00A827D
:102AF000C4F14007BD4238BF2F4609EB0400314600
:102B00003A46FDF755FC3C44402CEDD10895099D13
:102B1000CDE9067695F82F2095F82B008DF8482002
:102B200095F835208DF844008DF8522095F8432013
:102B300095F831008DF85C2095F8492095F82840EB
:102B400095F82A108DF8662095F85720464695F896
:102B500033808DF84E0095F83F0095F829E095F800
:102B60002E3095F82CC08DF8451095F8301095F85A
:102B700037708DF8474095F8364095F838908DF8C5
:102B8000702095F85D208DF84C8095F839808DF88F
:102B9000580095F845008DF846E08DF8493095F8D5
:102BA000343095F83BE08DF84BC095F83AC08DF87D
:102BB0004F1095F83E108DF8507095F83D708DF8D7
:102BC000514095F83C408DF8579095F846908DF817
:102BD0007A202A698DF8568095F847808DF8620032
:102BE00095F853008DF8533095F842308DF854E045
:102BF00095F841E08DF855C095F840C08DF8591012
:102C000095F844108DF85A7095F84B708DF85B402C
:102C100095F84A408DF8619095F84C900E926A694B
:102C20008DF8608095F84D808DF86C0095F859000E
:102C30008DF85D3095F848308DF85EE095F84FE0FE
:102C40008DF85FC095F84EC08DF8631095F852105E
:102C50008DF8647095F851708DF8654095F8504086
:102C60008DF86B9095F85A900D92AA698DF86A804C
:102C700095F85B808DF8760095F8670095F82DB093
:102C800095F832A08DF8673095F856308DF868E0E9
:102C900095F855E08DF869C095F854C08DF86D1021
:102CA00095F858108DF86E7095F85F708DF86F403C
:102CB00095F85E408DF8759095F860900C92EA69F1
:102CC0008DF8748095F861808DF88000686A8DF8C1
:102CD0004AB08DF84DA08DF8713095F85C308DF8C4
:102CE00072E095F863E08DF873C095F862C08DF8D6
:102CF000771095F866108DF8787095F865708DF8F6
:102D0000794095F86440D5F808A0D5F80CB08DF856
:102D10007F900B92D5F82090119A8DF87E80B04666
:102D20000A9000208DF87B308DF87CE08DF87DC016
:102D30008DF881108DF882708DF8834008EB0001CA
:102D40008B6B01F1040E4FEA734787EAF34787EA7A
:102D5000932C9EE8A0404E6A4FEAF514164484EA8C
:102D6000B54484EAD50466442644CC6B0E644FEA2D
:102D7000744383EAF44383EA942C8C6A4FEAF71392
:102D800083EAB7432C4483EAD70304EB0C052B44B6
:102D90004FEA764585EAF64585EA9626CD6A4FEAFA
:102DA000FE1484EABE442F4484EADE0437442744F8
:102DB0008F644FEA73470A6987EAF3474B6487EAEF
:102DC00093230F6B4FEAF21686EAB246774486EAFF
:102DD000D2063B4410303344C028CB64AED15146B8
:102DE000594649460DF12C0C01980A9C9CE882102A
:102DF0000E9B6FF00708CDF814A05646DA46CDF8C2
:102E000010B0CDF80C9000BF8B464FEAB71181EAA5
:102E1000F72110963A4681EA776107EA0B0529EA1D
:102E2000070650F8087F2C440F9711AF344450F830
:102E3000046C47442144BC68314401EB040E0EEBA2
:102E40000C0101EA02064E442BEA01052E444FEA2A
:102E5000B11585EAF12585EA71650F9C3544FE6858
:102E60002544354483EA0A0903EA0A06EF18109B51
:102E7000D44609EA030474404FEAB30686EA73367F
:102E800086EAB356344404EB0E0A8CEA030606EADB
:102E90000A060CEA030466404FEABA0484EA7A346C
:102EA00084EABA54264408F108082E44B8F1F80F11
:102EB0005C469146A8D10598DDF8089006EB000E17
:102EC00004980DF144080AEB00060E9803440D988F
:102ED0000CEB00050C9807440B980144039802443E
:102EE0000A980BEB0004099800F1100CC0E902E607
:102EF0008CE8A8001C30DDE90765069F16C0002499
:102F0000F2E500BF51B0BDE8F08FF1EE100A4FF6C8
:102F1000FF71C0F2C03120EA010040F04070E1EEE4
:102F2000100A7047000000000000000001020304C6
:102F30000607080900000000010203040000000069
:102F40003209090000000000010000007C1F2B0076
:102F50000000000002000000890C0C0000000000CE
:102F600004000000ED0E0E030C0D00000500000033
:102F7000D91C1C01000000000600000068030300CB
:102F80000000000007000000772020000000000083
:102F90000800000075242400000000000B00000061
:102FA000590606010400000014000000D6141403A2
:102FB00002030000150000009F0202030001000050
:102FC00016000000DC1919000000000017000000C6
:102FD000A81717030405000018000000181E34008D
:102FE00000000000190000001765650000000000E7
:102FF0001A000000AA161800000000001B000000C4
:10300000901A1D00000000001C000000431010007A
:10301000000000001D000000730E10000000000002
:103020001E000000271C1C00000000001F00000004
:10303000F62030000000000020000000B91C1C0039
:103040000000000021000000681C1C0000000000BF
:1030500022000000ED161600000000002300000012
:10306000F41616000000000024000000DE15250004
:103070000000000025000000D4060703040500003E
:1030800026000000090607030405000027000000D1
:10309000FE2526032021000028000000E604050389
:1030A00002030000290000001C04040302030000C6
:1030B0002A0000001C021200000000002B0000008B
:1030C00084020303000100002C000000DD0409035A
:1030D000020300002D000000E802030300010000CD
:1030E0002E0000000B020200000000002F00000074
:1030F000990308030001000030000000290D1501AC
:103100000C00000031000000270C1400000000003B
:10311000320000004E25250312130000330000008A
:10312000C404050302030000360000000F1B1B034C
:1031300018190000370000000319190000000000F2
:103140003D000000A7484800000000003E000000CD
:10315000B71A1A00000000003F00000077B5B50064
:103160000000000040000000BFE1E100000000009E
:1031700041000000762A2A00000000004200000002
:103180009406060302030000430000001504040037
:103190000000000045000000F30B1E010A000000C3
:1031A000460000007C1226031011000049000000B8
:1031B00026252603202100004A00000014141400D4
:1031C000000000004B0000009E2323031E1F000090
:1031D0004C000000982121031E1F00004D0000003C
:1031E0008F030A0308090000500000000E040403C6
:1031F00002030000510000006A16160000000000E3
:103200005200000031273303242500005300000042
:103210001625250000000000540000008F353503FE
:1032200032330000550000008C33330000000000F2
:10323000560000000535350332330000570000000A
:10324000963333000000000059000000E71C1C000A
:10325000000000005A000000B738380000000000ED
:103260005B0000003F2A2A00000000005C00000014
:1032700036212100000000005D0000002F515100A8
:103280000000000064000000AF1A220000000000EF
:103290006500000066207500000000006600000068
:1032A0009E2075000000000067000000D014390067
:1032B00000000000680000003820740000000000DA
:1032C000690000005D3E3F00000000006A00000051
:1032D0008A2C2C00000000006B0000006C404100B4
:1032E000000000006C00000020545C0000000000A2
:1032F0006D000000B9090900000000006E00000028
:1033000054FEFE03010200006F00000022101203B1
:103310001011000070000000AE0C0C000000000056
:10332000710000007C2427000000000072000000F3
:10333000ED2C2C0000000000730000000440400051
:1033400000000000740000004C161800000000008F
:1033500075000000800606030405000076000000EA
:10336000380E0E000000000077000000740C0C0303
:103370000A0B000078000000866161000000000078
:1033800079000000ED020203000100007A00000055
:10339000CB020203000100007B000000FA71710300
:1033A000000100007C0000005723390000000000ED
:1033B0007D000000CB060600000000007E0000003B
:1033C000DC4F51034F5000007F0000001923230001
:1033D0000000000080000000E22323000000000045
:1033E000810000002E16180000000000820000007E
:1033F0001D0D0D000000000083000000DFFFFF0036
:103400000000000084000000550E270000000000AE
:103410008500000006121200000000008600000077
:10342000E52B2B000000000087000000CB080800FF
:1034300000000000880000000116160000000000D7
:1034400089000000C30E1000000000008A00000088
:103450006D247800000000008B000000A82B2B03D7
:10346000292A00008C000000B52929000000000076
:103470008D0000002F202000000000008E000000C2
:1034800048F3F300000000008F000000830E1000DE
:1034900000000000900000007F5D5D000000000063
:1034A00092000000676464000000000093000000C8
:1034B0009A2436000000000094000000B23C4E0048
:1034C0000000000095000000C81E3C000000000045
:1034D000A2000000BD08090000000000C0000000BC
:1034E000242C360000000000E1000000D04149001B
:1034F00000000000E6000000A32A2A0000000000EF
:10350000E70000006928280000000000E800000033
:10351000973F410000000000E900000023B6B6001C
:1035200000000000EA0000009628280000000000CB
:10353000EB000000B32A2A0000000000F1000000A8
:103540005A20200000000000F200000068343C0017
:1035500000000000F300000055353D01340000007C
:10356000F40000005F06060000000000F500000007
:103570008202020000000000F6000000B8262600CB
:1035800000000000F70000005113130000000000CD
:10359000F800000008FEFE0303040000F90000002C
:1035A000CC24240000000000FA000000311E1E00A0
:1035B00000000000FB000000AA1212000000000042
:1035C000FC0000002C12120000000000FD000000B2
:1035D0005333360000000000FE0000002E090900F1
:1035E0000000000000010000472A2A03080900002B
:1035F0000101000083090900000000000201000031
:10360000BB20E80300010000030100005CEBED00BB
:10361000000000000401000092050E000000000000
:1036200005010000B31B3D00000000000601000082
:103630000C121700000000000701000085FFFF00CA
:103640000000000008010000311C20000000000004
:10365000090100001A101400000000000A01000017
:10366000C1FFFF03020300000B01000023FFFF0363
:10367000020300000C0100000E040403020300001A
:103680000D0100006DD5D700000000000E01000004
:103690003B131400000000000F0100001634350039
:1036A00000000000130100007E1F20000000000049
:1036B000140100001231320000000000150100006A
:1036C0003E1E1E00000000001801000046212100DF
:1036D0000000000019010000300D0D000000000086
:1036E0001A0100007B232303202100001B0100009E
:1036F0004A909100000000001C010000632020039C
:103700001E1F00001D01000089283103262700002C
:103710001E010000D2353903323300001F010000C2
:1037200001171703141500002001000014171703D8
:103730001415000022010000FB2E2E0000000000E6
:10374000230100000A393900000000002B010000AD
:1037500013606200000000002C010000D916160062
:10376000000000002D010000F33A3A0000000000C4
:10377000360100001C11110000000000370100009C
:103780005F7474000000000040010000F314140393
:103790000203000041010000580202030001000082
:1037A00042010000F3959500000000004301000075
:1037B0004E939303000100004401000084929200A4
:1037C000000000004A010000179EA7000000000052
:1037D0004B0100005BE6E900000000004C01000026
:1037E000ECEFEF00000000004D010000E76D6D0000
:1037F000000000004E010000480A0A00000000001E
:103800004F010000E1181800000000005001000006
:10381000F55454000000000053010000C7050500E6
:103820000000000054010000634646000000000054
:103830005E010000E814FC000000000068010000C8
:103840000B19190000000000720100004B576D00B9
:1038500000000000730100000A1A1A0000000000B6
:10386000740100001A8C8C0000000000750100003B
:10387000752A2A000000000077010000FB8C8C00F4
:10388000000000007C010000E814140000000000AB
:10389000810100009385850302030000820100007E
:1038A000841010030405000083010000044848034D
:1038B00004050000840100000825250320210000E4
:1038C000860100009CEEEE00000000008B0100006D
:1038D00000D4D400000000008C01000032A0A00041
:1038E000000000008D010000B66C6C0000000000BC
:1038F000900100006EFEFE0304050000910100002F
:10390000B7060603040500009A010000A035350043
:10391000000000009B0100006A030300000000009B
:103920009C01000021060603040500009D01000023
:103930004D07070304050000B3010000862E2E008A
:1039400000000000B4010000C109090000000000EF
:10395000B50100001E01010000000000B8010000D8
:103960004223230000000000282300007189890001
:10397000000000002D23000075222200000000003E
:1039800064320000722C2C0300010000653200003C
:10399000FE3B3B031E1F0000663200008C353503E2
:1039A0000405000067320000F92E2E03000100001C
:1039B000683200004D3636031C1D000069320000DD
:1039C000312B2B0300010000733200005EF9F90374
:1039D00000010000763200008B333300000000004D
:1039E0007732000007121203101100007832000035
:1039F0001405050000000000982F8A429144377199
:103A0000CFFBC0B5A5DBB5E95BC25639F111F15961
:103A1000A4823F92D55E1CAB98AA07D8015B8312A3
:103A2000BE853124C37D0C55745DBE72FEB1DE804F
:103A3000A706DC9B74F19BC1C1699BE48647BEEF7E
:103A4000C69DC10FCCA10C246F2CE92DAA84744A09
:103A5000DCA9B05CDA88F97652513E986DC631A87F
:103A6000C82703B0C77F59BFF30BE0C64791A7D55E
:103A70005163CA0667292914850AB72738211B2EE6
:103A8000FC6D2C4D130D385354730A65BB0A6A76CE
:103A90002EC9C281852C7292A1E8BFA24B661AA8DA
:103AA000708B4BC2A3516CC719E892D1240699D6EA
:103AB00085350EF470A06A1016C1A419086C371E63
:103AC0004C774827B5BCB034B30C1C394AAAD84E41
:103AD0004FCA9C5BF36F2E68EE828F746F63A5787C
:103AE0001478C8840802C78CFAFFBE90EB6C50A40F
:103AF000F7A3F9BEF27871C6183B00080000002059
:103B000010000000C4010008283B0008100000203D
:103B1000680E0000E0010008010000001000000035
:083B20000024F4000000000085
:040000050800018965
:00000001FF
