:020000040800F2
:10000000100E0020AD010008FD410008FB41000872
:1000100000000000000000000000000000000000E0
:100020000000000000000000000000000142000885
:100030000000000000000000FF410008034200082B
:10004000BF010008BF010008BF010008BF01000890
:10005000BF010008BF010008BF010008BF01000880
:10006000BF0100083D0E0008BF010008BF010008E5
:10007000BF010008BF010008BF010008BF01000860
:100080001D420008BF010008BF010008BF010008B1
:10009000BF0100080D420008BF010008BF010008B1
:1000A000BF010008BF010008BF010008BF01000830
:1000B000BF010008C54F0008BF010008BF010008CC
:1000C00000F002F800F047F80CA030C808382418F7
:1000D0002D18671EA246AB4654465D46AC4201D180
:1000E00000F039F87E460F3EB6460FCC012633426B
:1000F00000D0FB1A3343A246AB461847407D0000B0
:10010000607D0000103A02D378C878C1FAD852074F
:1001100001D330C830C101D504680C6070470000BD
:100120000023002400250026103A01D378C1FBD813
:10013000520700D330C100D50B6070471FB500F0E7
:10014000C5FC04000020002107F0C6FC401C6060D4
:100150001FBD10B510BD00F099FC1146FFF7EEFF72
:1001600006F048FD00F0C5FC03B4FFF7F2FF03BC46
:1001700000F06EFD70B505460C46164602E00FCC49
:100180000FC5103E102EFAD2082E02D303CC03C5A1
:10019000083E042E07D301CC01C5361F03E02178A9
:1001A0002970641C6D1C761EF9D270BD074880470B
:1001B00007480047FEE7FEE7FEE7FEE7FEE7FEE74B
:1001C00004480549054A064B704700000B420008E9
:1001D000C100000810080020100E0020100A0020A6
:1001E000100A002010B5202A04DB0146203A914075
:1001F000002010BD914020239C1A0346E340194380
:10020000904010BD10B5202A04DB0846203AD040AB
:10021000002110BD0B462024D340D040A21A9140AB
:100220000843194610BD4343514330B55C18010CD7
:10023000130C0D4692B25D4380B251432C19054612
:1002400055430A0C09044D1962415843010C00043E
:100250004019514130BDFEB5044610460D461843C5
:1002600073D0A6468C460020A41A01469D4167D350
:100270006646002701243D46B61A9D4102D3134627
:100280003A462124654676462F04360C3E432D0C13
:10029000B61A9D4104D3150C1B042B4312041034D1
:1002A000654676462F06360A3E432D0AB61A9D410C
:1002B00004D3150E1B022B43120208346546764602
:1002C0002F0736093E432D09B61A9D4104D3150F59
:1002D0001B012B431201241D65467646AF07B60865
:1002E0003E43AD08B61A9D4104D3950F9B002B43A6
:1002F0009200A41C65467646EF0776083E436D08DB
:10030000B61A9D411AD392185B41641C16E000187E
:10031000764665464941B71A9D410191009009D33F
:100320006046B11A98418E4684460098019900258E
:10033000401C6941DD0752082A435B08641EE6D56C
:100340007246634603B0F0BDFFE72046284307D05E
:100350000020C0430146C046C04622462B46F1E776
:1003600000200146F7E770B5064600F0C1FA0468C0
:10037000054630460A22002100F0BEFA2C6070BD0E
:100380000346F0B50B439B072DD1244DEF01042A02
:1003900029D308C810C95E1B9E43121F3E4017D0C8
:1003A000D8B2E1B2401A3106014310D198B2A1B2DD
:1003B000401A310401430AD118022102000A090A35
:1003C000401A3102014302D1180E210E401AF0BD2D
:1003D000A342DCD018BA21BA884201D90120F0BD6D
:1003E0000020C043F0BD002A01D10020F0BD0378F9
:1003F0000C78401C491C002B0DD0A3420BD1521E7F
:1004000009D003780C78401C491C002B03D0A34270
:1004100001D1521EEBD1181BF0BD000001010101FA
:10042000F8B5042A2CD3830712D00B78491C03702B
:10043000401C521E83070BD00B78491C0370401CD4
:10044000521E830704D00B78491C0370401C521EB7
:100450008B079B0F05D0C91ADF002023DE1B08C9BC
:100460000AE0FFF787FEF8BD1D4608C9FD401C469F
:10047000B4402C4310C0121F042AF5D2F308C91A45
:10048000521EF0D40B78491C0370401C521EEAD453
:100490000B78491C0370401C012AE4D409780170D0
:1004A000F8BD01E004C0091F0429FBD28B0701D568
:1004B0000280801CC90700D00270704700290BD051
:1004C000C30702D00270401C491E022904D38307CF
:1004D00002D50280801C891EE3E70022EEE700229D
:1004E000DFE70000002203098B4273D3030A8B422B
:1004F00058D3030B8B423CD3030C8B4221D312E025
:1005000003460B437FD4002243088B4274D3030974
:100510008B425FD3030A8B4244D3030B8B4228D315
:10052000030C8B420DD30902FF2212BA030C8B423B
:1005300002D31212090265D0030B8B4219D300E0DB
:10054000090AC30B8B4201D3CB03C01A5241830B60
:100550008B4201D38B03C01A5241430B8B4201D310
:100560004B03C01A5241030B8B4201D30B03C01A39
:100570005241C30A8B4201D3CB02C01A5241830AB3
:100580008B4201D38B02C01A5241430A8B4201D3E2
:100590004B02C01A5241030A8B4201D30B02C01A0C
:1005A0005241CDD2C3098B4201D3CB01C01A524173
:1005B00083098B4201D38B01C01A524143098B42FC
:1005C00001D34B01C01A524103098B4201D30B01E5
:1005D000C01A5241C3088B4201D3CB00C01A52410A
:1005E00083088B4201D38B00C01A524143088B42CF
:1005F00001D34B00C01A5241411A00D20146524168
:10060000104670475DE0CA0F00D04942031000D386
:10061000404253409C46002203098B422DD3030ADB
:100620008B4212D38901FC2212BA030A8B420CD3EB
:10063000890192118B4208D3890192118B4204D314
:1006400089013AD0921100E08909C3098B4201D394
:10065000CB01C01A524183098B4201D38B01C01ACE
:10066000524143098B4201D34B01C01A5241030945
:100670008B4201D30B01C01A5241C3088B4201D3F4
:10068000CB00C01A524183088B4201D38B00C01AA1
:100690005241D9D243088B4201D34B00C01A524178
:1006A000411A00D201465241104663465B1001D305
:1006B0004042002B00D54942704763465B1000D38F
:1006C000404201B50449002802DC491C084000E012
:1006D0000846C046C04602BDFFFFFF7F7047704717
:1006E00070470000F0B5FF252D04C609C209FF2799
:1006F00004462E400137CB093E4348402A402B4058
:100700000746002A6BD0002B69D0AA4267D0AB42C3
:1007100065D0002800DA32460125ED0529432C4337
:1007200009022002090AD21A4B0C7F24E31A434C17
:10073000000A7C44E35C7D242404121914145B0039
:10074000A218884201D3521C00E0400049420C46E6
:100750005C4324115C43DB016415E318040A5C4329
:10076000C502200D0C4644436419250A5D4323034A
:10077000EC0C0D46654300030019EB184C42A342F4
:1007800001D35B18401CD4052018002B07D05B0058
:10079000C91804D3401C002901D1400840003F2162
:1007A00089048A4209D3002A08DC1106090F04D003
:1007B000032149074018C00FC007F0BD01224100C6
:1007C000120689187F2252069142F6D20521490766
:1007D000C84201D59010F0BDFF20C005F0BD002F2C
:1007E00000DA32461648AA4207D2AB4205D21902B5
:1007F000090E17D0F80FC007F0BDFF2563002D06C6
:10080000AB42F9D84900A942F6D8AB4201D1A9427E
:10081000F2D0A94201D1002101E061004908D005D0
:100820000843F0BD1102090EFBD0FF200243D005A2
:10083000F0BD0A460146104654E700002E7600003F
:100840000000C07F10B501469E240002CA15A30710
:10085000002A02D01843002A04DBA21A002A0CDD69
:10086000D04010BD1206120E01D140004008A21A5D
:1008700003D4D04040420028F3DDFF224800120696
:10088000904201D9002010BDC817C043584010BD88
:100890001F22030C02D10F2200041CD0030E01D131
:1008A0000002083A030F01D10001121F830F01D18A
:1008B0008000921E002801DB4000521ED205511814
:1008C000021251181922904004D3491C002801D16A
:1008D0004908490008467047C10FC90700D0404287
:1008E000012292071143D3E701218907D0E70000D5
:1008F00000487047C8000020F7B50F460026009C4E
:100900002578641C002D05D000F032F80068405DA9
:10091000C007F5D12B2D02D02D2D18D0641E3946DD
:10092000029A204600F02CF8002F04D03968A1422A
:1009300001D1009939607105022400290BDA404287
:10094000002803DDFFF7D4FF0460A007FEBD0120EF
:1009500080020643E3E70028F8DAFFF7C9FF0460E6
:100960000048FEBDFFFFFF7F00487047C800002021
:1009700010B500F0ABF8001D10BD00BF5D710000A8
:10098000F7B5154682B00027029C2078641C0197B9
:10099000302802D0002D15D015E020780127641CE6
:1009A000782804D0582802D0002D09D00BE0002D63
:1009B00001D0102D07D1207800271025641C02E0FB
:1009C000082500E00A250026009610E0009901277E
:1009D0006943081829467143020C80B200908E18B2
:1009E0003804864201D3012001902078641C2946F6
:1009F00000F070F80028E9DA0398002805D0002FED
:100A000001D0641E00E0029C04600198002806D01A
:100A1000FFF76EFF02210160C81E05B0F0BD00990E
:100A200030040843F9E7000010B5FF231B0644001B
:100A30009C421DD84C009C421AD80346124A0B43D4
:100A400007D4401A02D3EFF3008010BDEFF300800B
:100A500010BD081A03D3EFF30080904305E0EFF3D5
:100A6000008001219043C907084380F3008810BD2E
:100A70000D231B041A4204D01146002000F041F857
:100A800010BD00F055F810BD000000907546FFF74E
:100A90006BFFAE46050069465346C008C000854658
:100AA00018B020B5FFF78CFB60BCB64600260027C7
:100AB000C0C5C0C5C0C5C0C5C0C5C0C5C0C5C0C50E
:100AC000403D490849008D46704700000048704786
:100AD000E80000203A2800D23038202302469A430A
:100AE000412A01D310463738884201D30020C04341
:100AF000704710B50446C046C0462046FFF734FB99
:100B000010BDC80212D54803400F002804D0C80306
:100B1000C043012188407047EFF3008000010009C5
:100B200003210907084380F30088704700207047BD
:100B300010B5024800F05CF810BD00000000C07F56
:100B400082078B079A423FD170B5920F0AD00324D7
:100B500002780B78401C491C002A33D09A4231D1CC
:100B60002042F5D1214EF40104C808C9951B9543D4
:100B7000254018D19A420FD104C808C9951B954346
:100B8000254010D19A4207D104C808C9951B954346
:100B9000254008D19A42E7D012BA1BBA01209A42E6
:100BA00000D2404270BD12BA1BBA2DBA18241000F0
:100BB000E0401900E140401A05D12E00E64002D184
:100BC000083CF4D1D01A70BD02780B78401C491C47
:100BD000002A09D09A4207D102780B78401C491CA0
:100BE000002A01D09A42EFD0D01A704701010101CA
:100BF00010B50C461107090F092904D00A290AD09B
:100C000008290CD104E011460820FFF77AFF06E01E
:100C1000510606D501E0510601D50120C007214645
:100C200010BDD10607D501010909CC084907000EFE
:100C30000006044309E0410F20024907000A01436E
:100C4000200E00061D22D14101430846E7E70000BF
:100C500001491820ABBEFEE7260002007047B0B580
:100C60000146806A836D826D5024234206D0D206ED
:100C700010D4006D426B08469047B0BD01214B0275
:100C80001A4382650268D3681B059B0F05D000F0EC
:100C90008BFCB0BD00F08AFCB0BD837E002BF6D18A
:100CA00013681B07F3D593685B070AD403465833D0
:100CB00054680C25AC435460FF2402341A68A243E4
:100CC00006E0826D20231343836503465C33C26DC7
:100CD0000A431A6000F068FCB0BD80B5806A816D7F
:100CE00040220A438265C16D04220A43C26500F0B6
:100CF0005DFC80BD80B5806A00F057FC80BD0000BF
:100D000070B505460068816882680024D20726D045
:100D10000222114023D1816805220A40012A16D1FE
:100D20008168424A0A40911C81600321016001F000
:100D3000A3FD064628688068C00710D001F09CFD1E
:100D4000811B28680329F6D38168C907F3D0A86DF1
:100D500010210143A965E86D01242043E865204680
:100D600070BDC046F0B581B005460024009400680F
:100D70008168C9071AD181682C4A2F32114208D0E4
:100D8000A86D10210143A965E86D01242043E865A1
:100D90000CE08168254A11400127394381602448CD
:100DA0000068000205D4687E012825D1204601B0E4
:100DB000F0BD20480068204906F088FD401C0090E6
:100DC00000980028EFD00098401E0090009800285E
:100DD000E9D00098401E009000980028E3D00098C9
:100DE000401E009000980028DDD00098401E009022
:100DF00000980028E7D1D6E701F03EFD06462868B6
:100E00000168C907D2D18168C90704D18168074A3E
:100E100011403943816001F02FFD811B28680329AF
:100E2000EED30168C907EBD1AAE7C046E8FFFF7F10
:100E30000827014008000020400D030080B502484B
:100E400000F0EAFD80BDC04668060020EFF3108088
:100E500072B6FEE7F0B58BB0044600210A9154202B
:100E6000205C012803D1022528460BB0F0BD089173
:100E7000204654300125079005702046FFF740FFBB
:100E8000064623689868A16DC00742D10595029671
:100E900018460830812252009143891CA165D96807
:100EA000DA68D54F1740DF609A68D44D2A4052194E
:100EB00018329A60FD4A0A4001921946B4310691EF
:100EC000FB490268002A2ED50A9A521C0A920A9AF5
:100ED0008A4200D983E10268002A24D50A9A521C6A
:100EE0000A920A9A8A4200D979E10268002A1AD540
:100EF0000A9A521C0A920A9A8A4200D96FE1026841
:100F0000002A10D50A9A521C0A920A9A8A42D8D903
:100F100065E1102001430898079A1070A1653546D5
:100F200028460BB0F0BD069A12680768ED4D2F40B9
:100F3000183503952F4307607F2504952A400768DD
:100F4000002F24D50A9F7F1C0A970A9F8F4200D941
:100F500045E10768002F1AD50A9F7F1C0A970A9F50
:100F60008F4200D93BE10768002F10D50A9F7F1CF4
:100F70000A970A9F8F4200D931E10768002F06D5F2
:100F80000A9F7F1C0A970A9F8F42D8D927E1069DA6
:100F90002F680668D34D2E40039D2E430660049DA6
:100FA0002F40BA180668002E24D50A9E761C0A9691
:100FB0000A9E8E4200D912E10668002E1AD50A9EBA
:100FC000761C0A960A9E8E4200D908E10668002E19
:100FD00010D50A9E761C0A960A9E8E4200D9FEE023
:100FE0000668002E06D50A9E761C0A960A9E8E4238
:100FF000D8D9F4E0069D2E680768BA4D2F40039DAE
:101000002F430760049D2E40B2180668002E24D599
:101010000A9E761C0A960A9E8E4200D9DFE0066878
:10102000002E1AD50A9E761C0A960A9E8E4200D978
:10103000D5E00668002E10D50A9E761C0A960A9EF8
:101040008E4200D9CBE00668002E06D50A9E761C9B
:101050000A960A9E8E42D8D9C1E0069D2E6807687E
:10106000A04D2F40039D2F430760049D2E40B218D2
:101070000668002E24D50A9E761C0A960A9E8E4289
:1010800000D9ACE00668002E1AD50A9E761C0A9696
:101090000A9E8E4200D9A2E00668002E10D50A9E54
:1010A000761C0A960A9E8E4200D998E00668002EA9
:1010B00006D50A9E761C0A960A9E8E42D8D98EE0E4
:1010C000069D2E680768874D2F40039D2F430760BC
:1010D000049D2E40B2180668002E21D50A9E761C6B
:1010E0000A960A9E8E427AD80668002E18D50A9E65
:1010F000761C0A960A9E8E4271D80668002E0FD57D
:101100000A9E761C0A960A9E8E4268D80668002EB1
:1011100006D50A9E761C0A960A9E8E42DBD95EE0B0
:10112000069D2E6807686F4D2F40039D2F43076073
:10113000049D2E40B2180668002E21D50A9E761C0A
:101140000A960A9E8E424AD80668002E18D50A9E34
:10115000761C0A960A9E8E4241D80668002E0FD54C
:101160000A9E761C0A960A9E8E4238D80668002E81
:1011700006D50A9E761C0A960A9E8E42DBD92EE080
:10118000069D2E680768574D2F40039D2F4307602B
:10119000049D2E40B2180668002E31D50A9E761C9A
:1011A0000A960A9E8E421AD80668002E28D50A9EF4
:1011B000761C0A960A9E8E4211D80668002E1FD50C
:1011C0000A9E761C0A960A9E8E4208D80668002E51
:1011D00016D50A9E761C0A960A9E8E42DBD908987E
:1011E00007990870A06D1021014302208143A16579
:1011F000059D28460BB0F0BDFC7FFFFFE8FFFF7F99
:10120000069909689E68374D2E4001252E439E6041
:10121000049E31408918C9081A69920F29D10F22FA
:101220009204DB4B1B6813409A0C072A21D3D21E71
:10123000012393400993099A52080992099A002AB6
:1012400017D0099A521E0992099A002A11D0099AB8
:10125000521E0992099A002A0BD0099A521E09922D
:10126000099A002A05D0099A521E0992099A002A61
:10127000E7D1069B1A68049EB2430A431A600168CC
:10128000184A114002273943016001F0F5FA06902F
:1012900020688168C907029E0FD1C168019A114375
:1012A000C160A06D01210143B94334E60380000011
:1012B000FFF102008168C907EFD001F0DDFA06995D
:1012C000411A20680329F5D38168C907F2D0A06DBF
:1012D00010210143A165E06D2843E06528460BB06D
:1012E000F0BDC046E8FFFF7FF0B589B00025089546
:1012F0005422825C012A03D10224204609B0F0BDA9
:101300000646543601243470026893685B0714D48F
:1013100004694B68022B18D1042004439A48844284
:101320006FD19848C0430B68D9430143906A084085
:1013300090620024002B75D567E0816D20220A435E
:1013400082653570204609B0F0BD079606930426E5
:1013500034438C4B8C4FBC4268D10F683B40906A41
:101360001843906238025369834389680140874873
:101370000840184350610024002F04D4079E3570A4
:10138000204609B0F0BD012681483B46076807208A
:101390008205394611407F480293834200D08CE099
:1013A000F0053B46034000D087E0794F3B6893430C
:1013B0001943014339607A4800687A4906F086FA91
:1013C0000C2141430C31089108980028D6D0079E83
:1013D0000898401E08900898002823D00898401EBE
:1013E0000890089800281DD00898401E089008987A
:1013F000002817D00898401E089008980028E7D1C8
:1014000010E00B680024002B0CD5FB480168624AF1
:1014100093426ED0614A93426ED05E4A934201D1AC
:10142000052267E03570204609B0F0BD02960595AB
:101430001F27069C27400F2500950397BD40046E8B
:101440000195AC4304940F681F424ED0FB07059DE5
:101450002C4663D1BB075CD47B075CD43B075CD4D0
:10146000FB06029C5AD4BB066BD47B066BD43B06AE
:101470006BD4FB056BD40297BB056AD4029B5B055A
:101480006AD4029B1B056AD4029BDB046AD4029BCC
:101490009B046AD4029B5B046AD4029F3B04009CB9
:1014A000059D3BD4FB0366D4029B9B0366D4029F3D
:1014B0007B03DB1712241C4019E03748029B834250
:1014C00003D130063B46034008D03448029B834298
:1014D00000D053E7B005074000D04FE7C64F3B6848
:1014E000934319430143396048E77B00DC0E059DB7
:1014F00014E00322920501E00322D20511400722E5
:10150000920503689343591801603570204609B06D
:10151000F0BD012402E0022400E00324039EB44055
:10152000049B1C430466069B9B08C069984200D834
:1015300018E70198C043936A0340B800000FB04019
:101540000EE70524EAE70624E8E70724E6E708248F
:10155000E4E70924029FCAE70A24029FC7E70B2495
:10156000029FC4E70C24029FC1E70D24029FBEE73F
:101570000E24029FBBE71024029FB8E71124029FAC
:10158000B5E7C046FFFF07000400008000FFFF072B
:1015900008270140001000B0004000B8002000B44F
:1015A00008000020400D030070477047704700009E
:1015B000F0B589B0044600200890002C77D0079041
:1015C000A06D002807D125465435204600F016F9B5
:1015D00000202870E06501273D072668B068C0003C
:1015E00027D4B0687F4901402943B1607E48006834
:1015F0007E4906F06BF94000801C0890089800288E
:1016000017D00898401E08900898002811D0089814
:10161000401E0890089800280BD00898401E08909B
:101620000898002805D00898401E089008980028BF
:10163000E7D1B068284208D1A06D10210143A1650F
:10164000E06D012107910843E065B0680421014085
:10165000A26D102002405118A16D2BD106900F20D1
:10166000C7433A46F33A1140891CA165B168C907DE
:101670007DD10390049727462037216B4A1E914164
:101680000D03A168227E92030A43617EC9031143C0
:10169000A27E50030843E36803432B430120C507A0
:1016A000216900290590029509DAA94308E0012083
:1016B00009B0F0BD0143A165384609B0F0BD410550
:1016C0000B43387B45001D433878012809D1002A97
:1016D00011D0A06D20210143A165E06D059908435B
:1016E000E065626A002A0CD0072080010240A16AEE
:1016F0001143294306E0059800040543626A002A65
:10170000F2D12946F0683A4A02400A43F2600320C7
:10171000820763681D461540E16C387F01280ED1B1
:10172000206C0090676CA06C0190009807430198B2
:1017300007432F430F43059807433D4600E00D4301
:10174000049F30692B49014029433161029883424B
:1017500003990CD093420AD005988007834206D0A3
:101760008804034024490A688243D01808607069DD
:1017700007229043656B284370617069702188432C
:10178000A16B09010143716121690123580581425F
:1017900003D000290BD1B06A07E0B06AE06980008D
:1017A0001C301C2101408F40206E3843B0627069AC
:1017B0001040A8420AD10020E065A06D012101433C
:1017C00002208143A165079809B0F0BDA06D06997C
:1017D000084302218843A065E06D1843E065184680
:1017E00009B0F0BDE8FFFF6F08000020400D0300C6
:1017F0000102DEFF02FCFF1F08270140F0B587B0A1
:10180000044600260696059600681E49884201D0C7
:1018100007B0F0BD012738051B49CA680243CA60FA
:10182000CA68024001920198086838430860086855
:1018300038400190049603200390182002900198EC
:1018400005200090000702A900F048FF0F4D2E620E
:101850002020B9023A0280230D4F2F60009F6F6055
:10186000AE60EE602B616A61A961E861284600F014
:1018700047F9002801D0FFF7E9FAAC62256507B007
:10188000F0BDC0460024014034100240680600202C
:1018900008000240F0B581B00E46044601688B682E
:1018A00002205B071BD400925422A25C012A16D0AE
:1018B0002746543701253D70C868C0070AD188689B
:1018C000C00704D08868194A0240901C8860C86824
:1018D0002843C8602046FFF745FA002801D001B030
:1018E000F0BDA06D1249014028020818A065002033
:1018F000E06521681C220A603870206D0D4A0E4B8D
:101900000E4DC562036342634A68102313434B6064
:1019100040313246009B00F087F921688A68034B0A
:1019200013401A1D8A6001B0F0BDC046E8FFFF7F7A
:10193000FEF0FFFFDB0C0008F50C00085F0C000850
:10194000B0B500282AD0014624314A78022A27D18E
:10195000046822680E239A432260826C15682D4B1E
:101960001D4015602568012295432560446C1C25A7
:1019700025401446AC40056C6C60C46C056D656018
:10198000446D002C05D025681D402560836DC06D19
:1019900058604A70002000220A70B0BD0120B0BD1E
:1019A0000422C263012000220A70B0BDB0B5014616
:1019B00024314A78022A29D103681A680E24A243E6
:1019C0001A601C68012294431C60846C2568114BCA
:1019D0001D402560446C1C2525401446AC40056C18
:1019E0006C60C46C056D6560446D002C05D0256885
:1019F0001D402560836DC46D5C6000240C704A70CE
:101A0000816B002900D088472046B0BD0421C16306
:101A10000120B0BDFFFEFFFFF0B585B0016C039162
:101A20000B6806683268042502922A4051425141EF
:101A30000490426C18461C2313402F469F403A46A0
:101A40000240544254410C432ED0019601220227F9
:101A5000029E314639404D424D419F40074200921F
:101A600000D02A46049C25462435002A2CD0082183
:101A70000E4077427741D8400007009800D538469D
:101A800000281FD1019A10680E21884310600120A0
:101A900001469940039A5160E06300212970687003
:101AA000616B00290CD10DE03068800602D43068EB
:101AB000A843306003984760049C216B002901D043
:101AC0002046884705B0F0BD019B1868800605D404
:101AD00018680A2188431860012068700020287067
:101AE000054A10467C30834200D9044A1760E16AF7
:101AF0000029E5D1E6E7C0460400024004040240A4
:101B0000F0B587B0002812D00446014624310220E7
:101B1000069148703C480146083126688E4200D242
:101B20003A4820648E42039104D33A4803E00120EE
:101B300007B0F0BD364880191421029105F0C6FEA9
:101B40008000059060643068334901403160A768C7
:101B5000E168254610352DCD0195256A0495084389
:101B6000104318430199084304990843316801431D
:101B7000049739433160294D28468030E064FC20C9
:101B800030400838029905F0A1FE039FBE4200D301
:101B9000C01D1F22024001210B4693402365BE4217
:101BA00000D31C3505982D18A5648A031C48049E93
:101BB000964206D100222A606260036015461346F1
:101BC00018E062687F2616402E600360531E0022D4
:101BD000032B154613460DD8731E9A008218002554
:101BE000D56703251D400B46AB400E4D2B607C3264
:101BF000BC3005460020E0636265A565E365069A92
:101C00001070517007B0F0BD0004024000000240A7
:101C1000F8FFFDBFF8FBFDBF0F80FFFF000802408B
:101C20008408024044090240F0B583B004462420F1
:101C3000205C012802D1022003B0F0BD25462435E6
:101C4000012028706E78012E2DD10092022068703C
:101C50000020E06325682A6801260296B2432A60C4
:101C6000E26C266D5660626D0192002A02D0A26D70
:101C7000E66D5660226C666C1C273740029EBE40A3
:101C800056606B60A368102B009E324600D00A4657
:101C9000AA60102B00D03146E9602968226B002A27
:101CA00007D00E220AE0002129708021E16303B0F1
:101CB000F0BD0422914329602A680A21114329605A
:101CC00002990902A26C1368DB0302D513680B4367
:101CD0001360019B002B02D01A680A431A6029681E
:101CE000029A1143296003B0F0BD0000B0B504466C
:101CF00000F0C2FD0546601C02D0044800780419BB
:101D000000F0BAFD401BA042FAD3B0BD0000002095
:101D1000F0B582B05C23C35C5B1E012B00D992E05E
:101D2000019207230E461E400068856D01222F4652
:101D3000009217409B01002E01D0002F22D08C066C
:101D4000640F02D002242C401CD0194202D004247B
:101D50002C4017D0CC04240F02D008242C4011D0E2
:101D60000C04640F02D010242C400BD08C03A40F61
:101D700002D020242C4005D00C02A40E06D0402412
:101D80002C4003D1C46D01222243C2657A427A41BC
:101D9000744274411443012C40D102222A4056421D
:101DA00056418A06520F009F00D03746012F35D189
:101DB00004222A40564256411942009F00D037461D
:101DC000012F2BD108222A4056425641CA04120F35
:101DD000009F00D03746012F20D110222A405642C2
:101DE00056410A04520F009F00D03746012F15D1EB
:101DF00020222A40564256418A03920F009F00D06B
:101E00003746012F0AD1402215406E426E410A0228
:101E1000920E00D00096009A002A03D1C26D0224CF
:101E20001443C4650446DC340A06019D02D52268C9
:101E30002A432260C03B194202D062682A43626092
:101E40005430002202E060300122022103680B437B
:101E50000360104602B0F0BDF0B586B05C23C35CF1
:101E6000022B17D10368C4241C59A4021BD4C43309
:101E70000F684C688D6805950D691E68B603B60F2E
:101E8000002C049317D03D43059B1D430124A40758
:101E9000254314E00246006E08210143116601212A
:101EA000084606B0F0BD01214A02036E13430366E3
:101EB000084606B0F0BDBC042543059B1D434824DD
:101EC00003967443CB6802934B6901938B6900932B
:101ED000CF690E6A0590436D1D511D1933063B43B2
:101EE0000098034301980343029804041C436C6068
:101EF000CB68002B13D0083500267A489319DC787C
:101F000024069F783F043C195B781B02E318945D1C
:101F10001B19AB51CB68C35C361D9E42EED301202A
:101F200003998840059988650499886000210846CE
:101F300006B0F0BDB0B55C22825C521E012A10D8FA
:101F40000A68002A13D00D1D3CCD496964072C4353
:101F5000406CD200145010189A070A4342600020C7
:101F6000B0BD016E02220A4302660120B0BD0D1D04
:101F70003CCD49699B07E4061C432B0423430B43D8
:101F8000006C91000B500020B0BD704770470000FE
:101F9000F0B584B003930B465C21415C02290BD160
:101FA00004688034402B0FD12169090714D02169BE
:101FB000C90119D400211AE0026E082111430166FB
:101FC0000121084604B0F0BDA169090704D0A16948
:101FD000C90114D4002115E001210A02036E134344
:101FE0000366084604B0F0BD21688905C90F24695D
:101FF000A405A40F641801900146483109E0216846
:10200000C905C90FA469A405A40F6418019001466D
:102010004C314825009465430F68E9590126B407FF
:102020000C405460EC592E49029301D00C4001E061
:10203000E400640D1460EC59491C21409160E95999
:10204000F4070C401461EB199C88D461DD880F24DF
:102050002C40D4605D6837052F4057615D68760578
:102060002E409661DD797F262E4016625D68ED0F69
:102070005562002C21D000261A4F9C19257A03980E
:102080008555D5687D5D711CA94216D203988519C6
:10209000617A6970D168795CB01C88420DD2A07AEF
:1020A000A870D068385CF11C814206D2E07AE870F2
:1020B000D068385C361D8642DFD3019800689430C2
:1020C0000299402905D1009901600021084604B019
:1020D000F0BD009981600021084604B0F0BDC04603
:1020E000FFFFFF1F1C7E00087047F0B58DB004464F
:1020F0000068056D416D0B91076D416D0191016D9A
:102100000891416D0291016D0691416D0491016D3F
:102110000591416D0391426D402107920A4053425F
:102120005341026D0C920A40564256411E4307220B
:102130000992002E03D101652046FFF7D5FF0B98C9
:102140000540099880020090012101200A900002B8
:10215000079E32460240534253410C9AD2050B91DE
:102160000A4600D51A4601990F4000990D40002AF1
:102170000AD12268D82153581146D8318968106590
:102180001940204600F0A6FA0898029908400890E5
:10219000382109980740002D08D0206805652046A1
:1021A0000E46294600F098FA3146079E089D0D40DC
:1021B000002F05D0206807652046394600F038FA20
:1021C000002D05D0206805652046294600F068FAF4
:1021D0000A98400232460240514251410C9A9205FF
:1021E0000B9A059F00D50A46002A04D1216808658C
:1021F000204600F072FA8025314629404842484185
:102200000C9909060B9900D5014600290AD12068CE
:10221000D42142580146D4318968056511402046D1
:1022200000F059FA0A9840033246024051425141A7
:102230000C9A92040B9A00D50A46002A04D1216810
:102240000865204600F045FA0A98C003324602406D
:10225000514251410C9A12040B9A00D50A46002AA9
:1022600004D121680865204600F032FAF121039874
:102270000740099842040A9880030640734273415C
:102280000C9E760400D50B93069E049B1E40090409
:1022900017400B9A002A04D122681065206E28434B
:1022A00020660E40002F05D020680765204639467D
:1022B000FFF76CFE002E04D020680665206E3043C8
:1022C0002066206E002802D02046FFF75EFE0DB08B
:1022D000F0BD0000F0B585B000281CD004460646CD
:1022E0005C363078002804D100207070204600F061
:1022F0004BF9206881691027B943816100F0BCFA6D
:10230000054620688169090708D500F0B5FA401B29
:102310000B28F6D313E0012005B0F0BD816901223E
:1023200004921143816100F0A7FA05462068816993
:10233000C9070CD100F0A0FA401B0B28F6D3216E80
:102340000120014321660321317005B0F0BD816990
:1023500002220A438261B349884202D16168854AF8
:102360001160217C491E4A1E9141890182694023E6
:102370009A4351188161617C491E4A424A41910346
:10238000049DAA038369934359188161A17C491E66
:102390004A1E914109032A038369934359188161B5
:1023A00003210902836903918B43A16801910B43C7
:1023B00083618369A425AB4383610369BB430361E4
:1023C000E368002B12D0012B0CD0022B08D08169BE
:1023D00080250D43856105693D430561032B05D1CA
:1023E000202300E0042385691D438561029603468E
:1023F00080337F256D0667692646183646CE490626
:102400004919FF25ED43120252190A43711E114367
:102410003A04594FD2190A43C2610399019A8A4278
:1024200012D1616AA26A0092E66A226B01920904E3
:10243000C91936027519009A521E2A43019D2D01B1
:10244000103D15430D43C560E16B1A6C0A431A64D5
:102450001F2109041A688A43616B0904114319603A
:102460004649884201D0474A00E0454A104670304C
:102470003121C90051181546B0350E46F036226498
:102480006064A564E164D831216566650F200006AB
:1024900019688143A06B00060843186003988118EF
:1024A00050310020106650669066D0661067506705
:1024B0009067D067106450649064D0641065506574
:1024C0009065D065106250629062D0621063506374
:1024D0009063D063106050609060D0601061506174
:1024E0009061D06113465433D86713465033D86790
:1024F00013464C33D86713464833D86713464433E2
:10250000D86713464033D86713463C33D867134621
:102510003833D86713463433D86713463033D86717
:1025200013462C33D86713462833D8671346243311
:10253000D86713462033D86713461C33D867134631
:102540001833D86713461433D86713461033D86747
:1025500013460C33D86713460833D867131DD86762
:10256000D4328A429DD32066A065029E04993170C0
:1025700005B0F0BD006500400000FFFF00680040AE
:1025800050B7004000B40040F0B59BB0044602A82C
:10259000001D4821FDF7A3FF20682249884201D091
:1025A0001BB0F0BD0024159401256806029002A816
:1025B00000F02CFA002801D0FEF748FC1A48816888
:1025C00018952A0311438160816811400191019996
:1025D0000168042211430160006810400190032744
:1025E0001A971994022517951020169001980F48F4
:1025F00016AE314600F072F81A9719941894179590
:10260000202016900948314600F068F81525284624
:102610002146224600F09EF9284600F08FF91BB0B3
:10262000F0BDC04600640040341002400008005075
:1026300070B586B0194C22462432402104ABFFF716
:10264000A7FC002801D006B070BD606AA26A0090A5
:1026500001218B079A4202D1C90708430090206BE1
:10266000C1B2082900D908206D462873C2B2281DBE
:1026700004A9FDF77FFD00266E7300F0FDF87D21B3
:10268000CA0031463346FDF7CEFD02460B464C34B8
:102690002046294602F0F8FF06B070BD8C010020EC
:1026A00070475C21415C01290CD101465C3102225A
:1026B0000A7001688A6901239A438A6100210166D0
:1026C00008467047016E04220A43026601207047E3
:1026D000704770477047704770477047F0B589B0D2
:1026E00006900B68002B00D1B6E05C48069A824247
:1026F00002D00846052501E0084604250B210907FC
:10270000069A54180A21CC410094042C00D3009559
:1027100000273E463D463C46014607900EE02943D1
:10272000059D504801600799641C0B681846E040FD
:10273000BF1C361D0835002800D18DE00120A040C7
:1027400003400293F0D0059504960B4603263146CC
:10275000B940C9433A465F683D4635406B1E012B80
:1027600008910397019211D806998B68089E33400F
:10277000079EF66896401E438E60FB06DB0FA34063
:102780004E6886431E434E60089906E0032D04D12F
:1027900035460799049E019F1FE0069AD0680840BD
:1027A00007998B68019FBB400343D360022D049EB1
:1027B00013D11C2030400F218140E3089B00069A72
:1027C000D3181D6A8D43079909698140294319620D
:1027D00007994868032503900540BD40069A106894
:1027E000089B18402843106003988003800F059DC4
:1027F0009AD0182028400A460F21814003232546FD
:102800009D43174E73191D6E8D43009981402943D6
:10281000196631685068C30202D5029D294301E060
:10282000029DA943049E0E4B19605968830201D58D
:10283000294300E0A9430A4B59600A4949688303C8
:1028400001D5294300E0A943064B59601968C0032C
:1028500000D564E7A94363E709B0F0BD001000505C
:102860000018024080180240002A02D0182281502D
:102870007047282281507047054800687047C0465D
:102880001F48007802490A68101808607047C0465F
:102890000C08002010B50124200208490A680243F0
:1028A0000A60032000F00CF8002801D0204610BD7B
:1028B00000F028F80024204610BDC0460020024049
:1028C00070B50F4E31780124002916D005467D20C1
:1028D000C00004F0FBFF01464A48006804F0F6FF20
:1028E00000F0B2FD032D08D8002806D10024E043F3
:1028F0002946224600F02EF87560204670BDC0467D
:102900000000002080B582B00B48416801221143CD
:1029100041604168114001910199110702680A4321
:10292000026000680840009000980320400200F018
:1029300081FD02B080BDC0463C100240002805D495
:102940001F21084001218140014801607047C046B5
:1029500000E100E0002805D40322034693430A4A1D
:102960009A1803E00C220240064BD2188007C00ED2
:102970008901C9B28140FF2383401068984308430E
:102980001060704714ED00E000E400E0F0B581B0A5
:10299000032569021A4E3246143A13688B430343E7
:1029A0001360012461020022884226D11548016883
:1029B0003068400521D50092A702062048431249FD
:1029C00004F084FF201A022816D0316839420FD053
:1029D000012811D0316839420AD000280CD0316862
:1029E000394205D0001D032806D031683942EAD1AA
:1029F000009A104601B0F0BD2A46104601B0F0BD65
:102A0000147000400800002040420F00F0B587B06D
:102A10000446012630020590A0788007A94F04964D
:102A200005D4002003902068C10751D156E030073B
:102A3000394618390191096802900140009108D186
:102A4000019A1068029908431060106808400690C7
:102A500006989E4E3068059908433060FFF70CFFDA
:102A6000054630680599084206D1FFF705FF401B6F
:102A70000228F6D903201EE0032003900102B86863
:102A8000084011D0616C88420BD0B86804990904E1
:102A9000BA680A43BA60BA688A43BA608A49084089
:102AA000B860C00700D0FFE0B86887490840616C93
:102AB0000143B960002003900098002804D1019AD6
:102AC0001068029988431060049E2068C10705D0F1
:102AD00039680322914362680A433A60810712D43D
:102AE000410718D4C1061ED4C10425D481052BD4B6
:102AF000410532D48106764A39D441063ED43106A6
:102B0000430345D453E039680C229143A2680A4339
:102B10003A604107E6D5396830229143E2680A43BA
:102B20003A60C106E0D5032189023A688A432169E7
:102B300011433960C104D9D53968634A11406269CB
:102B40000A433A608105D3D5032189043A688A4350
:102B5000A16A114339604105CCD5032109053A68C2
:102B60008A43E16A114339608106594AC5D53968FB
:102B70001140A3690B433B604106C0D50321890383
:102B80003B688B43E16919433960310643030ED535
:102B900003239B063D689D43266B35433D609E4263
:102BA000049E04D13B46483B1D680D431D60430411
:102BB00010D53B68474D2B40666B33433B606B1C25
:102BC0009E42049E06D133043D46483D2E681E4376
:102BD0002E60049E030305D53B684025AB43A56BDF
:102BE0001D433D60B30585020DD53D689D43E66BF1
:102BF00035433D609E42049E05D13D46483D2E68CA
:102C00000E432E60049E18420BD03B688B43256C0C
:102C10002B433B608D4204D13B46483B1D680D432E
:102C20001D6003050ED57B680325AB43256A2B4346
:102C30007B60012D06D133043D46483D2E681E437E
:102C40002E60049E83040ED57B680C25AB43656A19
:102C50002B437B60042D06D133043D46483D2E684E
:102C60001E432E60049E08420CD073037D681540FD
:102C7000A26C15437D609A4204D13A46483A1368E3
:102C80000B43136080010CD578680F4A1040E26C4A
:102C9000104378600598824203D1483F3868084362
:102CA0003860039807B0F0BDFFF7E6FD0646854D96
:102CB000B868800700D5F7E6FFF7DEFD801BA84265
:102CC000F6D9F9E654100240FFFCFFFF0070004007
:102CD000FFCFFFFFFFFFFF3FF0B583B00D4601219F
:102CE00000281BD0019102907548006807242040FD
:102CF000A84216D272490868A04328430860714E62
:102D0000FFF7BAFD07466E4800682040A84208D089
:102D1000FFF7B2FDC01BB042F5D90321084603B04E
:102D2000F0BD029E30688107914B0CD5410703D559
:102D300021031A680A431A600F2109021A688A439C
:102D4000B16811431960C0071BD15D48006820407D
:102D5000A8422CD95A490868A04328430860594F13
:102D6000FFF78AFD0646564800682040A8421ED05C
:102D7000FFF782FD801BB842F5D90321084603B056
:102D8000F0BD0298406803285DD8810001A2515827
:102D90008F46C046A52D00084B2E0008552E000872
:102DA0005F2E0008194608390968490559E0029A5A
:102DB000107840076E4B05D5200319688143D06811
:102DC0000843186018688006400F22D01A6838211E
:102DD0000A406848082A23D01A680A40102A5ED19F
:102DE000596803220A40032A00D0634859684906FB
:102DF000490F491C04F06AFD5D4949684904490EC0
:102E000048435B494968490F491C04F05FFD584B32
:102E100006E01846083800688004410F5648C8404C
:102E2000196889093C220A40274989581F220A400B
:102E3000D0402E49086025480068FFF741FD014653
:102E4000084603B0F0BD596D0AE019460839096813
:102E5000890306E0194608390968890101E0996D7E
:102E60008907019900D459E71968A1430143196002
:102E7000144FFFF701FD06463D4800683821014028
:102E800002984068C000814200D15EE7FFF7F4FC81
:102E9000801BB842F0D90321084603B0F0BD186882
:102EA0000840202802D10120C003B9E71868084073
:102EB000182801D00020B3E77D200002B0E7C0460B
:102EC0000020024088130000A47D000804000020B8
:102ED0000648006826490968890A1C220A400449F4
:102EE00089581F220A40D0407047C0460800002081
:102EF000E47D000810B51E4C20688006400F06D007
:102F0000226838210A401B48082A07D110BD083C16
:102F100020688004410F1848C84010BD22680A404C
:102F2000102A15D1616803220A40032A00D01248F2
:102F300061684906490F491C04F0C8FC61684904EE
:102F4000490E48436168490F491C04F0BFFC10BD9D
:102F500020680840202802D10120C00310BD20684D
:102F60000840182801D0002010BD7D20000210BDAF
:102F70000810024000366E010024F400F0B587B05E
:102F80000125002800D13AE2049505900078C00799
:102F9000FD4F2DD10598007880074DD40598007815
:102FA00000070DD5B86838210140182900D0CEE0BF
:102FB000386E800704D505988069002800D1A7E005
:102FC000059A1078400771D41078800600D5A3E0E8
:102FD0000598046A002C00D101E2B868382101404C
:102FE000102900D002E1012C00D071E1049D06E21D
:102FF000B868F968032422468A433821014010202A
:10300000484082185042504101256E04082943D09F
:10301000002841D1059841682804814208D0052242
:103020001204914200D0FCE0A9043A680A433A60D5
:10303000396801433960FEE0B96838200840102142
:103040004140FA6803252A4002235340CA185142DE
:103050005141002836D0002934D13868059AD1680A
:10306000002900D1F7E00721C90288431169014313
:103070003960012001023A680A433A608402FFF78E
:10308000FBFB06463868204200D006E1FFF7F4FB60
:10309000801B0228F6D9B2E13868304200D179E7C6
:1030A00005984068002800D074E7A8E1B868382186
:1030B0000140202962D1F86D800785D590680028ED
:1030C00082D125E039684905059B02D5D9680029D8
:1030D0001ED07F2109027A688A4359690902114387
:1030E000796000280DD10720C00239688143186932
:1030F0000843386038688004400FC749C140C7485A
:103100000160C7480068FFF7DBFB002800D145E7F6
:10311000049D284607B0F0BD38680121CC05059A0A
:10312000D2698905002A00D1A7E008433860FFF77B
:10313000A3FB05463868204200D049E7FFF79CFB17
:10314000401B0228F6D90325284607B0F0BD386E8B
:1031500005998969002900D1A9E001210843386651
:10316000FFF78AFB0646386E800700D528E7FFF791
:1031700083FB801B03250228F5D940E10120039041
:103180000107F86B0840029006D1F86B0843F8631A
:10319000F86B0840069006980191A2480068C005A7
:1031A00013D4039804029F49086820430860FFF77E
:1031B00063FB06469B480068204206D1FFF75CFB94
:1031C000801B03250228F5D919E105988068964CE3
:1031D000012806D0052800D0BFE0F86D0421014386
:1031E000F965F86D03990843F865C0E001252906E3
:1031F0003868039188433860FFF73EFB0646022C8F
:1032000000D08FE00295680604903868049908425F
:1032100000D1BBE0FFF730FB801B03250228F4D967
:10322000EDE03A6882433A60A8043A6882433A6023
:10323000002900D181E0FFF71FFB054638683042C6
:1032400000D0A7E6FFF718FB401B6428F6D92546F7
:10325000284607B0F0BD01210A02904338608C0275
:10326000FFF70AFB06463868204200D196E6FFF7D2
:1032700003FB801B0228F6D9C1E088433860FFF7C2
:10328000FBFA06463868204200D1A1E6FFF7F4FABF
:10329000801B03250228F5D9B1E07F200002796860
:1032A00081430598406900020843786076E6012171
:1032B00088433866FFF7E0FA0646386E800700D488
:1032C0007EE6FFF7D9FA801B03250228F5D996E0A0
:1032D000F86803210140059C626A914200D017E71B
:1032E00070210140A26A914200D011E77F210902BA
:1032F0000140E26A1202914200D009E71F2149040D
:103300000140226B914200D002E707214A060240A9
:10331000636B9A42049D72D149070840A16B8842B1
:103320006DD15CE06C063868204254D0FFF7A4FAF7
:10333000801B03250228F6D961E0FFF79DFA0546B8
:103340003868304200D125E6FFF796FA401B642822
:10335000F6D92546284607B0F0BDF96D039A91438A
:10336000F965F96D04229143F96500283BD0FFF718
:1033700083FA0646F86D800744D4FFF77DFA801B78
:103380000325A042F6D93AE000100240F868284927
:103390000140059E24367DCE0843104319020143A7
:1033A000214329433143F960386803990843386061
:1033B00002980007F9680143F960FFF75DFA0446D7
:1033C0003868049908420AD1FFF756FA001B032512
:1033D0000228F5D913E0F86814490140F960002586
:1033E000284607B0F0BDFFF747FA0646F86D80079C
:1033F00008D5FFF741FA801B0325A042F6D92846DD
:1034000007B0F0BD02980028059A00D0DCE5F86B03
:1034100001998843F863D7E50024F40008000020F0
:10342000040000200070004088130000FCFFFEEE46
:103430008C80C11103214902024A13688B43034364
:103440001360704700000140401E010E01D00120B2
:1034500070470749074A5060074803680B4003213B
:10346000890759180160002090600721116070479A
:10347000FFFFFF0010E000E020ED00E07047704724
:103480007047000070B53C22825C012A01D1022005
:1034900070BD02463C320223537000684568836861
:1034A000554CA04201D02E4604E00F263605B54308
:1034B0004E682E437025AE430D68354345604B4D35
:1034C000A84206DD4A4DA8420AD04A4DA84205D17D
:1034D00006E00124A407A04202D0484CA04204D137
:1034E0008024A34389681943816000201070012162
:1034F000517070BDF0B581B0002824D00446054657
:103500003C3507463E37064644366878002804D1E5
:1035100000202870204600F019F80220687001CCC5
:10352000214600F083FE0120307138707870B87049
:10353000F8703871787130707070B070F0706870B9
:10354000002001B0F0BD012001B0F0BD10B582B087
:1035500000682A49884201D002B010BD09480168BC
:10356000022211430160006810400190019810246C
:10357000002120460A46FFF7EDF92046FFF7DEF965
:1035800002B010BD3C10024010B53D21415C012944
:1035900015D101463D3102220A700168C868012236
:1035A0001043C860114881420BDD114881420ED0A2
:1035B000104881420BD01048814208D010E0012011
:1035C00010BD9007814202D00C48814208D1886822
:1035D0000B4B03400020062B06D01404A34203D05B
:1035E000086810430860002010BDC046FF07004077
:1035F0000008004000400140002C01400004004051
:1036000007000100F0B53C22825C012A01D10220B2
:10361000F0BD02463C32022353700468A0684E4B52
:103620000340A3600D6800234F2D1EDC1F2D37DDE6
:10363000202D39D0302D37D0402D00D087E0206AA2
:10364000256A0126B5432562A569F026B543CE68F3
:1036500036012E43A6610A25A84349680143216229
:10366000A0683E49014047316BE06F2D28DD012005
:103670004603B54240D00003854218461CD0702D49
:1036800065D1FF200002A568854348688E68C96837
:103690000643080230432843A060A068772139E040
:1036A000002D01D0102D52D1A0682C4901400D43AE
:1036B00007202843A0601846137001215170F0BD07
:1036C000502D29D0602D42D1206A256A1026B5439D
:1036D00025620F252D03A669AE43CD682D03354322
:1036E000A561A025A8434968090101432162A0689A
:1036F0001A490140673124E0FF252D02A668AE4338
:103700004D688F68C9682F43090239433143A1606E
:103710008003A168014314E0206A256A0126B543AD
:103720002562A569F026B543CE6836012E43A66111
:103730000A25A843496801432162A068074901405E
:103740005731A1601846137001215170F0BD01205E
:10375000137001215170F0BD8800CEFF88FFCFFFAC
:1037600070470000F0B583B004460068C5680227C2
:10377000294639404A424A410169029139404B4247
:103780004B41134313D16C49FE3101610121217773
:103790008069800703D02046FFF7E2FF05E020465E
:1037A00000F0CEF8204600F0CCF80020207701266B
:1037B00004222946114048424841029949073146AE
:1037C00000D50146032000020190002916D1009285
:1037D00020685949FC3101612777806901990842C5
:1037E00003D02046FFF7BCFF05E0204600F0A8F814
:1037F000204600F0A6F800202077009A08272946E6
:1038000039404842484102990907314600D50146EE
:10381000002913D120684849F83101612277C06935
:10382000800703D02046FFF79BFF05E0204600F00D
:1038300087F8204600F085F80020207710212940E5
:10384000484248410299C906314600D5014600293F
:1038500014D120683849F03101612777C069019996
:10386000084203D02046FFF77BFF05E0204600F02A
:1038700067F8204600F065F80020207701212940F4
:10388000484248410299C907314600D00146002903
:1038900006D120682849FF310161204600F052F826
:1038A00080272F40784278414121C901029A0A427B
:1038B000314600D00146002905D120681F49016129
:1038C0002046FFF7DCFD784278410299C905314670
:1038D00000D50146002905D120681749016120461D
:1038E000FFF7CCFD40212940484248410299490652
:1038F000314600D50146002906D120680E49C03165
:103900000161204600F0C0F820200540684268416F
:103910000299890603D4002E04D003B0F0BD0646F8
:10392000002EFAD120680449E03101612046FFF7FA
:10393000A7FD03B0F0BDC046FFFEFFFF7FDFFFFF26
:1039400070477047F0B581B000684049884201D0A7
:1039500001B0F0BD3E49888BC9888900081805214F
:1039600003F0B4FF044680B2FCF7BEFF3949FCF710
:10397000B9FE394904F036F9384904F033F90546FF
:10398000374904F02FF90146284604F02BF9064682
:103990003449284604F026F90146284604F022F965
:1039A00007463046294604F01DF93946284F04F0F1
:1039B000A9F806462C49284604F014F9314604F0CB
:1039C000A1F82A4904F09EF83862FC80786AFCF776
:1039D0008BFF396A04F05EF90446254904F002F9C8
:1039E000B96904F08FF82349096804F0FBF8796994
:1039F00004F088F8054678611F49204604F0F2F883
:103A0000294604F07FF805461C4C214604F059F87D
:103A1000002800D12C461A4E2046314604F051F8B9
:103A2000002800D134462046294604F033F9B86115
:103A30001449204604F066F8FCF704FF04463221DE
:103A4000FCF75EFD601AF88101B0F0BD0004004093
:103A50002801002000F07F450C02534000007A440A
:103A6000A0B6F8B0DA295FB69FC339BEE3964D43DE
:103A700000004842C40000200000C8420000FA4391
:103A800000409C450000C8417047B0B58421415CAE
:103A9000012901D10220B0BD0246843224215160A7
:103AA00001680B680C680125AC430C606C07A343EC
:103AB0000B60002141661170202050600846B0BDA7
:103AC00070477047F0B581B0054668352A7F012AF6
:103AD00002D1022001B0F0BD24222A6206683768B4
:103AE00032680124A243326007225206B36893432E
:103AF0000B43B360406E0028204615D00097B7688E
:103B0000B068400F2B49095C2B4A105CC00003F0E1
:103B1000DDFE04463801009F400F2649095C264A15
:103B2000105CC00003F0D2FE28806C80376000205B
:103B300028772021296201B0F0BDC046F0B581B0E0
:103B4000054668352A7F012A02D1022001B0F0BD66
:103B500024222A620668376832680124A243326050
:103B600007225207B36893430B43B360406E0028AB
:103B7000204615D00097B768B068400F0D49095C22
:103B80000D4A105CC00003F0A1FE04463801009FFE
:103B9000400F0849095C084A105CC00003F096FE1B
:103BA00028806C803760002028772021296201B0AE
:103BB000F0BDC046347E00082C7E00087047704778
:103BC00070470000F0B58BB003460268D469202727
:103BD0000125EE0231462F312140106809935C33F4
:103BE000089306929268202905970A9407920FD1AC
:103BF0000146394001231B071340C918044616D05B
:103C00000998416F002900D109E288470BB0F0BD47
:103C100031460F310C42044609D02B46CE49214093
:103C20002D076F1C079A1740791800D099E01022D1
:103C30000494214611404B424B410A9E31461140AB
:103C40004C424C4109980746C16E491E4D1EA94180
:103C5000214319433FD001250124A10507980140C4
:103C60004B424B413046F1022946069A00D519468F
:103C70000029059E00D105E1010608D58021049A9E
:103C80001140E205079B1340C91800D0B0E1402263
:103C9000049911404B424B414106294600D5194633
:103CA000002900D145E1A107049A11404A424A4146
:103CB0000102294600D51146002900D1A4E104994A
:103CC000002900DBA5E10024C10100D5A4E1002DFD
:103CD00000D0A4E1A5E1069802628068164640067D
:103CE00000D5D6E008994B8808884A88002A00D178
:103CF00095E1984200D192E10A93EFF310830122FB
:103D000082F310880924640139463D682F68A7436F
:103D10002F6083F31088EFF3108382F310880C6810
:103D2000A568C24F2F40A76083F31088059B089CAD
:103D3000236300234B67CB66EFF3108382F3108875
:103D40000A681468B443146083F3108802220A6777
:103D50000A9A801A82B208461146FFF7B1FE0BB0EC
:103D6000F0BD0297019503960A991E4619404B42F1
:103D70004B41310221404D424D411D43069A05D130
:103D800001211162089D6B6B0B436B630120079F40
:103D90003B46049003405D425D410A9881073146ED
:103DA00000D52946002906D1022111620898416BED
:103DB00004250D4345635D425D410A984107314644
:103DC0000ED5294600290DD1042111620898416BB6
:103DD00002230B4343630A980107099D15D505E0AB
:103DE0000029F1D00A980107099D0ED50298411EBD
:103DF0008841A106314600D40146012905D1082198
:103E000011620898436B0B43436304988106214079
:103E10004B424B410A98039908420DD01E46002E92
:103E2000089E0CD103981062716B05980143716371
:103E3000716B002907D1F2E0002E089EF2D0716B61
:103E4000002900D1EBE005980A9901400AD00199B8
:103E50000F4004403C4305D0696F002902D028463A
:103E600088472A68706B28210140926840200240F0
:103E7000511800D072E02846FFF7A2FE00207063C0
:103E80000BB0F0BD210511623846FFF798FE0BB06C
:103E9000F0BD089C606A006841688AB2002A00D1BF
:103EA000BDE023889A4200D3B9E03D4661800068B6
:103EB000800633D4EFF31081012080F310885D4A2F
:103EC00020322B681C6814401C6081F31088EFF3CB
:103ED000108180F310882A6893688343936081F38C
:103EE0001088EFF3108180F310882A6893684024CB
:103EF000A343089C936081F31088059921630021F6
:103F0000E966EFF3108180F3108828680268B243F5
:103F1000026081F31088606AFDF712FD02202867B5
:103F200020886188401A81B22846FFF7C9FD0BB08E
:103F3000F0BDEFF3108084F3108839680B68934369
:103F40000B6080F310880021B9670899CE6238466B
:103F500000F052F90BB0F0BD20010004EFF3108126
:103F6000049E86F31088092252012B681C68944332
:103F70001C6081F31088EFF3108186F310882A68A3
:103F800093682A4C1C40946081F31088E96E0129E3
:103F90000BD1EFF31081049A82F310882A6813681A
:103FA0001024A343136081F31088089C05992163B2
:103FB0000021E96669672968896849061FD5EFF31A
:103FC0001081049A82F310882A689368834393606F
:103FD00081F31088606A002811D015498163FDF7CC
:103FE000E5FC00281BD0606A816B88470BB0F0BDF0
:103FF000B96F002913D0384688470BB0F0BD28466A
:10400000FFF7DEFD0BB0F0BD3846FFF7D7FD0BB074
:10401000F0BDC10100D45AE62546002D01D00BB0F9
:10402000F0BD3846FFF74DFD0BB0F0BDFEFFFFEFD2
:10403000BD440008DFFEFFFFB0B5002830D00446C5
:10404000054684356868002804D100202870204681
:1040500000F028F824206860206801680125A94341
:104060000160A06A002802D0204600F05BF92046DB
:1040700000F0E0FC012811D00920C00221684A6844
:1040800082434A6088682A22904388600868012237
:1040900002430A60204600F0AFF905462846B0BD4D
:1040A0000120B0BDB0B59AB0044601A8001D4C2156
:1040B000FCF715FA20684D49884201D01AB0B0BD0E
:1040C0000424019401A8FEF7A1FC002801D0FCF70C
:1040D000BDFE0120800413498A6802438A608A6811
:1040E000024015921598086820430860086820402F
:1040F000009000241994189417940220169003201D
:10410000800215900098084815A9FEF7E7FA1D25CA
:10411000284621462246FEF71DFC2846FEF70EFCE7
:104120001AB0B0BD3410024000080050F0B581B0A4
:104130008C23C358202B12D1012400290CD0002A33
:104140000AD001231C038568A5420CD1CC070AD0F4
:104150000469002C07D11C46204601B0F0BD0224A2
:10416000204601B0F0BD0024C4669E0205682E43BF
:104170000D4FBE4204D100F0A9FD204601B0F0BDB4
:104180006D682D02F7D5EFF3108583F310889B0639
:10419000066837681F43376085F3108800F096FD86
:1041A000204601B0F0BDC0460084004010B5006854
:1041B0000E49884200D010BD0D4C217820790A2884
:1041C00007D01E2905D862184423D054481C2070FB
:1041D00006E02046443000224254227003F0AAF840
:1041E000211D04480122FFF7A1FF10BD0048004037
:1041F00028010020780700207047FEE7FEE770479F
:10420000704780B5FEF73CFB80BD704780B5024823
:10421000FDF76BFF80BDC046C806002080B5024890
:10422000FFF7A0FA80BDC0462C07002010B5046837
:10423000314B984207DC01229207904209D0314A63
:10424000904206D01DE02D4A904202D02C4A904266
:1042500017D1702294434A6822432B4CA04214DCAD
:10426000984207DC01239B0798421ED0254B9842B9
:104270001BD03EE0224B984217D0284B984214D0D6
:1042800037E02246204CA042EADD204B984206DC73
:104290001A4B984209D0204B984206D029E01C4B7B
:1042A000984202D01B4B984223D103231B029A430E
:1042B000CB681343802293434A691A4302608A6899
:1042C000C2620A688262164A82180A23DA41072A01
:1042D00006D801239340E122134201D0096901630A
:1042E000012141610269D20702D002698A43026159
:1042F00010BD1346DEE7C046FF070040002C01401A
:104300000008004000040040FF2B0140FF43014033
:1043100000480140004401400040014000200040AE
:1043200000D4FEBFB0B5816A0A070CD4CA0714D105
:104330008A071CD44A0724D4CA062CD48A0634D44B
:104340004A063CD44CE00122D20303685C689443E3
:10435000826B22435A60CA07EAD0012252040368E2
:104360005C689443C26A22435A608A07E2D50122FC
:10437000120403685C689443026B22435A604A0744
:10438000DAD50122920403685C689443426B2243AD
:104390005A60CA06D2D50122120303689C6894436E
:1043A000C26B22439A608A06CAD50122520303686F
:1043B0009C689443026C22439A604A0610D50122FD
:1043C0001305026854689C43456C2C4354609D421D
:1043D00006D103235B0554689C43836C23435360DD
:1043E000090607D50121C904026853688B43C06CD4
:1043F00018435060B0BD0000F0B583B004460646D7
:1044000084360027F760FEF737FA03462068016814
:1044100009071FD52848009001200290410500227D
:1044200020461D4600F0ECFC002811D0EFF3108070
:10443000029981F3108821680A6880239A430A60F0
:1044400080F31088202070600320377003B0F0BD27
:1044500020682B460068400725D5174800900125A5
:10446000A9050022204600F0CBFC00281BD0EFF36A
:10447000108085F3108809214901226813688B4355
:10448000136080F31088EFF3108085F310882168A3
:104490008A68AA438A6080F310882020B0600320D5
:1044A000377003B0F0BD20207060B060E76627670A
:1044B0003846377003B0F0BDFFFFFF0180B5806A5A
:1044C0000146563100220A8156214252FFF778FBFD
:1044D00080BD0000F0B581B0026801465C318B8878
:1044E0000C6B222C0DD1526A1340826D13804B88C5
:1044F0005B1E4B80921C82654A88002A07D001B05F
:10450000F0BD906908210143916101B0F0BDEFF366
:104510001083012282F310880924640105682E6843
:10452000A6432E6083F31088EFF3108382F3108884
:104530000468A5689543A56083F3108820230B6366
:10454000002343670367950204682543C14EB542C3
:104550000DD0646824020AD5EFF3108482F310882A
:10456000950606683768AF43376084F31088C46ED9
:10457000012C15D1C366EFF3108382F31088046811
:10458000256810229543256083F310880368DC6951
:10459000E40600D51A620988FFF792FA01B0F0BD6F
:1045A000FFF704FE01B0F0BDF0B587B00446016826
:1045B000C8690D688B6826465C36B788326B222A3C
:1045C00000D0B1E0059320210391B189002900D1E9
:1045D000B0E00399084000D1ACE001210598084003
:1045E00005900691080205400295049707E02046D1
:1045F000FFF7DCFD029DB806049F00D49AE0206816
:10460000416A3940A26D11807188491E7180911CE8
:10461000A165C769790738D06A426A41FB07069BE2
:1046200000D01346002B04D101220262736B1343A6
:104630007363059B5A425A41BB07069B00D513463C
:10464000002B05D102220262726B042313437363B1
:10465000059B5A425A41002906990CD5114600295A
:104660000BD104210162706B022101437163706BF5
:10467000002805D109E00029F3D0706B002804D090
:104680002046FFF79DFA0020706370880028B2D1A1
:10469000EFF31081012080F31088020223681D6867
:1046A00095431D6081F31088EFF3108180F310882B
:1046B00022689368DD4D2B40936081F31088039945
:1046C0003163002161672167830222681343D84D5B
:1046D000AB4218D1E26E012A89D1E166EFF3108175
:1046E00080F310882268136810208343136081F3DD
:1046F00010882168CA69D20600D508623188204630
:10470000FFF7DEF976E752681202E3D5EFF3108285
:10471000019280F31088830625682A689A432A60EC
:10472000019A82F31088D5E78869082202438A61DA
:1047300007B0F0BD70880028FAD0B1898842F7D25E
:10474000EFF31080012181F31088B84A521C2368CE
:104750009D6815409D6080F3108807486067EFF3FF
:10476000108081F3108821680A68039B1A430A604D
:1047700080F3108807B0F0BDD5440008F0B581B0D3
:10478000026801465C318B880C6B222C0ED1526A78
:104790001A40836D1A704A88521E4A80826D521CDC
:1047A00082654A88002A07D001B0F0BD90690821CF
:1047B0000143916101B0F0BDEFF31083012282F358
:1047C00010880924640105682E68A6432E6083F3CF
:1047D0001088EFF3108382F310880468A56895436E
:1047E000A56083F3108820230B63002343670367CE
:1047F0009502046825438E4EB5420DD064682402AC
:104800000AD5EFF3108482F310889506066837689E
:10481000AF43376084F31088C46E012C15D1C36692
:10482000EFF3108382F31088046825681022954303
:10483000256083F310880368DC69E40600D51A62FA
:104840000988FFF73DF901B0F0BDFFF7AFFC01B0FB
:10485000F0BDC04600840040F0B587B00446016852
:10486000C8690D688B6826465C36B788326B222A89
:1048700000D0B3E0059320210391B189002900D134
:10488000B2E00399084000D1AEE00121059808404C
:1048900005900691080205400295049707E020461E
:1048A000FFF784FC029DB806049F00D49CE02068BA
:1048B000406A3840A16D08707088401E7080A06DFD
:1048C000401CA0652068C769790738D06A426A41F0
:1048D000FB07069B00D01346002B04D10122026285
:1048E000736B13437363059B5A425A41BB07069B84
:1048F00000D51346002B05D102220262726B0423FD
:1049000013437363059B5A425A41002906990CD5FB
:10491000114600290BD104210162706B0221014371
:104920007163706B002805D109E00029F3D0706B2A
:10493000002804D02046FFF743F9002070637088F8
:104940000028B0D1EFF31081012080F3108802021B
:1049500023681D6895431D6081F31088EFF3108173
:1049600080F3108822689368304D2B40936081F368
:1049700010880399316300216167216783022268EF
:104980001343BB4DAB4218D1E26E012A87D1E166D9
:10499000EFF3108180F3108822681368102083439E
:1049A000136081F310882168CA69D20600D50862B5
:1049B00031882046FFF784F874E752681202E3D585
:1049C000EFF31082019280F31088830625682A682D
:1049D0009A432A60019A82F31088D5E788690822F1
:1049E00002438A6107B0F0BD70880028FAD0B1890F
:1049F0008842F7D2EFF31080012181F310880B4A2F
:104A0000521C23689D6815409D6080F31088FA4809
:104A10006067EFF3108081F3108821680A68039BB8
:104A20001A430A6080F3108807B0F0BDFEFFFFEF65
:104A300000840040F0B583B00446026810688B49DA
:104A40000140A0682369034365691D430D43E7697D
:104A50003D4315600320010353688B43E16819430C
:104A600051600126B3021343A56981498B4201902D
:104A7000029701D1294601E0216A29432046683086
:104A800095687C4F2F400F439760D56A0F218D4367
:104A9000616A0D43D5620025774FBA420DDC7B4F2A
:104AA000BA421FDC7C4DAA422ED07C4DAA4207465A
:104AB00052D17B4A126812092AE0704FBA4219DCBF
:104AC000714DAA42074628D06948824244D17448B1
:104AD00000688005820F73487A4412795200974427
:104AE00033276C6A6A4FBA4228D06A4FBA420746E7
:104AF00025D031E0624FBA42074620D0614DAA422C
:104B00002AD1674A126803E0654A1268920807468C
:104B10009207120F64A39D5823E0614800680005C6
:104B2000820F60487A441279520097440D0146443E
:104B3000FEF7E0F900280BD100268FE007464C482D
:104B400083420ED1002E05D0FEF7C2F90028F3D023
:104B5000616A32E0012681E0102500264448834244
:104B6000F0D00126F2030298904212D1082D00D90C
:104B700074E04C487D442D796D00AF44046F416F63
:104B80003A6F6F6F4000FEF7A3F9002835D0616AD5
:104B900036E0082D62D843487D442D796D00AF443E
:104BA000045D4B5D445D5D5D4A00FEF791F90028B0
:104BB0003FD0616A40E00120C00349003E4A515A9B
:104BC00002F084FE6268019951430126884245D370
:104BD0001103884242D8010E5508000200234019F3
:104BE0005941FBF738FB35494118354A914235D2D6
:104BF00031E0FEF77FF90028C9D100262EE01046EB
:104C000049002D4A515A02F061FE400061684A088D
:104C1000101802F05BFE0246103A2A498A421DD261
:104C200001400007400F084315E0FEF763F9002834
:104C3000BFD1002612E0104649001F4A515A02F027
:104C400045FE61684A08101802F040FE014610391E
:104C50001C4A914202D22168C86000261A48386076
:104C600000206067A067304603B0F0BDF369FFCF56
:104C700000840040FFF4FF11FF7F0040FF37014038
:104C8000003C01400038014000800040FF4B0040E4
:104C9000004C0040005000400044004000480040EC
:104CA000541002400024F400000000000400000042
:104CB0000200000008000000047E000800FDFFFF65
:104CC00000FD0F00F0FF00000100010070B55C2343
:104CD000C25281650021416703465C335A80846873
:104CE000002C0BD001252E07B4420CD02D03AC4272
:104CF0000ED10469002C04D13C4C0CE00469002C5A
:104D000008D1FF2407E00469002C03D03F2402E00F
:104D1000998001E07F249C80596322211963EFF37D
:104D20001084012181F310880568AE680E43AE60DF
:104D300084F310884C07456EA54202D19B899342AB
:104D40001CD902690B0384689C4204D1002A1FD03D
:104D5000294A426703E0284B4367002A1AD0EFF341
:104D6000108281F310880902006803680B43202138
:104D70001943016082F31088002070BD02690B03A3
:104D800084689C4213D1002A21D0194A426712E05C
:104D90001A4A4267EFF3108281F3108800680168B5
:104DA00020230B43036082F31088002070BD104B5A
:104DB0004367002A0DD0EFF3108281F310880B02B5
:104DC000046825681D43256082F3108801E0094AC4
:104DD0004267EFF3108281F3108809070068836847
:104DE0000B43836082F31088002070BDFF01000038
:104DF00059480008A94500087D470008D544000827
:104E0000F0B585B01F4615460E460368D969314096
:104E1000891B4A424A410021AA4222D10A9C002C05
:104E200022D00391611C24D1D9693140891B4A42A7
:104E30004A41AA4231D1D9693140891B4A424A418B
:104E4000AA422AD1D9693140891B4A424A41AA4221
:104E500023D1D9693140891B4A424A41AA42E3D051
:104E60001BE0084605B0F0BDFDF706FD032005B0C8
:104E7000F0BD402E049001D0802E14D1FDF7FCFC33
:104E8000C01BA0420CD8049800680168C06930407B
:104E9000801B41424141A942F0D0039805B0F0BDCA
:104EA000032005B0F0BD8430019001200090C002C5
:104EB000029006E0C8693040801B41424141A9424E
:104EC000EBD1FDF7D9FCC11B0320A1423FD80499C7
:104ED00009680A685207EDD5CA69120739D4CA6948
:104EE000029B1A42E6D0029A0A62EFF31082012175
:104EF00081F3108809235B01049C246825689D4385
:104F0000256082F31088EFF3108281F31088049BF0
:104F10001B689C682A4D25409D60049B82F3108885
:104F2000DA6E012A0BD1EFF3108281F31088196831
:104F30000B681024A3430B60049B82F3108820218C
:104F4000019CA1600022DA665A672270E16005B018
:104F5000F0BD08250D62EFF31081009880F31088F2
:104F600009225201049B1B681C6894431C6081F356
:104F70001088EFF3108180F31088049A1268936808
:104F80000F4C1C40049B946081F31088D96E01295A
:104F90000CD1EFF31081012282F310881A68136894
:104FA0001024A3431360049B81F310882021019AED
:104FB00091600021D96659671170D56005B0F0BDC8
:104FC000FEFFFFEF80B50248FEF7FCFD80BDC04646
:104FD00078070020F0B589B01C4602920546009182
:104FE000C88A964A01461140002705291ED0042987
:104FF00019D8002C17D0009A5218029B1B78D37630
:105000000123012C1F4600D80023032900D905E104
:10501000022C00D202E1029B5B781377022C00D9AC
:10502000D3E00023D2E0002C00D1FAE04E1F1C2177
:105030003046FBF757FA009840680028079401951E
:105040000CD03346012214460668002E1BD0A21C49
:1050500030680028F7D10D46641C16E06E68002EFB
:1050600000D1ABE0306868606889401C6881A9891C
:1050700082B2914200D2A88100223260009846603C
:10508000A74230D244E00D460646079818181C2166
:1050900002F01CFC401C80B2A1B288421AD9002D3B
:1050A0001DD1019948680028079C00D180E0034683
:1050B000006848604889401C4881898982B29142D1
:1050C00001D20199888100221A6033601E46A742EE
:1050D00009D21DE0079C2A46A74204D218E02A46BE
:1050E000079CA74214D3009AD08A55490140001961
:1050F000524B18404018D082012000B209B0F0BDD8
:105100000022026030600646089FB8B2A042EAD290
:10511000B9B2A142F9D20396B0180690029843188A
:1051200000260496059106E00120192A079C3A46BC
:1051300025D8A54223D20F461946985D069B9D1996
:105140002871B819401C0890A04201D3049800E0CF
:105150000120174692191A2A079C16D8089BA342C9
:1051600013D20B46881940786871B61C05997518DA
:10517000A542D9D30020192A079C3A46D9D90895C7
:105180000028019D039EBFD004E03A460028019DFF
:10519000039EB9D0686800280AD0016869606989EF
:1051A000491C6981AA898BB29A42A9D2A981A7E731
:1051B00000203060234800B209B0F0BD0020009903
:1051C0004860204800B209B0F0BD0123022702293F
:1051D00024D8032C22D3029B9B785377032C01D82D
:1051E000002300E001230327012917D8042C15D33D
:1051F000029BDB789377042C01D8002300E0012385
:10520000042700290AD1052C08D3029B1B79D377E8
:10521000052C01D8002300E001230527002B00D036
:1052200004E7074901400019044A1040401800995A
:10523000C882012000B209B0F0BDC046FF030000E3
:1052400000FCFFFFFDFF0000B0B50446EF20C105E4
:105250006004000902F0C6FC05468F20C1052846FF
:1052600002F02FFC002802D1FF20C0050543E00B0F
:10527000C0072843B0BD0000F0B595B0FD4C002834
:105280000CD01A9E002E09D01546413DEDB2AD0955
:10529000032D03D3012A04D1002B02D020B215B074
:1052A000F0BD002413941294858AEF00B942F5D220
:1052B0005518BD42059001D8154600E07D1A0598A5
:1052C000C0680A9000280296019200930394049506
:1052D00004D105980069002800D100E1FF200002F8
:1052E000109027293ED8079728200991411AE8B243
:1052F000814200D301460B91002937D0072209983B
:105300000146119211400B9A5318C20805988468FF
:10531000A0180F9000240E9310E0109AFA40D2B219
:105320001640EE40EA40E50812A8435D934333433C
:1053300043553C1979180E9B8B4217D00F46119894
:105340000740CE0825460540AF423A4600D82A46D7
:105350000F98865DBE400827BA1A5F1A9742DCD3C1
:105360001746DAE700200B902E4605E0049D0B98C7
:105370002E1A09994118079FF0B2421E0346934125
:1053800028220D920A9C002C68D0320666D0283F55
:105390002825E02F3A4600D3E0220C9252198A4287
:1053A0000D924DD906960A9407970991521A824296
:1053B00000D3024612A90892002A37D00998401B50
:1053C0000724C3082040089A121811920B9AD7B2EA
:1053D000FA088A180A99C918091D0E910F942740D6
:1053E0000FE0109BEB40DBB21940F140F340FE08A8
:1053F000945D9C430C439455EF19281811998142F0
:1054000014D005460F9B1D40C1083E461E40B542C4
:105410002B4600D833460E9C615CA9400825EB1A48
:10542000119C251A9D42DCD31D46DAE7069E089A98
:10543000B61A0B9880180B9009995118079F0A9C6F
:10544000F0B2421E034693412468002C06D00C9A09
:10545000BF1A32060D9A15469BD100E00D9A1646EA
:10546000059A1469002C73D0002B71D007220B9F72
:105470008D1B2B46134018181190F8B20F9217404D
:10548000C20812AEB218ED0860190E903D4611E048
:10549000109CFC40E4B22640EE40EC400846CD08AB
:1054A000515DA1433143515505463D18FB181198F4
:1054B00098424DD01F460F980740DE082946054008
:1054C000AF423C4600D82C460E98865DBE40082769
:1054D0003C1B1198C71AA742DAD32746D8E7E8B28F
:1054E000002800D1DAE60723CA08119319400C18E6
:1054F00005988368981810902346FF2210020F9099
:1055000000240E9310E00F9AFA40D2B21640EE40FB
:10551000EA40E50812AB585D9043304358553C19BA
:1055200079180E9B8B4213D00F4611980740CE0876
:1055300025460540AF423A4600D82A461098865D77
:10554000BE400827BA1A5F1A9742DCD31746DAE73B
:105550000498C5B2002D039C00D19FE6019C600712
:1055600007D0604207210140E00812AA135CCB403B
:105570001354092C009E13D2082C029A55D0002EE9
:1055800053D0611E12A800780246CA40D107029A81
:105590004BD00021C943A140084312A9087044E040
:1055A000212C01D3402000E02020029A112C00D2AF
:1055B0001020A04239D0002E37D0102C0ED8611EFA
:1055C00012A800880246CA40D107029A2DD00021B5
:1055D000C943A140084312A9088026E0202C0CD81A
:1055E000611E12980246CA40D107029A1DD00021BE
:1055F000C943A1400843129017E03F2C3CD8621EDB
:105600001298139F11903946FAF7FCFD029AC007D1
:105610000BD00020C04301462246FAF7E3FD029A70
:105620000F431397119901431291002E01D1012CC0
:1056300001D0082C05D8129810702C4620B215B055
:10564000F0BD102C05D8129810802C4620B215B051
:10565000F0BD202C05D8129810602C4620B215B051
:10566000F0BD13981299116050602C4620B215B00D
:10567000F0BDC046FEFF00000248C41F20B215B0B6
:10568000F0BDC046FEFF0000F0B5A1B015900F6858
:1056900080253D400220002D064601D03C04E60F47
:1056A0007C0F042C16D1119314961092FD4C0B7B99
:1056B000002B14D03E0A3806C01730407F221392C8
:1056C0001040002D12970ED17A06159D13D103229A
:1056D000164010E0C043C41F20B221B0F0BDE41F4B
:1056E00020B221B0F0BD159D2A78904200D080E014
:1056F000129A120CD6B20D91091D0A915918491E21
:105700000F7800211F910C911E910996B2B2149945
:1057100009048918139E129B1E40B304C918400641
:1057200008180F900B977BB2002B139621D42046BC
:105730000A382C6A002C18D00F9A216991427BD02C
:105740002468002C11D02169914275D02468002C66
:105750000BD0216991426FD02468002C05D02169BB
:10576000914269D02468002CE7D1044620B221B0D0
:10577000F0BD0E936C6800961EA92846149BA047A6
:1057800000283AD02C6A002C3CD00E9B0F9E20693A
:10579000B04251D02468002C11D02069B0424BD0C7
:1057A0002468002C0BD02069B04245D02468002C1E
:1057B00005D02069B0423FD02468002CE7D12C6985
:1057C000002C00D148E120682861E88A401CE8826A
:1057D000298B82B2914200D228830C9820606060AD
:1057E000A060E06026616061A061E061286A2060DD
:1057F00021E0083C20B221B0F0BDAA4C093C20B207
:1058000021B0F0BD2C69002C0E9B0F9E00D123E12E
:1058100020682861E88A401CE882298B82B2914284
:1058200000D228830C9820606060A060E060266150
:105830006061A061E0612C621F210E930B40E68A3B
:105840007004C00E0F931F1A119A109B00D52037B9
:10585000069708960F9E801B079100D52030059073
:10586000E068A1685F1A82410143636846D08E48B0
:10587000C01B0C98904141D30497A77E0D98407BA4
:105880000290C01B411E884101260E9900290396F3
:1058900000DA0C9E30430ED000208449049E711A19
:1058A000824106D30E98002803D5069880B21028AE
:1058B00024D3029873E0591E18468841059989B28D
:1058C0000129039900D8014600267848049F381A18
:1058D000B241039F384608D330460029069A07D0C4
:1058E000002F08D0002909D15BE00029069AF7D1E2
:1058F0000746002FF6D190B2102852D20120820222
:10590000501E089E06400F9880023618E682002B33
:1059100028D01868296919602B616060E98A491EDE
:10592000E98200281DD001682B690360286161604D
:10593000E88A401EE882002913D008682B690B60B2
:1059400029616060E98A491EE982002809D003685C
:105950002969016028616360E88A401EE882002BA3
:10596000D7D1E68A52483040E0820D9933464F7BCA
:10597000A7760E9800280CD44E4818409918079A1C
:1059800092020A401018E082464C0A3C20B221B034
:10599000F0BD3F20800203400893487B0023B842BB
:1059A0000BD11298C10040200B9D28404642464131
:1059B0000E9D002D05DA002704E0002420B221B05E
:1059C000F0BD0127CA0E37431DD01292089FF90B74
:1059D0000B9DAE06F60F8E420A9D41D17904C90E89
:1059E0000F9A8A4241D13E460E99002942D500289D
:1059F00040D10D9E307B0428159D5DD2FA4C0D3CA4
:105A000020B221B0F0BD109DA560119BE36016A9E6
:105A10001398C8768A760F9848761498087609986D
:105A2000C8820D98007B401EC0B2888217931695DD
:105A300000261A9619960A98189015988268904729
:105A400001208002E18A0818079989020140E18259
:105A5000344620B221B0F0BDE34C20B221B0F0BDFD
:105A6000E14C0B3C20B221B0F0BDDF4C0C3C20B22D
:105A700021B0F0BD2F460E990029159D47D400286E
:105A800045D10D9E317B28460C30491ECBB22146B4
:105A90003A46FFF79FFA002800D586E0A08A317BBE
:105AA000491E27E0FDFF000080841E0041420F00D8
:105AB00000FCFFFF0080FFFFCC4808990140E18215
:105AC0001098A0601198E060317B28460C30B71D1B
:105AD000C91ECBB221463A46FFF77CFA002800D512
