:020000040800F2
:10000000B00B0020290200083925000891230008C0
:1000100035250008E90500080D260008000000004D
:100020000000000000000000000000004125000862
:10003000F9050008000000003D25000845250008DE
:10004000430200084302000843020008430200087C
:10005000430200084302000843020008430200086C
:10006000430200084302000843020008430200085C
:10007000430200084302000843020008430200084C
:10008000430200084302000843020008430200083C
:10009000ED0500084302000843020008430200087F
:1000A000430200084302000843020008430200081C
:1000B000430200084302000843020008430200080C
:1000C00043020008430200084302000843020008FC
:1000D00043020008430200084302000843020008EC
:1000E00043020008430200084302000843020008DC
:1000F00043020008430200084302000843020008CC
:1001000043020008430200084302000843020008BB
:1001100043020008430200084302000843020008AB
:10012000430200084302000843020008430200089B
:10013000430200084302000843020008430200088B
:10014000430200084302000843020008430200087B
:10015000430200084302000843020008430200086B
:10016000430200084302000843020008430200085B
:100170004302000843020008430200080000000098
:10018000430200084302000800F002F800F03CF8C7
:100190000AA090E8000C82448344AAF10107DA45E2
:1001A00001D100F031F8AFF2090EBAE80F0013F0F8
:1001B000010F18BFFB1A43F001031847B4450000B4
:1001C000D4450000103A24BF78C878C1FAD8520745
:1001D00024BF30C830C144BF04680C6070470000C1
:1001E0000023002400250026103A28BF78C1FBD840
:1001F000520728BF30C148BF0B6070471FB504F0DD
:100200009DFA1FBD10B510BD00F0B4F91146FFF7FF
:10021000F5FF04F041F800F0D2F903B4FFF7F2FF64
:1002200003BC00F0D9F9000009488047094800479D
:10023000FEE7FEE7FEE7FEE7FEE7FEE7FEE7FEE796
:10024000FEE7FEE704480549054A064B70470000F3
:10025000F925000889010008B0050020B00B002036
:10026000B0070020B007002053EA020C00F06980BC
:100270002DE9F04B4FF00006002B1FBFB3FA83F5BA
:1002800003FA05F424FA05F65E4012BF1643B2FAEB
:1002900082F502FA05F4C5F120051EBF22FA05FC1D
:1002A00044EA0C04203556EA044C4FEA144418BFC3
:1002B000641C4FF000084FF00009904271EB030CF2
:1002C00039D3002919BFB1FA81F701FA07F6B0FA5C
:1002D00080F700FA07F6C7F120071EBF20FA07FCD7
:1002E00046EA0C062037B6FBF4FCA7EB0507103FE7
:1002F00007F01F0BCBF120062CFA06F60CFA0BFBCD
:1003000044BFB3460026202FA4BF5E464FF0000B2B
:100310005BEA060C08BF4FF0010B19EB0B0948EB29
:100320000608ABFB027C06FB02CC0BFB03CCC01B1C
:1003300071EB0C01C1E70B46024641464846BDE859
:10034000F08B13B5084318BF4FF0FF300146AFF3F1
:100350000080BDE81C40704740EA010370B59B0770
:100360002ED14FF00136042A2AD308C810C99D1B8C
:100370009D43121F15EAC61517D0D8B2E1B2401A34
:1003800050EA056110D198B2A1B2401A50EA054175
:100390000AD123F07F4024F07F41401A50EA052122
:1003A00002D1180EA0EB146070BDA342DBD018BAC6
:1003B00021BA884201D9012070BD4FF0FF3070BDD5
:1003C0000AB9002070BD10F8013B11F8014B63B170
:1003D000A3420AD1521E08D010F8013B11F8014B7C
:1003E0001BB1A34201D1521EEDD1181B70BD032ACF
:1003F00040F2308010F0030C00F0158011F8013B42
:10040000BCF1020F624498BF11F801CB00F8013B28
:1004100038BF11F8013BA2F1040298BF00F801CBEC
:1004200038BF00F8013B11F0030300F02580083AC3
:10043000C0F0088051F8043B083A51F804CBA0E81A
:100440000810F5E7121D5CBF51F8043B40F8043B6F
:10045000AFF30080D20724BF11F8013B11F801CBA4
:1004600048BF11F8012B24BF00F8013B00F801CB75
:1004700048BF00F8012B704710B5203AC0F00B8040
:10048000B1E81850A0E81850B1E81850A0E818508A
:10049000203ABFF4F5AF5FEA027C24BFB1E8185000
:1004A000A0E8185044BF18C918C0BDE810405FEA62
:1004B000827C24BF51F8043B40F8043B08BF7047DE
:1004C000D20728BF31F8023B48BF11F8012B28BFE3
:1004D00020F8023B48BF00F8012B70474FF00002A4
:1004E0000429C0F0128010F0030C00F01B80CCF146
:1004F000040CBCF1020F18BF00F8012BA8BF20F8B4
:10050000022BA1EB0C0100F00DB85FEAC17C24BF07
:1005100000F8012B00F8012B48BF00F8012B7047B1
:100520004FF0000200B5134694469646203922BF8C
:10053000A0E80C50A0E80C50B1F12001BFF4F7AFD7
:10054000090728BFA0E80C5048BF0CC05DF804EBB9
:10055000890028BF40F8042B08BF704748BF20F827
:10056000022B11F0804F18BF00F8012B7047704725
:1005700070477047754600F02BF8AE460500694697
:10058000534620F00700854618B020B5FFF75AFE05
:10059000BDE820404FF000064FF000074FF0000884
:1005A0004FF0000BAC46ACE8C009ACE8C009ACE8C1
:1005B000C009ACE8C00921F007018D46704710B5AD
:1005C0000446AFF300802046BDE81040FFF725BE8B
:1005D000004870471800002001491820ABBEFEE714
:1005E0002600020070470000FEE7000040F2C00055
:1005F000C2F2000000F0A0B97047000090F820207F
:10060000013A012A08D8006800F11402002013689A
:1006100019431160704700BF00F1240201204FF41C
:1006200080211368194311607047000010B590F8DD
:1006300020E0D0F800C0AEF1010EBEF1010FDCF8F1
:1006400008E011D81EF0E05F18D0CEF3016EBEF1C5
:10065000030F1DD100F1240101204FF400020B68AB
:100660001A430A6010BD00BF00F1240101204FF4BD
:1006700080220B681A430A6010BD00BF00F12401FC
:1006800001204FF400120B681A430A6010BD00BF2E
:10069000012000FA0EF01860886828B14B68CC6819
:1006A00044EAC303034303E00868CB6843EA4053CA
:1006B0000CEB0E10C0F880310B69C0F88431097D55
:1006C000012905D100F5C2710B6843F480730B60FA
:1006D0005168C0F88C11126800F5C071C0F888210B
:1006E000002001220B681A430A6010BDB0B590F8D3
:1006F0002020013A012A2FD846F20060C4F20000FF
:10070000026842F001020260026822F47C52026038
:10071000D1F814E0CC694A6A0368012C43EA02224A
:1007200002600EF01F024FF0010303FA02F2C369E8
:100730006FEA020C23EA0203C36113D02CBBC36827
:1007400003EA0C03C360CB688C8844EA034300EBE4
:10075000CE0423640B4611E0416A41F480214162DA
:100760000120B0BDC3681343C3600B688C8844EAA2
:10077000034300EBCE04236401F10C038C681B8857
:1007800043EA044300EBCE04636443688D6943EAA3
:100790000204D1F810E0096A002D08BF03EA0C0436
:1007A00044604369BEF1000F43EA020408BF03EA54
:1007B0000C040129446102D1C1691143C16101687E
:1007C00021F0010101600020B0BD00007047000071
:1007D00090F82020013A012A84BF00207047006869
:1007E0001022002908BF0C22805800F00300704737
:1007F00010B590F82040013C012C71D8D0F800C011
:10080000002977D0DCF81040A40777D00CEB011C4E
:10081000DCF8B0410CF5D87E14F004049460DCF8E8
:10082000B04119BFE4085460640D1460DEF8004064
:10083000002904F00204D460DCF8B44104F00F0491
:100840001461DCF8B441C4F307249461DCF8B441CA
:100850004FEA14445461DCF8B8211A70026802EBC4
:100860000112D2F8B8214FEA12225A70026802EB44
:100870000112D2F8B8214FEA12429A70026802EBD4
:100880000112D2F8B8214FEA1262DA70026802EB64
:100890000112D2F8BC211A71026802EB0112D2F8DF
:1008A000BC214FEA12225A71026802EB0112D2F8FF
:1008B000BC214FEA12429A71026802EB0112D2F88F
:1008C000BC214FEA1262DA71006814BF00F1100116
:1008D00000F10C01002020220B681A430A6010BDB1
:1008E00000F1240101204FF480220B681A430A60B2
:1008F00010BD00BFDCF80C40A40787D100F1240133
:1009000001204FF400120B681A430A6010BD00006A
:1009100090F820100139012984BF00207047006839
:10092000816882688068C1F38061C2F3C06211444B
:10093000C0F30070084470472DE9F04F81B00446C1
:1009400000684669D0F804908768D0F80CB0D0F8F9
:1009500010A0D0F81880F10704D1002530071DD46D
:1009600024E000BFF90710D00121BA07816009D443
:10097000780700F1AF80380700F1B680204600F01C
:1009800057FA02E0204600F055FA0025F80500F17C
:100990008780F80300F1B180300707D51BF0100005
:1009A00004D0206845F400751021C160700708D597
:1009B0001BF0080005D020680821C160204600F027
:1009C000B5F9B00706D52068C068800702D0204678
:1009D00000F0AEF9700607D51AF0100004D02068B8
:1009E00045F4806510210161B00608D51AF00800B1
:1009F00005D0206808210161204600F0E5F9F006E5
:100A000006D520680069800702D0204600F0DEF994
:100A1000B00308D519F0100005D0206810214160FE
:100A2000204600F0D5F9F00308D519F0080005D0EC
:100A3000206808214160204600F006FA300440F1A9
:100A40009B805FEA497040F1948006F4807008EA68
:100A5000102028435FEA8871014648BF41F0020137
:100A6000B20558BF01465FEA48700D4648BF45F0E1
:100A70000405700558BF0D46300540F17A8018F026
:100A8000700000F076801038000905286CD8DFE887
:100A900000F003595D61656945F0080564E000BF39
:100AA00020684FF48071BA0581600BD4780515D4A5
:100AB00038051DD4204600F0BFF9F8037FF56CAF70
:100AC0001BE000BF204600F0B9F9F8037FF564AFE2
:100AD00013E000BF4FF4006558E700BF05F500556F
:100AE000F8037FF559AF08E04FF480554EE700BF9B
:100AF00005F58045F8037FF54FAF20684FF480314E
:100B0000BA0381600AD4780310D4380314D4204681
:100B100000F096F930073FF541AF47E7204600F077
:100B200091F930073FF53AAF40E700BF05F50045C2
:100B300030073FF533AF39E705F5803530073FF52E
:100B40002DAF33E745F010050EE000BF45F020055E
:100B50000AE000BF45F0400506E000BF45F0800513
:100B600002E000BF45F480752068816921F07001C2
:100B7000816120680421416055B1606A40EA050145
:100B80002046616201B0BDE8F04FFFF71FBE00BF15
:100B900001B0BDE8F08F0000B0B5C8B1044690F8D0
:100BA000200010B9204600F071F82068016841F07B
:100BB0000101016000F032FA054600BF206841687B
:100BC000C90707D100F02AFA401B0B28F6D312E020
:100BD0000120B0BD016821F00201016000F01EFAA1
:100BE000054600BF2068416889070DD500F016FA58
:100BF000401B0B28F6D3606A052140F40030606288
:100C0000012084F82010B0BD217E0268012922F065
:100C1000800208BF80320260617E0268012922F0F2
:100C2000400208BF40320260A17E0268012922F022
:100C3000200208BF20320260E17E0268012922F012
:100C4000100218BF10320260217F0268012922F0D1
:100C5000080208BF08320260617F0268012922F0A1
:100C6000040208BF04320260D4E901C2D4E90335AA
:100C700061691A432A431143ACF101021143C16176
:100C800000200121606284F82010B0BD2DE9F043FE
:100C900085B040F60044C4F202040068A4F5D431E3
:100CA000884203D005B0BDE8F08300BF4FF00008D4
:100CB00043F63000CDF80080C4F20200016902273B
:100CC00041F00071016101696D4601F00071009110
:100CD0000099CDF8008001684FF0030941F0080148
:100CE00001600068092600F00800009000980120CB
:100CF0000090CDE9017020462946CDF80C9004966D
:100D000000F0B8F820462946CDE90077CDE9028900
:100D1000049600F0AFF814200021002201F032F810
:100D2000142001F01BF805B0BDE8F0837047000007
:100D30002DE9F04F81B000210446FFF749FD00285E
:100D40003ED040F27807C2F2000740F2E80907F10E
:100D50002C0507F1140607F11C0807F1200B4FF4CE
:100D60007A7AC2F2000904E020460021FFF730FD44
:100D700030B3788800210130788020462A463346F7
:100D8000FFF736FD0028EFD1D7E90C010429F861FF
:100D900004BF40F00040F861FA6B5846314687F8CE
:100DA0002820FFF769FB002087F8290000F036F9BA
:100DB000A0FB0A234846414602F020F8D4E700BFD2
:100DC00001B0BDE8F08F00007047000070470000E0
:100DD00070470000B0B5044690F8200001281DD1EE
:100DE000022084F820002068016821F001010160E0
:100DF00000F014F9054600BF20684068C00713D012
:100E000000F00CF9401B0B28F6D3606A40F4003068
:100E10006062052084F820000120B0BD606A40F4C3
:100E2000002060620120B0BD00206062B0BD000003
:100E300070470000704700007047000070470000D6
:100E4000704700007047000070470000B0B50446CE
:100E500000F0E4F8054640F20000C2F2000000781D
:100E6000611C18BF044400BF00F0D8F8401BA0422A
:100E7000FAD3B0BD2DE9F04F82B000F13E4241F609
:100E8000004502F1FF77C4F20205082243F6004E46
:100E90004FEAB726A84208BF0722C4F2010E072E68
:100EA00038BF4FEAB7220125002600274FF000087F
:100EB000009208E008F101080437B8F1100F06F1BC
:100EC000020600F0A7800C6805FA08F914EA090F79
:100ED000F0D0D1F804B003220BF0030CACF1010404
:100EE000B240012C6FEA020A10D88268CC6802EA8C
:100EF0000A02B440224382604268CBF3001422EA23
:100F0000090204FA08F42243426005E0BCF1030F31
:100F100002D14FF0030C20E0C2688C6802EA0A029A
:100F2000B4402243BCF1020FC26016D16FF003023D
:100F300002EA58020244D2F820C007F01C050F2331
:100F40000C69AB402CEA030304FA05F52B4313624A
:100F5000D1F804B001250BF0030C02680CFA06F37B
:100F600002EA0A021A431BF4403F0260A2D00022A8
:100F700043F644030192C4F202031A684FF6084C88
:100F800042F480421A601A68CFF6FF7C02F4804275
:100F90000192019A28F00302724452F80C3007F0D3
:100FA0000C050F24AC40A343009C04FA05F52B4329
:100FB00042F80C30DEF808204B6842EA090543F697
:100FC0000C4CDC0258BF22EA0905CEF80850C4F2E6
:100FD000010CDCF800209C0242EA090558BF22EA15
:100FE0000905CCF80050DEF804209C0342EA09050C
:100FF00058BF22EA0905CEF80450DEF80020DB03D2
:1010000042EA090558BF22EA0905CEF80050012539
:1010100050E700BF02B0BDE8F08F000040F2A850DA
:10102000C2F200000068704770B5B8B3044690F88B
:101030003D0028B9002084F83C00204600F0EEFD79
:10104000242084F83D002068016821F0010101603E
:10105000016841F400410160016821F40041016030
:1010600000F07CFF48F28041C0F21E0140F6001300
:10107000D4F804E088424FF00001C0F23D0348F28A
:10108000A16C4FF0000238BF01219842C0F2010C60
:1010900038BF0122E64538BF0A460AB1012070BDBB
:1010A0004DF68361C4F21B31A0FB01122168950C3F
:1010B0004B684FF4967623F03F0343EA924375431F
:1010C00044F6D3564B60C1F262060B6AA5FB065686
:1010D000B50923F03F03E64538BF950C6A1C1A4357
:1010E0000A62CA6948F2A0664CF6FF73C0F20106B4
:1010F000B64522EA03020BD801384FEA4E03B0FB93
:10110000F3F001306FF31F30042898BF04201EE075
:10111000A368013863B119230EFB03F3B0FBF3F0AE
:1011200001306FF31F3078B100F5804008E000BF58
:101130000EEB4E03B0FBF3F001306FF31F3028B11C
:1011400000F5004003E000BF012000E00120104353
:10115000C8610868D4E9072320F0C0001043184391
:101160000860886848F2FF3204F10C0690434CCEC8
:1011700018431043A5698860C86820F0FF00304319
:101180002843C860086840F0010008600020202162
:10119000206484F83D10206384F83E0070BD000098
:1011A0002DE9F04182B01F46164688460446FFF7F7
:1011B00035FF94F83D1020291CD10546206881692F
:1011C000890713D5FFF72AFF401B1928F6D90020FD
:1011D0002021206384F83D1084F83E00216C41F00A
:1011E0002001216484F83C0004E000BF94F83C1026
:1011F000012903D1022002B0BDE8F081012184F869
:101200003C100168C90703D1016841F00101016088
:10121000016821F400610160222184F83D10102151
:1012200084F83E100021216466626785618D218506
:101230000021CFF6FF71E162E16A026811F5803F9B
:1012400042F48062026018BF012919D1016841F49B
:10125000807101604169089EC90724D1711C18D0B2
:10126000002E00F0CB8000BFFFF7D8FE401BB0423D
:1012700000F2C68020684169C907F5D013E000BFBD
:101280000829E3D0216B1129E0D0E3E74169C907C0
:1012900009D14169C90706D14169C90704BF41693C
:1012A0005FEAC171F2D02169B1F5804F08D148F0F1
:1012B0000101C9B201614169890740F1CC8003E1B4
:1012C000062101EAD81707F1F00101614169090718
:1012D00038D44169721C01F4806113D0002940F0B8
:1012E000EA80002E00F01082FFF798FE401BB0420B
:1012F00000F20C8220684169090723D4416949053D
:10130000F2D5D8E0002940F0D6804169090719D408
:101310004169490500F1CF804169090712D441694B
:10132000490500F1C880416909070BD441694905A5
:1013300000F1C1804169090704D441694905E4D538
:10134000B9E000BF5FFA88F101614169890739D4CA
:101350004169721C01F4806114D0002940F0AB8017
:10136000002E00F0D181FFF759FE401BB04200F281
:10137000CD8120684169890724D441694905F2D5A6
:1013800099E000BF002940F096804169890719D48F
:101390004169490500F18F804169890712D441698B
:1013A000490500F18880416989070BD441694905E5
:1013B00000F181804169890704D441694905E4D578
:1013C00079E000BF0021019141690191816901919A
:1013D0000199016841F4807101604169C90734D104
:1013E000711C28D056B1FFF719FE401BB04207D838
:1013F00020684169C907F6D027E000BFFFF70EFE5D
:1014000000202021206384F83D1084F83E00216CE8
:1014100041F020012164216884F83C000868C0057F
:1014200044BF4FF400702064012002B0BDE8F08199
:101430004169C90709D14169C90706D14169C9078D
:1014400004BF41695FEAC171F2D047F0F101016167
:101450004169890738D44169721C01F4806111D057
:1014600049BB002E00F05081FFF7D8FD401BB04271
:1014700000F24C8120684169890725D441694905FA
:10148000F2D518E0B9B9416989071DD44169490508
:1014900011D44169890717D4416949050BD44169C1
:1014A000890711D44169490505D4416989070BD4DD
:1014B00041694905E7D5016841F4007101606FF4A5
:1014C00080614161042022E1218D99B1022927D058
:1014D00001292DD1026822F480620260002201926B
:1014E0004269019282690192019A026842F4007293
:1014F000026028E000210191416901918169019117
:101500000199016841F400710160202084F83D00D8
:10151000002084F83E0084F83C0002B0BDE8F08171
:10152000026822F480620260026842F4006202E013
:10153000026842F4806202600022019242690192D4
:1015400080690190019888B2032817D802283FD0FB
:10155000012851D1002E00F099802068014651F8F1
:10156000142F520600F196800868C00600F1F28040
:10157000FFF754FD401BB042EFD9E0E086B100BF59
:101580002068014651F8142F52060ED40868C00690
:1015900000F1E080FFF742FD401BB042F0D9CEE001
:1015A00020684169490640F1C3800069616A08709A
:1015B000606A218D01300139606221852268638D66
:1015C000013B638553695B0770D51169017064E065
:1015D00020684169490745D4711C6BD0002E00F08A
:1015E000CD80FFF71BFD401BB04200F2C980206890
:1015F00041694907F5D535E02068416949070ED4AE
:10160000711C65D0002E00F0B980FFF707FD401B6C
:10161000B04200F2B580206841694907F5D50168FC
:1016200021F4806101600069616A0870606A218D3F
:1016300001300139606221852068618D0139618541
:10164000416949070ED4711C50D0002E00F09680DD
:10165000FFF7E4FC401BB04200F292802068416931
:101660004907F5D5016841F4007101600069616ABC
:101670000870606A2268411C6162218D01392185F0
:10168000618D013961851169417006E02068416909
:1016900049064DD50069616A0870606A218D013084
:1016A000013960622185608D0138608508047FF40E
:1016B0004AAF2AE741694907D4D4416949075CBF69
:1016C00041695FEA4171CDD441694907F2D5C9E763
:1016D00041694907A3D4416949075CBF41695FEA91
:1016E00041719CD441694907F2D598E7416949079E
:1016F000B8D4416949075CBF41695FEA4171B1D41F
:1017000041694907F2D5ADE7FFF788FC20200021A9
:101710002022216384F83D2084F83E10226C10437F
:10172000206484F83C10012002B0BDE8F08100BFC5
:1017300050F8141FC90601460CD4FFF76FFC0020B7
:101740002021206384F83D1084F83E00206C40F096
:1017500020000AE06FF010000860002020212063C4
:1017600084F83D1084F83E00206C2064002084F84A
:101770003C00012002B0BDE8F08100BFFFF74EFC45
:1017800000202021206384F83D1084F83E00216C65
:1017900041F02001216484F83C00012002B0BDE842
:1017A000F08100002DE9F04381B01F4616468846BF
:1017B0000446FFF733FC94F83D10202920D105465C
:1017C00020688169890717D5FFF728FC401B192875
:1017D000F6D900202021206384F83D1084F83E00D3
:1017E000216C022641F02001216484F83C0030463F
:1017F00001B0BDE8F08300BF94F83C10012905D189
:101800000226304601B0BDE8F08300BF012184F814
:101810003C100168C90703D1016841F00101016072
:10182000016821F400610160212184F83D1010213C
:1018300084F83E100021216466626785618D2185F0
:101840000021CFF6FF71E162E16A11F5803F18BF18
:10185000012919D1016841F4807101604169DDF805
:101860002090C90723D119F1010116D0B9F1000F59
:1018700046D000BFFFF7D2FB401B484542D8206846
:101880004169C907F6D012E00829E3D0216B12297B
:10189000E0D0E3E74169C90709D14169C90706D129
:1018A0004169C90704BF41695FEAC171F2D021698A
:1018B000B1F5804F02D1FE2161E000BF062101EAAF
:1018C000D811F03101614169090757D4416919F113
:1018D000010201F480612FD0002946D1B9F1000F37
:1018E00000F04281FFF79AFB401B484500F23E8121
:1018F00020684169090741D441694905F2D534E0BE
:10190000FFF78CFB00202021206384F83D1084F831
:101910003E00216C012641F020012164216884F8F9
:101920003C000868C00544BF4FF400702064304696
:1019300001B0BDE8F08300BFB9B9416909071DD402
:101940004169490511D44169090717D4416949051D
:101950000BD44169090711D44169490505D441698E
:1019600009070BD441694905E7D5016841F40071C5
:1019700001606FF4806141610420F8E0FF2101EA19
:1019800008010161416989073AD4416919F10102ED
:1019900001F4806112D051BBB9F1000F00F0E0807A
:1019A000FFF73CFB401B484500F2DC8020684169A2
:1019B000890725D441694905F2D518E0B9B94169CB
:1019C00089071DD44169490511D44169890717D494
:1019D000416949050BD44169890711D44169490519
:1019E00005D4416989070BD441694905E7D50168E8
:1019F00041F4007101606FF4806141610420B6E040
:101A00000026009641690091816900910099218D1D
:101A1000002900F0958009F10108014651F8142FC2
:101A2000120635D4B8F1000F16D0B9F1000F00F04E
:101A3000AF8000BF0868400500F1B280FFF7EEFA02
:101A4000401B484500F2A9802068014651F8142F38
:101A50001206EFD51CE000BF0A68520500F1A08015
:101A60000A68120614D40A68520500F199800A68BF
:101A700012060DD40A68520500F192800A68120617
:101A800006D40A68520500F18B800A681206E3D575
:101A9000636A194611F8012B02616162618D013997
:101AA0006185278D0146A7F1010CA4F828C051F8E3
:101AB000142F52070DD55FEA0C420AD05A78A7F1CD
:101AC000020C02619A1C6262628D013A6285A4F87E
:101AD00028C00A6852072FD4B8F1000F14D0B9F10A
:101AE000000F7BD00868400500F18080FFF796FA70
:101AF000401B484577D82068014651F8142F5207FB
:101B0000F0D5B4F828C017E00A6852056ED40A6808
:101B1000520711D40A68520568D40A6852070BD4D8
:101B20000A68520562D40A68520705D40A68520549
:101B30005CD40A685207E7D55FEA0C417FF46DAFC9
:101B4000016841F400710160202084F83D0084F8B0
:101B50003E6084F83C60304601B0BDE8F08300BFD1
:101B6000FFF75CFA202002E0FFF758FA202000215E
:101B70002022216384F83D2084F83E10226C012647
:101B80001043206484F83C10304601B0BDE8F08377
:101B90000868400504D4FFF741FA202004E000BFA4
:101BA0006FF480600860042000212022216384F803
:101BB0003D2084F83E10226C1043206484F83C10D1
:101BC000206C042825D120680126016841F40071A9
:101BD0000160304601B0BDE8F08300BF08684005F1
:101BE00004D4FFF71BFA202004E000BF6FF48060EC
:101BF0000860042000212022216384F83D2084F81D
:101C00003E10226C1043206484F83C10206C0428A1
:101C1000D9D00126304601B0BDE8F083B0B586B01A
:101C2000016845F20040C4F20000814202D006B0D3
:101C3000B0BD00BF002543F630040195C4F2020494
:101C4000216800F5D83041F002012160216801F0DF
:101C5000020101910199C0210191122102910121FA
:101C60000391032104910421059101A9FFF702F9D1
:101C70000095206940F400102061206900F40010F4
:101C80000090009806B0B0BD40F2000040F2A851AC
:101C9000C2F20000C2F2000100780A681044086035
:101CA0007047000080B543F60040C4F202000168AE
:101CB00041F400710160016841F4806101600168D4
:101CC00041F480710160032000F088F80F2000F0DB
:101CD00005F800F027F8002080BD000070B540F244
:101CE0000006C2F2000640F214013278C2F200018E
:101CF0004FF47A730968B3FBF2F20446B1FBF2F1D8
:101D0000084600F02FFB0F2C4FF0010508D838B91A
:101D10004FF0FF3021460022002500F033F87460B8
:101D2000284670BD82B0002043F640010190C4F205
:101D300002014A6842F480424A604A6802F48042E2
:101D40000192019A0090086840F08050086008688D
:101D500000F080500090009802B07047002848BF03
:101D60007047C1B200F01F00012202FA00F04EF2EB
:101D70000012CEF2000242EAD10121F00301086014
:101D80007047000010B54EF60C5CCEF2000CDCF88B
:101D90000030C3F3022E8EF00704042C28BF042465
:101DA000BEF103034FF0FF3E0EFA04F438BF0023E8
:101DB000A14399400EFA03F39A43114300F00F0236
:101DC00000F160430901043A03F5644362440028CA
:101DD00048BF02F10C03197010BD00004EF60C5103
:101DE000CEF200010A684FF6FF031A4060F30A22A0
:101DF00042F0806040F0FD70086070472DE9F041CE
:101E0000002800F08B8043F60808C4F2020804465C
:101E1000D8F8F8030D4600F00700884207D288F88A
:101E2000F853D8F8F80300F00700A84276D12068EC
:101E3000810717D5410705D5D8F8001041F4E051C6
:101E4000C8F80010010705D5D8F8001041F460412A
:101E5000C8F80010D8F80010A26821F0F001114372
:101E6000C8F80010C0073FD1D8F8F80300F0070009
:101E7000A84207D988F8F853D8F8F80300F007000B
:101E8000A8424BD12068410707D5D8F80010E26876
:101E900021F4E0511143C8F80010000708D5D8F824
:101EA0000000216920F4604040EAC100C8F8000049
:101EB00000F068F8D8F8001044F25672C1F303112C
:101EC000C0F60002515C40F2140220FA01F140F227
:101ED0000400C2F200000068C2F200021160FFF7C5
:101EE000FDFE0020BDE8F0816068811E022907D256
:101EF00058F8081C89015CBF0120BDE8F08111E0A1
:101F0000012807D158F8081C89035CBF0120BDE8EF
:101F1000F08107E058F8081C890703D40120BDE8C8
:101F2000F08100BFD8F8001021F003010843C8F881
:101F30000000FFF773F8064641F28837D8F8000032
:101F4000616800F00C00B0EB810F8DD0FFF766F8F0
:101F5000801BB842F2D90320BDE8F08140F21400A2
:101F600043F60801C2F20000C4F2020100680968E9
:101F700044F26672C1F38221C0F60002515CC8408F
:101F80007047000010B543F60404C4F20204606810
:101F900000F00C0142F200400829C0F2F40007D022
:101FA000042918BF10BD41F20020C0F27A0010BD14
:101FB000216801F03F02216823684902C3F38811B8
:101FC00006D4A1FB00010023FEF74EF907E000BF95
:101FD00041F20020C0F27A004843B0FBF2F02168E1
:101FE0000222C1F3014102EB4101B0FBF1F010BD4F
:101FF0002DE9F04182B0002868D00446007843F60D
:102000000006C007C4F202060BD0B06800F00C0056
:10201000042840F09F803068800302D56068002863
:1020200054D0207880071AD5B06810F00C0F09D072
:10203000B06800F00C00082840F0A68070684002EC
:1020400000F1A2803068800702D5E06801283DD108
:102050003068216920F0F80040EAC1003060207843
:10206000000737D4207840074CD4A56955B3B06831
:1020700000F00C00082840F0BB80012D26D07068CD
:10208000E16900F480028A4220D1216A00F03F0217
:102090008A421BD147F6C071626A0140B1EB821FD0
:1020A00014D1A16A4FF6FF73C903994300F440327B
:1020B000A1F580318A4209D1E16A00F07060B0EB8D
:1020C000016F03D1002002B0BDE8F081012002B011
:1020D000BDE8F0816069002840F20000C4F24720AA
:1020E00076D00121C0F8801EFEF798FF054600BF9C
:1020F000706F8007B6D4FEF791FF401B0228F7D916
:10210000DDE000BF306C10F080580AD10020019053
:10211000306C40F080503064306C00F080500190A2
:10212000019847F20007C4F200073868C00541D49F
:10213000386840F480703860FEF770FF054600BFD5
:102140003868C00536D4FEF769FF401B0228F7D96E
:10215000B5E000BFB06800F00C00082803D170683B
:1021600040023FF558AF6068B0F5803F07D0B0F54A
:10217000A02F40F08D80306840F4802030603068BF
:1021800040F4803030608DE0E068002852D00020BC
:10219000C4F2472001210160FEF740FF054600BF61
:1021A000306880073FF554AFFEF738FF401B022828
:1021B000F6D984E0A068012805D005284ED1306FFB
:1021C00040F004003067306F40F0010030674FE0AE
:1021D0000021C0F8801EFEF721FF0546706F8007C2
:1021E0007FF540AFFEF71AFF401B0228F6D966E0E4
:1021F0000027C4F2472700203866FEF70FFF022DA4
:1022000005460BD1306880015ED5FEF707FF401B05
:1022100002284FF00300F5D955E700BF3068800170
:102220007FF550AFFEF7FAFE401B02284FF0030087
:10223000F4D948E70020C4F2472000210160FEF7EE
:10224000EDFE0546306880077FF509AFFEF7E6FE34
:10225000401B02284FF00300F4D934E7316F002807
:1022600021F001013167316F21F0040131674DD058
:10227000FEF7D4FE054641F2883700BF306F800775
:1022800056D4FEF7CBFE401BB842F7D917E000BF8B
:102290003168002821F480313160316821F48021D7
:1022A00031604FD0FEF7BAFE054600BF30688003AC
:1022B0003FF5B7AEFEF7B2FE401B6428F6D9032007
:1022C00002B0BDE8F08100BF04F11C052FCD08432A
:1022D00040EA8210D9034FF6FF729143A1F5803195
:1022E00040EA05600843706001203866FEF796FEFC
:1022F000044600BF306880013FF5E4AEFEF78EFE75
:10230000001B02284FF00300F4D9DCE6FEF786FE3E
:10231000054641F2883700BF306F800708D5FEF7C9
:102320007DFE401BB8424FF00300F5D9CBE600BF5D
:10233000B8F1000F7FF499AE306C20F0805030641B
:1023400093E600BFFEF76AFE054600BF30688003D3
:102350007FF567AEFEF762FE401B64284FF0030076
:10236000F4D9B0E6411E0020B0EB116F1CBF012074
:1023700070474EF21002CEF2000251604EF6235129
:10238000CEF20001F0230B700721906011607047BE
:10239000FEE7000040F20801C2F200010870704739
:1023A00080B52DED048B82B09FED1F1A9FED1F9A13
:1023B00080EE811AB0EE408A21EE090A02F088F917
:1023C00080EE090A9FED1A1A40F20800C2F20000DE
:1023D00005228DF805204FF0FF3C0323CDF800C007
:1023E00020EE082A81EE021AB3EE092A20EE022A14
:1023F00080ED010A80ED022A0078BDEEC10A10EEE0
:10240000101A0A0A8DF80710410040F254508DF856
:102410000620C2F200000DF10502FFF7C3F902B079
:10242000BDEC048B80BD00BF00FEFF4600401C4693
:10243000ACC5A73B80B582B000218DF80510010A1C
:102440008DF8061040F20801C2F2000109788DF8FB
:10245000070040F254504FF0FF3C4900C2F2000028
:102460000DF105020323CDF800C0FFF79BF902B080
:1024700080BD000070B582B040F20805C2F20005D0
:10248000297840F254540220C2F200048DF807006B
:102490004FF0FF3649000DF1070220460123009658
:1024A000FFF780F928780DF105024100204602234C
:1024B0000096FEF775FEBDF805009FED061A00BAFE
:1024C000000C00EE100AB8EE400A20EE010A02B03D
:1024D00070BD00BF0AD7A33A70B582B040F20805BC
:1024E000C2F20005297840F254540420C2F20004DC
:1024F0008DF807004FF0FF3649000DF10702204626
:1025000001230096FFF74EF928780DF105024100EE
:10251000204602230096FEF743FEBDF8050095ED28
:10252000011AC0BA00EE100AB8EEC00A21EE000A85
:1025300002B070BDFEE70000FEE70000704700003B
:1025400070470000FFF7A0BBB0B592B0002443F67F
:1025500040000B94CDE90944CDE907440594CDE949
:102560000344CDE901440094C4F20200016802254D
:1025700041F080510160006800F0805000900098A8
:1025800047F200000094C4F20000016841F4804169
:102590000160006800F480400090009801200990DC
:1025A00010200A9008200E90A820CDE90F050420E5
:1025B000119006A80695CDE90C54FFF719FD28B136
:1025C000EFF3108072B600BFFEE700BF0F20CDE929
:1025D00001054FF4A05004904FF48050059001A8DD
:1025E00005210394FFF70AFC20B1EFF3108072B6C7
:1025F000FEE700BF12B0B0BD4EF68850CEF200002C
:10260000016841F47001016070470000FEE70000BE
:102610002DE9F04F83B0B1F816E00F4674466FF322
:102620009F24052C00910190029246D0042C43D89F
:10263000002B41D00298002501780098012B00EB77
:102640000406F17688BF0125032C4FF0010C30D829
:10265000022B2ED3029800254178022B317788BFB8
:102660000125022C4FF0020C23D8032B21D3029812
:1026700000258178032B717788BF0125012C4FF04D
:10268000030C16D8042B14D302980025C178042B10
:10269000B17788BF01254FF0040C54B9052B08D33E
:1026A0000298002501794FF0050CF177052B88BFC2
:1026B000012525B93CE000BFD3B34FF0000C0098D2
:1026C000053C416844F62516A208C2F29246A2FBD8
:1026D000067299B1C2EBC202A4EB820E012200BFC6
:1026E0000D681746ADB3296881B30D6885B32968B5
:1026F0003A1D0029F4D103372CE000BF019A50683D
:10270000002800F0C980016857895160791C9789B9
:102710008EB2B742518138BF918100994FF0000EBF
:10272000C0F800E048609C4580F0A78044E000BF0E
:102730000EEB03006FF39F200EF47C4108440099D8
:102740000122C88210B203B0BDE8F08F013701E06A
:1027500002370D46E1188908A1FB0612511C89B207
:10276000BAB291421AD9BEF1000F1BD1019A50683A
:10277000002800F09B80016857895160791C978977
:102780008EB24FF0000EB742518138BF9181C0F830
:1027900000E028609C4570D20EE000BF28469C45B2
:1027A0006BD209E028469C4506D366E004461FFA32
:1027B0008CF09842204660D21FFA8CFB9B45F5D2E4
:1027C000029900EB0E0911FA8CFA00240BEB0408B5
:1027D00008F1010C0EEB04061AF804109C454FF0AA
:1027E000000709EB040538BF01271A2E297198BF8D
:1027F0009C4529D20AEB040108F1020C4A789C4559
:102800004FF0000738BF0127192E6A7198BF9C4509
:102810001AD208F1030C8A789C454FF0000738BFA4
:102820000127182EAA7198BF9C450DD2043404EBE1
:102830000B0CC9789C454FF0000738BF0127172EB5
:10284000E97101D89C45C1D3002FAFD0019E7468B7
:10285000A4B3216872897160511CB2898FB24FF0A4
:10286000000EBA42718138BFB181C4F800E0046043
:102870001FFA8CF0984220469ED3009AD08AC11845
:102880006FF39F2100F47C400844D082012210B2F3
:1028900003B0BDE8F08F00BF009800214FF6FD7235
:1028A000416010B203B0BDE8F08F00BF00214FF6C9
:1028B000FD72296010B203B0BDE8F08F00214FF621
:1028C000FD72016010B203B0BDE8F08F2DE9F04F4A
:1028D0008FB04FF6FE7448B1189F3FB1A2F1410787
:1028E000FFB2C02F02D3012A04D11BB120B20FB016
:1028F000BDE8F08F878A0024B1EBC70F0D940C94CC
:10290000F4D2FD005718C668AF42934688BFA5EBC6
:10291000010BCDE901321EB90769002F00F02081BB
:102920002729CDE9030B51D85FFA8BF7C1F12800B5
:10293000B842079509960A9138BF07460B97DFB34F
:1029400003980A99806801F0070500EBD100089010
:102950000B98002100EB050B0DF1300901F0070683
:1029600005F007003446B04288BF0446ABEB0507CC
:10297000C4F10804A74238BF3C464FF47F4727FA0A
:1029800004FC089F4FEAD50817F808804FEAD10ADF
:102990005FFA8CF708FA00F819F80AC027FA06FE61
:1029A00007EA08072CEA0E00F74025443843AB45F8
:1029B000214409F80A00D1D1DDE90A10DDF810B090
:1029C000099E079D0144ABEB000C02E000200B9038
:1029D000DC465FFA8CF4002C274618BF0127002E36
:1029E0004FF0280E18BF5FEA0C6043D10398DDF862
:1029F00010B00069002818BF002F00F0E9800B9E7E
:102A0000A1EB0E02F1B20CAB02F0070700EBD20E05
:102A100003EBD10807EB040906F007024FF47F4CE3
:102A200002F0070007F007040646844288BF2646E6
:102A3000A9EB0705C6F10806F908B54238BF2E46CE
:102A40001EF801102CFA06F501FA04FAD408EDB2CA
:102A500018F8043025FA00F123EA010105EA0A0317
:102A600023FA00F037440843B945324408F804001B
:102A7000D6D1ADE0A5F1280B28254FF47F4A00BF41
:102A80005846BBF1E00F28BFE02000EB050E8E4555
:102A900055D9CDE9050EAEEB0100A042CDF81CC022
:102AA000CDE9096138BF04460894DCB30A98099956
:102AB000401B01EBD0020B9900F007030898CEB23F
:102AC0000CA902F1040801EBD60CC21806F00709A4
:102AD00009F0070E03F007067146764588BF3146B8
:102AE000D01AC1F10801884238BF01462AFA01F024
:102AF0004FEAD30A18F80A40C0B2B4404FEAD906E8
:102B00001CF8067020FA0EF5204027EA050520FA89
:102B10000EF00B444FF47F4A28439A4289440CF844
:102B20000600D5D1089A0B980A991044DDF81CC00C
:102B30000B90099EDDE9050E1144ACEB020C3668E2
:102B40005FFA8CF4002C274618BF0127002E3FF4B3
:102B50004DAFABEB000B5FEA0C60754690D145E7DB
:102B60001BF0FF0F58D08068002300EBD10E01F05E
:102B7000070151FA8BF94FF47F4C0DF1300803F047
:102B8000070001F007040246844288BF2246A9EBF1
:102B90000105C2F10802CE08954238BF2A461EF848
:102BA00006602CFA02F506FA04FADE08EDB218F80F
:102BB000067025FA00F405EA0A0527EA040425FA56
:102BC00000F0114420438945134408F80600D6D18B
:102BD0005FFA8BF404B3029D680707D0E8080CA9DC
:102BE0000A5C6B4203F00703DA400A54189E019F07
:102BF000092D17D2082D18BF002F1ED09DF83000C8
:102C0000691E20FA01F1C90717D04FF0FF31A94022
:102C100008438DF8300010E0002420B20FB0BDE86A
:102C2000F08F00BF4020212D38BF2020112D38BF4C
:102C30001020A84218BF002F1ED10FB9012D01D0BE
:102C4000082D07D89DF83000307020B20FB0BDE8D5
:102C5000F08F00BF102D07D8BDF83000308020B2B3
:102C60000FB0BDE8F08F00BF202D15D80C98306054
:102C700020B20FB0BDE8F08F102D15D8BDF8300090
:102C8000691E20FA01F1C907D7D04FF0FF31A940E2
:102C90000843ADF83000D0E7DDE90C01C6E90001DA
:102CA00020B20FB0BDE8F08F202D0BD80C98691E14
:102CB00020FA01F1C907C0D04FF0FF31A940084305
:102CC0000C90BAE73F2D1FD8DDE90C016A1EC5F153
:102CD000210301FA03F320FA02F21A43B5F12103AA
:102CE00058BF21FA03F2D207A7D04FF0FF3202FA01
:102CF00005F3B5F1200C5CBF002302FA0CF211437E
:102D00001843CDE90C0198E74FF6FE70C41F20B2BE
:102D10000FB0BDE8F08F00002DE9F04782B0402AE7
:102D200028BF4022002A08BF01224FF0000C012AD0
:102D3000CDF804C0CDF800C004D11B788DF8003068
:102D40001EE000BF082A05D81B788DF80030530715
:102D500016D120E0102A05D81B88ADF800305307A3
:102D60000ED118E0202A05D81B680093530707D11D
:102D700011E000BFD3E900C3CDE900C353070AD077
:102D8000D308EC461CF803E0544204F007040EFAA2
:102D900004F40CF8034000EBD10801F00701002314
:102DA0004FF47F4CEE4600BF01F0070603F0070525
:102DB0003746B54288BF2F46D41AC7F10807D8084E
:102DC000BC4238BF27461EF800002CFA07F400FA70
:102DD00005F9CD08E4B218F805A024FA06F004EAD3
:102DE00009042AEA0000F4403B442043934239445A
:102DF00008F80500D8D102B0BDE8F0872DE9F04F02
:102E000095B0D1F80080944618F08004C8F3C0391A
:102E100008F0604208BF4FF00209B2F1004F15D12F
:102E20008346087B4FF6FD7ED0B14FEA08624FEA39
:102E3000182606EAE272002C02F07F0418D15FEA3D
:102E4000486208BF06F0030619E000BF6FF00200F9
:102E5000A0F1070E0FFA8EF015B0BDE8F08F00BF9D
:102E6000AEF1070E0FFA8EF015B0BDE8F08F00BF7F
:102E70009BF80020944240F08580C8F307460F1D60
:102E8000384410F8010C08F07F05C6EA094242EA0E
:102E90008542059747B242EA446A07900020B7F19D
:102EA000FF3F139012901FDDDBF82040AEF10A0EB9
:102EB000002CCFD0226952456CD02468002CC9D098
:102EC0002269524566D02468002CC3D0226952453D
:102ED00060D02468002CBDD0226952455AD02468A5
:102EE000002CE7D1B6E700BFDBF80440069104935D
:102EF000B2B212A958464B46CDE908C703960295CF
:102F00000095A04700284BD0DBF820404FF6FD7E0F
:102F1000002C4FD0DDE908C7206950456BD02468EC
:102F20007CB12069504566D0246854B12069504571
:102F300061D024682CB1206950455CD02468002CF5
:102F4000EAD1DBF81040002C3FF484AF2068BBF8D6
:102F50001610CBF81000481CBBF8181082B2914232
:102F6000ABF8160038BFABF818000020C4E9000029
:102F7000C4E90200C4E904A0C4E90600DBF82000AB
:102F8000206036E0AEF1080E0FFA8EF015B0BDE805
:102F9000F08F00BF0691CDE9025604932BE000BFED
:102FA0004FF6FD7EAEF1090E0FFA8EF015B0BDE8BA
:102FB000F08F00BFDBF81040DDE908C7002C3FF4BC
:102FC00049AF2068BBF81610CBF81000481CBBF8BE
:102FD000181082B29142ABF8160038BFABF8180057
:102FE0000020C4E90000C4E90200C4E904A0C4E967
:102FF0000600CBF82040E58AE168D4E90130099762
:1030000007F01F07C5F38426B6EB070E40EA01025E
:1030100048BF0EF1200ECDF820C0BCEB000C049888
:103020008841B91B48BF2031002A01974AD048F295
:103030008042C0F21E02B2EB0C024FF0000282414D
:1030400040D3069A92F80DA0A27E924520D12E463A
:10305000099DB5F1FF3F35461ADC002B1A461FFAD1
:103060008EFE18BF01220026BEF1010F88BF012687
:10307000324325D144F24126C0F20F06BCEB0606CE
:1030800070F100001CD388B210281BD38AE000BF67
:1030900044F24126C0F20F06BCEB060670F10000B8
:1030A00006D30998B0F1FF3F02DC88B2102809D39B
:1030B000039FDDF818C0089E4FF6FD7E68E000BF54
:1030C000002A6FD06FF39F2545EA87204FF6FD7EDB
:1030D000E082DBB3DDF818C0DDE90865DBF810102D
:1030E00018681960BBF81610A1F10101CBF8103077
:1030F000ABF81610606038B3DBF81020016802608E
:10310000BBF81620CBF81000501EABF8160061601B
:10311000D1B1DBF8102008680A60BBF81620CBF8A4
:103120001010511EABF81610606068B1DBF810107B
:1031300003680160BBF81610CBF81000481E002B86
:10314000ABF816006360C9D1E08A03E0DDF818C06F
:10315000DDE9086500F47C41E1829CF80D20039FC5
:10316000B5F1FF3FA2760FDD00F5806101F4F84173
:1031700000F400400844E082AEF10A0E0FFA8EF02F
:1031800015B0BDE8F08F00BF9CF80DA000230D46E0
:1031900092450DD04FF0000E0FFA8EF015B0BDE83D
:1031A000F08F00BF039FDDF818C0089E4FF6FD7E2C
:1031B00009980799C8F3046AB0F1FF3F01F0400095
:1031C0002EDC68B304980021C4E90260CDE90A60EE
:1031D0000598DBF808200C909CF80C000D91013844
:1031E000C0B2ADF83C0001980E918DF841000298F4
:1031F0000AA98DF843005846ADF83E708DF840900E
:103200008DF842A090474FF0000EE08A00F58060F4
:1032100000F4F840E0820FFA8EF015B0BDE8F08FB0
:10322000C1F34011B1EBD53F14D1019AC5F384210C
:10323000914217D10999B1F1FF3F1BDCD0B99CF83D
:103240000C00042832D2AEF10D0E0FFA8EF015B03C
:10325000BDE8F08FAEF10B0E0FFA8EF015B0BDE8A1
:10326000F08F00BFAEF10C0E0FFA8EF015B0BDE876
:10327000F08F00BF0999002948D4002846D19CF856
:103280000C10059D01390BF10C00CBB221462A46EA
:103290006646FFF7BDF9B0F1FF3F40F38D80317B0B
:1032A000A08A0139CAB2294622E000BF04980CF175
:1032B0000607C4E9026005F47C40E0829CF80C102B
:1032C0000BF10C000339CBB221463A466646FFF7B4
:1032D0009FF9B0F1FF3F40F3B180B288DDE9120100
:1032E000228300F031FCA082317B0339CAB2394617
:1032F00000F066FBA082E08A4FF0000E80F40040F0
:10330000E0820FFA8EF015B0BDE8F08F9CF80C004B
:103310006FF39F25042DA0F1010637D8049B3006DA
:1033200000F0CE809CF804006119032D4FF0010ECF
:10333000C87600F22781F0B20228C0F023819CF801
:103340000520B0462919022D4FF0020E0A771AD82F
:10335000032818D39CF80620012D4FF0030E4A775E
:1033600009950FD804280DD39CF807204FF0040EC0
:103370008A77099A32B9052804D39CF808004FF0DF
:10338000050EC877099D4646FCE000BF002B00F003
:103390009B806FF016021868002800F09D8001687D
:1033A000002900F09D800868002800F09B800368D9
:1033B0007032002BEFD197E060684FF6FD7E002859
:1033C0003FF423AFDBF8102001680260BBF8162041
:1033D000CBF81000501E0029ABF8160061603FF4D6
:1033E00014AFDBF8102008680A60BBF81620CBF891
:1033F0001010511E0028ABF8161060603FF405AFA6
:10340000DBF8102001680260BBF81620CBF8100032
:10341000501E0029ABF8160061603FF4F6AEDBF8F1
:10342000102008680A60BBF81620CBF81010511E57
:103430000028ABF816106060C4D1E6E6606800288A
:1034400046D04FF6FD7EDBF8102001680260BBF825
:103450001620CBF81000501E0029ABF81600616052
:103460003FF4D3AEDBF8102008680A60BBF81620E2
:10347000CBF81010511E0028ABF8161060603FF416
:10348000C4AEDBF8102001680260BBF81620CBF850
:103490001000501E0029ABF8160061603FF4B5AE75
:1034A000DBF8102008680A60BBF81620CBF8101073
:1034B000511E0028ABF816106060C4D1A5E600BF0D
:1034C0004FF0000E5EE000BF049B4FF0000E59E08D
:1034D000E08A4FF6FD7E99E61C32184604E000BFF4
:1034E000383201E0543208460397AF1A1B2F4FF0D1
:1034F000000E099640D8099E310641D0A91A084409
:103500005FFA86F8C51D4FF0030E0CEB0E0207EBB9
:103510000E005378033805EB0E0101F8063C1A281B
:10352000AEF1020398BF43451ED29378192801F8E3
:10353000053CAEF1010398BF434515D2D378182856
:1035400001F8043C98BFC6450FD2127917280EF136
:10355000040001F8032C04D80EF101014145864610
:10356000D3D3A0F1030E00E09E46E58A039F049B9F
:103570006FF39F2502E000BFDDE90373099E01E0C0
:10358000DDE90373089804F11B01CDE90A030C91EE
:1035900061680AA800F108080D915FFA8EF0F1B297
:1035A00088424FF000005CFA8EF238BF101D0E907A
:1035B00055FA86F0ADF83C00019800238DF84100E3
:1035C0000298ADF83E708DF840908DF842A08DF8CD
:1035D000430063609CF80C10A08A4A1E059900F015
:1035E000EFF9218BA082884204D1DBF808200AA9D8
:1035F000584690470D9890B3DBF8101002680160B0
:10360000BBF81610A1F10101CBF81000ABF81610B1
:103610000D9222B313681060BBF81600A0F10100F0
:10362000CBF81020ABF816000D93C3B119681A60DF
:10363000BBF81600A0F10100CBF81030ABF8160073
:103640000D9161B108680B60BBF816200028A2F14B
:103650000102CBF81010ABF816200D90CED100204F
:10366000E18AA8F80C00C8E90000C8F8080001F5D4
:103670008060A18A228B00F4F840B1EB020EE08258
:103680004FF6FD7118BFA1F10E0E0FFA8EF015B0B6
:10369000BDE8F08F2DE9F041DDE906544FF0000C54
:1036A0008646C0E905CCC0F80CC04EF810CFC0E982
:1036B0000153846254094FF6FF739C42C0F800C066
:1036C000C0E908CC38BF5309C1614BB15A1E032A67
:1036D00003F0030806D20024B8F1000F26D135E02C
:1036E000754633E04FF6FC7403EA040601F160020C
:1036F000002400BFA2F16007CEF80070A2F12007FD
:10370000154645F8407D44F00307043442F8605CF8
:1037100001EB471E42F8202CA64202F18002E9D1BB
:10372000A2F18005AE46B8F1000F0FD001EB4415B1
:10373000B8F1010FCEF8005008D005F12001B8F122
:10374000020F29601ABF40350D600D46C5F800C054
:103750008382C0F816C0C0F80CC0BDE8F08100003C
:10376000406A002818BF043070470000416A0369AE
:103770000A6842620B60C28A0161511EC1827047B1
:10378000F0B58BB00DF1480E9EE85040013EDDF8DB
:1037900054C0DDE91075B6FA86F67609CDE9022344
:1037A0006A468DF80060ADF8107005958DF81840E8
:1037B000CDF81CE0ADF820C000F002F80BB0F0BD71
:1037C0002DE9F04381B0D66914468146002E4FF6AC
:1037D000FE7000F0C580227E1F2A00F2C58099F895
:1037E0000030002B00F0C480278A2578090241EAC6
:1037F000026143EA074242EAC532278C1143082F8F
:1038000041F08008C0F0BA80D4E9020100F09CF9D0
:10381000F90736D016F8011B013F80EA012002B2F9
:10382000430041F22101002A48BF81EA400318B257
:103830005A00002848BF81EA430210B25300002812
:1038400048BF81EA420318B25A00002848BF81EA03
:10385000430210B25300002848BF81EA420318B265
:103860005A00002848BF81EA430210B253000028E2
:1038700048BF81EA42031AB25800002A48BF81EAD1
:103880004300B11E41F2210211F8023F023F80EADB
:10389000032003B24600002B48BF82EA400630B244
:1038A0007300002848BF82EA460318B25E00002871
:1038B00048BF82EA430630B27300002848BF82EA5C
:1038C000460318B25E00002848BF82EA430630B2C1
:1038D0007300002848BF82EA460318B25E00002841
:1038E00048BF82EA430630B27300002848BF82EA2C
:1038F0004603487883EA002003B24600002B48BF05
:1039000082EA400630B27300002848BF82EA4603CC
:1039100018B25E00002848BF82EA430630B2730046
:10392000002848BF82EA460318B25E00002848BF5C
:1039300082EA430630B27300002848BF82EA460399
:1039400018B25E00002848BF82EA430633B2700016
:10395000002B48BF82EA4600002F95D10FE000BF40
:10396000228C002A3FF437AF00B201B0BDE8F083EB
:10397000023800B201B0BDE8F08300BF013082B26E
:1039800048464146234600F0B3FA0128ECDB217893
:103990000129E9D161690A780132D3B21F2B88BFAE
:1039A00000220A7000B201B0BDE8F0834AB2012AD9
:1039B000B8BF70470278002A08BF01707047000046
:1039C000B0B5002A00F0BE80D30705D11546012A04
:1039D00000F0B88049E000BF11F801CB551E80EA25
:1039E0000C200FFA80FE440041F2210CBEF1000FC2
:1039F00048BF8CEA40040FFA84FE6000BEF1000F5D
:103A000048BF8CEA44000FFA80FE4400BEF1000F6C
:103A100048BF8CEA40040FFA84FE6000BEF1000F3C
:103A200048BF8CEA44000FFA80FE4400BEF1000F4C
:103A300048BF8CEA40040FFA84FE6000BEF1000F1C
:103A400048BF8CEA44000FFA80FE4400BEF1000F2C
:103A500048BF8CEA40040FFA84FE6000BEF1000FFC
:103A600048BF8CEA4400012A6CD0023941F221029D
:103A700011F8024F023D80EA042004B24300002CFA
:103A800048BF82EA400318B25C00002848BF82EABF
:103A9000430420B26300002848BF82EA440318B2FE
:103AA0005C00002848BF82EA430420B2630000287B
:103AB00048BF82EA440318B25C00002848BF82EA8B
:103AC000430420B26300002848BF82EA440318B2CE
:103AD0005C00002848BF82EA4304487884EA00205A
:103AE00003B24400002B48BF82EA400420B26300C6
:103AF000002848BF82EA440318B25C00002848BF8F
:103B000082EA430420B26300002848BF82EA4403EB
:103B100018B25C00002848BF82EA430420B2630068
:103B2000002848BF82EA440318B25C00002848BF5E
:103B300082EA430423B26000002B48BF82EA4400BB
:103B4000002D95D180B2B0BD80B502026FEA00238E
:103B500041F2210E0FFA82FC8EEA4302BCF1000F03
:103B600048BF5A000FFA82FC5300BCF1000F48BF57
:103B70008EEA42030FFA83FC5A00BCF1000F48BFE3
:103B80008EEA43020FFA82FC5300BCF1000F48BFDB
:103B90008EEA42030FFA83FC5A00BCF1000F48BFC3
:103BA0008EEA43020FFA82FC5300BCF1000F48BFBB
:103BB0008EEA42030FFA83FC5A00BCF1000F48BFA3
:103BC0008EEA43020FFA82FC5300BCF1000F48BF9B
:103BD0008EEA420320F0FF025A400FFA82FC5300A3
:103BE000BCF1000F48BF8EEA42030FFA83FC5A0073
:103BF000BCF1000F48BF8EEA43020FFA82FC53006B
:103C0000BCF1000F48BF8EEA42030FFA83FC5A0052
:103C1000BCF1000F48BF8EEA43020FFA82FC53004A
:103C2000BCF1000F48BF8EEA42030FFA83FC5A0032
:103C3000BCF1000F48BF8EEA43020FFA82FC53002A
:103C4000BCF1000F48BF8EEA42030FFA83FC5A0012
:103C5000BCF1000F48BF8EEA4302030A43EA016346
:103C600023F0FF035A400FFA82FC5300BCF1000F0F
:103C700048BF8EEA42030FFA83FC5A00BCF1000FE2
:103C800048BF8EEA43020FFA82FC5300BCF1000FDA
:103C900048BF8EEA42030FFA83FC5A00BCF1000FC2
:103CA00048BF8EEA43020FFA82FC5300BCF1000FBA
:103CB00048BF8EEA42030FFA83FC5A00000CBCF1A5
:103CC000000F48BF8EEA43020FFA82FC530040EA1D
:103CD0000140BCF1000F48BF8EEA42030FFA83FC9B
:103CE0005A0020F0FF00BCF1000F48BF8EEA4302EB
:103CF000504002B24300002A48BF8EEA400318B287
:103D00005A00002848BF8EEA430210B25300002830
:103D100048BF8EEA420318B25A00002848BF8EEA14
:103D2000430210B25300002848BF8EEA420318B283
:103D30005A00002848BF8EEA430210B25300002800
:103D400048BF8EEA420318B25A00002848BF8EEAE4
:103D5000430282EA012002B24300002A48BF8EEAF1
:103D6000400318B25A00002848BF8EEA430210B23E
:103D70005300002848BF8EEA420318B25A000028B8
:103D800048BF8EEA430210B25300002848BF8EEAB3
:103D9000420318B25A00002848BF8EEA430210B20C
:103DA0005300002848BF8EEA420318B25A00002888
:103DB00021F0FF0048BF8EEA4302504002B24300A8
:103DC000002A48BF8EEA400318B25A00002848BFB4
:103DD0008EEA430210B25300002848BF8EEA420325
:103DE00018B25A00002848BF8EEA430210B25300AE
:103DF000002848BF8EEA420318B25A00002848BF84
:103E00008EEA430210B25300002848BF8EEA4203F4
:103E100018B25A006FF0FF0C002848BF8EEA430228
:103E20000CEA11235A4013B25000002B48BF8EEA0F
:103E3000420002B24300002A48BF8EEA400318B293
:103E40005A00002848BF8EEA430210B253000028EF
:103E500048BF8EEA420318B25A00002848BF8EEAD3
:103E6000430210B25300002848BF8EEA420318B242
:103E70005A00002848BF8EEA430210B253000028BF
:103E80000CEA114048BF8EEA4203584001B242009A
:103E9000002948BF8EEA400210B25100002848BFF6
:103EA0008EEA420108B24A00002848BF8EEA410269
:103EB00010B25100002848BF8EEA420108B24A0001
:103EC000002848BF8EEA410210B25100002848BFC6
:103ED0008EEA420108B24A00002848BF8EEA410239
:103EE00010B25100002848BF8EEA420188B280BD5E
:103EF0002DE9F04F8BB01D465B69ABB38146288C32
:103F00000E464FF6FD7E18B1E969B9B307283DD8D2
:103F1000D9F81080B8F1000F2AD0D8F80000B9F80D
:103F20001610C9F81000481CB9F8181082B2914256
:103F3000A9F8160038BFA9F8180000214046C8E9C2
:103F40000311C8E9001140F8081FE9692A8CFCF741
:103F50004EFA288C013081B20929C0F041810D2927
:103F600080F02A810C203BE16FF0020000F1010E8D
:103F70000FFA8EF00BB0BDE8F08F00BF0EF1010E0E
:103F80000FFA8EF00BB0BDE8F08F00BF02300621B3
:103F900011FA80F044F62511C2F29241A0FB0117FC
:103FA000B9F81410B9F81630C01BC91A07EB500045
:103FB00089B2B1EB900F07D24FF6FD7E0FFA8EF06B
:103FC0000BB0BDE8F08F00BF100A019046F0004032
:103FD000059026F0604CC6F380704FEA9C4B0A9027
:103FE00080204FF0000E002400270292CDE903CB81
:103FF0000DE000BF09990160298C5FFA8AF00EF18B
:10400000010E80F00107A1424FF00000B0D0D9F8B6
:104010001060002ED0D006903068B9F81610C9F89C
:104020001000481CB9F8181082B29142A9F8160085
:1040300038BFA9F81800CDE9077E4F460023C6E92E
:104040000033C6E90233336124B902980223307287
:1040500001987072F2184FF000099C460996B5F865
:10406000208004EB090EC64539D200BFE86902EB97
:10407000090A1EF800000EF1010B8AF8080003EB94
:10408000090006282ED0B5F82080C34536D2E9694C
:104090000EF1020B714449788AF80910B5F82080B6
:1040A000C3452FD2E9690428714489780EF1030BC6
:1040B0008AF80A1016D0B5F82080C34526D2E869E0
:1040C0000CF1040C20444844C07809F104098AF832
:1040D0000B00B5F8208004EB090EC645C6D3F346A5
:1040E00016E000BF0DF1180EDDF80CC09EE8084484
:1040F000B5F82080B946082013E000BF4CF0010C51
:1041000006E000BF0CF1020C02E000BF00F1030C5E
:104110000DF1180E9EE808440CF10100DDF80CC00A
:10412000B9461FFA8BF4A04508BF40236A6943EAE9
:104130004A131278059E02F01F021A43099B411E82
:1041400043F8046F13FA81F10A71D9F82480DDF87D
:1041500010B01873B8F1000F4346424618D10998C1
:10416000C9F8240048E700BF00269C4538BF012657
:104170000A9FC1F380718F4208BF31469C4518BF2A
:10418000314601290CD003680246002B3FF432AFC0
:1041900059681846002921F06043E5D49B45F2D2C6
:1041A000404503D009991160086025E70998C0F8D7
:1041B0000080C9F824001FE7112901D210200FE068
:1041C000152901D214200BE0192901D2182007E08B
:1041D000212901D2202003E04020312938BF30209E
:1041E000411E6A69298488F810001078062262F35B
:1041F0005F1046F00042434643F8042F13FA81F162
:104200000871D9F824C0BCF1000F3BD026F0604102
:104210008A0CC6F380776346654611E0C3F380736A
:10422000B1424FF0000438BF01249F4208BF23462B
:10423000B14218BF2346012B0AD003680546ABB133
:1042400018465B68002B23F06046E7D4B242F4D2F4
:10425000604515D0C5F80080C8F800004FF0010E89
:104260000FFA8EF00BB0BDE8F08F00BFC0F80080F1
:104270004FF0010E0FFA8EF00BB0BDE8F08F00BFCB
:10428000C8F800C0C9F824804FF0010E0FFA8EF074
:104290000BB0BDE8F08F00008EB045F20045C4F2CF
:1042A0000005FDF7FFFCFEF74FF9002443F6300050
:1042B0000394C4F20200016840F2780641F08001E4
:1042C00001600168C2F2000601F0800103910399C8
:1042D000039401684FF4102241F00101016001686C
:1042E0004FF4001301F00101039103990394016855
:1042F00041F008010160016801F008010391039990
:104300000394016841F002010160006805F58051E5
:1043100000F0020003900398304640F8481F032144
:10432000C0E90114C0E90342C0E905348483FCF705
:1043300033FC28B1EFF3108072B600BFFEE700BF78
:1043400040F2545041F68021C2F20000C0F2060152
:104350004FF48042C0E90051C0E90244C0E904249E
:10436000C0E906440462FCF75FFE28B1EFF3108059
:1043700072B600BFFEE700BF06F148042046FCF716
:1043800029FD20460221FCF739F944F2B55040F2EC
:10439000E805C0F60000C2F2000540F2541144F2F4
:1043A000694300270090C2F20001C0F600032846CE
:1043B0004FF480620197FFF76DF928463321FFF72C
:1043C000F5FA01200DF10C08CDE90A00204641461E
:1043D000CDE90877CDE90377CDE905770797FCF7B5
:1043E00085F94020FDF7D6FF40F22750FEF722F86E
:1043F0009FED1C0AF0EE400AFDF7D2FF4FF0040AD1
:104400000DF1340903E000BF0120FCF71FFD284631
:10441000FFF7A6F90028F7D0064600BF2046FCF7B4
:1044200077FA0028F0D00597CDE90777CDE9037733
:10443000CDE905A73068317B20F0604004900791FA
:10444000321D204641464B46FCF7F0F80028DBD1F0
:104450002846FFF78BF92846FFF782F90646002821
:10446000DCD1D1E7CDCCCC3D2DE9F04F81B02DEDA5
:10447000048BA8B0C88AF2281ED1087E0C460128F9
:104480001AD1E07E332817D040F27800C2F2000043
:10449000018840F2E8050131C2F20005018005F112
:1044A0002C01204600F0ACF895F8302005F13100E1
:1044B0003EA1FBF751FF28B128B0BDEC048B01B041
:1044C000BDE8F08F18ADFDF7D5FFB0EE408AFEF7DE
:1044D00003F807208DF8640046F67670C7F26C404A
:1044E000CDF8650046F27410C6F2675085ED008A7B
:1044F0000DF160080DF121051A9040462946B0EEF5
:10450000409A00F0BDF8627E40F2E80648F6E027E7
:1045100042F2D659E17E8DF8202080B200234FF080
:10452000180B08AA43F6F27AC2F20006CEF2C907C7
:10453000CEF22F09CDE900A2CDE902B305903046B5
:104540003A464B460495FFF71BF907208DF86400A7
:1045500047F26350C7F27220CDF8650046F2725000
:10456000C7F26E401A9018A880ED009A404629467E
:1045700000F086F8627EE17E84B20DF11F00013208
:10458000CDE900A000208DF81F20CDE903053046BD
:104590003A464B46CDF808B00594FFF7F1F828B03D
:1045A000BDEC048B01B0BDE8F08F00BF6765745FA0
:1045B000616C6C0082F0F20083F001021043B0FAEB
:1045C00080F04FEA501018BF704740F27802C2F2F4
:1045D00000025368DDF800C001335360012393608B
:1045E000F223C2F80CC0136142F2D65248F6E0231F
:1045F000CEF22F02CEF2C903C1E9003270470000AB
:104600002DE9F04782B08A4600212022012381460D
:10461000CDF800A0FEF75AF999F81400A0F10408AB
:104620003F38C0B2C6288AF804800DD204205FFA51
:1046300088F13A2920D8B9F81410401A18BF01207F
:1046400002B0BDE8F08700BF0AF10504002720266C
:10465000E51948463146082200230095FEF736F951
:104660009AF804000137874206F10806F0D3381D96
:104670005FFA88F13A29DED9012002B0BDE8F0875F
:104680002DE9F0418846054608463F21FBF726FF05
:104690004046002120222B46FEF73EFB2E793A2E83
:1046A00028BF3A2686B16C1D00272025E319404615
:1046B00029460822FEF730FB0137BE4205F1080506
:1046C000F4D1381DBDE8F0810420BDE8F081000080
:1046D00010EE100AC0F3C7517F391729A8BF7047E1
:1046E000DFED140A002970EE200A0CDAF5EEC00A9C
:1046F000F1EE10FA1ADD0028C8BF4FF07E50B8BFA7
:104700004FF0004012E00C4A22FA01F2104208BFBA
:104710007047F5EEC00AF1EE10FA07DD002804DD5F
:104720004FF4000323FA01F10844904300EE100A0D
:1047300070470000CAF24971FFFF7F00F1EE100AD6
:104740004FF6FF71C0F2C03120EA010040F0407026
:10475000E1EE100A704700000000000000000102B6
:10476000030406070809000000000102030400001A
:10477000904700080000002018000000C401000855
:10478000A847000818000020980B0000E00100086E
:104790000100000010000000400000006F12833A8A
:0847A000CDCCCC3C0024F40058
:040000050800018965
:00000001FF
