:020000040800F2
:10000000180A002029020008151D00080D1D00080F
:10001000111D0008D5030008A921000800000000F8
:100020000000000000000000000000008D1D00081E
:10003000E503000800000000191D0008911D0008DC
:10004000430200084302000843020008430200087C
:10005000430200084302000843020008430200086C
:10006000430200084302000843020008430200085C
:10007000430200084302000843020008430200084C
:10008000430200084302000843020008430200083C
:10009000430200084302000843020008430200082C
:1000A000430200084302000843020008430200081C
:1000B000591E0008430200084302000843020008DA
:1000C00043020008430200084302000843020008FC
:1000D000430200089D210008430200084302000873
:1000E00043020008430200084302000843020008DC
:1000F00043020008430200084302000843020008CC
:1001000043020008430200084302000843020008BB
:1001100043020008430200084302000843020008AB
:10012000430200084302000843020008430200089B
:10013000430200084302000843020008430200088B
:10014000430200084302000843020008430200087B
:100150004302000843020008D903000843020008D4
:10016000430200084302000843020008430200085B
:100170004302000843020008430200080000000098
:10018000430200084302000800F002F800F03CF8C7
:100190000AA090E8000C82448344AAF10107DA45E2
:1001A00001D100F031F8AFF2090EBAE80F0013F0F8
:1001B000010F18BFFB1A43F00103184794270000F2
:1001C000B4270000103A24BF78C878C1FAD8520783
:1001D00024BF30C830C144BF04680C6070470000C1
:1001E0000023002400250026103A28BF78C1FBD840
:1001F000520728BF30C148BF0B6070471FB502F0DF
:100200008AFB1FBD10B510BD00F0AFF81146FFF717
:10021000F5FF02F045FA00F0CDF803B4FFF7F2FF66
:1002200003BC00F0D1F800000948804709480047A6
:10023000FEE7FEE7FEE7FEE7FEE7FEE7FEE7FEE796
:10024000FEE7FEE704480549054A064B70470000F3
:10025000451E00088901000818040020180A002023
:10026000180600201806002053EA020C00F06980EE
:100270002DE9F04B4FF00006002B1FBFB3FA83F5BA
:1002800003FA05F424FA05F65E4012BF1643B2FAEB
:1002900082F502FA05F4C5F120051EBF22FA05FC1D
:1002A00044EA0C04203556EA044C4FEA144418BFC3
:1002B000641C4FF000084FF00009904271EB030CF2
:1002C00039D3002919BFB1FA81F701FA07F6B0FA5C
:1002D00080F700FA07F6C7F120071EBF20FA07FCD7
:1002E00046EA0C062037B6FBF4FCA7EB0507103FE7
:1002F00007F01F0BCBF120062CFA06F60CFA0BFBCD
:1003000044BFB3460026202FA4BF5E464FF0000B2B
:100310005BEA060C08BF4FF0010B19EB0B0948EB29
:100320000608ABFB027C06FB02CC0BFB03CCC01B1C
:1003300071EB0C01C1E70B46024641464846BDE859
:10034000F08B13B5084318BF4FF0FF300146AFF3F1
:100350000080BDE81C407047704770477047000040
:10036000004870471000002070477546FFF7F8FFFF
:10037000AE4605006946534620F00700854618B092
:1003800020B5FFF75FFFBDE820404FF000064FF0BB
:1003900000074FF000084FF0000BAC46ACE8C00976
:1003A000ACE8C009ACE8C009ACE8C00921F007011D
:1003B0008D46704710B50446AFF300802046BDE877
:1003C0001040FFF72ABF000001491820ABBEFEE72E
:1003D00026000200FEE7000040F22410C2F20000F6
:1003E00000F062B870470000EFF3108072B600BFF3
:1003F000FEE7000070B5866D044600F0C1FA94F87F
:100400003510022928D105462068216C026822F0A7
:1004100016020260426922F08002426109B9A16CB1
:1004200019B1016821F008010160016821F00101A2
:10043000016000BF20680068C00715D000F0A0FA76
:10044000401B0628F6D320206065032084F8350081
:10045000002184F8341070BD8020606501200021E7
:1004600084F8341070BD00BFE06D3F2101FA00F048
:10047000B060012084F835000020002184F8341099
:1004800070BD000090F83510022909D1052180F8CF
:1004900035100068016821F00101016000207047FB
:1004A0008021416501207047F0B581B004460020ED
:1004B000009040F20800C2F200000268D4E9166021
:1004C00048F2B51337680821C1F64E3381403942EE
:1004D000A2FB03250CD0226813685B0708D51368BC
:1004E00023F004031360B160616D41F001016165A7
:1004F00001218140394208D022685269120604D590
:10050000B160616D41F002016165042181403942B1
:1005100008D022681268920704D5B160616D41F07D
:100520000401616510218140394217D020680268BA
:10053000120713D5B16002680168520308D4C905D7
:1005400008D4016821F008010160216C21B905E09F
:1005500008033FD4216C09B120468847E16D202073
:1005600000FA01F23A4241D020680368DB063DD52B
:10057000B26094F835300268052B1BD122F01602C8
:100580000260426922F080024261226C0AB9A26CC8
:100590001AB1026822F0080202603F208840B06071
:1005A000012084F83500216D0020002984F83400F2
:1005B00052D157E00168520310D4C90512D4016822
:1005C00021F010010160012084F83500002084F83A
:1005D000340007E0A16C0029BED1BFE7080301D4B5
:1005E000616C00E0E16B09B120468847606DC8B3DB
:1005F000606DC0072ED0052084F835002068A90A58
:10060000026822F001020260009A01328A420092DE
:100610001AD80268D20717D0009A01328A42009293
:1006200012D80268D2070FD0009A01328A42009293
:100630000AD80268D20707D0009A01328A42009293
:1006400002D80268D207DFD1012084F835000020EB
:1006500084F83400E16C29B1204601B0BDE8F040D7
:10066000084700BF01B0F0BD2DE9F041044600F09D
:1006700087F9ECB10546022084F835000020216896
:1006800084F83400086820F00100086021680868D8
:10069000C00711D000F074F9401B0528F6D90325D6
:1006A00020230320636584F83550BDE8F08100BF46
:1006B0000120BDE8F08100BF086848F23F02CFF298
:1006C0001002D4E9013500EA020C04F10C0898E8A4
:1006D000C10143EA0C032B431843D4E9072E3043EE
:1006E00038431043626A40EA0E00042A40EA0803D5
:1006F0001CD1206BD4E90A2E40EA0E001843086092
:100700004869BEF1000F20F0030040EA020040F00B
:10071000040C11D0B8F5005F36D0B8F1000F45D108
:10072000022A46D0012A3BD032B942E00B60486928
:1007300020F0070040EA020C01F0F8004AF6AB2274
:100740001038CAF6AA22A0FB02231A0942F648135F
:10075000C0F600039A5C40F2FF335F284FF03F0081
:10076000C1F814C021EA030100FA02F088BF043185
:10077000C4E916128860002301250020636584F80F
:100780003550BDE8F08100BF032AD5D801254023AC
:100790000120DFE802F0030E030500BF82E700BF7F
:1007A000AEF1C070B0FA80F0400904E0032A04D32F
:1007B000C2D1CEF300600028BED001254023012025
:1007C000636584F83550BDE8F08100002DE9F04FF5
:1007D00082B000F13E4241F6004502F1FF77C4F2DB
:1007E0000205082243F6004E4FEAB726A84208BF8A
:1007F0000722C4F2010E072E38BF4FEAB7220125A7
:10080000002600274FF00008009208E008F10108D8
:100810000437B8F1100F06F1020600F0A7800C684B
:1008200005FA08F914EA090FF0D0D1F804B0032250
:100830000BF0030CACF10104B240012C6FEA020A88
:1008400010D88268CC6802EA0A02B440224382606F
:100850004268CBF3001422EA090204FA08F42243A6
:10086000426005E0BCF1030F02D14FF0030C20E021
:10087000C2688C6802EA0A02B4402243BCF1020F4B
:10088000C26016D16FF0030202EA58020244D2F8A5
:1008900020C007F01C050F230C69AB402CEA0303B2
:1008A00004FA05F52B431362D1F804B001250BF0CF
:1008B000030C02680CFA06F302EA0A021A431BF45C
:1008C000403F0260A2D0002243F644030192C4F2EA
:1008D00002031A684FF6084C42F480421A601A6804
:1008E000CFF6FF7C02F480420192019A28F00302C5
:1008F000724452F80C3007F00C050F24AC40A343AF
:10090000009C04FA05F52B4342F80C30DEF8082071
:100910004B6842EA090543F60C4CDC0258BF22EA58
:100920000905CEF80850C4F2010CDCF800209C0246
:1009300042EA090558BF22EA0905CCF80050DEF862
:1009400004209C0342EA090558BF22EA0905CEF8B3
:100950000450DEF80020DB0342EA090558BF22EA12
:100960000905CEF80050012550E700BF02B0BDE8F0
:10097000F08F0000002A08BF090481617047000061
:1009800040F21040C2F200000068704740F20000E0
:1009900040F21041C2F20000C2F2000100780A6881
:1009A000104408607047000080B543F60040C4F270
:1009B0000200016841F400710160016841F4806146
:1009C0000160016841F480710160032000F088F843
:1009D0000F2000F005F800F027F8002080BD00008F
:1009E00070B540F20006C2F2000640F2080132780B
:1009F000C2F200014FF47A730968B3FBF2F20446C5
:100A0000B1FBF2F1084600F043FB0F2C4FF001055B
:100A100008D838B94FF0FF3021460022002500F0F9
:100A200033F87460284670BD82B0002043F6400160
:100A30000190C4F202014A6842F480424A604A6866
:100A400002F480420192019A0090086840F08050C0
:100A50000860086800F080500090009802B070476D
:100A6000002848BF7047C1B200F01F00012202FAFF
:100A700000F04EF20012CEF2000242EAD10121F063
:100A8000030108607047000010B54EF60C5CCEF212
:100A9000000CDCF80030C3F3022E8EF00704042CA7
:100AA00028BF0424BEF103034FF0FF3E0EFA04F406
:100AB00038BF0023A14399400EFA03F39A43114330
:100AC00000F00F0200F160430901043A03F56443AA
:100AD0006244002848BF02F10C03197010BD0000E9
:100AE0004EF60C51CEF200010A684FF6FF031A4091
:100AF00060F30A2242F0806040F0FD7008607047A9
:100B00002DE9F041002800F08B8043F60808C4F27C
:100B100002080446D8F8F8030D4600F007008842A2
:100B200007D288F8F853D8F8F80300F00700A84275
:100B300076D12068810717D5410705D5D8F8001070
:100B400041F4E051C8F80010010705D5D8F80010AD
:100B500041F46041C8F80010D8F80010A26821F0F4
:100B6000F0011143C8F80010C0073FD1D8F8F803CE
:100B700000F00700A84207D988F8F853D8F8F8031E
:100B800000F00700A8424BD12068410707D5D8F8EC
:100B90000010E26821F4E0511143C8F8001000078A
:100BA00008D5D8F80000216920F4604040EAC1006F
:100BB000C8F8000000F07CF8D8F8001042F63012B7
:100BC000C1F30311C0F60002515C40F2080220FAA2
:100BD00001F140F20400C2F200000068C2F200021B
:100BE0001160FFF7FDFE0020BDE8F0816068811E06
:100BF000022907D258F8081C89015CBF0120BDE812
:100C0000F08111E0012807D158F8081C89035CBF66
:100C10000120BDE8F08107E058F8081C890703D4DB
:100C20000120BDE8F08100BFD8F8001021F00301D9
:100C30000843C8F80000FFF7A3FE064641F28837D4
:100C4000D8F80000616800F00C00B0EB810F8DD087
:100C5000FFF796FE801BB842F2D90320BDE8F08171
:100C600040F2080043F60801C2F20000C4F202019B
:100C70000068096842F64012C1F38221C0F6000202
:100C8000515CC8407047000040F2080043F608017C
:100C9000C2F20000C4F202010068096842F6401284
:100CA000C1F34231C0F60002515CC84070470000F9
:100CB00010B543F60404C4F20204606800F00C01AD
:100CC00042F200400829C0F2F40007D0042918BFFE
:100CD00010BD41F20020C0F27A0010BD216801F081
:100CE0003F02216823684902C3F3881106D4A1FB9F
:100CF00000010023FFF7B8FA07E000BF41F200202F
:100D0000C0F27A004843B0FBF2F021680222C1F33E
:100D1000014102EB4101B0FBF1F010BD2DE9F041C2
:100D200082B0002868D00446007843F60006C00769
:100D3000C4F202060BD0B06800F00C00042840F0AA
:100D40009F803068800302D56068002854D02078E6
:100D500080071AD5B06810F00C0F09D0B06800F009
:100D60000C00082840F0A6807068400200F1A280C4
:100D70003068800702D5E06801283DD130682169DC
:100D800020F0F80040EAC10030602078000737D436
:100D9000207840074CD4A56955B3B06800F00C002A
:100DA000082840F0BB80012D26D07068E16900F46E
:100DB00080028A4220D1216A00F03F028A421BD180
:100DC00047F6C071626A0140B1EB821F14D1A16A7B
:100DD0004FF6FF73C903994300F44032A1F5803107
:100DE0008A4209D1E16A00F07060B0EB016F03D173
:100DF000002002B0BDE8F081012002B0BDE8F08122
:100E00006069002840F20000C4F2472076D001213A
:100E1000C0F8801EFFF7B4FD054600BF706F800765
:100E2000B6D4FFF7ADFD401B0228F7D9DDE000BFC7
:100E3000306C10F080580AD100200190306C40F0E6
:100E400080503064306C00F080500190019847F27F
:100E50000007C4F200073868C00541D4386840F480
:100E600080703860FFF78CFD054600BF3868C0050C
:100E700036D4FFF785FD401B0228F7D9B5E000BF47
:100E8000B06800F00C00082803D1706840023FF5FC
:100E900058AF6068B0F5803F07D0B0F5A02F40F0A4
:100EA0008D80306840F480203060306840F48030BD
:100EB00030608DE0E068002852D00020C4F2472066
:100EC00001210160FFF75CFD054600BF3068800727
:100ED0003FF554AFFFF754FD401B0228F6D984E0DC
:100EE000A068012805D005284ED1306F40F00400DD
:100EF0003067306F40F0010030674FE00021C0F8EC
:100F0000801EFFF73DFD0546706F80077FF540AFFF
:100F1000FFF736FD401B0228F6D966E00027C4F231
:100F2000472700203866FFF72BFD022D05460BD121
:100F3000306880015ED5FFF723FD401B02284FF08B
:100F40000300F5D955E700BF306880017FF550AF49
:100F5000FFF716FD401B02284FF00300F4D948E7C5
:100F60000020C4F2472000210160FFF709FD05467B
:100F7000306880077FF509AFFFF702FD401B0228AC
:100F80004FF00300F4D934E7316F002821F001015C
:100F90003167316F21F0040131674DD0FFF7F0FC6C
:100FA000054641F2883700BF306F800756D4FFF7FF
:100FB000E7FC401BB842F7D917E000BF31680028B2
:100FC00021F480313160316821F4802131604FD0CB
:100FD000FFF7D6FC054600BF306880033FF5B7AE8B
:100FE000FFF7CEFC401B6428F6D9032002B0BDE811
:100FF000F08100BF04F11C052FCD084340EA8210A8
:10100000D9034FF6FF729143A1F5803140EA0560A4
:101010000843706001203866FFF7B2FC044600BF49
:10102000306880013FF5E4AEFFF7AAFC001B022800
:101030004FF00300F4D9DCE6FFF7A2FC054641F2CD
:10104000883700BF306F800708D5FFF799FC401B39
:10105000B8424FF00300F5D9CBE600BFB8F1000F5E
:101060007FF499AE306C20F08050306493E600BF7E
:10107000FFF786FC054600BF306880037FF567AE4A
:10108000FFF77EFC401B64284FF00300F4D9B0E664
:10109000411E0020B0EB116F1CBF012070474EF2C3
:1010A0001002CEF2000251604EF62351CEF2000142
:1010B000F0230B70072190601160704770470000AB
:1010C0007047000010B590F83C20012A4FF0020252
:1010D00051D080F83D200268D2F804E0D2F808C070
:1010E0000C682EF07003234341F2FF74C4F2000435
:1010F000A24253600EDC40F2FF73C4F200039A4236
:1011000016DCB2F1804F2BD040F20043C4F2000352
:1011100024E000BF40F2FF33C4F201039A4213DC23
:1011200041F60003C4F200039A4219D0002313E0F1
:1011300040F60003C4F200039A4211D040F6004387
:10114000C4F200030AE000BF44F20003C4F201034A
:101150009A4205D040F20043C4F201039A4204D1FE
:1011600049682CF08003194391600121002280F826
:101170003D1080F83C20104610BD0000002804BF40
:101180000120704710B5044690F83D0028B90020B2
:1011900084F83C00204600F01FF8022084F83D004F
:1011A0002068211D00F05EFE012084F8460084F8CE
:1011B0003E0084F83F0084F8400084F8410084F841
:1011C000420084F8430084F8440084F8450084F821
:1011D0003D00002010BD000080B582B00068B0F175
:1011E000804F1CBF02B080BD0020019043F640003C
:1011F000C4F202000168002241F0010101600068B0
:10120000002100F00100019001981C20FFF73CFC38
:101210001C2002B0BDE88040FFF722BC90F83D10D2
:1012200001291CBF01207047022180F83D10006891
:1012300041F2FF72C168C4F20002904241F0010124
:10124000C1600DDC40F2FF71C4F20001884215DC80
:10125000B0F1804F2AD040F20041C4F2000123E0F7
:1012600040F2FF31C4F20101884213DC41F6000173
:10127000C4F20001884219D0002113E040F60001B9
:10128000C4F20001884211D040F60041C4F20001CE
:101290000AE000BF44F20001C4F20101884205D017
:1012A00040F20041C4F20101884206D1816801F098
:1012B0000701062904BF00207047016841F00101C1
:1012C000016000207047000080B590F83C20012AA2
:1012D0004FF0020200F0C28080F83D20D0F800C03C
:1012E0004FF67772DCF8083023EA0202CCF80820C7
:1012F0000B684F2B28DC1F2B44DD202B45D0302BD7
:1013000043D0402B40F0AC80D1F804E0C968DCF851
:101310002030DCF8202022F00102CCF82020DCF87C
:10132000182022F0F00242EA011123F00A0242EAF8
:101330000E02CCF81810CCF82020DCF8081041F090
:10134000470121F0300180E06F2B27DDB3F5005F0E
:1013500048D0B3F5805F7AD0702B40F08180D1E91E
:1013600001E3C968DCF8082043EA0E0322F47F4257
:1013700043EA01211143CCF80810DCF8081041F0D1
:10138000770162E00BB1102B6AD1DCF8081021F074
:101390007001194341F0070157E000BF502B35D0D1
:1013A000602B5DD1D1F804E0C968DCF8203023F06F
:1013B0001003CCF82030DCF81830DCF8202023F4BF
:1013C000704322F0A00243EA013142EA0E12CCF847
:1013D0001810CCF82020DCF8081041F0670121F04B
:1013E000100132E0D1E901E3C968DCF8082043EAE2
:1013F0000E0322F47F4243EA01211143CCF8081086
:10140000DCF8081041F480411FE000BFD1F804E08F
:10141000C968DCF82030DCF8202022F00102CCF88A
:101420002020DCF8182022F0F00242EA011123F01B
:101430000A0242EA0E02CCF81810CCF82020DCF8A0
:10144000081041F0570121F02001CCF808100022CB
:10145000012180F83D10002180F83C10104680BD2D
:101460000122F5E77047000010B5016804460869DD
:10147000800744BFC8685FEA807039D408694007B4
:1014800044BFC8685FEA40703ED40869000744BFA3
:10149000C8685FEA007045D40869C00644BFC868E0
:1014A0005FEAC0604AD40869C0071CBFC8685FEA29
:1014B000C07051D10869000644BFC8685FEA006087
:1014C00052D40869400644BFC8685FEA406053D4FC
:1014D0000869800646BFC8685FEA806010BD6FF08B
:1014E000200220460A61BDE81040FFF7E9BD00BFB9
:1014F0006FF002000861012020778869800743D0DF
:101500002046FFF7AFFF45E06FF0040008610220BE
:101510002077886910F4407F40D02046FFF7A2FF73
:1015200042E000BF6FF00800086104202077C8691E
:1015300080073DD02046FFF795FF3FE06FF0100099
:10154000086108202077C86910F4407F3AD020460F
:10155000FFF788FF3CE000BF6FF001000861204604
:1015600000F03EF82168A5E76FF080000861204692
:10157000FFF7A4FD2168A4E76FF040000861204652
:1015800000F030F82168A3E7204600F025F8204657
:1015900000F024F82168002020776FE7204600F053
:1015A0001BF8204600F01AF82168002020776CE72D
:1015B000204600F011F8204600F010F821680020C5
:1015C000207769E7204600F007F8204600F006F88B
:1015D00021680020207766E7704700007047000010
:1015E000704700007047000070470000704700001F
:1015F000B0B582B0044600680168C368426901F072
:101600002F05202D03F0200506D12DB1204602B074
:10161000BDE8B04000F0CABC5FEA017C1EBF02F02A
:10162000010E03F4907212EB0E0253D1226B012AC9
:1016300005D111F0100218BF13F0100236D10A06BE
:1016400022D513F080021FD094F83D1021293FD1FC
:10165000A168B1F5805F03D12169002900F0728291
:10166000216A4A1C226209784160E18C01390A042E
:10167000E1842DD1C16821F08001C160C16841F0D1
:101680004001C16002B0B0BD490621D513F0400150
:101690001ED0C16821F04001C1602021204684F89D
:1016A0003D1002B0BDE8B04000F02EBB002101911A
:1016B000016801914168019101994069400613D484
:1016C000A08DE18DE28D002A18BF884240F0BE81D6
:1016D00002B0B0BDCA0718BF13F4807240F0BA80E0
:1016E0004A0700F1BD80C2E0A16B0868426893B26E
:1016F000002BEDD0A08D8342EAD2E285C969B1F515
:10170000807F00F09D80206850E8030F216820F45E
:10171000807041E80302DAB1206850E8030F2168C5
:1017200020F4807041E8030292B1206850E8030F72
:10173000216820F4807041E803024AB1206850E833
:10174000030F216820F4807041E80302002ADAD1F7
:10175000206850E8050F216820F0010041E80502EB
:10176000DAB1206850E8050F216820F0010041E857
:10177000050292B1206850E8050F216820F00100B1
:1017800041E805024AB1206850E8050F216820F0C1
:10179000010041E80502002ADAD1206850E8050F6F
:1017A000216820F0400041E80502DAB1206850E8E5
:1017B000050F216820F0400041E8050292B1206841
:1017C00050E8050F216820F0400041E805024AB1C9
:1017D000206850E8050F216820F0400041E805022C
:1017E000002ADAD1202084F83E00002020632068FF
:1017F00050E8030F216820F0100041E80302DAB13D
:10180000206850E8030F216820F0100041E803022F
:1018100092B1206850E8030F216820F0100041E8E1
:1018200003024AB1206850E8030F216820F010003D
:1018300041E80302002ADAD1A06BFEF7DBFDA08DA0
:10184000E18D401A81B2204602B0BDE8B040FFF7FA
:10185000CBBE00BF226C42F0010222644A0706D5CB
:10186000BEF1000F03D0226C42F0020222648A070C
:1018700006D5BEF1000F03D0226C42F004022264B0
:10188000BCF1000F09D545EA0E02B2FA82F2520904
:1018900003D1226C42F008022264226C002A3FF439
:1018A00017AF11F0200118BF002D03D0204600F023
:1018B0007DFB20684069216C00F0400001F00801C8
:1018C000401800F0B58000BF206850E8030F216881
:1018D00020F4907041E80302BAB3206850E8030F87
:1018E000216820F4907041E8030272B3206850E848
:1018F000030F216820F4907041E803022AB32068A6
:1019000050E8030F216820F4907041E80302002A98
:10191000DAD11AE0206850E8050F216820F00100B4
:1019200041E80502DAB1206850E8050F216820F08F
:10193000010041E8050292B1206850E8050F2168D6
:1019400020F0010041E805024AB1206850E8050F87
:10195000216820F0010041E80502002ADAD1206B5D
:10196000012824D1206850E8030F216820F01000DE
:1019700041E80302DAB1206850E8030F216820F043
:10198000100041E8030292B1206850E8030F21687B
:1019900020F0100041E803024AB1206850E8030F2C
:1019A000216820F0100041E80302002ADAD120204B
:1019B00084F83E00002020632068406940063FD53F
:1019C000206850E8050F216820F0400041E805023A
:1019D000DAB1206850E8050F216820F0400041E8A6
:1019E000050292B1206850E8050F216820F0400000
:1019F00041E805024AB1206850E8050F216820F04F
:101A0000400041E80502002ADAD1A06BC0B141F6DE
:101A1000A171C0F600010165FEF734FD00283FF416
:101A200057AEA06B016D02B0BDE8B040084700BFE3
:101A30002046FFF7DBFD0020206402B0B0BD00BFF0
:101A4000204602B0BDE8B040FFF7D0BD401A216883
:101A500051E8031F226821F4907142E80313DBB1BF
:101A6000216851E8031F226821F4907142E80313B2
:101A700093B1216851E8031F226821F4907142E874
:101A800003134BB1216851E8031F226821F49071C0
:101A900042E80313002BDAD1216851E8051F2268C0
:101AA00021F0010142E80513DBB1216851E8051F6F
:101AB000226821F0010142E8051393B1216851E841
:101AC000051F226821F0010142E805134BB121688E
:101AD00051E8051F226821F0010142E80513002B9F
:101AE000DAD1202184F83E1000212163216851E8D9
:101AF000031F226821F0100142E80313002B3FF47A
:101B0000A1AE216851E8031F226821F0100142E8CC
:101B10000313002B3FF496AE216851E8031F22689F
:101B200021F0100142E80313002B3FF48BAE216833
:101B300051E8031F226821F0100142E80313002B33
:101B4000D4D17FE6216A31F8022B6FF35F22426025
:101B500021628AE5002804BF0120704710B50446C1
:101B600090F83D0028B9002084F83C00204600F0A1
:101B700021F8242084F83D002068C16821F4005138
:101B8000C160204600F092FA2068016921F490417A
:101B90000161416921F02A014161C16841F40051AC
:101BA000C16000202021206484F83D1084F83E109C
:101BB00010BD000070B586B00446016841F2000017
:101BC000C4F20100814201D006B070BD002643F688
:101BD00030010196C4F202014A6900F5704042F0FA
:101BE00010024A614A6902F010020192019A0196BC
:101BF0000A6842F001020A60096801F001010191DE
:101C000001994FF4C06101910221CDE9021603212F
:101C100004910721059101A9FEF7D8FD40F2241592
:101C200046F2B840C2F20005C4F202004FF0006173
:101C300040224FF4806385E847002846C5E9043612
:101C4000C5E90666C5E90866FEF70EFD002818BF5F
:101C5000FEF7CAFB2520002100226563AC63FEF776
:101C600013FF2520FEF7FCFE06B070BD90F83E3055
:101C7000202B0BD100294FF0010318BF002A01D1FE
:101C80001846704790F83C30012B01D10220704774
:101C900000230363816222218285C285036480F868
:101CA0003E100269016880F83C301AB1C86840F4FF
:101CB0008070C8604869002340F001004861C8682E
:101CC00040F02000C86018467047000010B500685A
:101CD00041F20001C4F20101884218BF10BD40F278
:101CE0007004C2F2000414F8031F04F1210000F094
:101CF00035F840F2CC10C2F2000021460122BDE8C6
:101D00001040FFF7B3BF000070470000FEE700007F
:101D1000FEE70000FEE7000070470000D0E9003257
:101D2000934202BFFF2148B27047C3689A5C0A70B1
:101D3000D0E901124B1C0021934228BF0B4643609F
:101D400048B2704700294FF0FF031FBF002A00234D
:101D5000C0E90033C0E9022158B2704780B5D0E92C
:101D600000EC82680EF101039BB29A4298BF0023F7
:101D7000634503D1FF2040B280BD00BFC26802F8B6
:101D80000E100360002040B280BD000070470000CC
:101D9000FEF7FCBDB0B592B0002443F64000CDE99B
:101DA0000A44CDE908440594CDE90344CDE9014452
:101DB0000094C4F202000168022541F080510160E4
:101DC000006800F080500090009847F200000094F6
:101DD000C4F20000016841F4804101600068A8215C
:101DE00000F4804000900098012006904FF480306D
:101DF00007904FF480000D9004200E90119006A8DB
:101E00000C95CDE90F15FEF789FF28B1EFF310808F
:101E100072B600BFFEE700BF0F20CDE901054FF409
:101E2000A05004904FF48050059001A80521039420
:101E3000FEF766FE20B1EFF3108072B6FEE700BF3A
:101E400012B0B0BD4EF68850CEF20000016841F4E9
:101E5000700101607047000040F28410C2F200007F
:101E6000FFF702BB10B540F6FF3E0368C4F2000E58
:101E700040F2004C7045C4F2010C27DCB0F1804FF9
:101E800031D040F20042C4F2000290422BD040F622
:101E90000002C4F20002904225D041F6FF72C4F263
:101EA0000002904229DC70453CDCB0F1804F5FD0ED
:101EB00040F20042C4F20002904259D040F60002C3
:101EC000C4F20002904253D056E000BF40F60042F8
:101ED000C4F20002904206D0604504D00022C4F251
:101EE00001029042D9D14A6823F07003134341F6AE
:101EF000FF72C4F200029042D5DD43F6FF72C4F2D5
:101F00000102904222DC42F20002C4F2000290423E
:101F10002ED00022C4F20102904229D0604527D081
:101F20002AE000BF40F60042C4F2000290421FD0F7
:101F300041F60002C4F20002904219D041F600427C
:101F4000C4F20002904213D016E000BF44F2000237
:101F5000C4F2010290420BD044F60002C4F2010226
:101F6000904205D044F20042C4F20102904203D1F3
:101F7000CA6823F44073134323F080024B69D1F8FD
:101F800000E08C681A430260C46240F48062C0F8CA
:101F900028E0624504BF096901630121416110BD68
:101FA000806B0021C185C184FFF720BB81B090F810
:101FB0003E10222921D183680246B3F5805F09D102
:101FC00052F8281F52F8183C002B63D003685B6856
:101FD0000AE000BF52F8281F13B90369002BF5D09F
:101FE00003685B6803F07F030B70116801311160B7
:101FF000C18D01390A04C18502D001B0704700BF0C
:102000000168CA6822F02002CA60CA6822F480729D
:10201000CA604A6922F001024A61202180F83E101C
:10202000016B01293ED10021016300BF016851E825
:10203000031F026821F0100142E80313DBB10168BD
:1020400051E8031F026821F0100142E8031393B125
:10205000016851E8031F026821F0100142E80313F0
:102060004BB1016851E8031F026821F0100142E8FA
:102070000313002BDAD101680A68D20606D50022C4
:1020800000920A680092496800910099818D01B020
:10209000FFF7AABA026852686FF35F2221F8022B99
:1020A0008162A5E701B0FFF711BE000010B504463C
:1020B0000068D4E902C22369016921F44051114347
:1020C0000161626943EA0C01E3691143C268194383
:1020D00049F20C639A431143C1604169A26921F43A
:1020E000407141F20043114340F48062C4F20103A5
:1020F0009A42416102D1FEF7C7FD01E0FEF7B0FD53
:10210000E16963681922B1F5004FA0FB020123D1F8
:102110005A00DB0FFEF7A8F848F21F51C5F2EB1189
:10212000A0FB01235A094FF69C73C0F6FF7303F11D
:10213000805302FB0300322303EBC000A0FB01012C
:102140004FF4F87000EA111000EB0210C1F34211D5
:1021500008442168886010BD9A009B0FFEF784F840
:1021600048F21F51C5F2EB11A0FB01235A094FF6AB
:102170009C73C0F6FF7302FB0300322303EB0010D5
:10218000A0FB0101F02000EA511000EB0210C1F3A6
:10219000431108442168886010BD000040F2CC1053
:1021A000C2F20000FFF724BAFEE7000004293CBF9A
:1021B00000207047F0B5CB1EDAB200F1020E012A02
:1021C00003F0010C02D100246FE000BF02F0FE0317
:1021D00000246FF02A0200BF1EF8026B744066B242
:1021E00067001EF8015C002E48BF82EA44077CB2FB
:1021F0007E00002C48BF82EA470674B27700002CAC
:1022000048BF82EA46077CB27E00002C48BF82EAC3
:10221000470674B27700002C48BF82EA46077CB2BA
:102220007E00002C48BF82EA470674B27700002C7B
:1022300048BF82EA46077CB27E00002C48BF82EA93
:10224000470685EA060465B26600002D48BF82EAAB
:10225000440674B27500002C48BF82EA46056CB291
:102260006E00002C48BF82EA450674B27500002C4F
:1022700048BF82EA46056CB26E00002C48BF82EA75
:10228000450674B27500002C48BF82EA46056CB260
:102290006E00002C48BF82EA450675B27400002D1E
:1022A00048BF82EA4604023B96D1BCF1000F35D00C
:1022B0009EF8002082EA04035FB25E006FF02A02FB
:1022C000002F48BF82EA430673B27700002B48BF55
:1022D00082EA46077BB27E00002B48BF82EA4706AF
:1022E00073B27700002B48BF82EA46077BB27E00BC
:1022F000002B48BF82EA470673B27700002B48BF25
:1023000082EA46077BB27E00002B48BF82EA47067E
:1023100073B27400002B48BF82EA4604084410F8E8
:10232000010CE1B2081AB0FA80F04009F0BD0000DB
:10233000028812BA120C0A80428812BA120C4A8021
:102340008288837942EA03424A60C0790872704702
:102350000278437863F30A220A80B0F80120C2F3BE
:10236000CA024A804288037942EA0342C2F38A12CF
:102370008A808288C2F34A02CA80B0F80520C2F37C
:102380000A120A81C288037A42EA0342C2F3CA12DD
:102390004A810289C2F38A028A81B0F8092052096F
:1023A000CA81C27A037B63F30A220A828289C2F35A
:1023B000CA024A82B0F80D20C37B42EA0342C2F34C
:1023C0008A128A82B0F80F20C2F34A02CA82028AB5
:1023D000C2F30A120A83B0F81120C37C42EA034216
:1023E000C2F3CA124A83B0F81320C2F38A028A8366
:1023F000808A4009C8837047B0B588B082781929AF
:10240000C0F03C81162A40F039810021CDE9061147
:10241000CDE90411CDE90211CDE90011033069467F
:10242000FFF796FFBDF8000040F27004C2F200040E
:10243000A086A08E40F2DC5500EB8000A0F59B50FA
:1024400000EB507005EBD000A4F85400FEF798FAAA
:10245000A060BDF80200E086E08E00EB8000A0F5F1
:102460009B5000EB507005EBD000A4F85600FEF72F
:1024700087FAA060BDF804002087208F00EB800061
:10248000A0F59B5000EB507005EBD000A4F858006D
:10249000FEF776FAA060BDF806006087608F00EB5B
:1024A0008000A0F59B5000EB507005EBD000A4F825
:1024B0005A00FEF765FAA060BDF80800A087A08F5B
:1024C00000EB8000A0F59B5000EB507005EBD000B6
:1024D000A4F85C00FEF754FAA060BDF80A00E0879B
:1024E000E08F00EB8000A0F59B5000EB507005EBF7
:1024F000D000A4F85E00FEF743FAA060BDF80C001F
:10250000A4F84000B4F8400000EB8000A0F59B5018
:1025100000EB507005EBD000A4F86000FEF730FA35
:10252000A060BDF80E00A4F84200B4F8420000EB31
:102530008000A0F59B5000EB507005EBD000A4F894
:102540006200FEF71DFAA060BDF81000A4F8440078
:10255000B4F8440000EB8000A0F59B5000EB5070F5
:1025600005EBD000A4F86400FEF70AFAA060BDF8FD
:102570001200A4F84600B4F8460000EB8000A0F575
:102580009B5000EB507005EBD000A4F86600FEF7FE
:10259000F7F9A060BDF81400A4F84800B4F84800AA
:1025A00000EB8000A0F59B5000EB507005EBD000D5
:1025B000A4F86800FEF7E4F9A060BDF81600A4F8DE
:1025C0004A00B4F84A0000EB8000A0F59B5000EBF5
:1025D000507005EBD000A4F86A00FEF7D1F9A060B6
:1025E000BDF81800A4F84C00B4F84C0000EB8000D3
:1025F000A0F59B5000EB507005EBD000A4F86C00E8
:10260000FEF7BEF9A060BDF81A00A4F84E00B4F8B9
:102610004E0000EB8000A0F59B5000EB507005EBE6
:10262000D000A4F86E00FEF7ABF9A060BDF81C0066
:10263000A4F85000B4F8500000EB8000A0F59B50C7
:1026400000EB507005EBD000A4F87000FEF798F98D
:10265000A060BDF81E00A4F85200B4F8520000EBD0
:102660008000A0F59B5000EB507005EBD000A4F863
:102670007200FEF785F9A06010E000BF0B290DD3B2
:10268000082A0BD140F27001C2F200010330183168
:1026900008B0BDE8B040FFF74BBE00BF08B0B0BD0A
:1026A0008AB040F60047C4F20207FEF77DF9FFF753
:1026B00071FB002443F6300507940894C4F2020528
:1026C0002868062140F0800028602868002200F079
:1026D00080000890089808942868062640F00100B9
:1026E0002860286800F0010008900898089428687D
:1026F00040F008002860286800F00800089008985A
:102700003846FEF737F90120CDE9040403A938461D
:1027100003960694FEF75AF803942868002140F4C3
:10272000800028602868002200F48000039003984D
:102730004620FEF7A9F94620FEF792F940F2CC10A8
:10274000A7F57C41C2F2000046F6A0020C23C0F2BD
:10275000060280E81600C0E90344C0E90534C461FC
:10276000FFF7F8F920B1EFF3108072B6FEE700BF73
:1027700040F28410C2F200004FF0804142F6031391
:102780000694CDE90444CDE9084441F63F7280E85F
:102790001600C0E903348461FEF7F0FC20B1EFF3CA
:1027A000108072B6FEE700BF4FF48050039040F2F5
:1027B0008410C2F2000003A9FEF786FD20B1EFF3FA
:1027C000108072B6FEE700BF40F28410C2F2000033
:1027D00008A9FEF777FC28B1EFF3108072B600BFAE
:1027E000FEE700BF40F27006C2F2000606F12405C3
:1027F00040F21021C2F2000128464FF40072FFF7A8
:10280000A1FA40F2CC10F11CC2F2000001224FF0FC
:10281000010BFFF72BFA40F28410C2F20000FEF722
:10282000FDFC40F2E40700204FF000080DF10C0A17
:102830004FF00209C2F2000702900020019004E06C
:1028400086F800B0387086F802B028465146FFF787
:1028500065FA68BB3078012808D0A8B99DF80C004B
:10286000EE28EDD0C828EBD0EFE700BF9DF80C00B4
:1028700086F8009078700230C1B24129707028BF8C
:1028800086F80080E1E700BF431C71789DF80C20BA
:10289000DCB28C4233703A54D7D33846FFF786FC0B
:1028A00018B171783846FFF7A7FDA6F80080CCE78D
:1028B000FEF766F8B1680024401AB0F57A7F4FF051
:1028C000000098BF0120B070B07898B9FEF758F8B2
:1028D0000299401AC928B8D3FEF752F8029001981D
:1028E000C2B2B2FA82F0002A18BF0122400914468F
:1028F000019000E0012240F60040C4F202000221F3
:10290000FEF738F840F60040C4F2020004212246E7
:10291000FEF730F899E7F1EE100A4FF6FF71C0F2BA
:10292000C03120EA010040F04070E1EE100A70472B
:10293000000000000000000001020304060708096F
:102940000000000001020304000610160006101625
:10295000702900080000002010000000C4010008D9
:102960008029000810000020080A0000E00100088B
:1029700001000000100000000024F400000000002E
:040000050800018965
:00000001FF
