:020000040800F2
:10000000E00600206501000893190008C5140008E7
:1000100000000000000000000000000000000000E0
:100020000000000000000000000000009719000818
:100030000000000000000000951900089919000850
:1000400077010008770100087701000877010008B0
:1000500077010008770100087701000877010008A0
:100060000000000077010008770100087701000810
:100070007701000877010008770100087701000880
:1000800077010008770100087701000800000000F0
:100090007701000877010008770100087701000860
:1000A0007701000877010008770100087701000850
:1000B0007701000877010008000000000000000040
:1000C00000F002F800F03EF80CA030C80838241800
:1000D0002D18671EA246AB4654465D46AC4201D180
:1000E00000F030F87E460F3EB6460FCC0126334274
:1000F00000D0FB1A3343A246AB461847EC1D000064
:100100000C1E0000103A02D378C878C1FAD8520702
:1001100001D330C830C101D504680C6070470000BD
:100120000023002400250026103A01D378C1FBD813
:10013000520700D330C100D50B6070471FB51FBDFB
:1001400010B510BD00F07CF81146FFF7F7FF01F085
:1001500029FC00F094F803B4FFF7F2FF03BC00F0B1
:100160009BF800000748804707480047FEE7FEE786
:10017000FEE7FEE7FEE7FEE704480549054A064BB1
:1001800070470000A1190008C1000008E00000202D
:10019000E0060020E0020020E002002001E004C0B0
:1001A000091F0429FBD28B0701D50280801CC907D7
:1001B00000D00270704700290BD0C30702D0027034
:1001C000401C491E022904D3830702D50280801CEB
:1001D000891EE3E70022EEE70022DFE77047704761
:1001E00070471F22030C02D10F2200041CD0030E03
:1001F00001D10002083A030F01D10001121F830F41
:1002000001D18000921E002801DB4000521ED20561
:100210005118021251181922904004D3491C002889
:1002200001D14908490008467047C10FC90700D0ED
:100230004042012292071143D3E701218907D0E709
:10024000754600F025F8AE46050069465346C008DD
:10025000C000854618B020B5FFF78EFF60BCB646DB
:1002600000260027C0C5C0C5C0C5C0C5C0C5C0C523
:10027000C0C5C0C5403D490849008D46704710B50E
:100280000446C046C0462046FFF765FF10BD00008B
:10029000004870471000002001491820ABBEFEE75F
:1002A0002600020070470000524908607047C046AF
:1002B000F0B58FB005464F4E30687D21CF00012448
:1002C00000950194029716210D22234600F092FA20
:1002D000002804D00694306801F0F6F801E0002010
:1002E00006903446306802970221099101910AA9CB
:1002F0000091162109220126334600F07BFA0028DE
:1003000003D0206801F0E0F802E00A986880002637
:1003100020680297099901910BA9009116210A22E0
:100320000123089300F066FA002803D0206801F04A
:10033000CBF803E00B98A880002008902068029773
:10034000099901910CA90091162108220123079314
:1003500000F050FA002804D0206801F0B5F8002021
:1003600005E00CA80088FFF768FF002107912249EB
:1003700001F0ECFC214901F0A3FCA860206805977E
:100380000297099901910DA9009116210F220123CD
:100390001F4600F02FFA0028049504D0206801F0D1
:1003A00093F83D4602E00D98A88100252068059944
:1003B0000291099901910EA900911621102201279D
:1003C0003B4600F017FA002804D0206801F07CF8C2
:1003D000069804E00E980499C88100270698064301
:1003E00008980643079806432E433E4330460FB015
:1003F000F0BDC046D4000020CDCCCC3D339388C3A3
:10040000F0B587B00290002963D09448029A8242E6
:1004100001D0062000E005200B221207029B9B184A
:100420000A22D3410193052B00D3019000200646F8
:100430000346009121E0059D8540029C21682943E7
:1004400021601C213140049F8F40D9088900611828
:100450000A6ABA430A62E168A943E1606168069AE0
:1004600091436160A168A943A16000995B1C0A46A1
:10047000DA40801C361D002A2BD001229A401546F6
:100480000D40F3D006920C2434400F2104910A460B
:10049000A24003211F4605918F4373497958039267
:1004A0001140019AA2409142C5D16F497C186C4A13
:1004B0001168A94311605168A9435160D168A943EB
:1004C000D1609168A94391602168039A91432160AA
:1004D000B1E707B0F0BDC046F0B58AB00190099110
:1004E0000A68002A00D1B7E05C48019B834201D032
:1004F000062000E005200B2109075B180A21CB41EB
:100500000093052B00D300900026354634460BE0BF
:1005100011433960641C099802681046E040B61C1B
:100520002D1D002800D197E001210846A04002407F
:10053000F0D0029404920591089503252946B14014
:10054000CA43099934464E6833462B405F1E012F3B
:1005500007920696039410D80F4601998D681540AE
:10056000FF68A7402F438F60F506ED0F029CA54062
:100570004F6887432F434F6008E0032B029C05D14F
:100580002B46019F089D049A039E22E0019FF86874
:100590000799084009998D68039EB5400543FD60A1
:1005A000022B089D049A14D11C2028400F21814061
:1005B000E3089B00FB1806931D6A8D43099B19698C
:1005C00081402943089D06980162586803230690DC
:1005D0000340B340386807990840184338600698CC
:1005E0008003800F059B95D01E490868184308605A
:1005F0000C2028400F218140032325469D431A4F9C
:10060000EB598B43009981401943E951144FB96864
:1006100009984068C30201D5114300E09143089D49
:10062000B960F96883020AD51143F96079688303D8
:100630000AD4914379603968C0030BD568E79143C8
:10064000F96079688303F4D5114379603968C00390
:1006500000D55DE791435CE70AB0F0BD001C005097
:10066000000401403410024008000140002A02D07A
:100670001822815070472822815070470148006835
:100680007047C046D8000020B0B50246034640334C
:100690005C780220202C17D11C78012C14D0242047
:1006A0005870106802680124A243026022030568A2
:1006B0009543056002680A430260016821430160B6
:1006C0000020187020215970B0BDB0B50246034615
:1006D00040335C780220202C17D11C78012C14D0D8
:1006E00024205870106802680124A24302600F227F
:1006F00012020568954309022943016001682143FC
:1007000001600020187020215970B0BDB0B50028DC
:1007100013D00446054640352420687020680168DF
:10072000012291430160204600F07CF900206064C2
:10073000687020632870A870B0BD0120B0BD0000B3
:10074000F0B581B0002822D00446054640356878CF
:10075000002804D100202870204600F07BF92420D6
:1007600068702068026801218A4302600F22120625
:1007700063689343036183681C4A13408360A368E2
:10078000E668012E06D1CE03334383600CE00120DE
:1007900001B0F0BD2127BF023B438360022E03D18D
:1007A000CB0246681E4302E0CB0246689E43466089
:1007B00043680F4E1E434660C3681340C3602269FE
:1007C00063691343A26912021A43C260E269236A91
:1007D0001343036002680A43026000206064202122
:1007E00069702063A87001B0F0BDC046FF7FFFFFB5
:1007F00000800002F0B589B004460746403778789B
:10080000022520285BD10E9E002E5BD00F98002879
:1008100058D006903878012851D00396049302925C
:100820000791012008903870FFF728FF02462068E2
:10083000816909044CD4059210990891222179709C
:100840004021B9700026666406996185039961624A
:1008500066636D49079B0B400499C9B2090407936D
:10086000C9184368694D2B40C91801256B03C91885
:1008700041602046089901F039F800281ED10696FB
:100880002068049901290BD00299090A8162204647
:100890000899059A01F02AF80028069E0ED12068D2
:1008A0000299C9B28162059E089B009640210022F0
:1008B000204600F05BFF0028069E2CD03E702846A4
:1008C00009B0F0BD012568026064284609B0F0BD9A
:1008D0000898C50302E081692942ACD0192120465D
:1008E000164600F083FE002811D1FFF7C7FE811BDA
:1008F00020681A293246EED381692942EBD0606C18
:10090000202108436064797000203870B870089D19
:10091000284609B0F0BD608D000A07D02068416804
:100920003A4A1140021D01203A4B09E0608D2268CD
:10093000536836490B40C1B209041943121D344BA8
:100940001943079B194311602085059A089B14E001
:10095000608D208521684A682F4B1A40C0B2000480
:10096000104301225206091D079B104318430860DB
:10097000608D0028059A089B31D000920421002642
:100980002046324600F0F2FE002898D1606A2168C5
:10099000496A0170608D401E6085606A401C60621B
:1009A000208D401E2085618D0029E1D00004DFD11B
:1009B00005980090802100222046089B00F0D6FE7A
:1009C000002800D07BE7608D000AC1D0012020857F
:1009D00021684868104A1040091D104AC4E72046A3
:1009E000194600F040FF002800D068E72068202169
:1009F000C16142680A4B1340436079703E70BE701B
:100A00003546284609B0F0BDFF030000009800FC01
:100A10000024000200240101009C00FC00000101F0
:100A200000E800FE10B500681C49884200D010BDE7
:100A30000120400506490A6882430A60194C40219A
:100A40002046FFF7DDFC80212046FFF7D9FC10BDD2
:100A500038100240B0B586B000681049884201D015
:100A600006B0B0BD0E4C206802210843206020680B
:100A7000084000900125059503200490039512205D
:100A80000290C02001900098064801A9FFF724FDBC
:100A90006805E1680143E16006B0B0BD0054004064
:100AA0002C100240000400501D48007802490A68DA
:100AB000101808607047C046D800002080B508486C
:100AC000016840220A430260032000F00BF800286E
:100AD00001D0012080BD00F027F8002080BDC04675
:100AE0000020024070B504467D20C0000C4E3178D5
:100AF00000F0EAFF01460B48006800F0E5FF00F057
:100B0000C7FC0125032C08D8002806D10025E8439E
:100B100021462A4600F014F87460284670BDC0468D
:100B20000000002008000020044801680122114351
:100B30000160110742680A43426070473410024066
:100B4000002805D40322034693430A4A9A1803E077
:100B50000C220240064BD2188007C00E8901C9B290
:100B60008140FF238340106898430843106070471A
:100B700014ED00E000E400E0F0B587B001252902A3
:100B800006910668B106674F73D505902907143F93
:100B900038680840049002D13868084338600297EA
:100BA0000391614C2068069F384211D12068384378
:100BB0002060FFF763FD06462068384208D1FFF742
:100BC0005DFD801B6428F7D90325284607B0F0BDDA
:100BD000032426040598416808463040514F3B469F
:100BE0004C3B1A684A40910232461E46890F04D097
:100BF000904202D131688903E7D400947968019268
:100C0000114014D0814212D00598007880060ED58C
:100C10007868E9047A680A437A607A688A437A6075
:100C20000146019A914379600699084268D1344699
:100C300005980668B10614D542681146019D294001
:100C4000A9420BD1009803051A4003231B05254632
:100C500024689C43334F059814432C607A680A43F8
:100C60007A600499002904D1029C2168039A914377
:100C70002160F1070CD1B10712D4710718D43107E4
:100C80001FD406990E4226D1002531069DD52DE0B0
:100C900039680322914382680A433A60B107ECD570
:100CA00039680C229143C2680A433A607107E6D55D
:100CB000032189023A688A43016911433960310787
:100CC000DFD5032109033A688A434169114339603A
:100CD00006990E42D8D0032109043A688A438169F3
:100CE000114339600025310600D46EE703218A04E0
:100CF00039689143C06908433860284607B0F0BDA1
:100D0000FFF7BCFC0546914C064F786880058ED4F1
:100D1000FFF7B4FC401BA042F7D9009D284607B05E
:100D2000F0BDC0464C10024000700040F0B583B0EA
:100D30000290002846D00E468348006801210191A8
:100D40000840B04216D2804908680125A8433043C4
:100D500008607E4CFFF792FC07467B4800682840FD
:100D6000B04207D0FFF78AFCC01BA042F5D9032090
:100D700003B0F0BD029800688107754D06D529685B
:100D8000F0229143029A92680A432A60C0071CD15C
:100D90006D48006801273840B04225D96A49086883
:100DA000B8430860694CFFF769FC0546664800686F
:100DB000C00719D0FFF762FC401BA042F6D9032000
:100DC00003B0F0BD012003B0F0BD0298426829468F
:100DD0000C39012A32D0032A35D0022A39D10968C8
:100DE0008903019833D538E0029800684107584CD0
:100DF00007D50721090222688A430299C96811436D
:100E00002160000708D50720C002216881430298AD
:100E10000069C0000843206021680807820F4D4820
:100E20007A4412795200974401618068380421465F
:100E3000083909680904490F884076E009684907BC
:100E4000019804D509E009688901019805D403B027
:100E5000F0BD096889050198F9D52968032001903A
:100E6000814311432960FFF709FC07460298406857
:100E7000364C032811D002281DD0012829D128681A
:100E80000C210140042900D182E7FFF7F7FBC01BCA
:100E9000A042F4D9019803B0F0BD28680C210140AC
:100EA0000C2900D174E7FFF7E9FBC01BA042F4D97D
:100EB000019803B0F0BD28680C210140082900D139
:100EC00066E7FFF7DBFBC01BA042F4D9019803B033
:100ED000F0BD28680007800F00D159E7FFF7CEFB6F
:100EE000C01BA042F5D9019803B0F0BD20460C38D4
:100EF0000068C00612D51A4817E08A02120F164B76
:100F00009A5C0902890F491C2368DB0309D4204637
:100F10000C380068C00603D5114802E00F4804E011
:100F20000E484243104600F0CFFD21680906090F24
:100F30000C4A515CC8400C4908600C480068FFF737
:100F4000D1FD03B0F0BDC046002002408813000070
:100F50000C10024000127A00DC1E00080024F4008D
:100F600000093D00CC1E00080800002004000020FD
:100F7000F0B589B0002851D0624EF1680C220A40C9
:100F80000692012105910904F76804910F4007902A
:100F90000078C00710D00698082806D006980C28BC
:100FA00000D0D1E0002F00D1CEE03068800303D51F
:100FB0000798406800284CD007980078800730D404
:100FC00007980078C00647D407980078000761D4D6
:100FD00007990878400700D596E04C6A002C1AD093
:100FE00006980C2800D03AE1012C32D0F068049A1F
:100FF0000240079B996A8A422BD10F218904014044
:10100000DA6A914225D1032189050840196B88428B
:10101000059800D028E2002009B0F0BD012009B0F9
:10102000F0BD079BD868810604D5316820221143A2
:10103000316090430699042906D006990C2900D006
:10104000A9E0002F00D0A6E03168490739D5002873
:1010500037D1059809B0F0BD0698002800D1B0E05E
:10106000306807998969002900D1E5E001210A0269
:10107000104330604C02FFF701FB05463068204208
:1010800000D00DE1FFF7FAFA401B0228F6D9032041
:1010900009B0F0BD306D07994969002900D1BAE067
:1010A000012108433065FFF7E9FA0546306D8007F6
:1010B0008ED4FFF7E3FA401B0228F7D9032009B0CA
:1010C000F0BD1F21090272688A43196909021143A0
:1010D000716031680922914301433160F16808076A
:1010E000820FE2485200C0467A44928852009744E8
:1010F00003000701AC010C0170680004410F049863
:101100008840A2E10010024001221107B06B0840A4
:10111000029002D1B06B0843B063019103921402B4
:10112000D94F3868C00525D4386820433860FFF7A8
:10113000A5FA0546386820421CD1FFF79FFA411BEB
:1011400003206429F6D98FE10798406805994C047B
:101150000499884209D005210904884200D0B0E0F2
:101160000598800431680143316030680499084370
:101170003060B6E007988068002800D1F2E00521D1
:101180000902884200D104E1A04200D009E1306D9B
:101190002043039A0CE13168002800D1C7E00922FE
:1011A000914301433160FFF769FA05463068400713
:1011B00000D5CDE0FFF762FA411B03200229F5D9E3
:1011C00052E130688005079B03D59869002800D15B
:1011D0003FE70720400371688143186A014371604B
:1011E000FF21090672688A43D96909068918716066
:1011F000400B04998140F0680006000F9F4A105C84
:10120000C1409F4801609F480068FFF76BFC0028C1
:1012100000D029E1D8E6012188433065FFF72EFA96
:101220000546306D800700D4D2E6FFF727FA411B50
:1012300003200229F5D917E101210A029043306009
:101240004C02FFF71BFA05463068204200D1BBE68E
:10125000FFF714FA411B03200229F5D904E101200C
:10126000010632688A4332604706FFF707FA0546EF
:10127000022C0AD13068384200D1B5E0FFF7FEF900
:10128000411B03200229F5D9EEE03068384200D135
:10129000C1E6FFF7F3F9411B03200229F5D9E3E08A
:1012A0000720400371688143079A106A0843706001
:1012B000FF20000671688143D06900064018706005
:1012C00082E63168049A9143316031681140089197
:1012D00008990599890432688A433260002800D150
:1012E000A0E0FFF7CBF905463068204200D063E666
:1012F000FFF7C4F9401B6428F6D9032009B0F0BDFC
:101300003068C0066ED55C489FE08A02120F584BC9
:101310009A5C0902890F491CF368049C234200D09F
:101320008FE03068C00600D48AE0534889E001208D
:1013300081433160FFF7A2F905463068400700D4C9
:101340003EE6FFF79BF9411B03200229F5D98BE00C
:101350001F2000027168814307980069000208435A
:1013600070602DE6306DA0433065039A9002316DB8
:10137000814331655402454FFFF780F90546306DD2
:10138000204225D0FFF77AF9411B0320B942F6D954
:101390006AE0039A9002316D01433165306D20435C
:1013A00006E0306DA0433065039A9102306D8843AA
:1013B00030655402354FFFF761F90546306D204224
:1013C00006D1FFF75BF9411B0320B942F6D94BE088
:1013D00002980028079900D0FFE5B06B019A90436E
:1013E000B063FAE5234830E0FD200004F168814352
:1013F000079B28330DCB084310431843F0602E4859
:10140000401C316801433160FFF738F90446306809
:10141000384200D0FFE5FFF731F9011B0320022914
:10142000F5D921E0FFF72AF905463068204200D1BE
:10143000C2E5FFF723F9411B03206429F5D913E026
:101440000C484243104600F03FFBF1680906090FC3
:101450000A4A515CC8400A4908600A480068FFF718
:1014600041FB002800D1ABE509B0F0BD00127A00C5
:10147000DC1E00080024F40000093D00CC1E00081A
:1014800008000020040000200070004088130000C5
:10149000401E010E01D0012070470749074A5060E5
:1014A000074803680B400321890759180160002091
:1014B0009060072111607047FFFFFF0010E000E01F
:1014C00020ED00E0FEE70000F0B587B000900025B9
:1014D00006954448016802221143016000681040EB
:1014E00001900595049511200390C0200290019869
:1014F0003D4E02A93046FEF7EFFF4024012730465B
:1015000021463A46FFF7B2F8304621462A46FFF711
:10151000ADF8304621463A46FFF7A8F83046214656
:101520002A46FFF7A3F8304621463A46FFF79EF8D1
:10153000304621462A46FFF799F8304621463A467A
:10154000FFF794F8304621462A46FFF78FF83046D9
:1015500021463A46FFF78AF8304621462A46FFF7E9
:1015600085F8304621463A46FFF780F83046214656
:101570002A46FFF77BF8304621463A46FFF776F8D1
:10158000304621462A46FFF771F8304621463A4652
:10159000FFF76CF8304621462A46FFF767F83046D9
:1015A00021463A46FFF762F8304621462A46FFF7C1
:1015B0005DF8304621463A46FFF758F83046214656
:1015C0002A46FFF753F8802130463A46FFF74EF897
:1015D000009C2046FFF79AF82046FFF7B1F807B0C5
:1015E000F0BDC0462C10024000040050F0B585B09C
:1015F0000E4604464030049020688169C90606D42E
:1016000000210F4601258269D30545D448E0102109
:10161000C1618169890637D4711C32D01546012019
:10162000002E6CD186030390C7030297FFF726F8BC
:10163000206842680499897883693B4209D0324026
:1016400007D1202905D0416831434160FFF716F8E2
:10165000054620688169890605D4FFF70FF8401B0D
:101660001A28F6D377E081698906029FDED50BE060
:101670008169890608D48169890605D4816989064A
:1016800002D481698906F3D52021C1610127042193
:1016900001258269D30503D52B02C36129432F4657
:1016A0006B02560506D41A420AD1002F0BD1002036
:1016B00005B0F0BDAD02C561082529431A4202D02C
:1016C000C361022211438269920701D5002282621E
:1016D0008269D20703D1826901231343836142687F
:1016E000214B13404360606C0843606420200499E0
:1016F0004870002008708870012005B0F0BD81039B
:1017000002910390C0030190019F03E0206881696A
:101710008906B9D4FEF7B2FF401BB042F6D9206863
:1017200042680499897883693B420BD0029B1A4036
:1017300008D1202906D04168029A11434160FEF782
:101740009DFF0546206880698006DFD4FEF796FF7E
:10175000401B1A28F6D3206881692421039F0125A4
:101760008269D30598D49BE700E800FEF0B585B008
:101770000D460446006880690840401A41424141D4
:1017800000260492914223D11F460A9A581C0392C4
:101790002BD0002F029433D1002620463146FFF78C
:1017A00025FF002828D1FEF769FF206881692940BC
:1017B000491B4A424A4104998A42039A44D08069AB
:1017C0002840401B4142414104988142029CE3D0A1
:1017D000304605B0F0BD206880692840401B41427A
:1017E000414104988142039AF2D10026F1432046F8
:1017F000FFF7FCFE0028EED00126304605B0F0BD14
:10180000019507E080692840401B4142414104980E
:101810008142DDD13446029E304639461546FFF7F7
:10182000E5FE0028E8D1FEF729FF411B3068B942E8
:101830002A462646019DE5D981692940491B4B422C
:101840004B4104998B42DDD1029B18464030596CC4
:1018500020221143596442700021017081700126D9
:10186000304605B0F0BDF0B581B00546006880692E
:101870000024800622D416460F46002903D129E011
:10188000806980061AD4284639463246FFF7AEFEF4
:10189000002827D1FEF7F2FE811B2868B942EFD954
:1018A00081698906ECD428464030696C20221143B6
:1018B000696442700021017081700124204601B0EA
:1018C000F0BDFEF7DBFE286881698906EBD58069EB
:1018D0008006F3D40024284621463246FFF786FED0
:1018E0000028EED00124204601B0F0BDF0B581B053
:1018F0000546006880690024800716D416460F4606
:10190000481C19D0002F26D10024284621463246F3
:10191000FFF76CFE002838D1FEF7B0FE2868816919
:10192000890728D580698007EED5204601B0F0BD33
:10193000286880698007F8D40024E14328463246AD
:10194000FFF754FE0028F3D00124204601B0F0BD7B
:1019500080698007E9D4284639463246FFF746FEBB
:10196000002812D1FEF78AFE811B2868B942EFD900
:1019700081698907ECD428464030696C20221143E4
:10198000696442700021017081700124204601B019
:10199000F0BDFEE77047704780B5FFF785F880BD62
:1019A000704700009AB0FFF789F80DAD281D30216F
:1019B000FEF712FC00240794069405940494039403
:1019C000029401940320C0023B490A688243E1204B
:1019D000C6009019F8300860169405204003159051
:1019E00014940127139710200D902846FFF7C0FA92
:1019F000002803D0EFF3108072B6FEE709940F20A1
:101A000008900A940B940C9408A82146FFF78EF9CD
:101A1000002803D0EFF3108072B6FEE7059408208B
:101A200000906846FFF7A8F8002803D0EFF3108075
:101A300072B6FEE721480168394301600168394008
:101A40000D910D99026802210A4302601C4DEF615D
:101A5000AC616E611B4A2A6100682C626C62AC62E8
:101A6000EC622C6308400D900D982C4610342046F3
:101A7000FEF766FE002803D0EFF3108072B6FEE793
:101A800000212046FEF700FE002803D0EFF310806F
:101A900072B6FEE700212046FEF717FE002803D0AD
:101AA000EFF3108072B6FEE72046FEF7FDFB2846F6
:101AB000FEF7FEFBFBE7C046007000402C10024022
:101AC000700000200054004043088B421AD30022CB
:101AD00003098B4279D3030A8B425ED3030B8B42FB
:101AE00042D3030C8B4227D30902FF2212BA030C04
:101AF0008B4202D31212090203D0030B8B4233D361
:101B00001AE0D3E0411A8041401C704703460B4362
:101B100071D443088B42F5D3002203098B4254D37E
:101B2000030A8B4239D3030B8B421DD3030C8B4228
:101B300002D394466EE0090AC30B8B4201D3CB0358
:101B4000C01A5241830B8B4201D38B03C01A5241FE
:101B5000430B8B4201D34B03C01A5241030B8B4200
:101B600001D30B03C01A5241C30A8B4201D3CB02EB
:101B7000C01A5241830A8B4201D38B02C01A5241D0
:101B8000430A8B4201D34B02C01A5241030A8B42D3
:101B900001D30B02C01A5241CDD2C3098B4201D3EB
:101BA000CB01C01A524183098B4201D38B01C01A69
:101BB000524143098B4201D34B01C01A52410309E0
:101BC0008B4201D30B01C01A5241C3088B4201D38F
:101BD000CB00C01A524183088B4201D38B00C01A3C
:101BE000524143088B4201D34B00C01A5241411A63
:101BF000524110007047CA0F00D04942031000D371
:101C00004042534000229C4603098B422DD3030AD5
:101C10008B4212D38901FC2212BA030A8B420CD3E5
:101C2000890192118B4208D3890192118B4204D30E
:101C3000890137D0921100E08909C3098B4201D391
:101C4000CB01C01A524183098B4201D38B01C01AC8
:101C5000524143098B4201D34B01C01A524103093F
:101C60008B4201D30B01C01A5241C3088B4201D3EE
:101C7000CB00C01A524183088B4201D38B00C01A9B
:101C80005241D9D243088B4201D34B00C01A524172
:101C9000411A00D201465241104663465B1000D300
:101CA0004042704763465B1000D3404201B50021BB
:101CB000004201D0C9430846C046C04602BD0000EC
:101CC00070B50125ED0704004C4020D4441A01D220
:101CD000001B0919C60D4B00F2B2FF2A29D01B0EBA
:101CE0002CD000020C0228432C43D31ADC400519E7
:101CF00010D2280A02D3401C6D0611D0761EF605BC
:101D00008019FF2A00DA70BDC00DC00570BD6940A2
:101D100000F07AF801200543C541521C761CE8E723
:101D200064089C40C90161408900E7D10124A043B7
:101D3000E4E71B0E440200D0034870BD002AFCD12A
:101D4000C00FC00770BD00BF0000C07F70B542006B
:101D500064414B005C41120E39D01B0E38D0FF2A73
:101D60003CD0FF2B3AD0D2187F3A40024902400AB9
:101D7000490A4518ED0106004E43000A090A484386
:101D80000104731A4019190C4318990F04D05B0809
:101D9000012149075B1A521CD80904D3401CF503E2
:101DA00001D19D0607D0FF2A08D2D50506D0E40749
:101DB0002043401970BD0125A843F4E7002A01DC47
:101DC000E00770BD2402FF202043C00570BD1B0E3C
:101DD000FF2A03D0FF2B01D0E00770BDFF26360697
:101DE0004500B54206D84D00B54203D8D218FF2AA7
:101DF00000D0E7E7004870BD0000C07F70B5012546
:101E0000ED0704004C4022D4441A02D26C40001B5F
:101E10000919C60D4B00F2B2FF2A4BD01B0E50D051
:101E200000020C02A8432C43D31ADC40051B05D545
:101E3000AD0019D36D08761E521E37D0F605280A5C
:101E400001D2801970BD70416D0603D070BD69402C
:101E5000FFF73CFF9C4009026140490001D0401E51
:101E600070BD0124A04370BD6D081DD001202B0C56
:101E700001D12D0410302B0E01D12D0208302B0F73
:101E800001D12D01001DAB0F01D1AD00801CEB0F66
:101E900001D16D00401C361A121A6D00680AF50552
:101EA0004019012A02DB70BD002070BDC036300A27
:101EB000C00770BD1B0E440201D1FF2B00D10248A8
:101EC00070BD002AF0D070BD0000C07F000000008F
:101ED00000000000010203040607080903040608C5
:101EE0000C10182030000000081F0008000000201F
:101EF0001000000004010008181F00081000002056
:101F0000D0060000200100080100000004000000CD
:081F10000000200000000000A9
:04000005080000C12E
:00000001FF
