:020000040800F2
:10000000D8060020890100082D1E000819170008D5
:10001000291E000845020008411E000800000000DB
:10002000000000000000000000000000351E000875
:100030004902000800000000311E0008391E0008B7
:10004000A3010008A3010008A3010008A301000800
:10005000A3010008A3010008A3010008A3010008F0
:10006000A3010008A3010008A3010008A3010008E0
:10007000A3010008A3010008A3010008A3010008D0
:10008000A3010008A3010008A3010008A3010008C0
:10009000A3010008A3010008A3010008A3010008B0
:1000A000A3010008A3010008A3010008A3010008A0
:1000B000A3010008A3010008A301000829170008F4
:1000C0001D170008A3010008A3010008A3010008F0
:1000D000A3010008A3010008A3010008A301000870
:1000E000A3010008A3010008A301000800F002F822
:1000F00000F03AF80AA090E8000C82448344AAF188
:100100000107DA4501D100F02FF8AFF2090EBAE885
:100110000F0013F0010F18BFFB1A43F0010318473B
:10012000481E0000681E0000103A24BF78C878C13D
:10013000FAD8520724BF30C830C144BF04680C60ED
:10014000704700000023002400250026103A28BF35
:1001500078C1FBD8520728BF30C148BF0B60704739
:100160001FB51FBD10B510BD00F031F81146FFF7E7
:10017000F7FF01F067FE00F04FF803B4FFF7F2FF5E
:1001800003BC00F057F800000948804709480047C1
:10019000FEE7FEE7FEE7FEE7FEE7FEE7FEE7FEE737
:1001A000FEE7FEE704480549054A064B7047000094
:1001B0003D1E0008ED000008D8000020D8060020F1
:1001C000D8020020D802002070477047704775465B
:1001D00000F02CF8AE4605006946534620F00700B3
:1001E000854618B020B5FFF7DDFFBDE820404FF091
:1001F00000064FF000074FF000084FF0000BAC4630
:10020000ACE8C009ACE8C009ACE8C009ACE8C0097A
:1002100021F007018D46704710B50446AFF300800A
:100220002046BDE81040FFF7A8BF00000048704717
:100230001000002001491820ABBEFEE72600020096
:1002400070470000FEE700007047000080B590F89E
:100250002110022924D10268116821F00E011160D9
:100260002F211368C4F202018A4240F20401C4F251
:10027000020123F00103136016DD3023C4F20203F0
:100280009A421DD04423C4F202039A421CD0582340
:10029000C4F202039A421DD14FF4803322E000BF22
:1002A00004218163012080BD0823C4F202039A4225
:1002B0000ED01C23C4F202039A420BD1102311E08A
:1002C0004FF480730EE000BF4FF480530AE000BF8C
:1002D000012307E001F1680C4FF08073624508BF0D
:1002E0004FF480130B60012180F82110426B002134
:1002F00080F820100AB190470021084680BD000018
:1003000090F82100704700002DE9F04F82B00E6890
:10031000002E00F0038141F20042C4F201020423E6
:1003200040F2004E904208BF03234FF6FF7CC4F218
:10033000010E009300240123C1F2100C4FF0000ABB
:100340004FF0000949E000BF012704F00C030F2221
:100350009A402BEA020207FA03F34FEA9A051A437E
:1003600046F82520D1F804B040F20C455FEACB22D4
:10037000DEF8082054BF22EA080242EA0802C4F26A
:100380000105CEF808202A685FEA8B2354BF22EAD1
:10039000080242EA08022A605FEA8B33DEF8042092
:1003A00054BF22EA080242EA08025FEACB33CEF8E1
:1003B0000420DEF800204FF0010354BF22EA0802B7
:1003C00042EA0802CEF800200E680AF1010A36FA65
:1003D0000AF204F1040400F0A18003FA0AF816EA14
:1003E000080FF1D04E68664512DC122E56D8DFE8B1
:1003F00006F0350B454955555555555555555555E7
:100400005555554D510000BFD1F80C9046E000BF46
:100410004FF6FF72C1F2210296420FDC0022C1F2B8
:10042000110296421AD00022C1F21202964215D051
:100430000022C1F22102964210D02FE00022C1F228
:10044000220296420AD00022C1F23102964205D021
:100450000022C1F23202964220D100BF8A684AB11E
:10046000012A14BFC0F81480C0F810804FF00809AA
:1004700014E000BF4FF0040910E000BFCA6802F1A9
:1004800008090BE04FF0000908E000BFCA6802F15C
:10049000040903E0CA6802F10C0900BF22460646BF
:1004A000BAF1080F24BF203A043637680F2595406B
:1004B00027EA050509FA02F22A433260CA79D20610
:1004C0007FF582AF41F21803C4F202031A68AEF559
:1004D0007E7642F001021A601A6802F0010201926F
:1004E000019A2AF0030256F802B040F60002C4F264
:1004F0000102904210D040F60042C4F20102904244
:100500003FF422AF41F20002C4F20102009F904288
:1005100008BF022719E700BF002716E702B0BDE8B1
:10052000F08F000040F2D000C2F200000068704777
:100530007047000070470000F0B581B004460068C5
:1005400000254769426894F83E1002F48076FA0567
:1005500008D53EB16FF4807242610268012542F411
:1005600000420260BA0505D5002E1EBF02356FF4A9
:10057000007242617A0516D5AEB1628D94F83D30B5
:10058000D4F830C0202908BF002A23D06FF480623D
:10059000402905F10405426101D0102903D1016809
:1005A00041F400710160380506D52EB12068083588
:1005B0006FF40061416100E055B1206C40EA050133
:1005C0002046216401B0BDE8F04001F045B900BF0C
:1005D00001B0F0BD03F0F701212909D0282B08BF95
:1005E000BCF1210F04D06FF4806141610435DAE77A
:1005F00094F83D10E26AB2F1080318BF0123203AD3
:1006000018BF0122134208BF282921D0212939D13E
:100610000021CFF6FF71E16221212163202184F8BE
:100620003D10002184F83E10426822F4E0624260EE
:100630006FF480624261026822F480620260426963
:10064000120648BF0161204600F084FCABE700BF02
:100650000021CFF6FF71E162416821F4E061416061
:100660006FF480614161016821F4806101600020C4
:100670002021206384F83D1084F83E00204600F0DD
:100680000DFC90E76FF4806141618CE7F0B581B0BB
:10069000076804467868E26A94F83E3094F83DE0D2
:1006A000402B01D0102B27D1BE697D69E90751D1BC
:1006B000B2F12A4F00F0BE82B2F52A0F00F0BA82E2
:1006C00000F400724FF0010C29078CEA522C45D53A
:1006D000002A43D0606B616CC9B2396118B1806A7D
:1006E000002840F02481A06B002800F0A382806ADB
:1006F000002840F01C819DE2216C00F40073002969
:100700000CBFBE6900267D69A90753D5002B51D0C7
:10071000206C002818BFBE6994F83D0000F0280046
:10072000282840F093807868002320F48060786067
:10073000012020EA960130064FF0180058BF0C2027
:10074000225A204684F83C3001B0BDE8F040FFF763
:10075000F1BE00BF810557D44FF0010CA90759D550
:10076000BCF1000F56D194F83E30E06A226B94F849
:100770003D10222940F0E280216D002908BF402B66
:1007800000F0DC80216D002940F032812169B1F553
:10079000404F40F02D810020009078690090B869AA
:1007A00000900098386840F480703860206D013007
:1007B00093E200BFE90655D5002B53D094F83D5085
:1007C000786820F4E06078600020009078690090FC
:1007D000386840F0010038600098386820F4806084
:1007E00038607868000540F1408105F0F700264642
:1007F000222840F0198156F8380F0168496826F818
:100800000E1C36F80E1C17E1E06AB0F52A0F5FD116
:10081000012062E07968720701F4006100F19880BC
:10082000002940F00782690605F0040140F1AE811D
:1008300010F4806000F0AA81002940F0A7812046D2
:1008400001B0BDE8F04001F049B900BF00200090C0
:1008500079690091B9690091009984F83C0001B070
:10086000F0BD00BF0EF0F70100F48062212905F011
:10087000040040F08380290640F14881002A00F0FE
:100880004581002840F0428194F83D00618D0029A7
:1008900000F0D081616A11F8012B3A616162618DCB
:1008A00001396185618D002908BF292840F0C28186
:1008B0007868282120F48060786021202063204619
:1008C00084F83D1001B0BDE8F04000F043BB00BF2C
:1008D000E06AB0F12A4F01D10820E06294F83E00AE
:1008E00040280BD1206D616C002801F0FE0018BF7C
:1008F00040F00100386101B0F0BD00BF2069B0F5E3
:10090000804F65D194F83D00616C212801F0FE0113
:1009100018BF01313961606B08B1806A38B9A06BCA
:10092000002800F08781806A002800F083817868C1
:1009300040F40060786001B0F0BD00BF002000907E
:1009400078690090B8690090009801B0F0BD00BFD0
:10095000002940F06F81290605F0040140F1228151
:1009600010F4806000F01E81002940F01B812046B9
:1009700001B0BDE8F04001F09DB900BF690640F14B
:10098000D980002A00F0D680002840F0D38094F867
:100990003D00618D002900F04D813969626A117056
:1009A000616A01316162618D01396185618D002962
:1009B00008BF2A2840F03E812068416821F4806108
:1009C0004160222028212063204684F83D10D8E091
:1009D000206D002800F0C080206D012840F02A81A1
:1009E000606C062101EAD010F130386101B0F0BD31
:1009F000618D61B1618D012940F0E480202818BF2C
:100A0000082840F01981386820F4806038600020A0
:100A1000009078690090B86900900098386840F4B8
:100A20000070386058E100BF56F8340F016849681B
:100A300026F80A1C36F80A1C19B1216C41F0040191
:100A40002164796821F400617960FFF759FC01287D
:100A50000BD0306841F23571C0F600014163FFF7F9
:100A6000F5FB10B13068416B8847608D60B120683C
:100A70004169490730D4416949063AD4608D18B1BB
:100A8000206C40F004002064206C28B1204601B0A6
:100A9000BDE8F04000F0E0BE2A2D07D10020206321
:100AA000282084F83D00204600F044FA94F83D00E8
:100AB000282859D10020CFF6FF70E06200212020C5
:100AC000216384F83D00204684F83E1001B0BDE863
:100AD000F04000F0E3B900BF0069616A0870616A24
:100AE000206801316162618D013961854169490682
:100AF000C4D50069616A0870606A01306062608D07
:100B000001386085608D0028BAD1BDE7002818BF84
:100B1000002B00F08F80608D002800F08B80606AD1
:100B200010F8011B39616062608D0138608501B089
:100B3000F0BD00BF002818BF002B00F07B80608D47
:100B4000002877D03869616A0870606A0130606295
:100B5000608D013860856DE0606C062101EAD0107F
:100B6000F030386101B0F0BD206B222818BF222D73
:100B700060D100212020216384F83D00204684F8C4
:100B80003E1001B0BDE8F04000F0D4B9B1FA81F0F8
:100B9000400950EA0C004DD1204601B0BDE8F040BC
:100BA00000F020BFB1FA81F0400950EA0C0041D1B9
:100BB000BEF1210F36D1204601B0BDE8F04001F072
:100BC00037B800BF618D022914D1102858D80121EF
:100BD00014228140C0F20102114251D0396841F41F
:100BE000806139600021009179690091B9690091B3
:100BF000009954E0396841F48061396079680905E9
:100C000063D5421E1F2A5DD80121914048F281021E
:100C1000C8F20002114255D0786840F480507860E4
:100C200053E000BF402B05D1204601B0BDE8F040A5
:100C300001F09AB801B0F0BD10F5803F0CD13868D2
:100C400020F480603860786800057FF5E0AE386891
:100C500020F48060386038E0122A02D101287FF445
:100C6000D2AE1028F3D8012101FA00F01421C0F20D
:100C700001010842EBD0386840F48060386024E01D
:100C8000396841F40061396000210091796900916F
:100C9000B96900910099396821F4806139607968F7
:100CA000090519D5421E1F2A1AD80121914048F280
:100CB0008102C8F20002114212D0786840F48050DC
:100CC000786009E010F5803FA6D000200090786998
:100CD0000090B869009000980020206501B0F0BD38
:100CE00010F5803FE9D0F7E790F83D1020291CBFB0
:100CF00002207047282180F83D1000680168C9076C
:100D000003D1016841F001010160016841F4806193
:100D10000160416841F4407141600020704700006B
:100D20007047000070B5B8B3044690F83D0028B98C
:100D3000002084F83C00204600F0BAF8242084F813
:100D40003D002068016821F001010160016841F463
:100D500000410160016821F40041016000F0D8FA0F
:100D600048F28041C0F21E0140F60013D4F804E0BE
:100D700088424FF00001C0F23D0348F2A16C4FF0F1
:100D8000000238BF01219842C0F2010C38BF012295
:100D9000E64538BF0A460AB1012070BD4DF68361B1
:100DA000C4F21B31A0FB01122168950C4B684FF473
:100DB000967623F03F0343EA9243754344F6D356B5
:100DC0004B60C1F262060B6AA5FB0656B50923F01B
:100DD0003F03E64538BF950C6A1C1A430A62CA698C
:100DE00048F2A0664CF6FF73C0F20106B64522EA4F
:100DF00003020BD801384FEA4E03B0FBF3F0013089
:100E00006FF31F30042898BF04201EE0A368013848
:100E100063B119230EFB03F3B0FBF3F001306FF362
:100E20001F3078B100F5804008E000BF0EEB4E03A4
:100E3000B0FBF3F001306FF31F3028B100F5004034
:100E400003E000BF012000E001201043C8610868F2
:100E5000D4E9072320F0C0001043184308608868D5
:100E600048F2FF3204F10C0690434CCE1843104375
:100E7000A5698860C86820F0FF0030432843C86037
:100E8000086840F00100086000202021206484F8F8
:100E90003D10206384F83E0070BD000070470000E4
:100EA0007047000070470000704700007047000066
:100EB00010B586B045F200410068C4F2000100227E
:100EC0008842049202D006B010BD00BF41F218045F
:100ED000C4F20204206840F008002060206800F09E
:100EE000080001900198C020029012200390032076
:100EF000059001F5384002A9FFF706FA6068002165
:100F000040F4001060606068002200F4001001905E
:100F100001981F2000F0E0F81F2000F0C9F8202001
:100F20000021002200F0D8F8202000F0C1F806B01F
:100F300010BD0000016845F20042C4F20002914277
:100F400018BF704740F27001C2F200010A2200F09F
:100F500003B800007047000090F83D30202B0BD103
:100F600000294FF0010318BF002A01D1184670472D
:100F700090F83C30012B01D102207047D0F800C01E
:100F8000DCF80030DB0705D1DCF8003043F001036A
:100F9000CCF80030DCF8003023F40063CCF80030EB
:100FA000222380F83D30202380F83E300023036464
:100FB00041624285418D01850021CFF6FF71C162FA
:100FC000DCF8001041F48061CCF8001080F83C306F
:100FD000DCF8040040F4E060CCF8040018467047E8
:100FE00040F2000040F2D001C2F20000C2F2000163
:100FF00000780A68104408607047000080B542F22B
:101000000000C4F20200016841F0100101600320F9
:1010100000F08EF80F2000F005F800F027F800200F
:1010200080BD000070B540F20006C2F2000640F23A
:1010300008013278C2F200014FF47A730968B3FBF9
:10104000F2F20446B1FBF2F1084600F04FFB0F2C20
:101050004FF0010508D838B94FF0FF302146002283
:10106000002500F039F87460284670BD82B041F266
:101070001800C4F202000168022241F0010101607F
:10108000016801F0010101910199416841F080512D
:101090004160406800F08050009000980420C4F245
:1010A0000100016862F31A61016002B0704700003C
:1010B000002848BF7047C1B200F01F00012202FAA9
:1010C00000F04EF20012CEF2000242EAD10121F00D
:1010D000030108607047000010B54EF60C5CCEF2BC
:1010E000000CDCF80030C3F3022E8EF00704042C51
:1010F00028BF0424BEF103034FF0FF3E0EFA04F4B0
:1011000038BF0023A14399400EFA03F39A431143D9
:1011100000F00F0200F160430901043A03F5644353
:101120006244002848BF02F10C03197010BD000092
:101130004EF60C51CEF200010A684FF6FF031A403A
:1011400060F30A2242F0806040F0FD700860704752
:101150002DE9F04381B0002800F0858042F20008BC
:10116000C4F202080446D8F800000D4600F007005B
:1011700088420CD2D8F8000020F007002843C8F8B5
:101180000000D8F8000000F00700A8426BD12068EA
:1011900041F204098107C4F2020917D5410705D5B8
:1011A000D9F8001041F4E061C9F80010010705D535
:1011B000D9F8001041F46051C9F80010D9F80010B6
:1011C000A26821F0F0011143C9F80010C00741D115
:1011D000D8F8000000F00700A8420CD9D8F80000A9
:1011E00020F007002843C8F80000D8F8000000F0FD
:1011F0000700A84237D12068410707D5D9F8001069
:10120000E26821F4E0611143C9F80010000708D535
:10121000D9F80000216920F4605040EAC100C9F803
:101220000000D9F8002002F00C00082841F200204C
:10123000C0F27A0050D141F65873C2F38341C0F630
:101240000003595CD2033BD440F60010C0F23D00CD
:10125000484341E0606802280AD001282AD159F8A1
:10126000041C890308D4012001B0BDE8F08300BF4D
:1012700059F8041C8901F6D5D9F8001021F00301B2
:101280000843C9F80000FFF74DF9064641F28837D8
:10129000D9F80000616800F00C00B0EB810F97D026
:1012A000FFF740F9801BB842F2D9032001B0BDE836
:1012B000F08300BF59F8041C8907D4D5DCE700BFD0
:1012C000D9F8002041F65673C2F34042C0F600033D
:1012D0009A5C4843B0FBF2F0D9F8001041F63E7238
:1012E000C1F30311C0F60002515C40F2080220FA7B
:1012F00001F140F20400C2F200000068C2F20002F4
:101300001160FFF78FFE002001B0BDE8F083000000
:1013100040F2080041F20401C2F20000C4F20201EE
:101320000068096841F64E72C1F30221C0F600025E
:10133000515CC840704700002DE9F04182B00028A0
:1013400068D00446007841F20006C007C4F20206E5
:1013500025D0706800F00C0004281BD0706800F0E5
:101360000C00082802D17068C00313D460680028FC
:1013700000F06881B0F5A02F00F07C81B0F5803FCF
:1013800000F07C81306820F480303060306820F4D8
:10139000802076E13068800301D56068D0B3207882
:1013A000800718D5706810F00C0F07D0706800F037
:1013B0000C0008286ED17068C0036BD430688007B9
:1013C00002D52069012825D13068616920F0F80034
:1013D00040EAC1003060207800071FD42078400721
:1013E00032D4E56995B1706800F00C00082840F02F
:1013F0008F80012D0ED07068216A00F480328A42FD
:1014000008D1616A00F47010884203D1002002B054
:10141000BDE8F081012002B0BDE8F081A06900289C
:1014200062D00020C4F242200121C0F88014FFF7EE
:1014300079F80546706A800700F18C80FFF772F832
:10144000401B0228F6D92AE1F06910F0805808D133
:10145000F06940F08050F061F06900F08050009039
:10146000009847F20007C4F200073868C00529D485
:10147000386840F480703860FFF754F8054600BFC4
:101480003868C0051ED4FFF74DF8401B6428F7D913
:1014900005E100BF2069002840F20000C4F24220AC
:1014A00000F0828001210160FFF73CF8054600BF93
:1014B000306880073FF588AFFFF734F8401B0228FB
:1014C000F6D9ECE0E068002800F08080052800F004
:1014D0009780012800F09880306A20F00100306287
:1014E000306A20F0040092E00020C4F24220002183
:1014F000C0F88014FFF716F8054600BF706A800731
:101500007FF56CAFFFF70EF8401B0228F6D9C6E056
:101510000027C4F2422700203866FFF703F8022DA7
:1015200005460BD13068800140F1BE80FEF7FAFF1E
:10153000401B02284FF00300F4D968E730688001AF
:101540007FF564AFFEF7EEFF401B02284FF003006B
:10155000F4D95CE740F20800C2F20000006844F6EB
:10156000D351C1F26201A0FB0101480A019000BF02
:1015700000BF0198411E002801913FF42FAF00BF2A
:101580000198411E002801913FF428AF00BF019847
:10159000411E002801913FF421AF00BF0198411E78
:1015A00000280191E4D119E700210160FEF7BAFF9C
:1015B000054600BF306880077FF50DAFFEF7B2FF2C
:1015C000401B02284FF00300F4D920E7306A20F0D6
:1015D00001003062306A20F004003062FEF7A2FFA2
:1015E000054641F2883700BF306A800720D5FEF7F4
:1015F00099FF401BB8424FF00300F5D907E700BF41
:10160000306A40F004003062306A40F0010030621D
:10161000FEF788FF054641F2883700BF306A800731
:1016200006D4FEF77FFF401BB842F7D937E000BF72
:10163000B8F1000F7FF4D5AEF06920F08050F06172
:10164000CFE600BF306820F480303060306820F48E
:1016500080203060FEF766FF054600BF30688003DB
:101660007FF59DAEFEF75EFF401B64284FF0030040
:10167000F4D9CCE6306840F480203060306840F423
:1016800080303060FEF74EFF054600BF30688003B3
:101690003FF585AEFEF746FF401B6428F6D90320D0
:1016A00002B0BDE8F08100BF206AB0F5803F05D1EF
:1016B0007168A26821F40031114371607168626A37
:1016C00021F4741111430843706001203866FEF75D
:1016D00029FF0446306880013FF598AEFEF722FFEF
:1016E000001B02284FF00300F4D990E6411E0020B1
:1016F000B0EB116F1CBF012070474EF21002CEF20A
:10170000000251604EF62351CEF20001F0230B701F
:101710000721906011607047FEE7000040F27C00F6
:10172000C2F20000FEF708BF40F27C00C2F20000E7
:10173000FEF7ACBF10B581B000210091406A40F2C5
:101740000801C2F2000190F83DC009684BF28952CD
:10175000C908C1F2F842A1FB0212110A2322514327
:101760000091009911B3009901390091016809684D
:1017700089051FD50099C9B1009901390091016807
:101780000968890516D5009981B100990139009140
:101790000168096889050DD5009939B100990139A9
:1017A0000091016809688905DBD403E0016C41F010
:1017B00020010164446B4FF0000E002C1CBF00217F
:1017C000A162816B00291CBF00228A620268002C82
:1017D000136823F480631360A0F82AE018BFC4F8EC
:1017E00034E000291CBF00234B63116821F0010184
:1017F000116090F83D1060290CD1202180F83D1037
:10180000002180F83E10016401B0BDE81040FEF7F1
:101810008FBE00BF0CF02801282911D1116841F0BA
:1018200001011160116841F48061116000210163C0
:10183000282180F83D1001B0BDE81040FFF770BAD4
:10184000202180F83D10002180F83E1001B0BDE855
:101850001040FFF765BA000010B5044690F83D103F
:1018600090F83E00B0F1100218BF0122403818BFB6
:101870000120024208BF222934D001F02800282884
:101880003AD100202063282084F83D002068416878
:10189000090542D5416821F400614160606B90F810
:1018A0002110012958D1A06B41F23571C0F6000119
:1018B0004163FEF7CBFC002861D0206841694906EE
:1018C00006D50069616A0870616A20680131616249
:1018D000016821F001010160202084F83D00A06B27
:1018E0004BE000BF2068026822F400620260426898
:1018F000120505D50CE000BF20684268120507D428
:10190000602905D0202184F83D10002184F83E1084
:101910000021216341680905BCD494F83D10602979
:1019200050D1202184F83D100021216441694906ED
:1019300006D50069616A0870616A206801316162D8
:10194000016821F0010101602046FEF7F1FD206CE5
:10195000000717D11BE000BF41F23571C0F600014E
:101960004163FEF773FC50B12168606B0A6822F096
:1019700001020A60202184F83D10416B8847206CE9
:10198000000704D02068416821F4E061416094F8C8
:101990003D00216C490758BF10BD282810D10020F8
:1019A000CFF6FF70E06200212020216384F83D0023
:1019B000204684F83E10BDE81040FFF76FBA00BF24
:1019C00010BD00BF4169490605D50069616A08700C
:1019D000606A013060622046FFF7A2F9206C0007C0
:1019E000D0D1D4E7C16A428D042A07D10168426A86
:1019F0004B6823F480634B60096911E0428D032A30
:101A000016D102680229536823F48063536005D01D
:101A1000042903D0116821F4806111601169426AC0
:101A20001170416A01314162418D01394185704730
:101A3000428D022A12D14A1E0F2A19D8DFE802F07D
:101A40000812181218181818181818181818180842
:101A50000268136823F480630EE000BF0168426AE5
:101A6000CAE700BF0268136843F4806304E000BF64
:101A70000268136843F4007313601269436A1A70B2
:101A8000426AD0F800C0531C4362438D013B43853A
:101A9000DCF810305370426A036801324262428DB2
:101AA000013A42855A6822F440725A60202280F836
:101AB0003D2090F83E300022402B80F83E2003D19C
:101AC0000263FFF7F1B900BFB1F1080218BF12229B
:101AD000203918BF11460163FFF7E2B981B090F8D1
:101AE0003D10222979D1C16A428D042A14D301689C
:101AF000426A09691170416A01314162418D0139BF
:101B00004185418D032968D10068416821F48061D5
:101B1000416001B0704700BFC36A022B58D0012A50
:101B200056D80022009240F20802C2F20002126867
:101B30004BF28953D208C1F2F843A2FB03231A0ADD
:101B400002EB82020092009A013A0092009A002A67
:101B500046D0026813689B051AD5009A013A009294
:101B6000009AEAB3026813689B0511D5009A013AFE
:101B70000092009AA2B3026813689B0508D5009AE8
:101B8000013A0092009A5AB3026813689B05DAD4AE
:101B9000136823F480631360536823F4E063536095
:101BA0001269436A1A70426A01324262428D013AF6
:101BB0004285202280F83D2090F83E300022402BC4
:101BC00080F83E2028D1026301B0FFF76DB900BF55
:101BD0000068416821F48061416001B0704700BF36
:101BE000016C41F0200101640168426A4B6823F4F2
:101BF000E0634B6009691170416A01314162418DB6
:101C000001394185202180F83D10002180F83E10E7
:101C100001B0FFF785B800BFB1F1080218BF12226A
:101C2000203918BF1146016301B0FFF739B9000030
:101C3000C16A90F83D20212A18BF7047428D4AB1F1
:101C4000416A026811F8013B13614162418D01391B
:101C50004185704711F5803F18BF082918D10168E8
:101C60004A6822F4E0624A600A6842F400720A603C
:101C700000212022016380F83D2090F83E2080F86A
:101C80003E10402A08BFFFF711B9FFF70BB900BF9C
:101C90002029E4D001684A6822F4E0624A601121F8
:101CA0000163002180F83E10202180F83D10FFF7ED
:101CB000F9B8000090F83D1090F83EC0C26A038D5C
:101CC000002B08BF212919D0212905D0BCF1400FD4
:101CD00008BF222900D07047418D69B390F83E10AB
:101CE000402908BF00F040B8416A026811F8013B82
:101CF00013614162418D01394185704712F5803F82
:101D000018BF082A1ED101684A6822F4E0624A60BE
:101D10000A6842F400720A6000212022016380F800
:101D20003D2090F83E2080F83E10402A08BFFFF783
:101D3000BDB8FFF7B7B800BF0068416821F4806103
:101D400041607047202ADED001684A6822F4E062D0
:101D50004A6011210163002180F83E10202180F8A3
:101D60003D10FFF79FB8000090F83D10026D5AB18A
:101D7000026D012A14D10168826CD2B20A61016D30
:101D800001310165704700BFC26C816C012A15D119
:101D90000268C9B21161016D02310165704700BF6F
:101DA000026D022A12D1222918D101680A6842F470
:101DB00080720A60016D0131016570470268C1F3EC
:101DC00007211161016D01310165704700684169AA
:101DD000090644BF00210161704700BF428D5AB11E
:101DE000212909D1416A026811F8013B136141625E
:101DF000418D013941857047428D002A08BF212954
:101E0000EAD101684A6822F4E0624A600A6842F452
:101E100000720A6000212022016380F83D2080F8D2
:101E20003E10FFF743B80000FEE70000FEE70000A9
:101E30007047000070470000FFF7D2B870470000FD
:101E4000FEE7000090B0FFF7D9F800240120CDE9AB
:101E50000B44CDE9094406900A904FF4E0104FF48A
:101E6000803102250F9006A8CDE90714CDE90D5168
:101E7000FFF762FA20B1EFF3108072B6FEE700BF01
:101E80000F20CDE901054FF48060CDE9040401A8DD
:101E900002210394FFF75CF920B1EFF3108072B6D2
:101EA000FEE700BF41F21800C4F20200016840F2F0
:101EB000700441F0200101600168C2F2000401F0E9
:101EC0002001069106990168002241F00401016099
:101ED0000168702301F004010691069901684FF42E
:101EE000804541F008010160006845F2004100F0C2
:101EF000080006900698C4F20001204640F80C1F26
:101F000041F68021C0F2060100F1040C8CE82E009D
:101F1000C0E90522C0E90722FEF704FF20B1EFF374
:101F2000108072B6FEE700BF04F10C052846FEF7EC
:101F3000DBFE284621460A22FFF70EF8FEE70000E6
:101F40000000000000000102030406070809000069
:101F50000000010203040102020304050607080948
:101F60000A0B0C0D0E0F1010881F00080000002037
:101F70001000000028010008981F00081000002031
:101F8000C806000044010008010000001000000025
:081F900000127A0000000000BD
:04000005080000ED02
:00000001FF
