:020000040800F2
:10000000700F002089010008112000080920000855
:100010000D2000081D040008ED230008000000006A
:10002000000000000000000000000000892000081F
:100030003904000800000000152000088D20000889
:10004000A3010008A3010008A3010008A301000800
:10005000A3010008A3010008A3010008A3010008F0
:10006000A3010008A3010008A3010008A3010008E0
:10007000A3010008A3010008A3010008A3010008D0
:10008000210400082D040008A3010008A3010008B2
:10009000A3010008A3010008A3010008A3010008B0
:1000A000A3010008A3010008A3010008A3010008A0
:1000B00095200008A3010008A3010008A30100087F
:1000C000A3010008A3010008A3010008A301000880
:1000D000A3010008A3010008E1230008A301000810
:1000E000A3010008A3010008A301000800F002F822
:1000F00000F03AF80AA090E8000C82448344AAF188
:100100000107DA4501D100F02FF8AFF2090EBAE885
:100110000F0013F0010F18BFFB1A43F0010318473B
:100120003049000050490000103A24BF78C878C117
:10013000FAD8520724BF30C830C144BF04680C60ED
:10014000704700000023002400250026103A28BF35
:1001500078C1FBD8520728BF30C148BF0B60704739
:100160001FB51FBD10B510BD00F01DF91146FFF7FA
:10017000F7FF02F03DF900F03BF903B4FFF7F2FF9F
:1001800003BC00F043F900000948804709480047D4
:10019000FEE7FEE7FEE7FEE7FEE7FEE7FEE7FEE737
:1001A000FEE7FEE704480549054A064B7047000094
:1001B00091200008ED00000870090020700F002059
:1001C000700B0020700B002040EA010310B59B0764
:1001D0000FD1042A0DD310C808C9121F9C42F8D0B1
:1001E00020BA19BA884201D9012010BD4FF0FF3062
:1001F00010BD1AB1D30703D0521C07E0002010BD78
:1002000010F8013B11F8014B1B1B07D110F8013B03
:1002100011F8014B1B1B01D1921EF1D1184610BDE4
:10022000032A40F2308010F0030C00F0158011F822
:10023000013BBCF1020F624498BF11F801CB00F8FA
:10024000013B38BF11F8013BA2F1040298BF00F84E
:1002500001CB38BF00F8013B11F0030300F025800B
:10026000083AC0F0088051F8043B083A51F804CB32
:10027000A0E80810F5E7121D5CBF51F8043B40F8F8
:10028000043BAFF30080D20724BF11F8013B11F803
:1002900001CB48BF11F8012B24BF00F8013B00F847
:1002A00001CB48BF00F8012B704710B5203AC0F0D1
:1002B0000B80B1E81850A0E81850B1E81850A0E839
:1002C0001850203ABFF4F5AF5FEA027C24BFB1E8D2
:1002D0001850A0E8185044BF18C918C0BDE8104015
:1002E0005FEA827C24BF51F8043B40F8043B08BF1E
:1002F0007047D20728BF31F8023B48BF11F8012BE5
:1003000028BF20F8023B48BF00F8012B70474FF090
:1003100000020429C0F0128010F0030C00F01E80CF
:10032000CCF1040CBCF1020F18BF00F8012BA8BFE0
:1003300020F8022BA1EB0C0100F010B85FEAC17CA1
:1003400024BF00F8012B00F8012B48BF00F8012B57
:1003500070477047704770474FF0000200B5134672
:1003600094469646203922BFA0E80C50A0E80C50D5
:10037000B1F12001BFF4F7AF090728BFA0E80C5086
:1003800048BF0CC05DF804EB890028BF40F8042B7F
:1003900008BF704748BF20F8022B11F0804F18BFEC
:1003A00000F8012B7047754600F02CF8AE460500AA
:1003B0006946534620F00700854618B020B5FFF780
:1003C000F1FEBDE820404FF000064FF000074FF06F
:1003D00000084FF0000BAC46ACE8C009ACE8C0091F
:1003E000ACE8C009ACE8C00921F007018D467047B0
:1003F00010B50446AFF300802046BDE81040FFF77B
:10040000BCBE0000004870471000002001491820C1
:10041000ABBEFEE72600020070470000FEE70000CA
:1004200040F23C10C2F2000000F08CB840F28010A4
:10043000C2F2000000F086B870470000EFF31080B1
:1004400072B600BFFEE70000014690F821000228C6
:1004500016D10868D1E90FC3026822F00E020260CB
:10046000026822F001020260012000FA03F2CCF8D7
:10047000042081F821000020002281F8202070470C
:10048000042088630120002281F8202070470000AA
:1004900080B590F82110022924D10268116821F05A
:1004A0000E0111602F211368C4F202018A4240F24A
:1004B0000401C4F2020123F00103136016DD3023AE
:1004C000C4F202039A421DD04423C4F202039A42AA
:1004D0001CD05823C4F202039A421DD14FF480333A
:1004E00022E000BF04218163012080BD0823C4F203
:1004F00002039A420ED01C23C4F202039A420BD18B
:10050000102311E04FF480730EE000BF4FF48053CE
:100510000AE000BF012307E001F1680C4FF080738F
:10052000624508BF4FF480130B60012180F8211051
:10053000426B002180F820100AB190470021084644
:1005400080BD000010B5D0E90FCE0168DCF80030A6
:100550000A6823FA0EF35C072AD512F0040427D0A8
:100560000A68920603D40A6822F004020A602F2265
:10057000C4F20202914240F20402C4F202025BDDC4
:100580003023C4F20203994272D04423C4F202031E
:10059000994273D05823C4F20203994240F07A8002
:1005A0004FF480231360C16A002940F098806FE007
:1005B0009C0727D512F0020424D00A68920606D4BC
:1005C0000A6822F00A020A60012280F821202F2204
:1005D000C4F20202914240F20402C4F202023BDD84
:1005E0003023C4F20203994260D04423C4F20203D0
:1005F00099425FD05823C4F20203994260D14FF46C
:10060000003365E01B0743D512F0080208BF10BD98
:100610000A6822F00E020A60012101FA0EF2CCF8FB
:100620000420816380F82110016B0022002980F8EA
:10063000202054D12CE000BF0823C4F202039942C9
:1006400022D01C23C4F20203994223D14023136019
:10065000C16A002943D11BE00823C4F20203994276
:100660002CD01C23C4F20203994229D120232FE06D
:100670004FF480631360C16A89BB09E04FF4804383
:100680001360C16A59BB03E004231360C16A31BB24
:1006900010BD00BF02F168044FF08063A14208BFA3
:1006A0004FF480031360C16AC9B9F1E74FF40073D6
:1006B0000EE000BF4FF400530AE000BF022307E042
:1006C00002F168044FF00073A14208BF4FF4001319
:1006D0001360816A0022002980F82020D8D0BDE86C
:1006E00010400847014600284FF0010008BF70473E
:1006F0002DE9F043D1F800C04FF6F873CBF6FD7347
:100700004CF6CD426344CCF6CC42A3FB02236FF0FF
:10071000030707EA93030027C4F2020701F10C095B
:10072000C1E90F730223D1E9012E99E87002D1F8D3
:100730001C8081F82130DCF8003043F6F077BB43B1
:100740001A4342EA0E0222432A43324342EA090292
:1007500042EA0802CCF8002000228A6381F82100D6
:1007600081F820200020BDE8F0437047F0B590F8F4
:1007700020C0BCF1010F32D04FF0010E80F820E014
:1007800090F821C0BCF1010F26D14FF0020C80F887
:1007900021C04FF0000CC0F838C0D0E900C4C56AD1
:1007A000C66BDCF80070102C27F00107CCF8007045
:1007B000006C0EFA00F070600846CCF8043004BFFC
:1007C00010460A46CCF80800CCF80C20DCF80000F3
:1007D00045B140F00E000DE0002180F8201002200D
:1007E000F0BD00BF20F00400CCF80000DCF80000F1
:1007F00040F00A00CCF80000DCF8000040F00100F6
:10080000CCF800000020F0BDB0B5044600F024F99B
:10081000054640F20000C2F200000078611C18BFDB
:10082000044400BF00F018F9401BA042FAD3B0BD49
:100830002DE9F04F82B00E68002E00F0038141F2E6
:100840000042C4F20102042340F2004E904208BF6D
:1008500003234FF6FF7CC4F2010E00930024012312
:10086000C1F2100C4FF0000A4FF0000949E000BF40
:10087000012704F00C030F229A402BEA020207FA28
:1008800003F34FEA9A051A4346F82520D1F804B03D
:1008900040F20C455FEACB22DEF8082054BF22EA82
:1008A000080242EA0802C4F20105CEF808202A68CC
:1008B0005FEA8B2354BF22EA080242EA08022A6058
:1008C0005FEA8B33DEF8042054BF22EA080242EAD2
:1008D00008025FEACB33CEF80420DEF800204FF0A8
:1008E000010354BF22EA080242EA0802CEF80020BF
:1008F0000E680AF1010A36FA0AF204F1040400F063
:10090000A18003FA0AF816EA080FF1D04E6866458E
:1009100012DC122E56D8DFE806F0350B4549555546
:1009200055555555555555555555554D510000BFC3
:10093000D1F80C9046E000BF4FF6FF72C1F22102E1
:1009400096420FDC0022C1F2110296421AD0002218
:10095000C1F21202964215D00022C1F22102964243
:1009600010D02FE00022C1F2220296420AD00022CB
:10097000C1F23102964205D00022C1F23202964203
:1009800020D100BF8A684AB1012A14BFC0F8148080
:10099000C0F810804FF0080914E000BF4FF00409C0
:1009A00010E000BFCA6802F108090BE04FF000092F
:1009B00008E000BFCA6802F1040903E0CA6802F156
:1009C0000C0900BF22460646BAF1080F24BF203AA0
:1009D000043637680F25954027EA050509FA02F223
:1009E0002A433260CA79D2067FF582AF41F21803FA
:1009F000C4F202031A68AEF57E7642F001021A6074
:100A00001A6802F001020192019A2AF0030256F8D4
:100A100002B040F60002C4F20102904210D040F64B
:100A20000042C4F2010290423FF422AF41F20002C0
:100A3000C4F20102009F904208BF022719E700BFDD
:100A4000002716E702B0BDE8F08F0000002A08BFBB
:100A5000090401617047000040F66810C2F200000E
:100A60000068704740F2000040F66811C2F20000D2
:100A7000C2F2000100780A68104408607047000064
:100A800080B542F20000C4F20200016841F010019A
:100A90000160032000F08EF80F2000F005F800F050
:100AA00027F8002080BD000070B540F20006C2F2B9
:100AB000000640F208013278C2F200014FF47A7366
:100AC0000968B3FBF2F20446B1FBF2F1084600F00C
:100AD00063FB0F2C4FF0010508D838B94FF0FF30F9
:100AE00021460022002500F039F87460284670BDC8
:100AF00082B041F21800C4F202000168022241F003
:100B000001010160016801F0010101910199416851
:100B100041F080514160406800F0805000900098A2
:100B20000420C4F20100016862F31A61016002B09E
:100B300070470000002848BF7047C1B200F01F0096
:100B4000012202FA00F04EF20012CEF2000242EA56
:100B5000D10121F0030108607047000010B54EF686
:100B60000C5CCEF2000CDCF80030C3F3022E8EF0E9
:100B70000704042C28BF0424BEF103034FF0FF3EFA
:100B80000EFA04F438BF0023A14399400EFA03F390
:100B90009A43114300F00F0200F160430901043A47
:100BA00003F564436244002848BF02F10C03197046
:100BB00010BD00004EF60C51CEF200010A684FF64F
:100BC000FF031A4060F30A2242F0806040F0FD709B
:100BD000086070472DE9F04381B0002800F085805F
:100BE00042F20008C4F202080446D8F800000D469C
:100BF00000F0070088420CD2D8F8000020F007006F
:100C00002843C8F80000D8F8000000F00700A84208
:100C10006BD1206841F204098107C4F2020917D59B
:100C2000410705D5D9F8001041F4E061C9F800107A
:100C3000010705D5D9F8001041F46051C9F800103A
:100C4000D9F80010A26821F0F0011143C9F8001092
:100C5000C00741D1D8F8000000F00700A8420CD925
:100C6000D8F8000020F007002843C8F80000D8F8A2
:100C7000000000F00700A84237D12068410707D5DF
:100C8000D9F80010E26821F4E0611143C9F80010BE
:100C9000000708D5D9F80000216920F4605040EA27
:100CA000C100C9F80000D9F8002002F00C000828A3
:100CB00041F20020C0F27A0050D143F68463C2F3BF
:100CC0008341C0F60003595CD2033BD440F60010C8
:100CD000C0F23D00484341E0606802280AD0012884
:100CE0002AD159F8041C890308D4012001B0BDE8B9
:100CF000F08300BF59F8041C8901F6D5D9F800101B
:100D000021F003010843C9F80000FFF7A5FE0646DD
:100D100041F28837D9F80000616800F00C00B0EBB0
:100D2000810F97D0FFF798FE801BB842F2D90320BD
:100D300001B0BDE8F08300BF59F8041C8907D4D581
:100D4000DCE700BFD9F8002043F68263C2F34042DB
:100D5000C0F600039A5C4843B0FBF2F0D9F80010EB
:100D600043F66A62C1F30311C0F60002515C40F21F
:100D7000080220FA01F140F20400C2F2000000680B
:100D8000C2F200021160FFF78FFE002001B0BDE843
:100D9000F083000040F2080041F20401C2F20000BA
:100DA000C4F202010068096843F67A62C1F30221C5
:100DB000C0F60002515CC8407047000040F20800D5
:100DC00041F20401C2F20000C4F2020100680968A5
:100DD00043F67A62C1F3C221C0F60002515CC840FA
:100DE000704700002DE9F04182B0002868D0044629
:100DF000007841F20006C007C4F2020625D07068F0
:100E000000F00C0004281BD0706800F00C000828CB
:100E100002D17068C00313D46068002800F06881B4
:100E2000B0F5A02F00F07C81B0F5803F00F07C8110
:100E3000306820F480303060306820F4802076E123
:100E40003068800301D56068D0B32078800718D55A
:100E5000706810F00C0F07D0706800F00C000828C4
:100E60006ED17068C0036BD43068800702D52069EA
:100E7000012825D13068616920F0F80040EAC100FE
:100E80003060207800071FD42078400732D4E5690D
:100E900095B1706800F00C00082840F08F80012D9B
:100EA0000ED07068216A00F480328A4208D1616AEB
:100EB00000F47010884203D1002002B0BDE8F08138
:100EC000012002B0BDE8F081A069002862D00020B6
:100ED000C4F242200121C0F88014FFF7BDFD054691
:100EE000706A800700F18C80FFF7B6FD401B022876
:100EF000F6D92AE1F06910F0805808D1F06940F085
:100F00008050F061F06900F080500090009847F246
:100F10000007C4F200073868C00529D4386840F4D7
:100F200080703860FFF798FD054600BF3868C0053F
:100F30001ED4FFF791FD401B6428F7D905E100BFDF
:100F40002069002840F20000C4F2422000F08280B4
:100F500001210160FFF780FD054600BF3068800772
:100F60003FF588AFFFF778FD401B0228F6D9ECE08B
:100F7000E068002800F08080052800F097800128B4
:100F800000F09880306A20F001003062306A20F072
:100F9000040092E00020C4F242200021C0F8801436
:100FA000FFF75AFD054600BF706A80077FF56CAFFA
:100FB000FFF752FD401B0228F6D9C6E00027C4F215
:100FC000422700203866FFF747FD022D05460BD16A
:100FD0003068800140F1BE80FFF73EFD401B0228D3
:100FE0004FF00300F4D968E7306880017FF564AF03
:100FF000FFF732FD401B02284FF00300F4D95CE7F5
:1010000040F20800C2F20000006844F6D351C1F279
:101010006201A0FB0101480A019000BF00BF0198D6
:10102000411E002801913FF42FAF00BF0198411EDF
:10103000002801913FF428AF00BF0198411E00280D
:1010400001913FF421AF00BF0198411E002801919A
:10105000E4D119E700210160FFF7FEFC054600BF5F
:10106000306880077FF50DAFFFF7F6FC401B0228C4
:101070004FF00300F4D920E7306A20F0010030621D
:10108000306A20F004003062FFF7E6FC054641F2CA
:10109000883700BF306A800720D5FFF7DDFC401B92
:1010A000B8424FF00300F5D907E700BF306A40F0BF
:1010B00004003062306A40F001003062FFF7CCFC7F
:1010C000054641F2883700BF306A800706D4FFF733
:1010D000C3FC401BB842F7D937E000BFB8F1000F9E
:1010E0007FF4D5AEF06920F08050F061CFE600BF0C
:1010F000306820F480303060306820F48020306028
:10110000FFF7AAFC054600BF306880037FF59DAE5F
:10111000FFF7A2FC401B64284FF00300F4D9CCE693
:10112000306840F480203060306840F480303060B7
:10113000FFF792FC054600BF306880033FF585AE9F
:10114000FFF78AFC401B6428F6D9032002B0BDE8F3
:10115000F08100BF206AB0F5803F05D17168A268B8
:1011600021F40031114371607168626A21F47411D5
:1011700011430843706001203866FFF76DFC044698
:10118000306880013FF598AEFFF766FC001B02282F
:101190004FF00300F4D990E6411E0020B0EB116F30
:1011A0001CBF012070474EF21002CEF200025160C7
:1011B0004EF62351CEF20001F0230B700721906010
:1011C00011607047704700007047000010B590F83C
:1011D0003C20012A4FF0020233D080F83D20026803
:1011E000D2F804E0D2F808C00C682EF07003234354
:1011F00040F2FF74C4F20004A24253600ADCB2F170
:10120000804F13D040F20043C4F200039A420DD045
:1012100011E000BF42F60043C4F201039A4205D038
:1012200040F60003C4F200039A4204D149682CF04E
:101230008003194391600121002280F83D1080F85D
:101240003C20104610BD0000002804BF012070475C
:1012500010B5044690F83D0028B9002084F83C0001
:10126000204600F06FF8022084F83D00206840F22C
:10127000FF730268C4F2000342F6004C9842C4F2C5
:10128000010C15DCB0F1804F1AD040F20041C4F2DD
:101290000001884214D0984218DCB0F1804F1DD074
:1012A00040F20041C4F20001884217D01AE000BFAA
:1012B000604505D040F60001C4F200018842EAD141
:1012C000A16822F070020A439842E6DD604505D02D
:1012D00040F60001C4F20001884203D1216922F4E2
:1012E00040720A43A36922F08001D4F804E0E26866
:1012F000194360450160C262C0F828E002D161690B
:10130000CCF83010012141610269D20703D0026993
:1013100022F001020261002084F8461084F83E1099
:1013200084F83F1084F8401084F8411084F842108B
:1013300084F8431084F8441084F8451084F83D1074
:1013400010BD000080B582B00068B0F1804F1CBFB6
:1013500002B080BD41F21C00C4F20200016800220C
:1013600041F0010101600068002100F001000190DE
:1013700001981C20FFF7F2FB1C2002B0BDE8804062
:10138000FFF7D8BB90F83D1001291CBF0120704722
:10139000022180F83D10006840F2FF72C168C4F27B
:1013A0000002904241F00101C16009DCB0F1804FC0
:1013B00012D040F20041C4F2000188420CD012E089
:1013C00042F60041C4F20101884205D040F6000116
:1013D000C4F20001884206D1816801F007010629A4
:1013E00004BF00207047016841F001010160002046
:1013F0007047000080B590F83C20012A4FF00202AF
:1014000000F0C28080F83D20D0F800C04FF677721F
:10141000DCF8083023EA0202CCF808200B684F2BD6
:1014200028DC1F2B44DD202B45D0302B43D0402B14
:1014300040F0AC80D1F804E0C968DCF82030DCF87A
:10144000202022F00102CCF82020DCF8182022F025
:10145000F00242EA011123F00A0242EA0E02CCF83D
:101460001810CCF82020DCF8081041F0470121F0DA
:10147000300180E06F2B27DDB3F5005F48D0B3F576
:10148000805F7AD0702B40F08180D1E901E3C96898
:10149000DCF8082043EA0E0322F47F4243EA0121EC
:1014A0001143CCF80810DCF8081041F0770162E035
:1014B0000BB1102B6AD1DCF8081021F07001194330
:1014C00041F0070157E000BF502B35D0602B5DD1B4
:1014D000D1F804E0C968DCF82030DCF8202022F0E4
:1014E0001002CCF82020DCF8182022F4704242EAE6
:1014F000013123F0A00242EA0E12CCF81810CCF809
:101500002020DCF8081041F0670121F0100132E0E2
:10151000D1E901E3C968DCF8082043EA0E0322F4AC
:101520007F4243EA01211143CCF80810DCF808108F
:1015300041F480411FE000BFD1F804E0C968DCF845
:101540002030DCF8202022F00102CCF82020DCF84A
:10155000182022F0F00242EA011123F00A0242EAC6
:101560000E02CCF81810CCF82020DCF8081041F05E
:10157000570121F02001CCF808100022012180F849
:101580003D10002180F83C10104680BD0122F5E797
:101590007047000070B504460068C5680669B10769
:1015A00016D515F0020113D06FF00201016101217F
:1015B00021778069800703D02046FFF7E9FF05E027
:1015C000204600F08FF8204600F08EF800202077AB
:1015D000700719D515F0040016D020686FF00401CB
:1015E000016102212177806910F4407F04D02046F8
:1015F000FFF7CEFF06E000BF204600F073F820465C
:1016000000F072F800202077300717D515F0080099
:1016100014D020686FF00801016104212177C069AE
:10162000800703D02046FFF7B3FF05E0204600F017
:1016300059F8204600F058F800202077F00619D518
:1016400015F0100016D020686FF01001016108211C
:101650002177C06910F4407F04D02046FFF798FF3F
:1016600006E000BF204600F03DF8204600F03CF8C0
:1016700000202077F00718BF15F0010002D13006D6
:1016800009D412E020686FF001010161204600F0EA
:101690002DF8300609D515F0800006D020686FF0CF
:1016A000800101612046FFF78DFD700609D515F018
:1016B000400006D020686FF040010161204600F034
:1016C0005BF8B00658BF70BD15F0200008D0216847
:1016D0006FF0200220460A61BDE87040FFF774BD3C
:1016E00070BD0000704700007047000070B5CAB0C0
:1016F0000068B0F1804F01D04AB070BD40F664156B
:10170000C2F200052868013064282860F4D14FF443
:10171000FA71049142F210710591FA21C2F6EC417E
:10172000069142F6EC41ADF81C104FF47A71ADF819
:101730002E100121C5F201010C914FF4616101A845
:101740000D91012109308DF838100026932101AC4C
:101750000663C662867001802046242136229A23C1
:101760008DF84160CDF8426001F072FC204601F036
:10177000C1FE2E604AB070BD704700007047000087
:1017800070470000B0B582B0044600680168C368C5
:10179000426901F02F05202D03F0200506D12DB15F
:1017A000204602B0BDE8B04000F09ABD5FEA017C7F
:1017B0001EBF02F0010E03F4907212EB0E0253D121
:1017C000226B012A05D111F0100218BF13F010028C
:1017D00036D10A0622D513F080021FD094F84110AA
:1017E00021293FD1A168B1F5805F03D1216900298A
:1017F00000F07082216A4A1C226209784160E18C03
:1018000001390A04E1842DD1C16821F08001C16051
:10181000C16841F04001C16002B0B0BD490621D5A8
:1018200013F040011ED0C16821F04001C1602021A9
:10183000204684F8411002B0BDE8B04000F0E0BBA3
:10184000002101910168019141680191019940696C
:10185000400613D4A08DE18DE28D002A18BF884286
:1018600040F0BA8102B0B0BDCA0718BF13F480724D
:1018700040F0B6804A0700F1B980BEE0E06B016835
:1018800049688AB2002AEDD0A38D9A42EAD2E18556
:101890008069202800F09C80206850E8030F2168B0
:1018A00020F4807041E80302DAB1206850E8030FA9
:1018B000216820F4807041E8030292B1206850E86A
:1018C000030F216820F4807041E803024AB12068C8
:1018D00050E8030F216820F4807041E80302002AD9
:1018E000DAD1206850E8050F216820F0010041E8B6
:1018F0000502DAB1206850E8050F216820F00100E8
:1019000041E8050292B1206850E8050F216820F0F7
:10191000010041E805024AB1206850E8050F21683E
:1019200020F0010041E80502002ADAD1206850E8E1
:10193000050F216820F0400041E80502DAB1206877
:1019400050E8050F216820F0400041E8050292B1FF
:10195000206850E8050F216820F0400041E80502AA
:101960004AB1206850E8050F216820F0400041E8A6
:101970000502002ADAD1202084F8420000202063EA
:10198000206850E8030F216820F0100041E80302AE
:10199000DAB1206850E8030F216820F0100041E818
:1019A000030292B1206850E8030F216820F0100074
:1019B00041E803024AB1206850E8030F216820F093
:1019C000100041E80302002ADAD1E06BFEF73CFD8B
:1019D00002206063A08DE18D401A81B2204674E13F
:1019E000626C42F0010262644A0706D5BEF1000F44
:1019F00003D0626C42F0020262648A0706D5BEF12F
:101A0000000F03D0626C42F004026264BCF1000F6C
:101A100009D545EA0E02B2FA82F2520903D1626C8C
:101A200042F008026264626C002A3FF41BAF11F0BE
:101A3000200118BF002D03D0204600F051FC206883
:101A40004069616C00F0400001F00801401800F0AE
:101A5000B58000BF206850E8030F216820F4907023
:101A600041E80302BAB3206850E8030F216820F46C
:101A7000907041E8030272B3206850E8030F2168B8
:101A800020F4907041E803022AB3206850E8030F65
:101A9000216820F4907041E80302002ADAD11AE0AC
:101AA000206850E8050F216820F0010041E8050298
:101AB000DAB1206850E8050F216820F0010041E804
:101AC000050292B1206850E8050F216820F001005E
:101AD00041E805024AB1206850E8050F216820F06E
:101AE000010041E80502002ADAD1206B012824D147
:101AF000206850E8030F216820F0100041E803023D
:101B0000DAB1206850E8030F216820F0100041E8A6
:101B1000030292B1206850E8030F216820F0100002
:101B200041E803024AB1206850E8030F216820F021
:101B3000100041E80302002ADAD1202084F8420094
:101B4000002020632068406940063FD5206850E8A7
:101B5000050F216820F0400041E80502DAB1206855
:101B600050E8050F216820F0400041E8050292B1DD
:101B7000206850E8050F216820F0400041E8050288
:101B80004AB1206850E8050F216820F0400041E884
:101B90000502002ADAD1E06BC0B142F2A101C0F621
:101BA00000014163FEF774FC00283FF45BAEE06B7C
:101BB000416B02B0BDE8B040084700BF2046FFF7C8
:101BC000DFFD0020606402B0B0BD00BF204602B05F
:101BD000BDE8B040FFF7D4BD401A216851E8031FAB
:101BE000226821F4907142E80313DBB1216851E8C7
:101BF000031F226821F4907142E8031393B1216816
:101C000051E8031F226821F4907142E803134BB19D
:101C1000216851E8031F226821F4907142E8031300
:101C2000002BDAD1216851E8051F226821F001015B
:101C300042E80513DBB1216851E8051F226821F055
:101C4000010142E8051393B1216851E8051F22689C
:101C500021F0010142E805134BB1216851E8051F4D
:101C6000226821F0010142E80513002BDAD120217E
:101C700084F8421000212163216851E8031F226883
:101C800021F0100142E80313DBB1216851E8031F82
:101C9000226821F0100142E8031393B1216851E852
:101CA000031F226821F0100142E803134BB12168A1
:101CB00051E8031F226821F0100142E80313002BB2
:101CC000DAD1022281B22046626302B0BDE8B040A0
:101CD000FFF754BD216A31F8022B6FF35F22426097
:101CE00021628CE5002804BF0120704710B504462E
:101CF00090F8410028B9002084F84000204600F008
:101D000063F8242084F841002068D4E90212C368F3
:101D100023F40053C360036923F440531A43026160
:101D2000D4E904231143C268194341F20C639A4376
:101D30001143C1604169A26921F44071114343F626
:101D40000002C4F201029042416103D0FFF722F881
:101D500002E000BFFFF732F86268192148439100A2
:101D6000B0FBF1F048F21F51C5F2EB11A0FB0123CB
:101D70005A094FF69C73C0F6FF7302FB030032232F
:101D800003EB0010A0FB0101F02303EA51132068CC
:101D900003EB0212C1F3431111448160016921F484
:101DA00090410161416921F02A014161C16841F41A
:101DB0000051C16000202021606484F8411084F843
:101DC0004210606310BD00002DE9F04186B040F67E
:101DD00000050446C4F201050068A5F5444100274A
:101DE0008842049702D006B0BDE8F08141F21800A5
:101DF000C4F20200416802AE41F400314160416822
:101E000040F26C0801F40031019101990168C4F2BB
:101E1000020841F0040101600068314600F004004E
:101E20000190019804200290022003900320059065
:101E30002846FEF7FDFC0820CDE90207284631467A
:101E40000497FEF7F5FC40F23C15C2F20005202095
:101E50008026C5E906072846C5E90087C5E9027658
:101E6000C5E90477FEF73EFC002818BFFEF7E6FA46
:101E7000E5636C6240F2801508F11400C2F20005BF
:101E80001021002285E847002846C5E90422C5E95B
:101E90000622FEF727FC002818BFFEF7CFFA2620FF
:101EA00000210022A5636C62FEF758FE2620FEF793
:101EB00041FE06B0BDE8F08190F84230202B1CBFF7
:101EC0000220704700294FF0010318BF002A01D1FA
:101ED0001846704700230363816222218285C285F0
:101EE000436480F842100169006819B1C16841F487
:101EF0008071C1604169002341F001014161C16805
:101F000041F02001C16018467047000010B500681C
:101F100044F20041C4F20001884218BF10BD40F2F3
:101F20007004C2F20004204610F81C1B00F094F864
:101F300040F20C20C2F2000021460122BDE8104010
:101F4000FFF7BABF70B5044690F8410020281CBFC7
:101F5000022070BD00294FF001004DD0002A134629
:101F600008BF70BD4FF0000C21202162A384E384E0
:101F7000C4F844C084F841002268A06B42F2292EC4
:101F800042F2D92542F2AD06C0F6000EC0F60005B9
:101F9000C0F600060432C0E90AE5C0E90C6CFEF7A1
:101FA000E5FB20686FF04001016000BF206850E849
:101FB000050F216840F0800041E80502F2B1206879
:101FC00050E8050F216840F0800041E80502AAB101
:101FD000206850E8050F216840F0800041E80502C4
:101FE00062B1206850E8050F216840F0800041E8A8
:101FF0000502002ADAD1002070BD00BF002070BDAC
:102000007047000070470000FEE70000FEE7000098
:10201000FEE7000070470000D0E90032934202BFA3
:10202000FF2148B27047C3689A5C0A70D0E9011278
:102030004B1C0021934228BF0B46436048B27047B7
:1020400000294FF0FF031FBF002A0023C0E900331F
:10205000C0E9022158B2704780B5D0E900EC82682F
:102060000EF101039BB29A4298BF0023634503D14E
:10207000FF2040B280BD00BFC26802F80E100360AE
:10208000002040B280BD000070470000FEF7EABCAF
:102090007047000040F2C410C2F20000FFF77ABAA5
:1020A000406A0021C185C184FFF76ABB406A0168AC
:1020B0004A6990F84130212B2DD112F080022AD0AC
:1020C0000021C184016851E8031F026821F0C001AA
:1020D00042E80313DBB1016851E8031F026821F0F5
:1020E000C00142E8031393B1016851E8031F02687D
:1020F00021F0C00142E803134BB1016851E8031F0E
:10210000026821F0C00142E80313002BDAD120213C
:1021100080F841100168496990F84220222A40F075
:102120007D8011F0400179D00021C185016851E81E
:10213000031F026821F4907142E80313BBB30168E6
:1021400051E8031F026821F4907142E8031373B34E
:10215000016851E8031F026821F4907142E80313FB
:102160002BB3016851E8031F026821F4907142E823
:102170000313002BDAD11AE0016851E8051F026849
:1021800021F0010142E80513DBB1016851E8051FA8
:10219000026821F0010142E8051393B1016851E89A
:1021A000051F026821F0010142E805134BB10168E7
:1021B00051E8051F026821F0010142E80513002BD8
:1021C000DAD1016B012924D1016851E8031F0268AB
:1021D00021F0100142E80313DBB1016851E8031F4D
:1021E000026821F0100142E8031393B1016851E83D
:1021F000031F026821F0100142E803134BB101688C
:1022000051E8031F026821F0100142E80313002B7C
:10221000DAD1202180F8421000210163416C41F0A5
:1022200010014164FFF7ACBA0168406A0968890689
:1022300048BFFFF7E5BE0021C18400BF016851E837
:10224000051F026821F0800142E8051383B301688D
:1022500051E8051F026821F0800142E805133BB3F5
:10226000016851E8051F026821F0800142E805136A
:10227000F3B1016851E8051F026821F0800142E8CE
:102280000513002BDAD113E0016851E8031F02683F
:1022900041F0400142E80313002B08BF704701687A
:1022A00051E8031F026841F0400142E8031393B173
:1022B000016851E8031F026841F0400142E803133E
:1022C0004BB1016851E8031F026841F0400142E848
:1022D0000313002BD8D17047406AFFF793BE00006C
:1022E00081B090F84210222921D183680246B3F5CB
:1022F000805F09D152F8281F52F8183C002B63D098
:1023000003685B680AE000BF52F8281F13B903692D
:10231000002BF5D003685B6803F07F030B70116836
:1023200001311160C18D01390A04C18502D001B0AB
:10233000704700BF0168CA6822F02002CA60CA68FC
:1023400022F48072CA604A6922F001024A612021A7
:1023500080F8421000214163026B012A3CD10163E5
:10236000016851E8031F026821F0100142E80313DD
:10237000DBB1016851E8031F026821F0100142E857
:10238000031393B1016851E8031F026821F01001A3
:1023900042E803134BB1016851E8031F026821F0C2
:1023A000100142E80313002BDAD101680A68D20653
:1023B00006D5002200920A680092496800910099AF
:1023C000818D01B0FFF7DAB9026852686FF35F22BE
:1023D00021F8022B8162A5E701B0FFF797BD00004D
:1023E00040F20C20C2F20000FFF7CCB9FEE700007B
:1023F000E2B0FEF745FB00240120CDE90A44CDE917
:102400000844099010200A904FF4601002250E90A5
:1024100005A8CDE906440595CDE90C54FEF7E2FC8C
:1024200020B1EFF3108072B6FEE700BF0F20CDE9B8
:1024300050054FF48060CDE9530450A80221529416
:10244000FEF7C8FB20B1EFF3108072B6FEE700BFC5
:1024500041F21805C4F20205286841F2000740F075
:10246000100028602868C4F2010700F010000590F1
:10247000059828684FF4005140F00400286028684F
:10248000002200F004000590059838464FF40056ED
:102490000024FEF7DBFA0120CDE9060402200890B3
:1024A00005A938460596FEF7C3F955F8040C002136
:1024B00040F0010045F8040C55F8040C002200F02F
:1024C0000100059005981020FEF748FB1020FEF74C
:1024D00031FB112000210022FEF740FB1120FEF706
:1024E00029FB40F2C410C2F200004FF080414F239C
:1024F0000894CDE90644CDE9504440F21F3280E80B
:102500001600C0E903348461FEF79EFE20B1EFF3AC
:10251000108072B6FEE700BF4FF48050059040F285
:10252000C4100DF11409C2F200004946FEF762FF23
:1025300020B1EFF3108072B6FEE700BF40F2C41086
:1025400050ACC2F200002146FEF740FE20B1EFF38E
:10255000108072B6FEE700BF40F20C20A7F54C4198
:10256000C2F2000000270C234FF4E13280E886001D
:10257000C0E90377C0E90537C761FFF7B3FB28B1AE
:10258000EFF3108072B600BFFEE700BF40F27007A5
:10259000C2F2000740F2407107F11C00C2F20001D4
:1025A0004FF480720490FFF74BFD40F20C20C2F212
:1025B000000039460122FFF77FFC40F2C410C2F24E
:1025C0000000FEF7DFFE09F58B7009F10C0809F138
:1025D00009060290601C00250090039604E000BFED
:1025E000039E7C60002500BF4FF098600990032097
:1025F0008DF8280048460921092232230895B57034
:10260000358000F025FD9DF816009DF817A0FE28E6
:102610001AD19DF81A0040F2D802C2F2000290705E
:10262000BDF81B00FE21A2F803003078941D117044
:1026300082F801A05071204641465246FDF7F0FD58
:1026400004EB0A01082056E0BAF1020F2CD35FFA1E
:102650008AF1414411F8011C31BBAAF10101CAB24F
:10266000022A1BD3424412F8012CDAB9AAF1020162
:10267000CAB2022A12D3424412F8012C92B9AAF12A
:102680000301CAB2022A09D3424412F8012C4AB902
:10269000AAF1040A5FFA8AF10129D8D84FF0010A99
:1026A00002E000BF8A4600BF40F2D802C2F2000238
:1026B0001070DDF819009DF81870C2F8030030881A
:1026C000B178D071000A5FFA8AF402F10A0682F842
:1026D00001A0977010725172304641462246FDF7B4
:1026E0009FFDF80706EB04010AD140F27007039E34
:1026F0000C20C2F20007BDF814200A80002115E06A
:10270000BDF81400029F088038687A68BB68C1F879
:102710000200387B40F27007039EC1F80620C1F822
:102720000A3088730D210C20C2F200075FFA8AF28A
:102730001044421840F20C2040F2D801C2F20000CE
:10274000C2F20001FFF7FEFB4FF47A70FEF75CF86F
:102750000498791CFFF760FC00284FF000057FF417
:1027600043AF40F2E06CC2F2000C9CF8036097F8B3
:1027700001A04FF000090F2E8CF800905ED840F2B7
:102780005424C2F20004DFE816F0110011005F00CB
:1027900079008F00A100B300C500D700EF0005014C
:1027A00021014101230023009B0100BFBAF1FE0F6C
:1027B00000F0A481BAF1FD0F40F0C7819CF80C0035
:1027C0000226FD2100F0FE008CF8036061809EE18E
:1027D0006078217950454FF0020908BF4FF0010998
:1027E0000E2E08BF4FF00209C8078CF8009084F83D
:1027F00015A140F07581DCF81000002800F0FB8383
:10280000026B002A00F03A83E07AB4F8091041EA3A
:1028100000416046904740F2E06CC2F2000C9CF828
:102820000090002840F0468340F25424B9F1020F92
:10283000C2F2000440F08D83DDE300BF40F2542477
:10284000C2F2000483E100BF208884F803A08AEA72
:10285000000181EA0111CAB2090241EA10201109FE
:1028600081EAC2019CF80C204840D1078CF8045042
:10287000208040F05381032665E100BFBAF1020FCA
:1028800084F804A080F05281208804268AEA00019E
:1028900081EA0111CAB2090241EA1020110981EA54
:1028A000C201484020804EE1208884F805A08AEAD1
:1028B000000181EA0111CAB2090241EA102011099E
:1028C00081EAC2014840208005263CE1208884F846
:1028D00006A08AEA000181EA0111CAB2090241EAAE
:1028E0001020110981EAC2014840208006262AE111
:1028F000208884F807A08AEA000181EA0111CAB29F
:10290000090241EA1020110981EAC20148402080F1
:10291000072618E1208884F808A08AEA000181EAE5
:102920000111CAB2090241EA1020110981EAC2016B
:1029300048402080082606E12088E5728AEA0001E6
:1029400081EA0111CAB2090241EA1020110981EAA3
:10295000C2019CF80C204840D107A4F809A02080AF
:1029600040F0EC800926EEE0204630F8091F22886E
:1029700041EA0A2101808AEA020080EA0010C1B21D
:10298000000240EA12200A0982EAC1014840208080
:102990000A26D8E0204630F8091F8278018042EAF2
:1029A0000A02827022888AEA020080EA0010C1B21C
:1029B000000240EA12200A0982EAC101E278484096
:1029C000002A208040F0BC80BCE000BF9CF80400DE
:1029D000411CCAB28CF804102188204480F80CA055
:1029E0008AEA010080EA0010C3B2000240EA112026
:1029F000190981EAC301E37848409A42208000F037
:102A0000A1804FF000090B26A1E000BFE07AB4F8E6
:102A1000091043F69469A64641EA0040E4220021E9
:102A2000C0F600094FF0FF34914211D28B180133E8
:102A30005F0807EB470659F82660864298BF39467B
:102A400040F27007C2F2000788BF04EB5302EBD1DB
:102A500001EB410159F82120824240F0398109EB14
:102A60008100BEF800200379817983EA020080EAC0
:102A70000010C0B2030243EA1222030983EAC00035
:102A80005040AEF80000C0B20E26824508BF0D26A9
:102A90009CF80420744691428CF803608EF814A1CF
:102AA00053D9A0180C30891AFDF731FC40F2542498
:102AB00040F2E06CC2F20004C2F2000C002544E0D7
:102AC0009CF80D00211A013881F823A101068CF829
:102AD0000D0000F00B814FF000090F2637E000BF1A
:102AE0000F26B9F1020F4FF00D008CF803608CF83F
:102AF0000D0040F0F5804FF0020928E09CF80C0032
:102B00000226FE218CF80360618040F001008CF801
:102B10000C004FF6FF70208017E000BF4FF0000957
:102B20000526A4F804908CF8036010E09CF80200DD
:102B3000012601308CF8020005E000BFE07808B102
:102B40000B2600E00C268CF803604FF000099CF87F
:102B500004109CF80520D64694F803B040F6400ACD
:102B60009CF802009CF80C3087F83010511CBCF81F
:102B70000820C2F2000AB9F1020F8AF803B087F800
:102B80002F6087F83110BA86F88687F838308CF8CD
:102B9000025005D1B4F81401AAF8000004E000BF07
:102BA00009F0FE0002281BD1039E40F20110BEF185
:102BB000FD0F0DF11409ACF802008CF800507FF401
:102BC00013AD40F2E060C2F200000221C17040F299
:102BD0005421C2F200014FF6FF70CD70088003E56A
:102BE000039EB9F1000F0DF114093FF4FDAC40F65E
:102BF000400AC2F2000A9AF80B00BAF8091041EA3A
:102C000000404C2832D000287FF4EEAC092007F1B8
:102C10001006BBF1090F28BF8346CBF1090106EB73
:102C20000B00BBF1080F88BF0021FDF770FB40F6D9
:102C30004000C2F2000000F10C0130465A46FDF798
:102C400034FBFDF709FF7968044600293FF4C8AC5E
:102C5000601AB8603FF4C4AC01F040F801460020AF
:102C6000C4F27A4000F044FFF860B9E407F144068A
:102C7000BBF1210F28BF4FF0210BCBF1210106EB57
:102C80000B00BBF1200F88BF0021FDF740FB0AF1CC
:102C90000C013046039E5A46FDF707FBB7F860006B
:102CA0000025B0F5C87F7FF49FAC786C4FF07E5163
:102CB00000F0E7FE002841F20000C4F201004FF4EA
:102CC000005114BF00220122FDF7C0FE00258BE455
:102CD0000E268CF8036074468EF814A135E700BF09
:102CE0004FF000098CF800900F2630E7DCF810B0A8
:102CF000BBF1000F00F07B81DCF8140005AE019001
:102D00004EF26760C6F6092007904AF68560CBF65A
:102D1000673008904FF27230C3F66E4009904FF260
:102D20003A50CAF24F500A9045F27F20C5F20E1079
:102D30000B9046F68C00C9F605300C904DF6AB10A2
:102D4000C1F683700D904CF61950C5F6E0300E9028
:102D50000BF1100130462022CDE90555254600F043
:102D60005BFCA11C30460A2200F056FCE27804F11C
:102D70000C01304600F050FC04F58A713046022206
:102D800000F04AFC04F58B713046072200F044FC49
:102D9000059F3720A0EBD70000F03F0950A809EBB2
:102DA000000480208DF8400100984721FDF7AFFA1C
:102DB000069938BAC4F8050008BAC4F8010009F148
:102DC0000902304650A95E4600F026FC9DF81C0022
:102DD0009DF81D109DF81F208DF83C118DF83D01C8
:102DE0009DF823009DF822109DF81E308DF83A21A1
:102DF0008DF83E018DF83F1105F21D110DF59D7006
:102E000006228DF83B31FDF7DFF940F2E06C02213C
:102E1000C2F2000C002840F08180019D002D4FD0AF
:102E200040F25424C2F20004298894F81631B4F810
:102E30001B91D4F817B100294AD020464A1EE479E4
:102E4000007A92B202F1010C002202E001329142BA
:102E500038D002EBC20705EB070E9EF80370BC42A8
:102E6000F4D19EF80470B842F0D19EF80270BB42D3
:102E7000ECD140F25424C2F200042AE0B9F1020F6E
:102E800067D140F640000126C2F20000214640F220
:102E900023128CF80360FDF708FA40F2542440F244
:102EA000E06CC2F20004C2F2000C4FF002090025EF
:102EB0004DE600BF40F25424C2F200049BE000BF84
:102EC000032127E0624640F2E06CC2F2000C0BE006
:102ED000002290B240F2700740F2E06C8842C2F2E9
:102EE0000007C2F2000C43D10F2901D9042115E0DB
:102EF00048F68050C0F25B001BEB000ED6E90240A2
:102F00001FFA89FC4CF10007BEEB040477EB0000CC
:102F10003ED2052140F2E06CC2F2000CDCF8100059
:102F200086F83410026BBAB140F25424C2F20004A5
:102F3000E07AB4F8091041EA00416046904740F257
:102F4000E06C40F27007C2F2000C0028C2F20007E9
:102F50004DD14FF003094CE040F2700740F2542489
:102F60004FF00309C2F20007C2F2000441E000BFC3
:102F700002EBC2002844B0F80910D0F805001FFA8F
:102F800089F3B0EB0B0071EB030017D30621C5E703
:102F900040F25424C2F20004B4F8070002EBC20766
:102FA0002F44A7F80300BB7040F2700740F2E06CBA
:102FB000481CC2F20007C2F2000C288002EBC200DB
:102FC000B4F81B112844A0F80910D4F81711C0F860
:102FD0000510D6E902121FFA89F0B1EB0B0172EB72
:102FE000000138BFC6E902B0012086F834004FF076
:102FF00001098CF8009040F640000126C2F2000062
:10300000214640F223128CF80360FDF74EF940F29E
:10301000542440F2E06CC2F20004C2F2000CB9F198
:10302000010F4FF000057FF492ADBCF80800A179C4
:10303000002800F101004FF001064FF001098CF863
:10304000051008BFACF80A50ACF808007FE5000096
:103050002DE9F04FB1B040F2E06CC2F2000C9CF8E8
:103060000C70804617F0020A00F1090E3CD1DCF822
:103070001000FD2600281ABF007800F001094FF06B
:103080000009022A88F8026038D308F10C00D1B296
:10309000014411F8011C11BB511ECDB2022D1DD3EC
:1030A000054415F8015C002D40F01C81911ECDB245
:1030B000022D13D3054415F8015C002D40F0128158
:1030C000D11ECDB2022D09D3054415F8015C002DA7
:1030D00040F00881043AD1B20129D8D801220A204F
:1030E000FD2601900CE000BFFE26062088F8026055
:1030F0004FF0000901900A4602E000BF0A2001904B
:10310000002088F8032088F8049088F805009CF8CF
:10311000060040F20111A8F80710411CBAF1000F97
:1031200088F806008CF806108DF80A608DF80B20E0
:1031300012D1BEF800509EF802608DF811502D0A91
:103140004FF0010B8DF812508DF8136000254E469C
:103150008DF810B005E000BF9EF800B001250646CE
:1031600001209DF80B708DF80C60FF4387EA07176C
:10317000FFB23C023909FF3481EAC701614086EAA7
:10318000010484EA0414E4B2260246EA1121260965
:1031900086EAC404614085EA010484EA0414E4B2C6
:1031A0008DF80D50250245EA1121250985EAC40450
:1031B00061408DF80E00484080EA0010C0B2040261
:1031C00044EA1121040984EAC00048408BEA000166
:1031D00081EA0111C9B20C0244EA10200C0984EA08
:1031E000C101BAF1000F81EA00078DF80FB036D1A6
:1031F0009DF810009DF81110784080EA0010C0B2D0
:10320000060246EA1726070987EAC00070404140D7
:1032100081EA0111C9B20E0246EA10200E099DF89A
:10322000124086EAC101484084EA000181EA0111A6
:10323000C9B20C0244EA10200C099DF8135084EA2C
:10324000C101484085EA000181EA0111C9B20C02BE
:1032500044EA10200C0984EAC10181EA0007100643
:1032600008F10C0A00F092805FFA82FB12F003066C
:10327000ABF1010018D098F80C40012E84EA070445
:1032800084EA0414E4B24FEA042545EA17254FEA1C
:10329000141787EAC40484EA050709D108F10D066A
:1032A0008346032836D271E05646032832D26DE0B9
:1032B00098F80D40022E84EA070484EA0414E4B26C
:1032C0004FEA042545EA17254FEA141787EAC40494
:1032D00084EA05070AD1ABF1020B08F10E060328B8
:1032E00018D253E00A200190FD2604E798F80E401A
:1032F000ABF1030B7C4084EA0414E4B2250245EAF6
:103300001725270987EAC40408F10F0684EA050790
:1033100003283BD3301F00BF10F8044FBDB27C40E0
:1033200084EA0414E4B2260246EA1525260986EA50
:10333000C4046C4045788678654085EA0515EDB291
:10334000290241EA14212C0984EAC504614086EA75
:10335000010484EA0414E4B2250245EA1121250996
:10336000C77885EAC404614087EA010484EA04144A
:10337000E4B2250245EA11212509ABF1040B85EAE7
:10338000C4045FEA0B4584EA0107C5D187EA03015B
:1033900081EA0111C9B2B8B20B0243EA10200B094D
:1033A00083EAC1014840D7B2B9F1000F2AF80700FB
:1033B000A8F8000007D0DCF8100000281CBF017836
:1033C0005FEAC17102D131B0BDE8F08F41780DF1F3
:1033D000140B88F81611D0E902120AEB0704AEF8B4
:1033E0001221CEF80E11D0E9021208F58B790131C5
:1033F00042F10002C0E902120021CDE905114EF2AE
:103400006761C6F6092107914AF68561CBF66731F7
:1034100008914FF27231C3F66E4109914FF23A5161
:10342000CAF24F510A9145F27F21C5F20E110B915C
:1034300046F68C01C9F605310C914DF6AB11C1F67B
:1034400083710D914CF61951C5F6E0310E9100F1E2
:1034500010015846202200F0DFF8019A0DF10A0110
:10346000584600F0D9F8584651463A4600F0D4F88C
:1034700058462146022200F0CFF858464946072216
:1034800000F0CAF8059C3720A0EBD40000F03F05FF
:103490001FAE80208DF87C00701C4721AF19FCF70F
:1034A00036FF069920BAC7F8050008BAC7F8010028
:1034B00005F109025846314600F0AEF89DF81C00AF
:1034C0009DF81D109DF81F209DF81E3088F81F11D3
:1034D00088F820019DF823009DF8221088F81D210E
:1034E00088F81E3188F8210188F8221131B0BDE832
:1034F000F08F0000F0B581B004468078E778FE28B0
:1035000016D140F2D800C2F20000FE210170D4F8BA
:103510000610851DC0F80210E278477004F10C0116
:103520002846FCF77DFEE0782918082047E000BF18
:10353000022F04F10C0124D3FAB20A4412F8012C30
:10354000FAB97A1ED3B2022B17D30B4413F8013CFD
:10355000B3B9BA1ED3B2022B0FD30B4413F8013CFC
:1035600073B9FA1ED3B2022B07D30B4413F8013CF4
:1035700033B9043FFAB2012ADED8012701E000BFC7
:10358000174640F2D802C2F2000210706068237A37
:10359000C2F80200B4F809009371E37AD071000A0E
:1035A000FDB202F10A0657701072537230462A4675
:1035B000FCF736FE20797119C00707D10C2022785C
:1035C0000A7062784A70002115E000BF2078087008
:1035D00060784870D4F81601D4F81A21D4F81E3156
:1035E000C1F80200C1F80620C1F80A3094F822019F
:1035F00088730D210C20FAB21044421840F20C20BE
:1036000040F2D801C2F20000C2F2000101B0BDE8F0
:10361000F040FEF797BC00002DE9F04FD1B00368F1
:103620000E4603EBC201154699420246099001601D
:1036300003D20998416801314160002D00F01E82DB
:103640000998C3F3C50400F1280944F65010C0F6E8
:1036500000000DF144080438CDE9010904E000BF81
:10366000ED1B3E4400F00A82C4F14007BD4238BF62
:103670002F4609EB040031463A46FCF7D1FD3C44A5
:10368000402CEDD10895099DCDE9067695F82F20BF
:1036900095F82B008DF8482095F835208DF84400DA
:1036A0008DF8522095F8432095F831008DF85C2074
:1036B00095F8492095F8284095F82A108DF866204D
:1036C00095F85720464695F833808DF84E0095F8CA
:1036D0003F0095F829E095F82E3095F82CC08DF82C
:1036E000451095F8301095F837708DF8474095F8EB
:1036F000364095F838908DF8702095F85D208DF85B
:103700004C8095F839808DF8580095F845008DF873
:1037100046E08DF8493095F8343095F83BE08DF867
:103720004BC095F83AC08DF84F1095F83E108DF8C3
:10373000507095F83D708DF8514095F83C408DF8EB
:10374000579095F846908DF87A202A698DF8568022
:1037500095F847808DF8620095F853008DF8533046
:1037600095F842308DF854E095F841E08DF855C059
:1037700095F840C08DF8591095F844108DF85A709E
:1037800095F84B708DF85B4095F84A408DF8619044
:1037900095F84C900E926A698DF8608095F84D808E
:1037A0008DF86C0095F859008DF85D3095F848302B
:1037B0008DF85EE095F84FE08DF85FC095F84EC04B
:1037C0008DF8631095F852108DF8647095F851706B
:1037D0008DF8654095F850408DF86B9095F85A90AB
:1037E0000D92AA698DF86A8095F85B808DF8760055
:1037F00095F8670095F82DB095F832A08DF86730F0
:1038000095F856308DF868E095F855E08DF869C068
:1038100095F854C08DF86D1095F858108DF86E70AD
:1038200095F85F708DF86F4095F85E408DF8759053
:1038300095F860900C92EA698DF8748095F8618033
:103840008DF88000686A8DF84AB08DF84DA08DF82B
:10385000713095F85C308DF872E095F863E08DF882
:1038600073C095F862C08DF8771095F866108DF8E2
:10387000787095F865708DF8794095F86440D5F8C2
:1038800008A0D5F80CB08DF87F900B92D5F8209059
:10389000119A8DF87E80B0460A9000208DF87B301A
:1038A0008DF87CE08DF87DC08DF881108DF88270E8
:1038B0008DF8834008EB00018B6B01F1040E4FEA99
:1038C000734787EAF34787EA932C9EE8A0404E6A45
:1038D0004FEAF514164484EAB54484EAD5046644F4
:1038E0002644CC6B0E644FEA744383EAF44383EAC4
:1038F000942C8C6A4FEAF71383EAB7432C4483EA8B
:10390000D70304EB0C052B444FEA764585EAF645D0
:1039100085EA9626CD6A4FEAFE1484EABE442F4417
:1039200084EADE04374427448F644FEA73470A6908
:1039300087EAF3474B6487EA93230F6B4FEAF2164B
:1039400086EAB246774486EAD2063B4410303344D6
:10395000C028CB64AED15146594649460DF12C0CD6
:1039600001980A9C9CE882100E9B6FF00708CDF826
:1039700014A05646DA46CDF810B0CDF80C9000BF32
:103980008B464FEAB71181EAF72110963A4681EA51
:10399000776107EA0B0529EA070650F8087F2C44EF
:1039A0000F9711AF344450F8046C47442144BC686D
:1039B000314401EB040E0EEB0C0101EA02064E4409
:1039C0002BEA01052E444FEAB11585EAF12585EA77
:1039D00071650F9C3544FE682544354483EA0A0925
:1039E00003EA0A06EF18109BD44609EA0304744060
:1039F0004FEAB30686EA733686EAB356344404EBDC
:103A00000E0A8CEA030606EA0A060CEA030466407C
:103A10004FEABA0484EA7A3484EABA54264408F1B4
:103A200008082E44B8F1F80F5C469146A8D10598D5
:103A3000DDF8089006EB000E04980DF144080AEB3F
:103A400000060E9803440D980CEB00050C980744F3
:103A50000B980144039802440A980BEB0004099860
:103A600000F1100CC0E902E68CE8A8001C30DDE98A
:103A70000765069F16C00024F2E500BF51B0BDE8FF
:103A8000F08F10B500F0F6F80CBF0120002010BD3B
:103A900010B500F0EFF814BF0120002010BD10B5E4
:103AA00000F030F98CBF0120002010BD10B500F0EF
:103AB00029F92CBF0120002010BD10B500F056F9E7
:103AC00094BF0120002010BD10B500F04FF934BFA5
:103AD0000120002010BD401058BFC0F140404910E7
:103AE00058BFC1F140418142EFF3008070470000B0
:103AF0004FF47F0C1CEAD0121EBF1CEAD11392EACD
:103B00000C0F93EA0C0F00F0858090EA010F48BF7C
:103B100042F4807240F4000C41F400002CF07F412C
:103B200020F07F4000B5A2EB030281420FF2081C97
:103B3000ACEB504E9EF800E0C0F100004FEA4E0E94
:103B400000FB0EFC38BF49004FEA2C1C0CFB0EF3A7
:103B50004FEACE1E0EEB635E4FEA112C0EFB0CFCFF
:103B60004FEAC1214FEA1C5300FB031102F5FA0290
:103B70004FEA112C0EFB0CFC4FEA01314FEADC4CF2
:103B800000FB0C1142EB2242C14228BF09184CEB4A
:103B900003335DF804EB10EB410143EBC250B2F587
:103BA0007C0F38BF704729D512F0F00F1CBF00F111
:103BB000C04000F000407047008182838485868782
:103BC00088898B8C8D8E8F919293959697999A9CDC
:103BD0009D9FA0A2A3A5A7A8AAACAEB0B2B3B5B74B
:103BE000B9BCBEC0C2C5C7C9CCCED1D4D7D9DCDF21
:103BF000E2E6E9ECF0F3F7FAFE0000004FEA400CD1
:103C00000CF1807CBCF17E4F28BF7047B0F1C04002
:103C100000F026B90CEAD11390EA010F48BF42F434
:103C20008072624538BF634507D213F47F0F16D008
:103C300080EA010000F00040704710B500F0CAF8BB
:103C4000097EFC3E00F005B880EA010000F000406B
:103C5000704780EA010000F0004000F001B912F462
:103C60007F0F04BF0248704780EA010000F0F8B8F7
:103C70000000C07F50EA010C00F113801CF5000F1A
:103C800058BFBCF5000F01D48842704707D710F524
:103C9000000F58BF11F5000F15D4884270478942B4
:103CA00070471CF5000F04D5BCF5000FF7D5814215
:103CB00070474FF0807C1CEB400F38BF1CEB410F6E
:103CC00001D28142704710B500F084F89224490077
:103CD0004FF000504FF08051FFF7FDBEB0FA80F377
:103CE00010FA03F2C3F19D030AD0D90501EB1220AB
:103CF000530638BF704700F1010008BF20F00100F3
:103D00007047000050EA010C00F113801CF5000F11
:103D100058BFBCF5000F01D48842704707D710F593
:103D2000000F58BF11F5000F15D488427047894223
:103D300070471CF5000F04D5BCF5000FF7D5814284
:103D400070474FF0807C1CEB400F38BF1CEB410FDD
:103D500001D28142704710B500F03CF8922449002E
:103D60004FF080504FF00051FFF7B5BE50EA010C04
:103D700000F113801CF5000F58BFBCF5000F01D4F3
:103D80008842704707D710F5000F58BF11F5000F94
:103D900015D488427047894270471CF5000F04D53E
:103DA000BCF5000FF7D5814270474FF0807C1CEBCB
:103DB000400F38BF1CEB410F01D28142704710B554
:103DC00000F008F8922449004FF000504FF0805165
:103DD000FFF781BE0EF1020E2EF0030E5EF8044BCB
:103DE000244204D44FEA4102B2F17F4F11D84FEA86
:103DF0004003B3F17F4F0CD80ED14FEAD07C0CEBCF
:103E00004C0C0CF1020CB2F17F4F08BF4CEBD17C93
:103E100004E04FF0080C01E04FEAD17C0CEB4C03BE
:103E200024FA03F404F00704B4F1040C06D20EEBF8
:103E3000840CBDE810404CF0010C6047DFE80CF04A
:103E4000070802024FF00040A0F5800010BD0846B0
:103E5000420018BFD2F1807288BF00F0004010BD50
:103E6000FF2141EAD050C00570470000000000006B
:103E70000000010203040607080900000000010217
:103E80000304010202030405060708090A0B0C0DCE
:103E90000E0F1010000000003209090000000000A1
:103EA000010000007C1F2B00000000000200000049
:103EB000890C0C000000000004000000ED0E0E0351
:103EC0000C0D000005000000D91C1C0100000000C2
:103ED0000600000068030300000000000700000067
:103EE0007720200000000000080000007524240056
:103EF000000000000B00000059060601040000004D
:103F000014000000D6141403020300001500000082
:103F10009F0202030001000016000000DC191900D6
:103F20000000000017000000A81717030405000098
:103F300018000000181E34000000000019000000E6
:103F400017656500000000001A000000AA1618009E
:103F5000000000001B000000901A1D00000000007F
:103F60001C00000043101000000000001D000000B5
:103F7000730E1000000000001E000000271C1C0033
:103F8000000000001F000000F620300000000000CC
:103F900020000000B91C1C000000000021000000EF
:103FA000681C1C000000000022000000ED16160036
:103FB0000000000023000000F416160000000000BE
:103FC00024000000DE152500000000002500000090
:103FD000D4060703040500002600000009060703B5
:103FE0000405000027000000FE2526032021000014
:103FF00028000000E6040503020300002900000079
:104000001C040403020300002A0000001C0212002A
:10401000000000002B0000008402030300010000E8
:104020002C000000DD040903020300002D00000045
:10403000E8020303000100002E0000000B02020052
:10404000000000002F000000990308030001000099
:1040500030000000290D15010C00000031000000A7
:10406000270C140000000000320000004E2525033C
:104070001213000033000000C40405030203000013
:10408000360000000F1B1B0318190000370000004A
:1040900003191900000000003D000000A748480077
:1040A000000000003E000000B71A1A0000000000E7
:1040B0003F00000077B5B5000000000040000000A0
:1040C000BFE1E1000000000041000000762A2A0064
:1040D00000000000420000009406060302030000F6
:1040E000430000001504040000000000450000002B
:1040F000F30B1E010A000000460000007C1226039C
:104100001011000049000000262526032021000090
:104110004A00000014141400000000004B000000CE
:104120009E2323031E1F00004C0000009821210342
:104130001E1F00004D0000008F030A030809000045
:10414000500000000E0404030203000051000000B0
:104150006A161600000000005200000031273303E9
:104160002425000053000000162525000000000053
:10417000540000008F353503323300005500000035
:104180008C33330000000000560000000535350375
:104190003233000057000000963333000000000067
:1041A00059000000E71C1C00000000005A0000003D
:1041B000B7383800000000005B0000003F2A2A00EA
:1041C000000000005C00000036212100000000001B
:1041D0005D0000002F51510000000000640000004D
:1041E000AF1A220000000000650000006620750084
:1041F00000000000660000009E2075000000000026
:1042000067000000D01439000000000068000000C2
:104210003820740000000000690000005D3E3F008F
:10422000000000006A0000008A2C2C000000000042
:104230006B0000006C404100000000006C000000BA
:1042400020545C00000000006D000000B909090066
:10425000000000006E00000054FEFE03010200009A
:104260006F00000022101203101100007000000007
:10427000AE0C0C0000000000710000007C24270040
:104280000000000072000000ED2C2C000000000077
:1042900073000000044040000000000074000000B3
:1042A0004C16180000000000750000008006060390
:1042B0000405000076000000380E0E00000000002B
:1042C00077000000740C0C030A0B0000780000005B
:1042D000866161000000000079000000ED02020329
:1042E000000100007A000000CB0202030001000080
:1042F0007B000000FA717103000100007C000000E7
:1043000057233900000000007D000000CB060600A6
:10431000000000007E000000DC4F51034F50000001
:104320007F0000001923230000000000800000002F
:10433000E223230000000000810000002E16180078
:1043400000000000820000001D0D0D0000000000B4
:1043500083000000DFFFFF00000000008400000079
:10436000550E270000000000850000000612120014
:104370000000000086000000E52B2B00000000007C
:1043800087000000CB080800000000008800000043
:10439000011616000000000089000000C30E100086
:1043A000000000008A0000006D247800000000007A
:1043B0008B000000A82B2B03292A00008C00000092
:1043C000B5292900000000008D0000002F202000EA
:1043D000000000008E00000048F3F3000000000021
:1043E0008F000000830E100000000000900000000D
:1043F0007F5D5D00000000009200000067646400C3
:1044000000000000930000009A2436000000000025
:1044100094000000B23C4E00000000009500000037
:10442000C81E3C0000000000A2000000BD080900FA
:1044300000000000C0000000242C36000000000036
:10444000E1000000D041490000000000E60000004B
:10445000A32A2A0000000000E700000069282800C5
:1044600000000000E8000000973F4100000000004D
:10447000E900000023B6B60000000000EA000000DA
:104480009628280000000000EB000000B32A2A0054
:1044900000000000F10000005A2020000000000091
:1044A000F200000068343C0000000000F30000004F
:1044B00055353D0134000000F40000005F060600A1
:1044C00000000000F5000000820202000000000071
:1044D000F6000000B826260000000000F7000000EB
:1044E0005113130000000000F800000008FEFE0356
:1044F00003040000F9000000CC24240000000000A8
:10450000FA000000311E1E0000000000FB00000049
:10451000AA12120000000000FC0000002C12120081
:1045200000000000FD0000005333360000000000D2
:10453000FE0000002E09090000000000000100003C
:10454000472A2A0308090000010100008309090025
:104550000000000002010000BB20E8030001000091
:10456000030100005CEBED0000000000040100000E
:1045700092050E000000000005010000B31B3D0085
:1045800000000000060100000C12170000000000EF
:104590000701000085FFFF00000000000801000087
:1045A000311C200000000000090100001A10140056
:1045B000000000000A010000C1FFFF030203000029
:1045C0000B01000023FFFF03020300000C010000A9
:1045D0000E040403020300000D0100006DD5D70096
:1045E000000000000E0100003B131400000000005A
:1045F0000F01000016343500000000001301000018
:104600007E1F200000000000140100001231320063
:1046100000000000150100003E1E1E00000000000A
:1046200018010000462121000000000019010000CF
:10463000300D0D00000000001A0100007B23230351
:10464000202100001B0100004A90910000000000A2
:104650001C010000632020031E1F00001D0100003C
:1046600089283103262700001E010000D2353903B6
:10467000323300001F01000001171703141500005A
:104680002001000014171703141500002201000078
:10469000FB2E2E0000000000230100000A39390023
:1046A000000000002B010000136062000000000009
:1046B0002C010000D9161600000000002D0100009A
:1046C000F33A3A0000000000360100001C1111000E
:1046D00000000000370100005F747400000000005B
:1046E00040010000F3141403020300004101000024
:1046F000580202030001000042010000F3959500FA
:1047000000000000430100004E93930300010000ED
:104710004401000084929200000000004A01000061
:10472000179EA700000000004B0100005BE6E900B7
:10473000000000004C010000ECEFEF000000000062
:104740004D010000E76D6D00000000004E0100000B
:10475000480A0A00000000004F010000E11818009C
:104760000000000050010000F5545400000000005B
:1047700053010000C70505000000000054010000BF
:1047800063464600000000005E010000E814FC00E3
:1047900000000000680100000B1919000000000073
:1047A000720100004B576D00000000007301000013
:1047B0000A1A1A0000000000740100001A8C8C0014
:1047C0000000000075010000752A2A0000000000AA
:1047D00077010000FB8C8C00000000007C010000D1
:1047E000E814140000000000810100009385850397
:1047F0000203000082010000841010030405000081
:1048000083010000044848030405000084010000FF
:104810000825250320210000860100009CEEEE0003
:10482000000000008B01000000D4D4000000000054
:104830008C01000032A0A000000000008D010000EB
:10484000B66C6C0000000000900100006EFEFE03DC
:104850000405000091010000B706060304050000EE
:104860009A010000A0353500000000009B01000007
:104870006A030300000000009C01000021060603FB
:10488000040500009D0100004D070703040500001A
:10489000B3010000862E2E0000000000B4010000CD
:1048A000C109090000000000B50100001E0101005F
:1048B00000000000B80100004223230000000000B7
:1048C0002823000071898900000000002D230000CA
:1048D000752222000000000064320000722C2C03BC
:1048E0000001000065320000FE3B3B031E1F00007C
:1048F000663200008C353503040500006732000085
:10490000F92E2E0300010000683200004D363603F8
:104910001C1D000069320000312B2B030001000038
:10492000733200005EF9F9030001000076320000E6
:104930008B333300000000007732000007121203AF
:10494000101100007832000014050500000000007E
:10495000982F8A4291443771CFFBC0B5A5DBB5E9EA
:104960005BC25639F111F159A4823F92D55E1CAB5E
:1049700098AA07D8015B8312BE853124C37D0C55EC
:10498000745DBE72FEB1DE80A706DC9B74F19BC134
:10499000C1699BE48647BEEFC69DC10FCCA10C2424
:1049A0006F2CE92DAA84744ADCA9B05CDA88F97608
:1049B00052513E986DC631A8C82703B0C77F59BF72
:1049C000F30BE0C64791A7D55163CA06672929149E
:1049D000850AB72738211B2EFC6D2C4D130D38533B
:1049E00054730A65BB0A6A762EC9C281852C7292FD
:1049F000A1E8BFA24B661AA8708B4BC2A3516CC72B
:104A000019E892D1240699D685350EF470A06A1063
:104A100016C1A419086C371E4C774827B5BCB034B2
:104A2000B30C1C394AAAD84E4FCA9C5BF36F2E6850
:104A3000EE828F746F63A5781478C8840802C78CDF
:104A4000FAFFBE90EB6C50A4F7A3F9BEF27871C6E2
:104A5000704A000800000020100000002801000833
:104A6000804A000810000020600F00004401000888
:104A7000010000001000000000127A000000000099
:04000005080000ED02
:00000001FF
