:020000040800F2
:100000009009002039020008112500080925000880
:100010000D2500085D050008A52A00080000000065
:10002000000000000000000000000000892500081A
:100030007905000800000000152500088D2500083E
:10004000530200085302000853020008530200083C
:10005000530200085302000853020008530200082C
:10006000530200085302000853020008530200081C
:10007000530200085302000853020008530200080C
:100080005302000853020008530200080000000059
:100090000000000000000000000000005302000803
:1000A00053020008530200085302000853020008DC
:1000B000512600085D26000853020008530200087C
:1000C00053020008530200085302000853020008BC
:1000D0005302000853020008530200080000000009
:1000E00053020008530200085302000800000000F9
:1000F00000000000000000000000000053020008A3
:1001000000000000530200085302000853020008D8
:1001100000000000000000000000000000000000DF
:10012000610500085302000853020008530200084A
:100130005302000800000000000000000000000062
:100140000000000000000000000000005302000852
:10015000530200086D05000853020008992A0008A0
:1001600053020008530200080000000000000000D5
:10017000000000000000000000000000000000007F
:100180000000000053020008000000000000000012
:10019000530200085302000800F002F800F03CF897
:1001A0000AA090E8000C82448344AAF10107DA45D2
:1001B00001D100F031F8AFF2090EBAE80F0013F0E8
:1001C000010F18BFFB1A43F001031847A8350000C0
:1001D000C8350000103A24BF78C878C1FAD8520751
:1001E00024BF30C830C144BF04680C6070470000B1
:1001F0000023002400250026103A28BF78C1FBD830
:10020000520728BF30C148BF0B6070471FB503F0CD
:1002100094FA1FBD10B510BD00F020F91146FFF78C
:10022000F5FF02F0DDFC00F03EF903B4FFF7F2FF4A
:1002300003BC00F045F90000094880470948004721
:10024000FEE7FEE7FEE7FEE7FEE7FEE7FEE7FEE786
:10025000FEE7FEE704480549054A064B70470000E3
:100260003D26000899010008900300209009002015
:10027000900500209005002053EA020C00F06980F0
:100280002DE9F04B4FF00006002B1FBFB3FA83F5AA
:1002900003FA05F424FA05F65E4012BF1643B2FADB
:1002A00082F502FA05F4C5F120051EBF22FA05FC0D
:1002B00044EA0C04203556EA044C4FEA144418BFB3
:1002C000641C4FF000084FF00009904271EB030CE2
:1002D00039D3002919BFB1FA81F701FA07F6B0FA4C
:1002E00080F700FA07F6C7F120071EBF20FA07FCC7
:1002F00046EA0C062037B6FBF4FCA7EB0507103FD7
:1003000007F01F0BCBF120062CFA06F60CFA0BFBBC
:1003100044BFB3460026202FA4BF5E464FF0000B1B
:100320005BEA060C08BF4FF0010B19EB0B0948EB19
:100330000608ABFB027C06FB02CC0BFB03CCC01B0C
:1003400071EB0C01C1E70B46024641464846BDE849
:10035000F08B13B5084318BF4FF0FF300146AFF3E1
:100360000080BDE81C407047032A40F2308010F046
:10037000030C00F0158011F8013BBCF1020F624440
:1003800098BF11F801CB00F8013B38BF11F8013BD1
:10039000A2F1040298BF00F801CB38BF00F8013B7E
:1003A00011F0030300F02880083AC0F0088051F8EB
:1003B000043B083A51F804CBA0E80810F5E7121DF9
:1003C0005CBF51F8043B40F8043BAFF30080D20718
:1003D00024BF11F8013B11F801CB48BF11F8012BE4
:1003E00024BF00F8013B00F801CB48BF00F8012B07
:1003F000704770477047704710B5203AC0F00B80C7
:10040000B1E81850A0E81850B1E81850A0E818500A
:10041000203ABFF4F5AF5FEA027C24BFB1E8185080
:10042000A0E8185044BF18C918C0BDE810405FEAE2
:10043000827C24BF51F8043B40F8043B08BF70475E
:10044000D20728BF31F8023B48BF11F8012B28BF63
:1004500020F8023B48BF00F8012B7047754600F0BA
:100460002BF8AE4605006946534620F00700854646
:1004700018B020B5FFF7EEFEBDE820404FF00006B3
:100480004FF000074FF000084FF0000BAC46ACE80F
:10049000C009ACE8C009ACE8C009ACE8C00921F06B
:1004A00007018D46704710B50446AFF30080204623
:1004B000BDE81040FFF7B9BE0048704710000020AB
:1004C00001491820ABBEFEE726000200704700007D
:1004D0000146806B036C026C13F0500F08D0D206FB
:1004E00048BF00F00FB9806BC26C0846104700BFD0
:1004F00042F40071016401688A6812F0405F01D023
:1005000000F0FCB8027E002AFAD1CA6A12F4700F19
:1005100002D08A685205F3D44A6822F020024A6069
:10052000016C21F480710164016CC90448BF00F0C2
:10053000E5B8016C41F00101016400F0DFB8000092
:10054000806B40210164416C41F00401416400F082
:10055000D9B80000806B00F0D3B80000FEE70000BF
:1005600040F23410C2F2000000F0E2BA40F29410FF
:10057000C2F2000000F0DCBA70470000EFF3108018
:1005800072B600BFFEE7000070B581B00022009295
:1005900090F83C20012A03D10221084601B070BD29
:1005A0000E6801220A2E80F83C2009D3B2B2520014
:1005B000D0F800E012FA86F21E3A0EF10C0305E0C4
:1005C000D0F800E006EB46020EF110034FF0070CE6
:1005D0001D680CFA02F4A5431D608D681C6805FABD
:1005E00002F222431A60496806290FD801EB810103
:1005F0004A1F71461F2351F8345F934025EA0303D5
:100600000B60B3B203FA02F214E000BF01EB810306
:100610000C29B2B204D8714651F8304F233B03E0A5
:10062000714651F82C4F413B1F259D4024EA05059A
:100630009A400D600B6842F2043CC4F2010C1A436C
:10064000ACF541739E450A6006D0002180F83C104D
:10065000084601B070BD00BF1221112EC1F2000189
:1006600018BF8E423AD1DCF800208E4222F480027C
:10067000CCF80020DCF8002042F40002CCF8002086
:10068000E3D140F20801C2F2000109684DF683622D
:10069000C4F21B32A1FB0212910C01EB8101490053
:1006A000009100990029D0D000990139009100995A
:1006B0000029CAD000990139009100990029C4D0BD
:1006C00000990139009100990029BED000990139A3
:1006D000009100990029E7D1B7E700BF122EB4D1ED
:1006E000DCF8001021F40001CCF80010DCF8001058
:1006F00041F48001CCF80010A7E70000704700002B
:100700007047000070470000002804BF01207047B8
:1007100010B50446006C00283ED0206CC00645D4BD
:10072000206C41F202118843023042F2043120640D
:10073000C4F20101086820F4403008600A6894E8B7
:1007400009101A43D4F810E00A604168012321F42B
:10075000807141604168C0F6007341EA0E2141603A
:10076000416821F040714160416841EA0C014160FB
:10077000816821F400618160E168826811438160D1
:10078000A16A8268994222F070628260826813D105
:1007900022F0405119E000BF204600F065F800202B
:1007A000606484F83C00206CC006B9D501200021AB
:1007B00084F83C1010BD00BF11438160816821F0B6
:1007C00040518160E16A826811438160816821F053
:1007D000020181608168227E94F8203041EA420162
:1007E0008160416883B141F40061416041684EF22B
:1007F000000221F460414160616ACFF6FF724368F4
:1008000002EB4131194301E021F400614160C16A0A
:1008100040F2000C21F47001C162E2696169CFF617
:10082000F07CC36A0CEB02521A43C262826822F463
:100830000072826094F83020836843EA422282602A
:10084000826822F480628260826842EA812181604B
:1008500000206064216C012262F301012164002107
:1008600084F83C1010BD000070B586B0044642F21A
:1008700000002168C4F2010000268142059604961A
:1008800002D006B070BD00BF43F630010096C4F23E
:1008900002014A6900F5604042F480724A614A6987
:1008A00002F480720092009A00960A6842F00102F7
:1008B0000A60096801F00101009100990F2101917E
:1008C0000321CDE9021601A900F014FB40F2341512
:1008D00046F21040C2F20005C4F202004FF48061FB
:1008E000C5E9000605F110004FF400624FF4005313
:1008F0004FF4807C80E80E102846C5E90266C5E901
:10090000086600F0F5F9002818BFFFF737FEA56369
:10091000AC6306B070BD0000B0B582B004460020E4
:10092000019094F83C00012802D1022002B0B0BD31
:1009300094460A460120216884F83C008868C00774
:1009400029D188684DF6836540F00100886040F247
:100950000800C2F200000068C4F21B35A0FB0505C8
:10096000A80C00EB400001900198A0B1019801385B
:100970000190019878B1019801380190019850B127
:10098000019801380190019828B10198013801902F
:1009900001980028EAD18868C00503D5886820F44A
:1009A000807088608D68206CED0709D140F01000E0
:1009B0002064606C40F001006064002002B0B0BDB3
:1009C00040F20175A84300F5807020644868400536
:1009D00004D5206C012565F30D302064256C0020C2
:1009E000ED044FF0000544BF656C25F00605656415
:1009F00084F83C00A06B40F2D14540F25553C0F65C
:100A00000005C0F60003C0E90F5340F24153C0F6A1
:100A10000003C3646FF022030B604B6842F20805C9
:100A200043F080634B608B68C4F2010543F480732C
:100A30008B604C31634600F00DFAD5F8FC1220684B
:100A4000C9060FD0A5F108018842B6D1286810F078
:100A5000405FB2D1286840F080402860002002B09A
:100A6000B0BD00BF816811F0405FA6D1816841F040
:100A700080418160002002B0B0BD000070B5866D7D
:100A8000044600F011FB94F83510022928D10546E0
:100A90002068216C026822F016020260426922F08E
:100AA0008002426109B9A16C19B1016821F0080105
:100AB0000160016821F00101016000BF2068006849
:100AC000C00715D000F0F0FA401B0628F6D320200E
:100AD0006065032084F83500002184F8341070BD6F
:100AE000802060650120002184F8341070BD00BFB3
:100AF000E06D3F2101FA00F0B060012084F835007C
:100B00000020002184F8341070BD000090F83510EA
:100B1000022909D1052180F835100068016821F00B
:100B2000010101600020704780214165012070476C
:100B3000F0B581B004460020009040F20800C2F2F7
:100B400000000268D4E9166048F2B513376808213E
:100B5000C1F64E3381403942A2FB03250CD02268F6
:100B600013685B0708D5136823F004031360B160B2
:100B7000616D41F00101616501218140394208D078
:100B800022685269120604D5B160616D41F002011C
:100B9000616504218140394208D0226812689207B9
:100BA00004D5B160616D41F004016165102181409F
:100BB000394217D020680268120713D5B160026865
:100BC0000168520308D4C90508D4016821F008015E
:100BD0000160216C21B905E008033FD4216C09B103
:100BE00020468847E16D202000FA01F23A4241D0C8
:100BF00020680368DB063DD5B26094F835300268A2
:100C0000052B1BD122F016020260426922F08002FD
:100C10004261226C0AB9A26C1AB1026822F0080281
:100C200002603F208840B060012084F83500216DCB
:100C30000020002984F8340052D157E001685203A3
:100C400010D4C90512D4016821F0100101600120FF
:100C500084F83500002084F8340007E0A16C0029F6
:100C6000BED1BFE7080301D4616C00E0E16B09B1BC
:100C700020468847606DC8B3606DC0072ED0052040
:100C800084F835002068A90A026822F00102026097
:100C9000009A01328A4200921AD80268D20717D00D
:100CA000009A01328A42009212D80268D2070FD00D
:100CB000009A01328A4200920AD80268D20707D00D
:100CC000009A01328A42009202D80268D207DFD12C
:100CD000012084F83500002084F83400E16C29B14B
:100CE000204601B0BDE8F040084700BF01B0F0BDAC
:100CF0002DE9F041044600F0D7F9ECB10546022099
:100D000084F835000020216884F83400086820F059
:100D10000100086021680868C00711D000F0C4F91C
:100D2000401B0528F6D9032520230320636584F89A
:100D30003550BDE8F08100BF0120BDE8F08100BF63
:100D4000086848F23F02CFF21002D4E9013500EA08
:100D5000020C04F10C0898E8C10143EA0C032B4390
:100D60001843D4E9072E304338431043626A40EAFF
:100D70000E00042A40EA08031CD1206BD4E90A2E95
:100D800040EA0E00184308604869BEF1000F20F0E9
:100D9000030040EA020040F0040C11D0B8F5005FF7
:100DA00036D0B8F1000F45D1022A46D0012A3BD0F7
:100DB00032B942E00B60486920F0070040EA020CBB
:100DC00001F0F8004AF6AB221038CAF6AA22A0FBBE
:100DD00002231A0943F26C73C0F600039A5C40F2D6
:100DE000FF335F284FF03F00C1F814C021EA030130
:100DF00000FA02F088BF0431C4E9161288600023AB
:100E000001250020636584F83550BDE8F08100BFFE
:100E1000032AD5D8012540230120DFE802F0030E84
:100E2000030500BF82E700BFAEF1C070B0FA80F0EA
:100E3000400904E0032A04D3C2D1CEF300600028A5
:100E4000BED0012540230120636584F83550BDE8FC
:100E5000F081000070B590F834C0BCF1010F46D0AD
:100E60004FF0010C80F834C0D0F858E090F835C04D
:100E7000BCF1010F38D14FF0020C80F835C04FF0B3
:100E8000000CC0F854C0D0F800C08468056CC06D78
:100E9000DCF80060402C26F48026CCF80060CCF80A
:100EA00004300B4604BF13460A463F2101FA00F006
:100EB000CCF80830CCF80C20CEF80800DCF80000A4
:100EC00040F01600CCF800002DB1DCF8000040F036
:100ED0000800CCF80000DCF8000040F00100CCF87D
:100EE0000000002070BD00BF002180F834100220F7
:100EF00070BD00002DE9F04F82B000F13E4241F29A
:100F0000000502F1FF77C4F20205072243F6004E06
:100F10004FEAB726A84208BF0422C4F2010E042EED
:100F200038BF4FEAB7220125002600274FF00008FE
:100F3000009208E008F101080437B8F1100F06F13B
:100F4000020600F0A7800C6805FA08F914EA090FF8
:100F5000F0D0D1F804B003220BF0030CACF1010483
:100F6000B240012C6FEA020A10D88268CC6802EA0B
:100F70000A02B440224382604268CBF3001422EAA2
:100F8000090204FA08F42243426005E0BCF1030FB1
:100F900002D14FF0030C20E0C2688C6802EA0A021A
:100FA000B4402243BCF1020FC26016D16FF00302BD
:100FB00002EA58020244D2F820C007F01C050F23B1
:100FC0000C69AB402CEA030304FA05F52B431362CA
:100FD000D1F804B001250BF0030C02680CFA06F3FB
:100FE00002EA0A021A431BF4403F0260A2D0002228
:100FF00043F644030192C4F202031A684FF6084C08
:1010000042F480421A601A68CFF6FF7C02F48042F4
:101010000192019A28F00302724452F80C3007F052
:101020000C050F24AC40A343009C04FA05F52B43A8
:1010300042F80C30DEF808204B6842EA090543F616
:101040000C4CDC0258BF22EA0905CEF80850C4F265
:10105000010CDCF800209C0242EA090558BF22EA94
:101060000905CCF80050DEF804209C0342EA09058B
:1010700058BF22EA0905CEF80450DEF80020DB0351
:1010800042EA090558BF22EA0905CEF800500125B9
:1010900050E700BF02B0BDE8F08F000000690840D3
:1010A00018BF01207047000040F28830C2F20000F3
:1010B0000068704740F2000040F28831C2F2000040
:1010C000C2F2000100780A6810440860704700000E
:1010D00080B543F60040C4F20200016841F400719B
:1010E0000160016841F480610160016841F4807130
:1010F0000160032000F088F80F2000F005F800F0F0
:1011000027F8002080BD000070B540F20006C2F252
:10111000000640F208013278C2F200014FF47A73FF
:101120000968B3FBF2F20446B1FBF2F1084600F0A5
:1011300043FB0F2C4FF0010508D838B94FF0FF30B2
:1011400021460022002500F033F87460284670BD67
:1011500082B0002043F640010190C4F202014A68C7
:1011600042F480424A604A6802F480420192019A45
:101170000090086840F080500860086800F08050D7
:101180000090009802B07047002848BF7047C1B275
:1011900000F01F00012202FA00F04EF20012CEF21F
:1011A000000242EAD10121F003010860704700000B
:1011B00010B54EF60C5CCEF2000CDCF80030C3F338
:1011C000022E8EF00704042C28BF0424BEF1030372
:1011D0004FF0FF3E0EFA04F438BF0023A1439940BC
:1011E0000EFA03F39A43114300F00F0200F160433B
:1011F0000901043A03F564436244002848BF02F140
:101200000C03197010BD00004EF60C51CEF2000117
:101210000A684FF6FF031A4060F30A2242F080602A
:1012200040F0FD70086070472DE9F041002800F0A3
:101230008B8043F60808C4F202080446D8F8F80385
:101240000D4600F00700884207D288F8F853D8F816
:10125000F80300F00700A84276D12068810717D56F
:10126000410705D5D8F8001041F4E051C8F8001046
:10127000010705D5D8F8001041F46041C8F8001006
:10128000D8F80010A26821F0F0011143C8F800104E
:10129000C0073FD1D8F8F80300F00700A84207D9EB
:1012A00088F8F853D8F8F80300F00700A8424BD1AB
:1012B0002068410707D5D8F80010E26821F4E05112
:1012C0001143C8F80010000708D5D8F800002169BC
:1012D00020F4604040EAC100C8F8000000F07CF84B
:1012E000D8F8001043F25472C1F30311C0F60002A3
:1012F000515C40F2080220FA01F140F20400C2F20F
:1013000000000068C2F200021160FFF7FDFE00203D
:10131000BDE8F0816068811E022907D258F8081CD8
:1013200089015CBF0120BDE8F08111E0012807D1EF
:1013300058F8081C89035CBF0120BDE8F08107E074
:1013400058F8081C890703D40120BDE8F08100BFCC
:10135000D8F8001021F003010843C8F80000FFF797
:10136000A3FE064641F28837D8F80000616800F015
:101370000C00B0EB810F8DD0FFF796FE801BB842BA
:10138000F2D90320BDE8F08140F2080043F60801DD
:10139000C2F20000C4F202010068096843F26472FC
:1013A000C1F38221C0F60002515CC84070470000C2
:1013B00040F2080043F60801C2F20000C4F2020144
:1013C0000068096843F26472C1F34231C0F600025A
:1013D000515CC8407047000010B543F60404C4F2E5
:1013E0000204606800F00C0142F200400829C0F2DB
:1013F000F40007D0042918BF10BD41F20020C0F24C
:101400007A0010BD216801F03F022168236849027B
:10141000C3F3881106D4A1FB00010023FEF72CFFC3
:1014200007E000BF41F20020C0F27A004843B0FB61
:10143000F2F021680222C1F3014102EB4101B0FB4D
:10144000F1F010BD2DE9F04182B0002868D00446CB
:10145000007843F60006C007C4F202060BD0B0685D
:1014600000F00C00042840F09F803068800302D513
:101470006068002854D0207880071AD5B06810F032
:101480000C0F09D0B06800F00C00082840F0A680CE
:101490007068400200F1A2803068800702D5E068E1
:1014A00001283DD13068216920F0F80040EAC100F0
:1014B00030602078000737D4207840074CD4A569E5
:1014C00055B3B06800F00C00082840F0BB80012D37
:1014D00026D07068E16900F480028A4220D1216A36
:1014E00000F03F028A421BD147F6C071626A014098
:1014F000B1EB821F14D1A16A4FF6FF73C903994360
:1015000000F44032A1F580318A4209D1E16A00F04D
:101510007060B0EB016F03D1002002B0BDE8F08134
:10152000012002B0BDE8F0816069002840F20000AF
:10153000C4F2472076D00121C0F8801EFFF7B4FD29
:10154000054600BF706F8007B6D4FFF7ADFD401BA6
:101550000228F7D9DDE000BF306C10F080580AD1C6
:1015600000200190306C40F080503064306C00F00E
:1015700080500190019847F20007C4F200073868D4
:10158000C00541D4386840F480703860FFF78CFDA6
:10159000054600BF3868C00536D4FFF785FD401BFF
:1015A0000228F7D9B5E000BFB06800F00C000828A9
:1015B00003D1706840023FF558AF6068B0F5803FD6
:1015C00007D0B0F5A02F40F08D80306840F4802027
:1015D0003060306840F4803030608DE0E068002892
:1015E00052D00020C4F2472001210160FFF75CFDCA
:1015F000054600BF306880073FF554AFFFF754FD44
:10160000401B0228F6D984E0A068012805D00528EF
:101610004ED1306F40F004003067306F40F0010071
:1016200030674FE00021C0F8801EFFF73DFD054602
:10163000706F80077FF540AFFFF736FD401B022833
:10164000F6D966E00027C4F2472700203866FFF786
:101650002BFD022D05460BD1306880015ED5FFF7CA
:1016600023FD401B02284FF00300F5D955E700BFCA
:10167000306880017FF550AFFFF716FD401B022850
:101680004FF00300F4D948E70020C4F247200021BE
:101690000160FFF709FD0546306880077FF509AF57
:1016A000FFF702FD401B02284FF00300F4D934E796
:1016B000316F002821F001013167316F21F0040101
:1016C00031674DD0FFF7F0FC054641F2883700BF87
:1016D000306F800756D4FFF7E7FC401BB842F7D9BC
:1016E00017E000BF3168002821F480313160316893
:1016F00021F4802131604FD0FFF7D6FC054600BFB2
:10170000306880033FF5B7AEFFF7CEFC401B64287E
:10171000F6D9032002B0BDE8F08100BF04F11C053A
:101720002FCD084340EA8210D9034FF6FF72914350
:10173000A1F5803140EA05600843706001203866F9
:10174000FFF7B2FC044600BF306880013FF5E4AE0D
:10175000FFF7AAFC001B02284FF00300F4D9DCE6D7
:10176000FFF7A2FC054641F2883700BF306F8007C3
:1017700008D5FFF799FC401BB8424FF00300F5D99C
:10178000CBE600BFB8F1000F7FF499AE306C20F0CB
:101790008050306493E600BFFFF786FC054600BF2B
:1017A000306880037FF567AEFFF77EFC401B64283E
:1017B0004FF00300F4D9B0E6411E0020B0EB116FEA
:1017C0001CBF012070474EF21002CEF200025160A1
:1017D0004EF62351CEF20001F0230B7007219060EA
:1017E00011607047704700007047000010B590F816
:1017F0003C20012A4FF002023ED080F83D200268D2
:10180000D2F804E0D2F808C00C682EF0700323432D
:1018100040F6FF34C4F20004A242536010DCB2F17F
:10182000804F1ED040F20043C4F200039A4218D009
:1018300040F60003C4F200039A4212D016E000BF43
:1018400040F60043C4F200039A420AD044F2000377
:10185000C4F201039A4204D00023C4F201039A4265
:1018600004D149682CF080031943916001210022C2
:1018700080F83D1080F83C20104610BD002804BFC1
:101880000120704710B5044690F83D0028B90020AB
:1018900084F83C00204600F08FF8022084F83D00D8
:1018A000206840F2FF730268C4F2000340F2000CAB
:1018B0009842C4F2010C1DDD40F60001C4F20001A3
:1018C000884220D060451ED040F60041C4F200019D
:1018D000884218D04FF6FF71C4F2000188421CDC28
:1018E000984225DCB0F1804F3AD040F20041C4F27A
:1018F000000133E0B0F1804F05D040F20041C4F266
:1019000000018842E6D1A16822F070020A434FF636
:10191000FF71C4F200018842E2DD44F2FF31C4F2FB
:101920000101884210DC60451AD044F2000113E046
:1019300040F60001C4F20001884211D040F6004197
:10194000C4F200010AE000BF44F60001C4F2010144
:10195000884205D044F20041C4F20101884203D11B
:10196000216922F440720A43A36922F08001D4F86D
:1019700004E0E268194360450160C262C0F828E0F3
:1019800002D16169CCF8301001214161002084F856
:10199000461084F83E1084F83F1084F8401084F814
:1019A000411084F8421084F8431084F8441084F8FD
:1019B000451084F83D1010BD10B582B0006840F2AB
:1019C0000041C4F20001884214D0B0F1804F2DD103
:1019D0000020019043F64000C4F2020001681C247C
:1019E00041F001010160006800F0010001900198E0
:1019F00010E000BF0020009043F64000C4F2020057
:101A000001681D2441F002010160006800F002003D
:101A100000900098204600210022FFF7C9FB2046D5
:101A200002B0BDE81040FFF7AFBB00BF02B010BD71
:101A300080B590F83C20012A4FF0020200F0C280ED
:101A400080F83D20D0F800C04FF67772DCF80830FF
:101A500023EA0202CCF808200B684F2B28DC1F2B4E
:101A600044DD202B45D0302B43D0402B40F0AC80C0
:101A7000D1F804E0C968DCF82030DCF8202022F03E
:101A80000102CCF82020DCF8182022F0F00242EA13
:101A9000011123F00A0242EA0E02CCF81810CCF829
:101AA0002020DCF8081041F0470121F0300180E0EF
:101AB0006F2B27DDB3F5005F48D0B3F5805F7AD098
:101AC000702B40F08180D1E901E3C968DCF808207F
:101AD00043EA0E0322F47F4243EA01211143CCF88A
:101AE0000810DCF8081041F0770162E00BB1102B10
:101AF0006AD1DCF8081021F07001194341F00701A8
:101B000057E000BF502B35D0602B5DD1D1F804E0F9
:101B1000C968DCF8203023F01003CCF82030DCF862
:101B20001830DCF8202023F4704322F0A00243EAAE
:101B3000013142EA0E12CCF81810CCF82020DCF863
:101B4000081041F0670121F0100132E0D1E901E312
:101B5000C968DCF8082043EA0E0322F47F4243EA16
:101B600001211143CCF80810DCF8081041F4804141
:101B70001FE000BFD1F804E0C968DCF82030DCF8D1
:101B8000202022F00102CCF82020DCF8182022F0DE
:101B9000F00242EA011123F00A0242EA0E02CCF8F6
:101BA0001810CCF82020DCF8081041F0570121F083
:101BB0002001CCF808100022012180F83D100021FE
:101BC00080F83C10104680BD0122F5E77047000008
:101BD00010B5016804460869800744BFC8685FEA19
:101BE000807039D40869400744BFC8685FEA407014
:101BF0003ED40869000744BFC8685FEA007045D456
:101C00000869C00644BFC8685FEAC0604AD4086972
:101C1000C0071CBFC8685FEAC07051D108690006E0
:101C200044BFC8685FEA006052D40869400644BFF8
:101C3000C8685FEA406053D40869800646BFC86838
:101C40005FEA806010BD6FF0200220460A61BDE8A7
:101C50001040FFF7C9BD00BF6FF00200086101200E
:101C600020778869800743D02046FFF7AFFF45E023
:101C70006FF00400086102202077886910F4407F2B
:101C800040D02046FFF7A2FF42E000BF6FF00800FF
:101C9000086104202077C86980073DD02046FFF7FF
:101CA00095FF3FE06FF01000086108202077C869B9
:101CB00010F4407F3AD02046FFF788FF3CE000BF99
:101CC0006FF001000861204600F03EF82168A5E7AA
:101CD0006FF0800008612046FFF784FD2168A4E7CB
:101CE0006FF040000861204600F030F82168A3E75B
:101CF000204600F025F8204600F024F82168002056
:101D000020776FE7204600F01BF8204600F01AF815
:101D10002168002020776CE7204600F011F820466B
:101D200000F010F821680020207769E7204600F0D5
:101D300007F8204600F006F821680020207766E7C3
:101D400070470000704700007047000070470000B7
:101D50007047000070470000B0B582B004460068CC
:101D60000168C368426901F02F05202D03F02005AA
:101D700006D12DB1204602B0BDE8B04000F094BDC0
:101D80005FEA017C1EBF02F0010E03F4907212EBB9
:101D90000E0253D1226B012A05D111F0100218BF97
:101DA00013F0100236D10A0622D513F080021FD09C
:101DB00094F83D1021293FD1A168B1F5805F03D18E
:101DC0002169002900F07282216A4A1C2262097886
:101DD0004160E18C01390A04E1842DD1C16821F010
:101DE0008001C160C16841F04001C16002B0B0BD76
:101DF000490621D513F040011ED0C16821F04001F1
:101E0000C1602021204684F83D1002B0BDE8B040FA
:101E100000F046BB002101910168019141680191E8
:101E200001994069400613D4A08DE18DE28D002A0E
:101E300018BF884240F0BE8102B0B0BDCA0718BFCB
:101E400013F4807240F0BA804A0700F1BD80C2E00E
:101E5000A16B0868426893B2002BEDD0A08D83423D
:101E6000EAD2E285C969B1F5807F00F09D802068E3
:101E700050E8030F216820F4807041E80302DAB1D2
:101E8000206850E8030F216820F4807041E80302C5
:101E900092B1206850E8030F216820F4807041E877
:101EA00003024AB1206850E8030F216820F48070D3
:101EB00041E80302002ADAD1206850E8050F2168C2
:101EC00020F0010041E80502DAB1206850E8050F72
:101ED000216820F0010041E8050292B1206850E835
:101EE000050F216820F0010041E805024AB1206891
:101EF00050E8050F216820F0010041E80502002AA2
:101F0000DAD1206850E8050F216820F0400041E850
:101F10000502DAB1206850E8050F216820F0400082
:101F200041E8050292B1206850E8050F216820F0D1
:101F3000400041E805024AB1206850E8050F2168D9
:101F400020F0400041E80502002ADAD1202084F880
:101F50003E0000202063206850E8030F216820F035
:101F6000100041E80302DAB1206850E8030F21684D
:101F700020F0100041E8030292B1206850E8030FFE
:101F8000216820F0100041E803024AB1206850E8BF
:101F9000030F216820F0100041E80302002ADAD183
:101FA000A06BFEF76BFDA08DE18D401A81B220463B
:101FB00002B0BDE8B040FFF7CBBE00BF226C42F0DC
:101FC000010222644A0706D5BEF1000F03D0226C3D
:101FD00042F0020222648A0706D5BEF1000F03D048
:101FE000226C42F004022264BCF1000F09D545EADC
:101FF0000E02B2FA82F2520903D1226C42F00802B8
:102000002264226C002A3FF417AF11F0200118BFA0
:10201000002D03D0204600F047FC20684069216C69
:1020200000F0400001F00801401800F0B58000BF4A
:10203000206850E8030F216820F4907041E8030203
:10204000BAB3206850E8030F216820F4907041E88B
:10205000030272B3206850E8030F216820F49070E7
:1020600041E803022AB3206850E8030F216820F4F6
:10207000907041E80302002ADAD11AE0206850E8A3
:10208000050F216820F0010041E80502DAB120685F
:1020900050E8050F216820F0010041E8050292B1E7
:1020A000206850E8050F216820F0010041E8050292
:1020B0004AB1206850E8050F216820F0010041E88E
:1020C0000502002ADAD1206B012824D1206850E8CB
:1020D000030F216820F0100041E80302DAB1206804
:1020E00050E8030F216820F0100041E8030292B18C
:1020F000206850E8030F216820F0100041E8030237
:102100004AB1206850E8030F216820F0100041E830
:102110000302002ADAD1202084F83E000020206348
:102120002068406940063FD5206850E8050F2168C7
:1021300020F0400041E80502DAB1206850E8050FC0
:10214000216820F0400041E8050292B1206850E883
:10215000050F216820F0400041E805024AB12068DF
:1021600050E8050F216820F0400041E80502002AF0
:10217000DAD1A06BC0B142F26961C0F6000101651D
:10218000FEF7C4FC00283FF457AEA06B016D02B00F
:10219000BDE8B040084700BF2046FFF7DBFD002048
:1021A000206402B0B0BD00BF204602B0BDE8B04020
:1021B000FFF7D0BD401A216851E8031F226821F4BF
:1021C000907142E80313DBB1216851E8031F2268D4
:1021D00021F4907142E8031393B1216851E8031F81
:1021E000226821F4907142E803134BB1216851E851
:1021F000031F226821F4907142E80313002BDAD107
:10220000216851E8051F226821F0010142E8051309
:10221000DBB1216851E8051F226821F0010142E885
:10222000051393B1216851E8051F226821F00101CF
:1022300042E805134BB1216851E8051F226821F0DF
:10224000010142E80513002BDAD1202184F83E1069
:1022500000212163216851E8031F226821F0100149
:1022600042E80313002B3FF4A1AE216851E8031F9D
:10227000226821F0100142E80313002B3FF496AED0
:10228000216851E8031F226821F0100142E803137E
:10229000002B3FF48BAE216851E8031F226821F028
:1022A000100142E80313002BD4D17FE6216A31F8F4
:1022B000022B6FF35F22426021628AE5002804BF8F
:1022C0000120704710B5044690F83D0028B9002061
:1022D00084F83C00204600F021F8242084F83D00DA
:1022E0002068C16821F40051C160204600F05CFB09
:1022F0002068016921F490410161416921F02A01BE
:102300004161C16841F40051C16000202021206476
:1023100084F83D1084F83E1010BD000070B586B002
:102320000446016841F20040C4F20100814201D03C
:1023300006B070BD002643F630010196C4F20201DA
:102340004A6900F56C4042F020024A614A6902F095
:1023500020020192019A01960A6842F001020A6085
:10236000096801F00101019101994FF4C0510191F7
:102370000221CDE90216032104910821059101A94A
:10238000FEF7B8FD40F2941546F2A040C2F20005F7
:10239000C4F202004FF0206140224FF4806385E8D0
:1023A00047002846C5E90436C5E90666C5E908665A
:1023B000FEF79EFC002818BFFEF7E0F8472000213A
:1023C00000226563AC63FEF7F3FE4720FEF7DCFEF8
:1023D00006B070BD7047000070B5044690F83D002F
:1023E00020280BD100294FF0010055D0002A1346B8
:1023F00008BF70BD94F83C00012801D1022070BDD7
:10240000012084F83C00002621202162A384E3847B
:10241000266484F83D002268606B42F2F17C42F64B
:10242000A10E42F27565C0F6000CC0F6000EC0F6B3
:1024300000050432C0E90FCEC0E91356FEF70AFDCD
:1024400020686FF04001016084F83C60206850E82B
:10245000050F216840F0800041E80502F2B12068D4
:1024600050E8050F216840F0800041E80502AAB15C
:10247000206850E8050F216840F0800041E805021F
:1024800062B1206850E8050F216840F0800041E803
:102490000502002ADAD1002070BD00BF002070BD07
:1024A00010B582B0006841F20041C4F201018842D7
:1024B00002D002B010BD00BF40F28534C2F2000469
:1024C0000020207021780029F3D18DF8070040F218
:1024D0008800C2F200000DF1070100F01DF800288D
:1024E000E7D19DF807000DF106018DF806000120E7
:1024F000207040F29800C2F200000122FFF76CFF4A
:1025000002B010BD70470000FEE70000FEE70000CB
:10251000FEE7000070470000D0E90032934202BF9E
:10252000FF2148B27047C3689A5C0A70D0E9011273
:102530004B1C0021934228BF0B46436048B27047B2
:1025400000294FF0FF031FBF002A0023C0E900331A
:10255000C0E9022158B2704780B5D0E900EC82682A
:102560000EF101039BB29A4298BF0023634503D149
:10257000FF2040B280BD00BFC26802F80E100360A9
:10258000002040B280BD000070470000FEF792BD01
:10259000B0B592B0002443F640000B94CDE9094455
:1025A000CDE907440594CDE90344CDE90144009405
:1025B000C4F202000168022541F080510160006808
:1025C00000F080500090009847F200000094C4F2A0
:1025D0000000016841F440410160006800F440409F
:1025E000009000980120099010200A9008200E9079
:1025F0006420CDE90F050420119006A80695CDE9C9
:102600000C54FEF71FFF28B1EFF3108072B600BF25
:10261000FEE700BF0F20CDE901054FF48050CDE962
:10262000040401A803210394FEF7FEFD20B1EFF39B
:10263000108072B6FEE700BF12B0B0BD4EF68850F3
:10264000CEF20000016841F47001016070470000A3
:1026500040F2F410C2F20000FFF7BABA40F23C2098
:10266000C2F20000FFF7B4BA806B0021C185C184BB
:10267000FFF770BB806B01684A6990F83D30212BF1
:102680002DD112F080022AD00021C184016851E8C6
:10269000031F026821F0C00142E80313DBB10168A7
:1026A00051E8031F026821F0C00142E8031393B10F
:1026B000016851E8031F026821F0C00142E80313DA
:1026C0004BB1016851E8031F026821F0C00142E8E4
:1026D0000313002BDAD1202180F83D1001684969ED
:1026E00090F83E20222A40F07D8011F0400179D000
:1026F0000021C185016851E8031F026821F490712F
:1027000042E80313BBB3016851E8031F026821F4D8
:10271000907142E8031373B3016851E8031F026824
:1027200021F4907142E803132BB3016851E8031FB1
:10273000026821F4907142E80313002BDAD11AE009
:10274000016851E8051F026821F0010142E8051304
:10275000DBB1016851E8051F026821F0010142E880
:10276000051393B1016851E8051F026821F00101CA
:1027700042E805134BB1016851E8051F026821F0DA
:10278000010142E80513002BDAD1016B012924D1A4
:10279000016851E8031F026821F0100142E80313A9
:1027A000DBB1016851E8031F026821F0100142E823
:1027B000031393B1016851E8031F026821F010016F
:1027C00042E803134BB1016851E8031F026821F08E
:1027D000100142E80313002BDAD1202180F83E10CB
:1027E00000210163016C41F010010164FFF7B2BAEE
:1027F0000168806B0968C90548BFFFF751BE002119
:10280000C18400BF016851E8051F026821F0800102
:1028100042E8051383B3016851E8051F026821F0FF
:10282000800142E805133BB3016851E8051F0268C7
:1028300021F0800142E80513F3B1016851E8051F5A
:10284000026821F0800142E80513002BDAD113E081
:10285000016851E8031F026841F0400142E8031398
:10286000002B08BF7047016851E8031F026841F060
:10287000400142E8031393B1016851E8031F026865
:1028800041F0400142E803134BB1016851E8031FD6
:10289000026841F0400142E80313002BD8D1704791
:1028A000806BFFF72FBE000081B090F83E10222908
:1028B00021D183680246B3F5805F09D152F8281F01
:1028C00052F8183C002B63D003685B680AE000BF35
:1028D00052F8281F13B90369002BF5D003685B6811
:1028E00003F07F030B70116801311160C18D013954
:1028F0000A04C18502D001B0704700BF0168CA68F0
:1029000022F02002CA60CA6822F48072CA604A6952
:1029100022F001024A61202180F83E10016B01295A
:102920003ED10021016300BF016851E8031F026826
:1029300021F0100142E80313DBB1016851E8031FE5
:10294000026821F0100142E8031393B1016851E8D5
:10295000031F026821F0100142E803134BB1016824
:1029600051E8031F026821F0100142E80313002B15
:10297000DAD101680A68D20606D5002200920A68F8
:102980000092496800910099818D01B0FFF7E0B98C
:10299000026852686FF35F2221F8022B8162A5E77B
:1029A00001B0FFF717BD000010B504460068D4E978
:1029B00002C22369016921F4405111430161626936
:1029C00043EA0C01E3691143C268194349F20C63FD
:1029D0009A431143C1604169A26921F4407141F2F7
:1029E0000043114340F48062C4F201039A42416102
:1029F00002D1FEF7DDFC01E0FEF7C6FCE169636889
:102A00001922B1F5004FA0FB020123D15A00DB0FC0
:102A1000FDF732FC48F21F51C5F2EB11A0FB012378
:102A20005A094FF69C73C0F6FF7303F1805302FB03
:102A30000300322303EBC000A0FB01014FF4F87048
:102A400000EA111000EB0210C1F3421108442168A2
:102A5000886010BD9A009B0FFDF70EFC48F21F51D5
:102A6000C5F2EB11A0FB01235A094FF69C73C0F687
:102A7000FF7302FB0300322303EB0010A0FB0101F4
:102A8000F02000EA511000EB0210C1F3431108449A
:102A90002168886010BD000040F29800C2F200007A
:102AA000FFF75AB9FEE70000B0B540F2DC00C2F211
:102AB000000003884FF4C871B3F5C87F98BF0B4678
:102AC0004FF4616EB3F5616F28BF7346A3F5C87309
:102AD00000EE103AB8EEC02A9FED3F0A9FED3F1A74
:102AE00022EE002A82EE012A03894AF6AB2503EB87
:102AF0008303CAF6AA2532EE002ABDEEC22A12EEE0
:102B0000102A1A44A2FB052C4288B2F5C87F98BF50
:102B10000A46B2F5616F28BF7246A2F5C87202EE8E
:102B2000102A8288B8EEC22AB2F5C87F98BF0A463A
:102B3000B2F5616F28BF724622EE002AA2F5C87274
:102B400082EE012A03EE102AC288B8EEC33AB2F52B
:102B5000C87F88BF1146B1F5616F28BF714623EE6B
:102B6000003AA1F5C87183EE013A04EE101AB8EEEE
:102B7000C44A24EE004A84EE011A32EE002A41894A
:102B8000BDEEC22A12EE102A01EB81011144A1FB15
:102B90000512818933EE002ABDEEC22A12EE103AE8
:102BA00001EB8101194431EE000AC389BDEEC00A70
:102BB00010EE104A03EB83032344A1FB0514A3FB8F
:102BC00005134FEA9C01018191084181A10881818F
:102BD0009908C181B0BD00BF00007A44000048459B
:102BE00088B040F20044C4F20004FEF771FAFFF727
:102BF000CFFC002543F63007CDE904550695C4F215
:102C000002073868012640F080003860386801A962
:102C100000F08000069006980695386840F00100A4
:102C20003860386800F0010006900698069538680C
:102C300040F002003860386800F002000690069804
:102C400043F20600CDE9010504F500300396FEF7D6
:102C500051F901953868002140F4800038603868E7
:102C6000002200F48000019001983820FEF7A0FABD
:102C70003820FEF789FA452000210022FEF798FA55
:102C80004520FEF781FA40F2EC000123C2F2000079
:102C9000C0F6007304F58E31C0E90A3504230495AB
:102CA0004FF48032067680F82050C36180F830609F
:102CB00080E82600C0E903564661FDF725FD28B1EE
:102CC000EFF3108072B600BFFEE700BF072003904D
:102CD00040F2EC00C2F2000001A9CDE90156FDF777
:102CE00053FC28B1EFF3108072B600BFFEE700BFBF
:102CF0000120019040F2EC000225C2F2000001A97F
:102D00000295FDF741FC28B1EFF3108072B600BFC9
:102D1000FEE700BF40F2EC0001950325C2F200007F
:102D200001A90295FDF730FC20B1EFF3108072B6D7
:102D3000FEE700BF0420029040F2EC00C2F2000067
:102D400001A90195FDF720FC20B1EFF3108072B6C8
:102D5000FEE700BF40F27005C2F2000504F58831BD
:102D6000284640F8281F4FF4E13100260C22C0E924
:102D70000116C0E90366C0E90526C661FFF79EFAA1
:102D800020B1EFF3108072B6FEE700BF40F2F410FE
:102D9000C2F200004FF0804141F216130496CDE9D3
:102DA0000266CDE906664F2280E84600C0E9033698
:102DB0008661FEF763FD28B1EFF3108072B600BFA5
:102DC000FEE700BF4FF48050019040F2F410C2F2D1
:102DD000000001A9FEF72CFE20B1EFF3108072B6BF
:102DE000FEE700BF40F2F410C2F2000006A9FEF7B1
:102DF000FDFC28B1EFF3108072B600BFFEE700BF04
:102E000040F23C200021C2F2000041F63F7241F640
:102E100069030491CDE90211CDE90611C0E9004230
:102E2000C0E9021301618161FEF728FD20B1EFF3D3
:102E3000108072B6FEE700BF4FF48050019040F260
:102E40003C20C2F2000001A9FEF7F2FD20B1EFF331
:102E5000108072B6FEE700BF40F23C20C2F20000D4
:102E600006A9FEF7C3FC18B1EFF3108072B6FEE7B7
:102E700040F2EC0040F2DC01C2F20000C2F20001BC
:102E80000422FDF749FD40F2852105F11800C2F248
:102E900000014FF48072FFF753FB9FED168AFFF796
:102EA00003FEFEF701F92969401A0A2804D300F04D
:102EB0003DFBFEF7F9F82861FEF7F6F8E968401ADD
:102EC000B0F57A7F04D300F077FAFEF7EDF8E8600A
:102ED000FEF7EAF86969401A6428E0D3FEF7E4F8DF
:102EE00095EC030A686130EE080A85ED000A00F0EF
:102EF00097F9D4E70AD7233C2DE9F04383B0FD21AD
:102F0000022A00F10C0C817027D35CFA82F515F8C7
:102F1000015C15BB551EECB2022C1AD35CFA85F489
:102F200014F8014CC4B9951EECB2022C11D35CFA12
:102F300085F414F8014C7CB9D51EECB2022C08D3F0
:102F40005CFA85F414F8014C34B9043AD5B2012D79
:102F5000DBD8012201E000BF2A4640F28424C2F2FD
:102F60000004257890F80B806F1C2770B0F809706A
:102F7000002647EA08448DF80970270A8DF80A7080
:102F8000D74387EA0717FFB286808DF80210ADF8A5
:102F900004603E023909FF3681EAC701714081EAC7
:102FA0000117FFB23E0246EA11213E0986EAC70731
:102FB000794081EA0117FFB23E0246EA11213E093B
:102FC00086EAC707794085EA010787EA0717FFB253
:102FD0003E0246EA11213E0986EAC707794081F0A0
:102FE000010787EA0717FFB23E0246EA11213E09B0
:102FF00086EAC707794081F0010787EA0717FFB221
:103000003E0246EA11213E0986EAC707794084EA72
:10301000010787EA0717FFB23E0246EA11213E097F
:1030200086EAC707794081EA142787EA0717FFB2C3
:103030003E0246EA11213E0986EAC707794088EA3E
:10304000010787EA0717FFB23E0246EA11213E094F
:1030500040F2011E86EAC707A0F807E0ADF807E0D6
:10306000160687EA010EC27085718DF803208DF86F
:103070000B808DF8065000F095804FF0FF345FFA1A
:1030800082F912F0030554FA82F819D0067B012D5B
:1030900086EA0E0686EA0616F6B24FEA06274FEAD9
:1030A000161447EA1E2784EAC60686EA070E0DD1E3
:1030B000A9F1010900F10D05B8F1030F72D334E055
:1030C0006546B8F1030F6DD32FE000BF447B022D9E
:1030D00084EA0E0484EA0414E4B24FEA042646EAC1
:1030E0001E274FEA141686EAC40686EA070E07D1A1
:1030F000A9F1020900F10E05B8F1030F52D314E053
:10310000847BA9F1030984EA0E0484EA0414E4B27E
:10311000260246EA1E27260986EAC40600F10F05A4
:1031200086EA070EB8F1030F3CD32C1F14F8045F96
:103130001FFA8EF685EA0E0787EA0717FFB23D02EF
:1031400045EA16263D0985EAC70777406678A578DF
:103150007E4086EA0616F6B2310241EA17213709A7
:1031600087EAC60671404D4085EA0515EDB22E028C
:1031700046EA11212E0994F803E086EAC505694064
:103180008EEA010787EA0717FFB23E0246EA1121DD
:103190003E09A9F1040986EAC7075FEA094687EAFA
:1031A000010EC3D183EA0E0383EA0313DBB21FFAD5
:1031B0008EF11F0247EA11211F0987EAC303594014
:1031C000D2B22CF80210018003B0BDE8F0830000F9
:1031D00010B582B040F28534C2F20004207808B104
:1031E00002B010BD00208DF8070040F28800C2F246
:1031F00000000DF10701FFF78FF90028F0D19DF8CD
:1032000007000DF106018DF806000120207040F244
:103210009800C2F200000122FFF7DEF802B010BDF4
:10322000F0B581B02DED068BADF5107DB0EE418A85
:10323000B0EE609AB0EE40AAFDF736FF4A9000204B
:1032400047A9CDE94E0050908DF827011E2001F1CD
:103250000C0501F10906ADF8250108461C211C22C8
:1032600027238DED4BAA8DED4C9A8DED4D8AFFF7FE
:1032700043FE9DF81E019DF81F41FE281AD1FE2035
:103280008DF804009DF8220131788DF80600BDF814
:1032900023018DF80910ADF8070001A8861D3046FE
:1032A000294622468DF80540FDF75EF831190820C1
:1032B0004BE000BF022C26D355FA84F111F8011C13
:1032C00009BB611ECAB2022A1AD355FA81F212F85A
:1032D000012CBAB9A11ECAB2022A11D355FA81F241
:1032E00012F8012C72B9E11ECAB2022A08D355FAAB
:1032F00081F212F8012C2AB9043CE1B20129DBD891
:10330000012400E00C468DF80400DDF82101B178BD
:10331000CDF8070030889DF820718DF80B00000A69
:103320008DF80C0001A800F10A068DF80D10E2B22C
:10333000304629468DF805408DF80670FDF714F8E3
:10334000F80756FA84F105D10C20BDF81C210A803B
:10335000002113E0BDF81C01DDF836220880DDF8FD
:103360003202DDF83A32C1F802009DF83E02C1F89F
:103370000620C1F80A3088730D210C2050FA84F021
:10338000084440F2880445424FF0FF3601AFC2F2D4
:10339000000400BFB81941782046FFF7DDF8013678
:1033A000A8190130F6D10DF5107DBDEC068B01B0EA
:1033B000BDE8F040FFF70CBFF0B5ADF50F7D4FF065
:1033C000986200214A92032246A849918DF82C2147
:1033D0008DF82311ADF8211109210922322300F1C2
:1033E0000C0500F10906FFF787FD9DF81A019DF80D
:1033F0001B41FE281AD1FE208DF800009DF81E0109
:1034000031788DF80200BDF81F018DF80510ADF878
:1034100003006846861D3046294622468DF8014045
:10342000FCF7A2FF311908204BE000BF022C26D385
:1034300055FA84F111F8011C09BB611ECAB2022AB7
:103440001AD355FA81F212F8012CBAB9A11ECAB2E8
:10345000022A11D355FA81F212F8012C72B9E11E39
:10346000CAB2022A08D355FA81F212F8012C2AB9FD
:10347000043CE1B20129DBD8012400E00C468DF8C0
:103480000000DDF81D01B178CDF8030030889DF80B
:103490001C718DF80700000A8DF80800684600F1DD
:1034A0000A068DF80910E2B2304629468DF801402F
:1034B0008DF80270FCF758FFF80756FA84F105D131
:1034C0000C20BDF818210A80002113E0BDF8180176
:1034D000DDF832220880DDF82E02DDF83632C1F840
:1034E00002009DF83A02C1F80620C1F80A3088733C
:1034F0000D210C2050FA84F0084440F28804454223
:103500004FF0FF366F46C2F2000400BFB819417891
:103510002046FFF721F80136A8190130F6D10DF544
:103520000F7DBDE8F040FFF753BE00002DE9F04FDE
:10353000ADF50F7DFDF7B8FD40F2E40140F2004B20
:10354000C2F20001C4F2020BD1F80080D1F804905D
:10355000824658460221FDF7A1FD01284FF47A77F3
:1035600058464FF004014FF47A7608BF4FF4FA67DB
:10357000FDF794FD01284FF47A7458464FF48051BA
:1035800008BF4FF4FA64FDF789FD01284FF47A75FE
:1035900058464FF4005108BF4FF4FA65FDF77EFD21
:1035A00040F2DC51C0F2DC51012808BF4FF4FA664A
:1035B000CDE94E11CDE9501152914FF60471ADF89D
:1035C0004C1100218DF82311412146A8ADF821119D
:1035D0002A212A22762300F10C0BCDE949A8CDF847
:1035E0002C91ADF83071ADF83241ADF83451ADF8F1
:1035F000366100F10906FFF77FFC9DF81A019DF87E
:103600001B41FE281AD1FE208DF800009DF81E01F6
:1036100031788DF80200BDF81F018DF80510ADF866
:1036200003006846861D3046594622468DF8014003
:10363000FCF79AFE311908204BE000BF022C26D37C
:103640005BFA84F111F8011C09BB611ECAB2022A9F
:103650001AD35BFA81F212F8012CBAB9A11ECAB2D0
:10366000022A11D35BFA81F212F8012C72B9E11E21
:10367000CAB2022A08D35BFA81F212F8012C2AB9E5
:10368000043CE1B20129DBD8012400E00C468DF8AE
:103690000000DDF81D01B178CDF8030030889DF8F9
:1036A0001C518DF80700000A8DF80800684600F1EB
:1036B0000A068DF80910E2B2304659468DF80140ED
:1036C0008DF80250FCF750FEE80756FA84F105D158
:1036D0000C20BDF818210A80002113E0BDF8180164
:1036E000DDF832220880DDF82E02DDF83632C1F82E
:1036F00002009DF83A02C1F80620C1F80A3088732A
:103700000D210C2050FA84F0084440F28804454210
:103710004FF0FF366F46C2F2000400BFB81941787F
:103720002046FEF719FF0136A8190130F6D10DF534
:103730000F7DBDE8F04FFFF74BBDF1EE100A4FF6DD
:10374000FF71C0F2C03120EA010040F04070E1EEAC
:10375000100A70470000000000000000010203048E
:103760000607080900000000010203040006101605
:103770000006101698370008000000201000000016
:10378000D4010008A83700081000002080090000BC
:10379000F00100080000000001000000100000001F
:0837A0000024F4000000000009
:040000050800019955
:00000001FF
