:020000040800F2
:10000000901100202902000839220008312200083E
:1000100035220008AD050008CD29000800000000C9
:10002000000000000000000000000000B1220008F5
:10003000C9050008000000003D220008B5220008A4
:10004000430200084302000843020008430200087C
:10005000430200084302000843020008430200086C
:10006000430200084302000843020008430200085C
:10007000430200084302000843020008430200084C
:10008000B1050008BD05000843020008430200084E
:10009000430200084302000843020008430200082C
:1000A000430200084302000843020008430200081C
:1000B000CD220008D92200084302000843020008AC
:1000C00043020008430200084302000843020008FC
:1000D0004302000843020008C12900084302000847
:1000E00043020008430200084302000843020008DC
:1000F00043020008430200084302000843020008CC
:1001000043020008430200084302000843020008BB
:1001100043020008430200084302000843020008AB
:10012000430200084302000843020008430200089B
:10013000430200084302000843020008430200088B
:10014000430200084302000843020008430200087B
:10015000430200084302000843020008430200086B
:10016000430200084302000843020008430200085B
:100170004302000843020008430200080000000098
:10018000430200084302000800F002F800F03CF8C7
:100190000AA090E8000C82448344AAF10107DA45E2
:1001A00001D100F031F8AFF2090EBAE80F0013F0F8
:1001B000010F18BFFB1A43F001031847D44C00008D
:1001C000F44C0000103A24BF78C878C1FAD852071E
:1001D00024BF30C830C144BF04680C6070470000C1
:1001E0000023002400250026103A28BF78C1FBD840
:1001F000520728BF30C148BF0B6070471FB504F0DD
:100200004CF81FBD10B510BD00F095F91146FFF771
:10021000F5FF02F0DDFB00F0B3F903B4FFF7F2FFE6
:1002200003BC00F0BBF900000948804709480047BB
:10023000FEE7FEE7FEE7FEE7FEE7FEE7FEE7FEE796
:10024000FEE7FEE704480549054A064B70470000F3
:10025000B922000889010008900B002090110020AD
:10026000900D0020900D002053EA020C00F06980F0
:100270002DE9F04B4FF00006002B1FBFB3FA83F5BA
:1002800003FA05F424FA05F65E4012BF1643B2FAEB
:1002900082F502FA05F4C5F120051EBF22FA05FC1D
:1002A00044EA0C04203556EA044C4FEA144418BFC3
:1002B000641C4FF000084FF00009904271EB030CF2
:1002C00039D3002919BFB1FA81F701FA07F6B0FA5C
:1002D00080F700FA07F6C7F120071EBF20FA07FCD7
:1002E00046EA0C062037B6FBF4FCA7EB0507103FE7
:1002F00007F01F0BCBF120062CFA06F60CFA0BFBCD
:1003000044BFB3460026202FA4BF5E464FF0000B2B
:100310005BEA060C08BF4FF0010B19EB0B0948EB29
:100320000608ABFB027C06FB02CC0BFB03CCC01B1C
:1003300071EB0C01C1E70B46024641464846BDE859
:10034000F08B13B5084318BF4FF0FF300146AFF3F1
:100350000080BDE81C40704740EA010310B59B07D0
:100360000FD1042A0DD310C808C9121F9C42F8D01F
:1003700020BA19BA884201D9012010BD4FF0FF30D0
:1003800010BD1AB1D30703D0521C07E0002010BDE6
:1003900010F8013B11F8014B1B1B07D110F8013B72
:1003A00011F8014B1B1B01D1921EF1D1184610BD53
:1003B000032A40F2308010F0030C00F0158011F891
:1003C000013BBCF1020F624498BF11F801CB00F869
:1003D000013B38BF11F8013BA2F1040298BF00F8BD
:1003E00001CB38BF00F8013B11F0030300F025807A
:1003F000083AC0F0088051F8043B083A51F804CBA1
:10040000A0E80810F5E7121D5CBF51F8043B40F866
:10041000043BAFF30080D20724BF11F8013B11F871
:1004200001CB48BF11F8012B24BF00F8013B00F8B5
:1004300001CB48BF00F8012B704710B5203AC0F03F
:100440000B80B1E81850A0E81850B1E81850A0E8A7
:100450001850203ABFF4F5AF5FEA027C24BFB1E840
:100460001850A0E8185044BF18C918C0BDE8104083
:100470005FEA827C24BF51F8043B40F8043B08BF8C
:100480007047D20728BF31F8023B48BF11F8012B53
:1004900028BF20F8023B48BF00F8012B70474FF0FF
:1004A00000020429C0F0128010F0030C00F01B8041
:1004B000CCF1040CBCF1020F18BF00F8012BA8BF4F
:1004C00020F8022BA1EB0C0100F00DB85FEAC17C13
:1004D00024BF00F8012B00F8012B48BF00F8012BC6
:1004E00070474FF0000200B51346944696462039F7
:1004F00022BFA0E80C50A0E80C50B1F12001BFF4DD
:10050000F7AF090728BFA0E80C5048BF0CC05DF842
:1005100004EB890028BF40F8042B08BF704748BF90
:1005200020F8022B11F0804F18BF00F8012B704704
:10053000704770477047754600F02CF8AE460500CE
:100540006946534620F00700854618B020B5FFF7EE
:1005500079FEBDE820404FF000064FF000074FF055
:1005600000084FF0000BAC46ACE8C009ACE8C0098D
:10057000ACE8C009ACE8C00921F007018D4670471E
:1005800010B50446AFF300802046BDE81040FFF7E9
:1005900044BE0000004870471000002001491820A8
:1005A000ABBEFEE72600020070470000FEE7000039
:1005B00040F2E810C2F2000000F068B840F24820B3
:1005C000C2F2000000F062B870470000EFF3108044
:1005D00072B600BFFEE7000070B5866D044600F0FD
:1005E00011FB94F83510022928D105462068216CAA
:1005F000026822F016020260426922F08002426123
:1006000009B9A16C19B1016821F008010160016804
:1006100021F00101016000BF20680068C00715D00B
:1006200000F0F0FA401B0628F6D320206065032076
:1006300084F83500002184F8341070BD8020606596
:100640000120002184F8341070BD00BFE06D3F210F
:1006500001FA00F0B060012084F83500002000218C
:1006600084F8341070BD000090F83510022909D1CB
:10067000052180F835100068016821F00101016052
:10068000002070478021416501207047F0B581B09E
:1006900004460020009040F20800C2F20000026808
:1006A000D4E9166048F2B51337680821C1F64E3315
:1006B00081403942A2FB03250CD0226813685B07F6
:1006C00008D5136823F004031360B160616D41F035
:1006D0000101616501218140394208D022685269D7
:1006E000120604D5B160616D41F00201616504211B
:1006F0008140394208D022681268920704D5B1605F
:10070000616D41F00401616510218140394217D0CB
:1007100020680268120713D5B160026801685203AD
:1007200008D4C90508D4016821F008010160216CD2
:1007300021B905E008033FD4216C09B12046884760
:10074000E16D202000FA01F23A4241D020680368AE
:10075000DB063DD5B26094F835300268052B1BD11D
:1007600022F016020260426922F080024261226C8D
:100770000AB9A26C1AB1026822F0080202603F2096
:100780008840B060012084F83500216D00200029E8
:1007900084F8340052D157E00168520310D4C905DF
:1007A00012D4016821F010010160012084F83500A5
:1007B000002084F8340007E0A16C0029BED1BFE717
:1007C000080301D4616C00E0E16B09B12046884761
:1007D000606DC8B3606DC0072ED0052084F8350069
:1007E0002068A90A026822F001020260009A013220
:1007F0008A4200921AD80268D20717D0009A0132B2
:100800008A42009212D80268D2070FD0009A0132B1
:100810008A4200920AD80268D20707D0009A0132B1
:100820008A42009202D80268D207DFD1012084F800
:100830003500002084F83400E16C29B1204601B075
:10084000BDE8F040084700BF01B0F0BD2DE9F04120
:10085000044600F0D7F9ECB10546022084F83500D3
:100860000020216884F83400086820F00100086046
:1008700021680868C00711D000F0C4F9401B0528A2
:10088000F6D9032520230320636584F83550BDE89D
:10089000F08100BF0120BDE8F08100BF086848F288
:1008A0003F02CFF21002D4E9013500EA020C04F154
:1008B0000C0898E8C10143EA0C032B431843D4E920
:1008C000072E304338431043626A40EA0E00042A80
:1008D00040EA08031CD1206BD4E90A2E40EA0E003E
:1008E000184308604869BEF1000F20F0030040EA99
:1008F000020040F0040C11D0B8F5005F36D0B8F11A
:10090000000F45D1022A46D0012A3BD032B942E03D
:100910000B60486920F0070040EA020C01F0F80083
:100920004AF6AB221038CAF6AA22A0FB02231A0903
:1009300044F2CC23C0F600039A5C40F2FF335F28F8
:100940004FF03F00C1F814C021EA030100FA02F0A1
:1009500088BF0431C4E916128860002301250020F5
:10096000636584F83550BDE8F08100BF032AD5D80F
:10097000012540230120DFE802F0030E030500BF3C
:1009800082E700BFAEF1C070B0FA80F0400904E029
:10099000032A04D3C2D1CEF300600028BED00125C3
:1009A00040230120636584F83550BDE8F0810000E4
:1009B00070B590F834C0BCF1010F46D04FF0010C77
:1009C00080F834C0D0F858E090F835C0BCF1010F81
:1009D00038D14FF0020C80F835C04FF0000CC0F851
:1009E00054C0D0F800C08468056CC06DDCF80060AD
:1009F000402C26F48026CCF80060CCF804300B465E
:100A000004BF13460A463F2101FA00F0CCF8083033
:100A1000CCF80C20CEF80800DCF8000040F01600FE
:100A2000CCF800002DB1DCF8000040F00800CCF854
:100A30000000DCF8000040F00100CCF800000020CD
:100A400070BD00BF002180F83410022070BD00008E
:100A50002DE9F04F82B000F13E4241F6004502F12F
:100A6000FF77C4F20205082243F6004E4FEAB7268C
:100A7000A84208BF0722C4F2010E072E38BF4FEA72
:100A8000B7220125002600274FF00008009208E059
:100A900008F101080437B8F1100F06F1020600F062
:100AA000A7800C6805FA08F914EA090FF0D0D1F80C
:100AB00004B003220BF0030CACF10104B240012C92
:100AC0006FEA020A10D88268CC6802EA0A02B440CF
:100AD000224382604268CBF3001422EA090204FA3E
:100AE00008F42243426005E0BCF1030F02D14FF04D
:100AF000030C20E0C2688C6802EA0A02B440224378
:100B0000BCF1020FC26016D16FF0030202EA580274
:100B10000244D2F820C007F01C050F230C69AB403B
:100B20002CEA030304FA05F52B431362D1F804B051
:100B300001250BF0030C02680CFA06F302EA0A0224
:100B40001A431BF4403F0260A2D0002243F6440344
:100B50000192C4F202031A684FF6084C42F4804234
:100B60001A601A68CFF6FF7C02F480420192019A63
:100B700028F00302724452F80C3007F00C050F24E1
:100B8000AC40A343009C04FA05F52B4342F80C301B
:100B9000DEF808204B6842EA090543F60C4CDC02FB
:100BA00058BF22EA0905CEF80850C4F2010CDCF85F
:100BB00000209C0242EA090558BF22EA0905CCF848
:100BC0000050DEF804209C0342EA090558BF22EADF
:100BD0000905CEF80450DEF80020DB0342EA0905DF
:100BE00058BF22EA0905CEF80050012550E700BFA2
:100BF00002B0BDE8F08F0000002A08BF090481613F
:100C00007047000040F68C30C2F200000068704768
:100C100040F2000040F68C31C2F20000C2F2000146
:100C200000780A68104408607047000080B543F6F9
:100C30000040C4F20200016841F4007101600168E3
:100C400041F480610160016841F48071016003201A
:100C500000F088F80F2000F005F800F027F80020D9
:100C600080BD000070B540F20006C2F2000640F2FE
:100C700008013278C2F200014FF47A730968B3FBBD
:100C8000F2F20446B1FBF2F1084600F043FB0F2CF0
:100C90004FF0010508D838B94FF0FF302146002247
:100CA000002500F033F87460284670BD82B0002043
:100CB00043F640010190C4F202014A6842F48042C6
:100CC0004A604A6802F480420192019A00900868E2
:100CD00040F080500860086800F080500090009854
:100CE00002B07047002848BF7047C1B200F01F0033
:100CF000012202FA00F04EF20012CEF2000242EAA5
:100D0000D10121F0030108607047000010B54EF6D4
:100D10000C5CCEF2000CDCF80030C3F3022E8EF037
:100D20000704042C28BF0424BEF103034FF0FF3E48
:100D30000EFA04F438BF0023A14399400EFA03F3DE
:100D40009A43114300F00F0200F160430901043A95
:100D500003F564436244002848BF02F10C03197094
:100D600010BD00004EF60C51CEF200010A684FF69D
:100D7000FF031A4060F30A2242F0806040F0FD70E9
:100D8000086070472DE9F041002800F08B8043F6A1
:100D90000808C4F202080446D8F8F8030D4600F02B
:100DA0000700884207D288F8F853D8F8F80300F013
:100DB0000700A84276D12068810717D5410705D5DD
:100DC000D8F8001041F4E051C8F80010010705D52B
:100DD000D8F8001041F46041C8F80010D8F80010AD
:100DE000A26821F0F0011143C8F80010C0073FD1FC
:100DF000D8F8F80300F00700A84207D988F8F8539C
:100E0000D8F8F80300F00700A8424BD1206841074A
:100E100007D5D8F80010E26821F4E0511143C8F872
:100E20000010000708D5D8F80000216920F46040C0
:100E300040EAC100C8F8000000F07CF8D8F80010C3
:100E400044F2B422C1F30311C0F60002515C40F237
:100E5000080220FA01F140F20400C2F2000000682A
:100E6000C2F200021160FFF7FDFE0020BDE8F08134
:100E70006068811E022907D258F8081C89015CBFEE
:100E80000120BDE8F08111E0012807D158F8081CC5
:100E900089035CBF0120BDE8F08107E058F8081C19
:100EA000890703D40120BDE8F08100BFD8F8001005
:100EB00021F003010843C8F80000FFF7A3FE06462F
:100EC00041F28837D8F80000616800F00C00B0EB00
:100ED000810F8DD0FFF796FE801BB842F2D9032018
:100EE000BDE8F08140F2080043F60801C2F20000BC
:100EF000C4F202010068096844F2C422C1F38221ED
:100F0000C0F60002515CC8407047000040F2080083
:100F100043F60801C2F20000C4F202010068096849
:100F200044F2C422C1F34231C0F60002515CC84011
:100F30007047000010B543F60404C4F20204606870
:100F400000F00C0008280BD0042819BF42F2004022
:100F5000C0F2F40047F64000C0F27D1010BD00BFA3
:100F6000206821682368490247F64001C0F27D11DC
:100F700000F03F02C3F388105CBF42F20041C0F2B0
:100F8000F401A1FB00010023FFF76EF921680222A2
:100F9000C1F3014102EB4101B0FBF1F010BD0000D3
:100FA0002DE9F04182B0002868D00446007843F66D
:100FB0000006C007C4F202060BD0B06800F00C00B7
:100FC000042840F09F803068800302D560680028C4
:100FD00054D0207880071AD5B06810F00C0F09D0D3
:100FE000B06800F00C00082840F0A680706840024D
:100FF00000F1A2803068800702D5E06801283DD169
:101000003068216920F0F80040EAC10030602078A3
:10101000000737D4207840074CD4A56955B3B06891
:1010200000F00C00082840F0BB80012D26D070682D
:10103000E16900F480028A4220D1216A00F03F0277
:101040008A421BD147F6C071626A0140B1EB821F30
:1010500014D1A16A4FF6FF73C903994300F44032DB
:10106000A1F580318A4209D1E16A00F07060B0EBED
:10107000016F03D1002002B0BDE8F081012002B071
:10108000BDE8F0816069002840F20000C4F247200A
:1010900076D00121C0F8801EFFF7B4FD054600BFE1
:1010A000706F8007B6D4FFF7ADFD401B0228F7D95B
:1010B000DDE000BF306C10F080580AD100200190B4
:1010C000306C40F080503064306C00F08050019003
:1010D000019847F20007C4F200073868C00541D400
:1010E000386840F480703860FFF78CFD054600BF1B
:1010F0003868C00536D4FFF785FD401B0228F7D9B4
:10110000B5E000BFB06800F00C00082803D170689B
:1011100040023FF558AF6068B0F5803F07D0B0F5AA
:10112000A02F40F08D80306840F48020306030681F
:1011300040F4803030608DE0E068002852D000201C
:10114000C4F2472001210160FFF75CFD054600BFA6
:10115000306880073FF554AFFFF754FD401B02286D
:10116000F6D984E0A068012805D005284ED1306F5B
:1011700040F004003067306F40F0010030674FE00E
:101180000021C0F8801EFFF73DFD0546706F800707
:101190007FF540AFFFF736FD401B0228F6D966E029
:1011A0000027C4F2472700203866FFF72BFD022DE9
:1011B00005460BD1306880015ED5FFF723FD401B4B
:1011C00002284FF00300F5D955E700BF30688001D1
:1011D0007FF550AFFFF716FD401B02284FF00300CC
:1011E000F4D948E70020C4F2472000210160FFF74E
:1011F00009FD0546306880077FF509AFFFF702FD5E
:10120000401B02284FF00300F4D934E7316F002867
:1012100021F001013167316F21F0040131674DD0B8
:10122000FFF7F0FC054641F2883700BF306F8007BA
:1012300056D4FFF7E7FC401BB842F7D917E000BFD0
:101240003168002821F480313160316821F4802137
:1012500031604FD0FFF7D6FC054600BF30688003F1
:101260003FF5B7AEFFF7CEFC401B6428F6D903204C
:1012700002B0BDE8F08100BF04F11C052FCD08438A
:1012800040EA8210D9034FF6FF729143A1F58031F5
:1012900040EA05600843706001203866FFF7B2FC41
:1012A000044600BF306880013FF5E4AEFFF7AAFCBA
:1012B000001B02284FF00300F4D9DCE6FFF7A2FC84
:1012C000054641F2883700BF306F800708D5FFF729
:1012D00099FC401BB8424FF00300F5D9CBE600BFA4
:1012E000B8F1000F7FF499AE306C20F0805030647C
:1012F00093E600BFFFF786FC054600BF3068800319
:101300007FF567AEFFF77EFC401B64284FF00300BB
:10131000F4D9B0E6411E0020B0EB116F1CBF0120D4
:1013200070474EF21002CEF2000251604EF6235189
:10133000CEF20001F0230B7007219060116070471E
:10134000704700007047000010B590F83C20012A5B
:101350004FF0020251D080F83D200268D2F804E03C
:10136000D2F808C00C682EF07003234341F2FF74DA
:10137000C4F20004A24253600EDC40F2FF73C4F2D8
:1013800000039A4216DCB2F1804F2BD040F20043AA
:10139000C4F2000324E000BF40F2FF33C4F20103B3
:1013A0009A4213DC41F60003C4F200039A4219D0BA
:1013B000002313E040F60003C4F200039A4211D068
:1013C00040F60043C4F200030AE000BF44F2000309
:1013D000C4F201039A4205D040F20043C4F2010373
:1013E0009A4204D149682CF080031943916001218D
:1013F000002280F83D1080F83C20104610BD00000F
:10140000002804BF0120704710B5044690F83D0045
:1014100028B9002084F83C00204600F01FF8022084
:1014200084F83D002068211D00F05CFF012084F855
:10143000460084F83E0084F83F0084F8400084F8B9
:10144000410084F8420084F8430084F8440084F8A2
:10145000450084F83D00002010BD000010B582B0AA
:10146000006840F20041C4F20001884214D0B0F19B
:10147000804F2DD10020019043F64000C4F20200BD
:1014800001681C2441F001010160006800F00100C6
:101490000190019810E000BF0020009043F640004A
:1014A000C4F2020001681D2441F0020101600068DD
:1014B00000F0020000900098204600210022FFF773
:1014C00025FC204602B0BDE81040FFF70BBC00BF72
:1014D00002B010BD90F83D1001291CBF01207047DB
:1014E000022180F83D10006841F2FF72C168C4F229
:1014F0000002904241F00101C1600DDC40F2FF7139
:10150000C4F20001884215DCB0F1804F2AD040F2CD
:101510000041C4F2000123E040F2FF31C4F20101B6
:10152000884213DC41F60001C4F20001884219D060
:10153000002113E040F60001C4F20001884211D0FE
:1015400040F60041C4F200010AE000BF44F200018D
:10155000C4F20101884205D040F20041C4F2010109
:10156000884206D1816801F00701062904BF0020E6
:101570007047016841F001010160002070470000E0
:1015800080B590F83C20012A4FF0020200F0C280A2
:1015900080F83D20D0F800C04FF67772DCF80830B4
:1015A00023EA0202CCF808200B684F2B28DC1F2B03
:1015B00044DD202B45D0302B43D0402B40F0AC8075
:1015C000D1F804E0C968DCF82030DCF8202022F0F3
:1015D0000102CCF82020DCF8182022F0F00242EAC8
:1015E000011123F00A0242EA0E02CCF81810CCF8DE
:1015F0002020DCF8081041F0470121F0300180E0A4
:101600006F2B27DDB3F5005F48D0B3F5805F7AD04C
:10161000702B40F08180D1E901E3C968DCF8082033
:1016200043EA0E0322F47F4243EA01211143CCF83E
:101630000810DCF8081041F0770162E00BB1102BC4
:101640006AD1DCF8081021F07001194341F007015C
:1016500057E000BF502B35D0602B5DD1D1F804E0AE
:10166000C968DCF8203023F01003CCF82030DCF817
:101670001830DCF8202023F4704322F0A00243EA63
:10168000013142EA0E12CCF81810CCF82020DCF818
:10169000081041F0670121F0100132E0D1E901E3C7
:1016A000C968DCF8082043EA0E0322F47F4243EACB
:1016B00001211143CCF80810DCF8081041F48041F6
:1016C0001FE000BFD1F804E0C968DCF82030DCF886
:1016D000202022F00102CCF82020DCF8182022F093
:1016E000F00242EA011123F00A0242EA0E02CCF8AB
:1016F0001810CCF82020DCF8081041F0570121F038
:101700002001CCF808100022012180F83D100021B2
:1017100080F83C10104680BD0122F5E770470000BC
:1017200010B5016804460869800744BFC8685FEACD
:10173000807039D40869400744BFC8685FEA4070C8
:101740003ED40869000744BFC8685FEA007045D40A
:101750000869C00644BFC8685FEAC0604AD4086927
:10176000C0071CBFC8685FEAC07051D10869000695
:1017700044BFC8685FEA006052D40869400644BFAD
:10178000C8685FEA406053D40869800646BFC868ED
:101790005FEA806010BD6FF0200220460A61BDE85C
:1017A0001040FFF7CFBD00BF6FF0020008610120BD
:1017B00020778869800743D02046FFF7AFFF45E0D8
:1017C0006FF00400086102202077886910F4407FE0
:1017D00040D02046FFF7A2FF42E000BF6FF00800B4
:1017E000086104202077C86980073DD02046FFF7B4
:1017F00095FF3FE06FF01000086108202077C8696E
:1018000010F4407F3AD02046FFF788FF3CE000BF4D
:101810006FF001000861204600F03EF82168A5E75E
:101820006FF0800008612046FFF78AFD2168A4E779
:101830006FF040000861204600F042F82168A3E7FD
:10184000204600F025F8204600F024F8216800200A
:1018500020776FE7204600F01BF8204600F01AF8CA
:101860002168002020776CE7204600F011F8204620
:1018700000F010F821680020207769E7204600F08A
:1018800007F8204600F006F821680020207766E778
:10189000704700007047000010B50446006840F231
:1018A0000041C4F20001884202D102F025FB206809
:1018B000B0F1804F18BF10BDBDE8104002F014BC5D
:1018C000704700007047000070470000B0B582B05C
:1018D000044600680168C368426901F02F05202DA5
:1018E00003F0200506D12DB1204602B0BDE8B0407E
:1018F00000F06EBF5FEA017C1EBF02F0010E03F430
:10190000907212EB0E0253D1226B012A05D111F015
:10191000100218BF13F0100236D10A0622D513F0B8
:1019200080021FD094F83D1021293FD1A168B1F564
:10193000805F03D12169002900F07282216A4A1C6C
:10194000226209784160E18C01390A04E1842DD1D9
:10195000C16821F08001C160C16841F04001C160EF
:1019600002B0B0BD490621D513F040011ED0C168B8
:1019700021F04001C1602021204684F83D1002B0D2
:10198000BDE8B04000F022BC002101910168019146
:101990004168019101994069400613D4A08DE18D01
:1019A000E28D002A18BF884240F0BE8102B0B0BD6F
:1019B000CA0718BF13F4807240F0BA804A0700F1DA
:1019C000BD80C2E0A16B0868426893B2002BEDD0E5
:1019D000A08D8342EAD2E285C969B1F5807F00F02B
:1019E0009D80206850E8030F216820F4807041E852
:1019F0000302DAB1206850E8030F216820F48070F8
:101A000041E8030292B1206850E8030F216820F4F6
:101A1000807041E803024AB1206850E8030F216852
:101A200020F4807041E80302002ADAD1206850E8EF
:101A3000050F216820F0010041E80502DAB12068B5
:101A400050E8050F216820F0010041E8050292B13D
:101A5000206850E8050F216820F0010041E80502E8
:101A60004AB1206850E8050F216820F0010041E8E4
:101A70000502002ADAD1206850E8050F216820F01D
:101A8000400041E80502DAB1206850E8050F2168FE
:101A900020F0400041E8050292B1206850E8050FAF
:101AA000216820F0400041E805024AB1206850E872
:101AB000050F216820F0400041E80502002ADAD134
:101AC000202084F83E0000202063206850E8030FA7
:101AD000216820F0100041E80302DAB1206850E8E4
:101AE000030F216820F0100041E8030292B1206842
:101AF00050E8030F216820F0100041E803024AB1CA
:101B0000206850E8030F216820F0100041E803022C
:101B1000002ADAD1A06BFEF75FFDA08DE18D401A9F
:101B200081B2204602B0BDE8B040FFF7CBBE00BF97
:101B3000226C42F0010222644A0706D5BEF1000F72
:101B400003D0226C42F0020222648A0706D5BEF15D
:101B5000000F03D0226C42F004022264BCF1000F9B
:101B600009D545EA0E02B2FA82F2520903D1226C7B
:101B700042F008022264226C002A3FF417AF11F0F1
:101B8000200118BF002D03D0204600F021FE206860
:101B90004069216C00F0400001F00801401800F09D
:101BA000B58000BF206850E8030F216820F49070D2
:101BB00041E80302BAB3206850E8030F216820F41B
:101BC000907041E8030272B3206850E8030F216867
:101BD00020F4907041E803022AB3206850E8030F14
:101BE000216820F4907041E80302002ADAD11AE05B
:101BF000206850E8050F216820F0010041E8050247
:101C0000DAB1206850E8050F216820F0010041E8B2
:101C1000050292B1206850E8050F216820F001000C
:101C200041E805024AB1206850E8050F216820F01C
:101C3000010041E80502002ADAD1206B012824D1F5
:101C4000206850E8030F216820F0100041E80302EB
:101C5000DAB1206850E8030F216820F0100041E855
:101C6000030292B1206850E8030F216820F01000B1
:101C700041E803024AB1206850E8030F216820F0D0
:101C8000100041E80302002ADAD1202084F83E0047
:101C9000002020632068406940063FD5206850E856
:101CA000050F216820F0400041E80502DAB1206804
:101CB00050E8050F216820F0400041E8050292B18C
:101CC000206850E8050F216820F0400041E8050237
:101CD0004AB1206850E8050F216820F0400041E833
:101CE0000502002ADAD1A06BC0B142F22141C0F650
:101CF00000010165FEF7B8FC00283FF457AEA06B69
:101D0000016D02B0BDE8B040084700BF2046FFF7B4
:101D1000DBFD0020206402B0B0BD00BF204602B051
:101D2000BDE8B040FFF7D0BD401A216851E8031F5D
:101D3000226821F4907142E80313DBB1216851E875
:101D4000031F226821F4907142E8031393B12168C4
:101D500051E8031F226821F4907142E803134BB14C
:101D6000216851E8031F226821F4907142E80313AF
:101D7000002BDAD1216851E8051F226821F001010A
:101D800042E80513DBB1216851E8051F226821F004
:101D9000010142E8051393B1216851E8051F22684B
:101DA00021F0010142E805134BB1216851E8051FFC
:101DB000226821F0010142E80513002BDAD120212D
:101DC00084F83E1000212163216851E8031F226836
:101DD00021F0100142E80313002B3FF4A1AE21686B
:101DE00051E8031F226821F0100142E80313002B81
:101DF0003FF496AE216851E8031F226821F01001DC
:101E000042E80313002B3FF48BAE216851E8031F17
:101E1000226821F0100142E80313002BD4D17FE6A1
:101E2000216A31F8022B6FF35F22426021628AE55A
:101E3000002804BF0120704710B5044690F83D000B
:101E400028B9002084F83C00204600F021F8242026
:101E500084F83D002068C16821F40051C16020462B
:101E600000F036FD2068016921F49041016141696B
:101E700021F02A014161C16841F40051C160002094
:101E80002021206484F83D1084F83E1010BD00002D
:101E90002DE9F04385B00446016844F20040C4F2E5
:101EA0000000814202D005B0BDE8F083002643F671
:101EB00030010096C4F202010A6946F2880842F431
:101EC00000320A610A6900F5DE3002F40032009245
:101ED000009A00960A68C4F2020842F001020A6001
:101EE000096801F00101009100990C210091022183
:101EF000CDE9011603210391072104916946FEF7FC
:101F0000A7FD40F2E815C2F200054FF480704FF0D3
:101F100000674FF48069C5E906602846C5E9008777
:101F2000C5E90266C5E90496C5E90866FEF78EFCB8
:101F3000002818BFFEF74AFBA563AC6340F24825B2
:101F400008F11800C2F200054021C5E9000705F1BB
:101F5000080080E842022846C5E90566C5E907662B
:101F60006E62FEF773FC002818BFFEF72FFB2620D9
:101F7000002100226563AC63FEF7C8FE2620FEF751
:101F8000B1FE05B0BDE8F08370B582B0044690F8AC
:101F90003E0020280ED113460A4600294FF00100CA
:101FA00018BF002B02D102B070BD00BF94F83C00F6
:101FB000012803D1022002B070BD00BF012084F8C7
:101FC0003C00002622202663A262A385266484F8B2
:101FD0003E002168A06B42F2A95C42F2057E42F20B
:101FE0002D45C0F6000CC0F6000EC0F60005043109
:101FF000C0E90FCEC0E91356FEF7DAFC019620685F
:1020000001680191406801900198206984F83C6062
:1020100030B300BF206850E8030F216840F480709F
:1020200041E80302E2B1206850E8030F216840F460
:10203000807041E803029AB1206850E8030F2168DC
:1020400040F4807041E8030252B1206850E8030F69
:10205000216840F4807041E80302002ADAD100BF11
:10206000206850E8050F216840F0010041E80502B2
:10207000E2B1206850E8050F216840F0010041E816
:1020800005029AB1206850E8050F216840F0010070
:1020900041E8050252B1206850E8050F216840F080
:1020A000010041E80502002ADAD100BF206850E8AB
:1020B000050F216840F0400041E80502DAB12068D0
:1020C00050E8050F216840F0400041E8050292B158
:1020D000206850E8050F216840F0400041E8050203
:1020E0004AB1206850E8050F216840F0400041E8FF
:1020F0000502002ADAD1002002B070BD704700004E
:102100007047000070B5044690F83D0020280BD1C0
:1021100000294FF0010055D0002A134608BF70BDBA
:1021200094F83C00012801D1022070BD012084F800
:102130003C00002621202162A384E384266484F8E5
:102140003D002268606B42F2197C42F2C97E42F285
:102150002D45C0F6000CC0F6000EC0F60005043296
:10216000C0E90FCEC0E91356FEF722FC20686FF0DD
:102170004001016084F83C60206850E8050F216848
:1021800040F0800041E80502F2B1206850E8050FF8
:10219000216840F0800041E80502AAB1206850E8BB
:1021A000050F216840F0800041E8050262B1206817
:1021B00050E8050F216840F0800041E80502002A40
:1021C000DAD1002070BD00BF002070BD10B582B014
:1021D000006844F20041C4F20001884202D002B01B
:1021E00010BD00BF40F27004C2F200040020207055
:1021F00021780029F3D18DF8070004F11C000DF1BE
:10220000070100F01DF80028E9D19DF807000DF145
:1022100006018DF806000120207040F23830C2F22D
:1022200000000122FFF76EFF02B010BD70470000F2
:10223000FEE70000FEE70000FEE700007047000038
:10224000D0E90032934202BFFF2148B27047C36811
:102250009A5C0A70D0E901124B1C0021934228BFFE
:102260000B46436048B2704700294FF0FF031FBF81
:10227000002A0023C0E90033C0E9022158B27047A8
:1022800080B5D0E900EC82680EF101039BB29A425E
:1022900098BF0023634503D1FF2040B280BD00BF3B
:1022A000C26802F80E100360002040B280BD00003A
:1022B00070470000FEF7ACBC4EF68850CEF200002E
:1022C000016841F4700101607047000040F2A820ED
:1022D000C2F20000FFF724BA40F2F020C2F2000080
:1022E000FFF71EBA10B540F6FF3E0368C4F2000EB9
:1022F00040F2004C7045C4F2010C27DCB0F1804F75
:1023000031D040F20042C4F2000290422BD040F69D
:102310000002C4F20002904225D041F6FF72C4F2DE
:102320000002904229DC70453CDCB0F1804F5FD068
:1023300040F20042C4F20002904259D040F600023E
:10234000C4F20002904253D056E000BF40F6004273
:10235000C4F20002904206D0604504D00022C4F2CC
:1023600001029042D9D14A6823F07003134341F629
:10237000FF72C4F200029042D5DD43F6FF72C4F250
:102380000102904222DC42F20002C4F200029042BA
:102390002ED00022C4F20102904229D0604527D0FD
:1023A0002AE000BF40F60042C4F2000290421FD073
:1023B00041F60002C4F20002904219D041F60042F8
:1023C000C4F20002904213D016E000BF44F20002B3
:1023D000C4F2010290420BD044F60002C4F20102A2
:1023E000904205D044F20042C4F20102904203D16F
:1023F000CA6823F44073134323F080024B69D1F879
:1024000000E08C681A430260C46240F48062C0F845
:1024100028E0624504BF096901630121416110BDE3
:10242000806B0021C185C184FFF74EBA806B0168C3
:102430004A6990F83D30212B2DD112F080022AD02C
:102440000021C184016851E8031F026821F0C00126
:1024500042E80313DBB1016851E8031F026821F071
:10246000C00142E8031393B1016851E8031F0268F9
:1024700021F0C00142E803134BB1016851E8031F8A
:10248000026821F0C00142E80313002BDAD12021B9
:1024900080F83D100168496990F83E20222A40F0FA
:1024A0007D8011F0400179D00021C185016851E89B
:1024B000031F026821F4907142E80313BBB3016863
:1024C00051E8031F026821F4907142E8031373B3CB
:1024D000016851E8031F026821F4907142E8031378
:1024E0002BB3016851E8031F026821F4907142E8A0
:1024F0000313002BDAD11AE0016851E8051F0268C6
:1025000021F0010142E80513DBB1016851E8051F24
:10251000026821F0010142E8051393B1016851E816
:10252000051F026821F0010142E805134BB1016863
:1025300051E8051F026821F0010142E80513002B54
:10254000DAD1016B012924D1016851E8031F026827
:1025500021F0100142E80313DBB1016851E8031FC9
:10256000026821F0100142E8031393B1016851E8B9
:10257000031F026821F0100142E803134BB1016808
:1025800051E8031F026821F0100142E80313002BF9
:10259000DAD1202180F83E1000210163016C41F066
:1025A00010010164FFF790B90168806B0968C905E3
:1025B00000F19F800021C185016851E8031F026876
:1025C00021F4807142E80313E3B1016851E8031F6D
:1025D000026821F4807142E803139BB1016851E85D
:1025E000031F026821F4807142E8031353B10168AC
:1025F00051E8031F026821F4807142E80313002BA5
:10260000DAD100BF016851E8051F026821F001011D
:1026100042E80513BBB3016851E8051F026821F0C9
:10262000010142E8051373B3016851E8051F026810
:1026300021F0010142E805132BB3016851E8051FA1
:10264000026821F0010142E80513002BDAD11AE0FB
:10265000016851E8051F026821F0400142E80513B6
:10266000DBB1016851E8051F026821F0400142E832
:10267000051393B1016851E8051F026821F040017C
:1026800042E805134BB1016851E8051F026821F0CB
:10269000400142E80513002BDAD1202180F83E10DA
:1026A000016B012925D100BF016851E8031F0268B1
:1026B00021F0100142E80313DBB1016851E8031F68
:1026C000026821F0100142E8031393B1016851E858
:1026D000031F026821F0100142E803134BB10168A7
:1026E00051E8031F026821F0100142E80313002B98
:1026F000DAD1016B012918BFFFF700BD818DFFF70B
:10270000E1B80000806B016B012918BFFFF7F8BC2E
:10271000818D4908FFF7D6B80168806B0968C90543
:1027200048BFFFF753BD0021C18400BF016851E8D5
:10273000051F026821F0800142E8051383B3016898
:1027400051E8051F026821F0800142E805133BB300
:10275000016851E8051F026821F0800142E8051375
:10276000F3B1016851E8051F026821F0800142E8D9
:102770000513002BDAD113E0016851E8031F02684A
:1027800041F0400142E80313002B08BF7047016885
:1027900051E8031F026841F0400142E8031393B17E
:1027A000016851E8031F026841F0400142E8031349
:1027B0004BB1016851E8031F026841F0400142E853
:1027C0000313002BD8D17047806BFFF72FBD00009B
:1027D00081B090F83E10222921D183680246B3F5DA
:1027E000805F09D152F8281F52F8183C002B63D0A3
:1027F00003685B680AE000BF52F8281F13B9036939
:10280000002BF5D003685B6803F07F030B70116841
:1028100001311160C18D01390A04C18502D001B0B6
:10282000704700BF0168CA6822F02002CA60CA6807
:1028300022F48072CA604A6922F001024A612021B2
:1028400080F83E10016B01293ED10021016300BFD9
:10285000016851E8031F026821F0100142E80313E8
:10286000DBB1016851E8031F026821F0100142E862
:10287000031393B1016851E8031F026821F01001AE
:1028800042E803134BB1016851E8031F026821F0CD
:10289000100142E80313002BDAD101680A68D2065E
:1028A00006D5002200920A680092496800910099BA
:1028B000818D01B0FFF706B8026852686FF35F229E
:1028C00021F8022B8162A5E701B0FFF717BC0000D9
:1028D00010B504460068D4E902C22369016921F4F5
:1028E000405111430161626943EA0C01E3691143FC
:1028F000C268194349F20C639A431143C1604169AC
:10290000A26921F4407141F20043114340F4806216
:10291000C4F201039A42416102D1FEF7F7FA01E0E5
:10292000FEF7E0FAE16963681922B1F5004FA0FBF8
:10293000020123D15A00DB0FFDF796FC48F21F512C
:10294000C5F2EB11A0FB01235A094FF69C73C0F6A8
:10295000FF7303F1805302FB0300322303EBC0003B
:10296000A0FB01014FF4F87000EA111000EB021017
:10297000C1F3421108442168886010BD9A009B0F82
:10298000FDF772FC48F21F51C5F2EB11A0FB0123C9
:102990005A094FF69C73C0F6FF7302FB0300322303
:1029A00003EB0010A0FB0101F02000EA511000EB46
:1029B0000210C1F3431108442168886010BD000073
:1029C00040F23830C2F20000FEF780BFFEE70000A0
:1029D000B4B043F6300547F20007C4F20205C4F272
:1029E0000007FEF723F908AC201D2C21FDF779FD27
:1029F00000262696CDE92466CDE92266069628694A
:102A000040F080502861286900F0805006900698B8
:102A10000696386840F480403860386800F480409A
:102A2000069006980220089001200B9010200C9030
:102A300020460E96FEF7B4FA20B1EFF3108072B67E
:102A4000FEE700BF0F20CDE9220622A80021CDE934
:102A500024662696FEF796F920B1EFF3108072B641
:102A6000FEE700BF002408942868002140F0010020
:102A700028602868002200F0010008900898089457
:102A8000286840F400102860286800F400100890BE
:102A900008981020FEF73AF91020FEF723F91120CC
:102AA00000210022FEF732F91120FEF71BF940F257
:102AB000A820C2F200004FF0804144F61F630B943F
:102AC000CDE90944CDE9224440F21F3280E81600E6
:102AD000C0E903348461FEF793FC28B1EFF3108062
:102AE00072B600BFFEE700BF4FF48050089040F27E
:102AF000A820C2F2000008A9FEF742FD20B1EFF3C2
:102B0000108072B6FEE700BF40F2A820C2F20000BB
:102B100022A9FEF719FC28B1EFF3108072B600BFAE
:102B2000FEE700BF40F20045C4F2000540F2383035
:102B300005F58041C2F2000000240C234FF4E1327D
:102B400080E81600C0E90344C0E90534C461FFF71A
:102B50006FF928B1EFF3108072B600BFFEE700BF37
:102B600040F2F020C2F2000040F21F3140F2CF727A
:102B70000B94CDE90944CDE92244C0E90051C0E9F4
:102B8000024204618461FEF73BFC28B1EFF3108040
:102B900072B600BFFEE700BF4FF48050089040F2CD
:102BA000F020C2F2000008A9FEF7EAFC20B1EFF322
:102BB000108072B6FEE700BF40F2F02022ACC2F2F5
:102BC00000002146FEF7C0FB20B1EFF3108072B683
:102BD000FEE700BF40F27005C2F2000505F12C0AC5
:102BE00040F66801C2F2000150464FF48072FFF7D0
:102BF0003BFB40F6681105F11C00C2F200014FF4E6
:102C00008072FFF731FB40F2A820C2F20000FEF70D
:102C100061FC40F2E80B40F23830C2F2000BC2F225
:102C2000000059464FF48072FFF7AEF940F2F020F1
:102C3000C2F20000FEF74EFC601C40F2E8189FED67
:102C4000E19A0190C2F20008681CB7EE008A059074
:102C500006E000BF6F8005995046FFF7F1FAC8B152
:102C6000D8F8000046686888C6F58077BCB2844210
:102C7000F1D049D9461E00BF0BEB06004178504603
:102C8000FFF7FEFAB01C80B2844206F10106F3D1D0
:102C9000E0E700BF40F60806C2F20006F77895F8B4
:102CA00001E04FF000080F2F86F8008000F28C80C2
:102CB00040F27C3940F6682CC2F20009C2F2000CE6
:102CC000DFE817F0100010008C00A600BE00D20054
:102CD000E600FA000E012A014201600182014C0067
:102CE0004C00D801BEF1FE0F00F0DE81BEF1FD0FF9
:102CF00040F0FE81307B0227FD2100F0FE00F770DE
:102D0000A9F80210D8E100BFFF280ED8451E00BF69
:102D10000BEB050041785046FFF7B2FAA81C80B2D1
:102D2000B0F5807F05F10105F2D1B0B240F2700537
:102D3000B0F5807FC2F200053FF48CAFABF1010625
:102D4000012C4FF0010098BF044600BF16F8011F88
:102D50005046FFF795FA013CF8D17BE799F801005E
:102D600099F8041070454FF0020808BF4FF00108B1
:102D70000E2F08BF4FF00208C80786F8008089F8B8
:102D800015E140F085813069CDF810E0002800F0B1
:102D90000284026B002A00F0358399F80B00B9F821
:102DA000091041EA00413046904796F8008000281B
:102DB00040F0408340F6682CB8F1020FC2F2000CDC
:102DC00040F0348300F0E7BB40F27C3940F6682CD9
:102DD000C2F20009C2F2000C8CE100BFB9F8000099
:102DE000002131718EEA000181EA0111CAB20902A3
:102DF00041EA1020110981EAC201327B4840D10723
:102E000089F803E0A9F8000040F05C8103276EE137
:102E1000BEF1020F89F804E080F05C81B9F800008F
:102E200004278EEA000181EA0111CAB2090241EACF
:102E30001020110981EAC2014840A9F8000056E1BA
:102E4000B9F8000089F805E08EEA000181EA011175
:102E5000CAB2090241EA1020110981EAC2014840C0
:102E6000A9F80000052742E1B9F8000089F806E05A
:102E70008EEA000181EA0111CAB2090241EA10207A
:102E8000110981EAC2014840A9F8000006272EE195
:102E9000B9F8000089F807E08EEA000181EA011123
:102EA000CAB2090241EA1020110981EAC201484070
:102EB000A9F8000007271AE1B9F8000089F808E02E
:102EC0008EEA000181EA0111CAB2090241EA10202A
:102ED000110981EAC2014840A9F80000082706E16B
:102EE000002089F80B00B9F80000A9F809E08EEA83
:102EF000000181EA0111CAB2090241EA1020110958
:102F000081EAC201327B4840D107A9F8000040F0B5
:102F1000E7800927EBE000BF484630F8091FB9F801
:102F2000002041EA0E2101808EEA020080EA0010B2
:102F3000C1B2000240EA12200A0982EAC1014840F7
:102F4000A9F800000A27D2E0484630F8091F827825
:102F5000018042EA0E028270B9F800208EEA020077
:102F600080EA0010C1B2000240EA12200A0982EA97
:102F7000C10199F803204840002AA9F8000040F058
:102F8000B280B3E03079411CCAB23171B9F8001097
:102F9000484480F80CE08EEA010080EA0010C3B2D9
:102FA000000240EA1120190981EAC30199F80330AF
:102FB00048409A42A9F8000000F098804FF00008BD
:102FC0000B2797E000007A4499F80B00B9F8091034
:102FD000F04644F2D42E41EA0040E4220021C0F63B
:102FE000000E4FF0FF3400BF91420CD28B1801331A
:102FF0005F0807EB47065EF82660864294BF3946B5
:1030000004EB5302F0D101EB41015EF82120824232
:1030100040F030810EEB8100B9F80020037981790E
:1030200083EA020080EA0010C0B2030243EA1222DF
:10303000030983EAC000504040F60806A9F80000E2
:10304000C0B20E27C2F20006804508BF0D273279B4
:10305000F770914289F8148140F2D28109EB0200A5
:103060000C30891AFDF71BFA40F6682CC646C2F2EE
:10307000000C3DE0707BA9EB0001013881F823E1F1
:103080000106707300F006814FF000080F2731E051
:103090000F27B8F1020F4FF00D00F770707340F07A
:1030A000F3804FF0020825E0307B0227FE21F77005
:1030B000A9F8021040F0010030734FF6FF70A9F834
:1030C000000015E04FF000080527A9F80480F7700C
:1030D00010E000BFB07801270130B07007E000BFFA
:1030E00099F8030010B10B2701E000BF0C27F7701F
:1030F0004FF0000831797279B0784C4699F8039016
:10310000337B85F84010511C3289A5F84600B8F190
:10311000020F4FF000008CF8039085F83F7085F89F
:103120004110A5F8442085F84830B07004D1B4F8B7
:103130001401ACF8000003E008F0FE0002281DD1E5
:1031400040F2011040F2E8187080BEF1FD0F4FF020
:103150000000C2F2000830707FF482AD40F6080033
:10316000C2F200000221C17040F27C31C2F20001C3
:103170000020C8704FF6FF70088071E5B8F1000FAD
:1031800040F2E818C2F200083FF46AAD40F6682148
:10319000C2F20001C87AB1F8091041EA00404C2897
:1031A00032D000287FF45CAD05F11008B9F1090FA9
:1031B00028BF4FF00909C9F1090108EB0900B9F16D
:1031C000080F88BF0021FDF76AF940F66820C2F2B7
:1031D000000000F10C0140464A46FDF72EF9FDF7CC
:1031E00011FD696851B1411AA96007D000EE101AAB
:1031F000B8EE400A89EE000A85ED030A40F2E818AD
:103200006860C2F200082BE505F15407B9F1210FFF
:1032100028BF4FF02109C9F1210107EB0900B9F1DD
:10322000200F88BF0021FDF73AF940F66820C2F26E
:10323000000000F10C0138464A46FDF7FEF8B5F8EB
:103240007000B0F5C87F7FF40BAD95ED150A47F21D
:103250000000C4F20000B4EE480A00F5CC304FF490
:103260000051F1EE10FA14BF01220022FDF7C4FC58
:10327000F6E400BF40F608060E27C2F20006F7701B
:10328000C64689F8148133E74FF0000886F80080BD
:103290000F272FE73269CDF810E0002A00F0778180
:1032A000706908AF02900020CDE908004EF2676017
:1032B000C6F609200A904AF68560CBF667300B9077
:1032C0004FF27230C3F66E400C904FF23A50CAF291
:1032D0004F500D9045F27F20C5F20E100E9046F62D
:1032E0008C00C9F605300F904DF6AB10C1F6837017
:1032F00010904CF61950C5F6E030119002F1100113
:1033000003923846202200F0C1FB09F10201384641
:103310000A2200F0BBFB99F8032009F10C013846A2
:1033200000F0B4FB09F58A713846022200F0AEFBCA
:1033300009F58B713846072200F0A8FB089D37205D
:10334000A0EBD50000F03F0680208DF888000198A2
:103350000DF18808472106EB0809FDF7A0F8099947
:1033600028BAC9F8050008BAC9F8010040F27C394A
:1033700006F1090240F608063846039F4146C2F2AC
:103380000009C2F2000600F081FB9DF828009DF8BC
:1033900029109DF82B208DF81A108DF81B009DF830
:1033A0002F009DF82E109DF82A308DF818208DF8EA
:1033B0001C008DF81D1009F21D1106A806228DF8BB
:1033C0001930FCF7C9FF0221D0B3306987F83410F7
:1033D000026B002A64D099F80B00B9F8091041EA91
:1033E00000413046904740F2700540F6682C0028B6
:1033F000C2F20005C2F2000C40F0C98016E000BF26
:10340000C64675E6B8F1020F10D10127604649465D
:1034100040F22312F770FDF710F840F6682CDDF843
:1034200010E0C2F2000C4FF0020863E64FF0030810
:10343000AFE000BF40F6682CC2F2000CABE000BF6A
:10344000029CCCB3238899F81681B9F81BC1D9F82E
:1034500017E1002B3CD099F8076099F80810581E26
:10346000012212FA80F9002203E000BF01329342E8
:1034700024D002EBC2052544E8788642F6D12879AB
:103480008142F3D1A8788045F0D140F6080640F299
:103490007C39C2F20006C2F20009204619E000BFE2
:1034A00040F2700540F6682C4FF00308C2F20005A8
:1034B000C2F2000C6DE000BF032186E74A4640F6E9
:1034C000080640F27C39C2F20006C2F2000903E0AD
:1034D000002290B2984219D10F2B01D9042174E730
:1034E00048F68051C0F25B01D7E902561FFA8CF012
:1034F00011EB0E0140F10000491BB04116D240F61D
:1035000008060521C2F200065FE700BF02EBC20019
:103510002044B0F80910D0F805001FFA8CF3B0EB86
:103520000E0071EB030011D306214EE7029CB9F89F
:10353000070002EBC201214440F60806A1F803008F
:10354000581CC2F2000681F80280208002EBC20003
:10355000B9F81B112044A0F80910D9F8171140F24E
:103560007005C0F80510D7E902121FFA8CF0B1EB14
:103570000E0140F6682C72EB0001C2F2000538BF64
:10358000C7E902E00120C2F2000C87F834004FF0D6
:10359000010886F8008001276046494640F2231260
:1035A000F770FCF74AFF40F6682CDDF810E0C2F235
:1035B000000CB8F1010F7FF49DAD308999F8061029
:1035C000002800F101004FF001074FF00108717170
:1035D00004BF0021718130818CE500002DE9F04F9E
:1035E000B1B040F6080CC2F2000C9CF80C7080469A
:1035F00017F0020A00F1090E3ED1DCF81000FD269A
:1036000000281ABF007800F001094FF00009022AD3
:1036100088F802603AD308F10C0050FA82F111F8F0
:10362000011C29BB511ECDB2022D20D350FA81F5C9
:1036300015F8015C002D40F02181911ECDB2022DC4
:1036400015D350FA81F515F8015C002D40F0168174
:10365000D11ECDB2022D0AD350FA81F515F8015CC6
:10366000002D40F00B81043AD1B20129D5D80122B6
:103670000A20FD2601900BE0FE26062088F8026055
:103680004FF0000901900A4602E000BF0A200190B5
:10369000002088F8032088F8049088F805009CF83A
:1036A000060040F20111A8F80710411CBAF1000F02
:1036B00088F806008CF806108DF80A608DF80B204B
:1036C00012D1BEF800509EF802608DF811502D0AFC
:1036D0004FF0010B8DF812508DF8136000254E4607
:1036E0008DF810B005E000BF9EF800B00125064639
:1036F00001209DF80B708DF80C60FF4387EA0717D7
:10370000FFB23C023909FF3481EAC701614086EA11
:10371000010484EA0414E4B2260246EA11212609CF
:1037200086EAC404614085EA010484EA0414E4B230
:103730008DF80D50250245EA1121250985EAC404BA
:1037400061408DF80E00484080EA0010C0B20402CB
:1037500044EA1121040984EAC00048408BEA0001D0
:1037600081EA0111C9B20C0244EA10200C0984EA72
:10377000C101BAF1000F81EA00078DF80FB036D110
:103780009DF810009DF81110784080EA0010C0B23A
:10379000060246EA1726070987EAC0007040414042
:1037A00081EA0111C9B20E0246EA10200E099DF805
:1037B000124086EAC101484084EA000181EA011111
:1037C000C9B20C0244EA10200C099DF8135084EA97
:1037D000C101484085EA000181EA0111C9B20C0229
:1037E00044EA10200C0984EAC10181EA00071006AE
:1037F00008F10C0A00F096804FF0FF305FFA82FB70
:1038000012F0030650FA82F01AD098F80C40012EFC
:1038100084EA070484EA0414E4B24FEA042545EA82
:1038200017254FEA141787EAC40484EA05070BD169
:10383000ABF1010B08F10D06032837D272E000BF8F
:103840005646032832D26DE098F80D40022E84EAE5
:10385000070484EA0414E4B24FEA042545EA172574
:103860004FEA141787EAC40484EA05070AD1ABF1CA
:10387000020B08F10E06032818D253E00A2001902B
:10388000FD2600E798F80E40ABF1030B7C4084EA7C
:103890000414E4B2250245EA1725270987EAC4047F
:1038A00008F10F0684EA050703283BD3301F00BF49
:1038B00010F8044FBDB27C4084EA0414E4B226023E
:1038C00046EA1525260986EAC4046C4045788678C0
:1038D000654085EA0515EDB2290241EA14212C095B
:1038E00084EAC504614086EA010484EA0414E4B26F
:1038F000250245EA11212509C77885EAC4046140FB
:1039000087EA010484EA0414E4B2250245EA11219D
:103910002509ABF1040B85EAC4045FEA0B4584EA90
:103920000107C5D187EA030181EA0111C9B2B8B222
:103930000B0243EA10200B0983EAC1014840D7B2C9
:10394000B9F1000F2AF80700A8F8000007D0DCF84A
:10395000100000281CBF01785FEAC17102D131B0AC
:10396000BDE8F08F41785AFA82F488F81611D0E950
:1039700002130DF1140BAEF81231CEF80E11D0E98E
:10398000021208F58B79013142F10002C0E90212FE
:103990000021CDE905114EF26761C6F609210791B4
:1039A0004AF68561CBF6673108914FF27231C3F662
:1039B0006E4109914FF23A51CAF24F510A9145F2C4
:1039C0007F21C5F20E110B9146F68C01C9F6053127
:1039D0000C914DF6AB11C1F683710D914CF6195156
:1039E000C5F6E0310E9100F110015846202200F09A
:1039F0004DF8019A0DF10A01584600F047F8584673
:103A000051463A4600F042F858462146022200F05C
:103A10003DF858464946072200F038F8059C372003
:103A2000A0EBD40000F03F051FAE80208DF87C0095
:103A3000701C4721AF19FCF732FD069920BAC7F870
:103A4000050008BAC7F8010005F1090258463146D9
:103A500000F01CF89DF81C009DF81D109DF81F201B
:103A60009DF81E3088F81F1188F820019DF823006A
:103A70009DF8221088F81D2188F81E3188F8210150
:103A800088F8221131B0BDE8F08F00002DE9F04F29
:103A9000D1B003680E4603EBC201154699420246B7
:103AA0000990016003D20998416801314160002DFD
:103AB00000F01E820998C3F3C50400F1280944F6FA
:103AC0009050C0F600000DF144080438CDE901091A
:103AD00004E000BFED1B3E4400F00A82C4F1400741
:103AE000BD4238BF2F4609EB040031463A46FCF789
:103AF0005FFC3C44402CEDD10895099DCDE906764C
:103B000095F82F2095F82B008DF8482095F8352052
:103B10008DF844008DF8522095F8432095F8310037
:103B20008DF85C2095F8492095F8284095F82A10E2
:103B30008DF8662095F85720464695F833808DF825
:103B40004E0095F83F0095F829E095F82E3095F84D
:103B50002CC08DF8451095F8301095F837708DF819
:103B6000474095F8364095F838908DF8702095F8D4
:103B70005D208DF84C8095F839808DF8580095F8C7
:103B800045008DF846E08DF8493095F8343095F8C9
:103B90003BE08DF84BC095F83AC08DF84F1095F882
:103BA0003E108DF8507095F83D708DF8514095F8A5
:103BB0003C408DF8579095F846908DF87A202A6908
:103BC0008DF8568095F847808DF8620095F853007F
:103BD0008DF8533095F842308DF854E095F841E077
:103BE0008DF855C095F840C08DF8591095F84410DF
:103BF0008DF85A7095F84B708DF85B4095F84A40F7
:103C00008DF8619095F84C900E926A698DF86080FD
:103C100095F84D808DF86C0095F859008DF85D3061
:103C200095F848308DF85EE095F84FE08DF85FC06C
:103C300095F84EC08DF8631095F852108DF86470A9
:103C400095F851708DF8654095F850408DF86B905F
:103C500095F85A900D92AA698DF86A8095F85B8064
:103C60008DF8760095F8670095F82DB095F832A09C
:103C70008DF8673095F856308DF868E095F855E086
:103C80008DF869C095F854C08DF86D1095F85810EE
:103C90008DF86E7095F85F708DF86F4095F85E4006
:103CA0008DF8759095F860900C92EA698DF87480A3
:103CB00095F861808DF88000686A8DF84AB08DF8BB
:103CC0004DA08DF8713095F85C308DF872E095F864
:103CD00063E08DF873C095F862C08DF8771095F8A1
:103CE00066108DF8787095F865708DF8794095F8C4
:103CF0006440D5F808A0D5F80CB08DF87F900B92F1
:103D0000D5F82090119A8DF87E80B0460A90002058
:103D10008DF87B308DF87CE08DF87DC08DF88110BA
:103D20008DF882708DF8834008EB00018B6B01F1F8
:103D3000040E4FEA734787EAF34787EA932C9EE81D
:103D4000A0404E6A4FEAF514164484EAB54484EA6A
:103D5000D50466442644CC6B0E644FEA744383EA70
:103D6000F44383EA942C8C6A4FEAF71383EAB7434F
:103D70002C4483EAD70304EB0C052B444FEA764529
:103D800085EAF64585EA9626CD6A4FEAFE1484EA6E
:103D9000BE442F4484EADE04374427448F644FEA4C
:103DA00073470A6987EAF3474B6487EA93230F6BEB
:103DB0004FEAF21686EAB246774486EAD2063B44D8
:103DC00010303344C028CB64AED1514659464946E1
:103DD0000DF12C0C01980A9C9CE882100E9B6FF050
:103DE0000708CDF814A05646DA46CDF810B0CDF845
:103DF0000C9000BF8B464FEAB71181EAF72110966D
:103E00003A4681EA776107EA0B0529EA070650F886
:103E1000087F2C440F9711AF344450F8046C47448A
:103E20002144BC68314401EB040E0EEB0C0101EAA5
:103E300002064E442BEA01052E444FEAB11585EAED
:103E4000F12585EA71650F9C3544FE6825443544AB
:103E500083EA0A0903EA0A06EF18109BD44609EA26
:103E6000030474404FEAB30686EA733686EAB35613
:103E7000344404EB0E0A8CEA030606EA0A060CEA4E
:103E8000030466404FEABA0484EA7A3484EABA54F6
:103E9000264408F108082E44B8F1F80F5C46914614
:103EA000A8D10598DDF8089006EB000E04980DF1F6
:103EB00044080AEB00060E9803440D980CEB00052D
:103EC0000C9807440B980144039802440A980BEBA2
:103ED0000004099800F1100CC0E902E68CE8A80083
:103EE0001C30DDE90765069F16C00024F2E500BF1F
:103EF00051B0BDE8F08F00002DE9F041E4B04FF47F
:103F0000FA711D9142F210711E91FA21C2F6EC4134
:103F10001F9142F6EC41ADF880104FF47A71ADF884
:103F200092100121C5F2010125914FF461612691A2
:103F300001218DF89C100021CDF8A110CDF89D1025
:103F40008DF8A510CDF8A6108DF8731093211AA83E
:103F5000ADF87110242136229A2300F1090600F1F0
:103F60000C05FFF73BFB9DF86A009DF86B40FE28AF
:103F70001AD1FE208DF804009DF86E0031788DF87E
:103F80000600BDF86F008DF80910ADF8070001A814
:103F9000861D3046294622468DF80540FCF708FA72
:103FA000311908204BE000BF022C26D355FA84F1CA
:103FB00011F8011C09BB611ECAB2022A1AD355FAB4
:103FC00081F212F8012CBAB9A11ECAB2022A11D389
:103FD00055FA81F212F8012C72B9E11ECAB2022A16
:103FE00008D355FA81F212F8012C2AB9043CE1B247
:103FF0000129DBD8012400E00C468DF80400DDF82F
:104000006D00B178CDF8070030889DF86C708DF8A0
:104010000B00000A8DF80C0001A800F10A068DF8CB
:104020000D10E2B2304629468DF805408DF8067035
:10403000FCF7BEF9F80756FA84F105D10C20BDF85B
:1040400068200A80002113E0BDF86800DDF88221B5
:104050000880DDF87E01DDF88631C1F802009DF8A8
:104060008A01C1F80620C1F80A3088730D210C209E
:1040700050FA84F040F270080844C2F20008464248
:104080004FF0FF3701AD08F11C0400BFE81941787B
:104090002046FEF7F5F80137F0190130F6D198F80F
:1040A000000018B164B0BDE8F08100BF00208DF8B9
:1040B0008F010DF28F112046FEF7C2F80028F1D1D2
:1040C0009DF88F010DF5C7718DF88E01012088F8DC
:1040D000000040F23830C2F200000122FEF712F870
:1040E00064B0BDE8F08100002DE9F041E4B04FF08C
:1040F000986200211E9203221AA81D918DF87C203F
:104100008DF87310ADF8711009210922322300F1E6
:104110000C0500F10906FFF761FA9DF86A009DF8A9
:104120006B40FE281AD1FE208DF804009DF86E0029
:1041300031788DF80600BDF86F008DF80910ADF8E4
:10414000070001A8861D3046294622468DF8054005
:10415000FCF72EF9311908204BE000BF022C26D3C2
:1041600055FA84F111F8011C09BB611ECAB2022A7A
:104170001AD355FA81F212F8012CBAB9A11ECAB2AB
:10418000022A11D355FA81F212F8012C72B9E11EFC
:10419000CAB2022A08D355FA81F212F8012C2AB9C0
:1041A000043CE1B20129DBD8012400E00C468DF883
:1041B0000400DDF86D00B178CDF8070030889DF877
:1041C0006C708DF80B00000A8DF80C0001A800F14E
:1041D0000A068DF80D10E2B2304629468DF80540EA
:1041E0008DF80670FCF7E4F8F80756FA84F105D16B
:1041F0000C20BDF868200A80002113E0BDF868009B
:10420000DDF882210880DDF87E01DDF88631C1F815
:1042100002009DF88A01C1F80620C1F80A308873AF
:104220000D210C2050FA84F040F270080844C2F2CC
:10423000000846424FF0FF3701AD08F11C0400BFF3
:10424000E81941782046FEF71BF80137F0190130D4
:10425000F6D198F8000018B164B0BDE8F08100BF55
:1042600000208DF88F010DF28F112046FDF7E8FF39
:104270000028F1D19DF88F010DF5C7718DF88E01E1
:10428000012088F8000040F23830C2F2000001221C
:10429000FDF738FF64B0BDE8F081F1EE100A4FF68B
:1042A000FF71C0F2C03120EA010040F04070E1EE41
:1042B000100A704700000000000000000102030423
:1042C000060708090000000001020304000610169A
:1042D000000610160000000032090900000000006E
:1042E000010000007C1F2B00000000000200000005
:1042F000890C0C000000000004000000ED0E0E030D
:104300000C0D000005000000D91C1C01000000007D
:104310000600000068030300000000000700000022
:104320007720200000000000080000007524240011
:10433000000000000B000000590606010400000008
:1043400014000000D614140302030000150000003E
:104350009F0202030001000016000000DC19190092
:104360000000000017000000A81717030405000054
:1043700018000000181E34000000000019000000A2
:1043800017656500000000001A000000AA1618005A
:10439000000000001B000000901A1D00000000003B
:1043A0001C00000043101000000000001D00000071
:1043B000730E1000000000001E000000271C1C00EF
:1043C000000000001F000000F62030000000000088
:1043D00020000000B91C1C000000000021000000AB
:1043E000681C1C000000000022000000ED161600F2
:1043F0000000000023000000F4161600000000007A
:1044000024000000DE15250000000000250000004B
:10441000D406070304050000260000000906070370
:104420000405000027000000FE25260320210000CF
:1044300028000000E6040503020300002900000034
:104440001C040403020300002A0000001C021200E6
:10445000000000002B0000008402030300010000A4
:104460002C000000DD040903020300002D00000001
:10447000E8020303000100002E0000000B0202000E
:10448000000000002F000000990308030001000055
:1044900030000000290D15010C0000003100000063
:1044A000270C140000000000320000004E252503F8
:1044B0001213000033000000C404050302030000CF
:1044C000360000000F1B1B03181900003700000006
:1044D00003191900000000003D000000A748480033
:1044E000000000003E000000B71A1A0000000000A3
:1044F0003F00000077B5B50000000000400000005C
:10450000BFE1E1000000000041000000762A2A001F
:1045100000000000420000009406060302030000B1
:1045200043000000150404000000000045000000E6
:10453000F30B1E010A000000460000007C12260357
:10454000101100004900000026252603202100004C
:104550004A00000014141400000000004B0000008A
:104560009E2323031E1F00004C00000098212103FE
:104570001E1F00004D0000008F030A030809000001
:10458000500000000E04040302030000510000006C
:104590006A161600000000005200000031273303A5
:1045A000242500005300000016252500000000000F
:1045B000540000008F3535033233000055000000F1
:1045C0008C33330000000000560000000535350331
:1045D0003233000057000000963333000000000023
:1045E00059000000E71C1C00000000005A000000F9
:1045F000B7383800000000005B0000003F2A2A00A6
:10460000000000005C0000003621210000000000D6
:104610005D0000002F515100000000006400000008
:10462000AF1A22000000000065000000662075003F
:1046300000000000660000009E20750000000000E1
:1046400067000000D014390000000000680000007E
:104650003820740000000000690000005D3E3F004B
:10466000000000006A0000008A2C2C0000000000FE
:104670006B0000006C404100000000006C00000076
:1046800020545C00000000006D000000B909090022
:10469000000000006E00000054FEFE030102000056
:1046A0006F000000221012031011000070000000C3
:1046B000AE0C0C0000000000710000007C242700FC
:1046C0000000000072000000ED2C2C000000000033
:1046D000730000000440400000000000740000006F
:1046E0004C1618000000000075000000800606034C
:1046F0000405000076000000380E0E0000000000E7
:1047000077000000740C0C030A0B00007800000016
:10471000866161000000000079000000ED020203E4
:10472000000100007A000000CB020203000100003B
:104730007B000000FA717103000100007C000000A2
:1047400057233900000000007D000000CB06060062
:10475000000000007E000000DC4F51034F500000BD
:104760007F000000192323000000000080000000EB
:10477000E223230000000000810000002E16180034
:1047800000000000820000001D0D0D000000000070
:1047900083000000DFFFFF00000000008400000035
:1047A000550E2700000000008500000006121200D0
:1047B0000000000086000000E52B2B000000000038
:1047C00087000000CB0808000000000088000000FF
:1047D000011616000000000089000000C30E100042
:1047E000000000008A0000006D2478000000000036
:1047F0008B000000A82B2B03292A00008C0000004E
:10480000B5292900000000008D0000002F202000A5
:10481000000000008E00000048F3F30000000000DC
:104820008F000000830E10000000000090000000C8
:104830007F5D5D000000000092000000676464007E
:1048400000000000930000009A24360000000000E1
:1048500094000000B23C4E000000000095000000F3
:10486000C81E3C0000000000A2000000BD080900B6
:1048700000000000C0000000242C360000000000F2
:10488000E1000000D041490000000000E600000007
:10489000A32A2A0000000000E70000006928280081
:1048A00000000000E8000000973F41000000000009
:1048B000E900000023B6B60000000000EA00000096
:1048C0009628280000000000EB000000B32A2A0010
:1048D00000000000F10000005A202000000000004D
:1048E000F200000068343C0000000000F30000000B
:1048F00055353D0134000000F40000005F0606005D
:1049000000000000F500000082020200000000002C
:10491000F6000000B826260000000000F7000000A6
:104920005113130000000000F800000008FEFE0311
:1049300003040000F9000000CC2424000000000063
:10494000FA000000311E1E0000000000FB00000005
:10495000AA12120000000000FC0000002C1212003D
:1049600000000000FD00000053333600000000008E
:10497000FE0000002E0909000000000000010000F8
:10498000472A2A03080900000101000083090900E1
:104990000000000002010000BB20E803000100004D
:1049A000030100005CEBED000000000004010000CA
:1049B00092050E000000000005010000B31B3D0041
:1049C00000000000060100000C12170000000000AB
:1049D0000701000085FFFF00000000000801000043
:1049E000311C200000000000090100001A10140012
:1049F000000000000A010000C1FFFF0302030000E5
:104A00000B01000023FFFF03020300000C01000064
:104A10000E040403020300000D0100006DD5D70051
:104A2000000000000E0100003B1314000000000015
:104A30000F010000163435000000000013010000D3
:104A40007E1F20000000000014010000123132001F
:104A500000000000150100003E1E1E0000000000C6
:104A6000180100004621210000000000190100008B
:104A7000300D0D00000000001A0100007B2323030D
:104A8000202100001B0100004A909100000000005E
:104A90001C010000632020031E1F00001D010000F8
:104AA00089283103262700001E010000D235390372
:104AB000323300001F010000011717031415000016
:104AC0002001000014171703141500002201000034
:104AD000FB2E2E0000000000230100000A393900DF
:104AE000000000002B0100001360620000000000C5
:104AF0002C010000D9161600000000002D01000056
:104B0000F33A3A0000000000360100001C111100C9
:104B100000000000370100005F7474000000000016
:104B200040010000F31414030203000041010000DF
:104B3000580202030001000042010000F3959500B5
:104B400000000000430100004E93930300010000A9
:104B50004401000084929200000000004A0100001D
:104B6000179EA700000000004B0100005BE6E90073
:104B7000000000004C010000ECEFEF00000000001E
:104B80004D010000E76D6D00000000004E010000C7
:104B9000480A0A00000000004F010000E118180058
:104BA0000000000050010000F55454000000000017
:104BB00053010000C705050000000000540100007B
:104BC00063464600000000005E010000E814FC009F
:104BD00000000000680100000B191900000000002F
:104BE000720100004B576D000000000073010000CF
:104BF0000A1A1A0000000000740100001A8C8C00D0
:104C00000000000075010000752A2A000000000065
:104C100077010000FB8C8C00000000007C0100008C
:104C2000E814140000000000810100009385850352
:104C3000020300008201000084101003040500003C
:104C400083010000044848030405000084010000BB
:104C50000825250320210000860100009CEEEE00BF
:104C6000000000008B01000000D4D4000000000010
:104C70008C01000032A0A000000000008D010000A7
:104C8000B66C6C0000000000900100006EFEFE0398
:104C90000405000091010000B706060304050000AA
:104CA0009A010000A0353500000000009B010000C3
:104CB0006A030300000000009C01000021060603B7
:104CC000040500009D0100004D07070304050000D6
:104CD000B3010000862E2E0000000000B401000089
:104CE000C109090000000000B50100001E0101001B
:104CF00000000000B8010000422323000000000073
:104D00002823000071898900000000002D23000085
:104D1000752222000000000064320000722C2C0377
:104D20000001000065320000FE3B3B031E1F000037
:104D3000663200008C353503040500006732000040
:104D4000F92E2E0300010000683200004D363603B4
:104D50001C1D000069320000312B2B0300010000F4
:104D6000733200005EF9F9030001000076320000A2
:104D70008B3333000000000077320000071212036B
:104D8000101100007832000014050500000000003A
:104D9000982F8A4291443771CFFBC0B5A5DBB5E9A6
:104DA0005BC25639F111F159A4823F92D55E1CAB1A
:104DB00098AA07D8015B8312BE853124C37D0C55A8
:104DC000745DBE72FEB1DE80A706DC9B74F19BC1F0
:104DD000C1699BE48647BEEFC69DC10FCCA10C24E0
:104DE0006F2CE92DAA84744ADCA9B05CDA88F976C4
:104DF00052513E986DC631A8C82703B0C77F59BF2E
:104E0000F30BE0C64791A7D55163CA066729291459
:104E1000850AB72738211B2EFC6D2C4D130D3853F6
:104E200054730A65BB0A6A762EC9C281852C7292B8
:104E3000A1E8BFA24B661AA8708B4BC2A3516CC7E6
:104E400019E892D1240699D685350EF470A06A101F
:104E500016C1A419086C371E4C774827B5BCB0346E
:104E6000B30C1C394AAAD84E4FCA9C5BF36F2E680C
:104E7000EE828F746F63A5781478C8840802C78C9B
:104E8000FAFFBE90EB6C50A4F7A3F9BEF27871C69E
:104E9000B04E00080000002010000000C40100080F
:104EA000C04E00081000002080110000E001000842
:104EB00001000000100000000024F40000000000C9
:040000050800018965
:00000001FF
